:020000040800F2
:10000000100800202902000813120008B711000888
:1000100011120008D9020008E919000800000000C8
:10002000000000000000000000000000371200087F
:10003000DB0200080000000035120008CD120008A5
:10004000430200084302000843020008430200087C
:10005000430200084302000843020008430200086C
:10006000430200084302000843020008430200085C
:10007000430200084302000843020008430200084C
:10008000430200084302000843020008430200083C
:10009000430200084302000843020008430200082C
:1000A000430200084302000843020008430200081C
:1000B000430200086D1300084302000843020008D1
:1000C00043020008430200084302000843020008FC
:1000D00043020008BD19000843020008430200085B
:1000E00043020008430200084302000843020008DC
:1000F00043020008430200084302000843020008CC
:1001000043020008430200084302000843020008BB
:1001100043020008430200084302000843020008AB
:10012000430200084302000843020008430200089B
:10013000430200084302000843020008430200088B
:10014000430200084302000843020008430200087B
:10015000430200084302000843020008430200086B
:10016000430200084302000843020008430200085B
:100170004302000843020008430200080000000098
:10018000430200084302000800F002F800F03CF8C7
:100190000AA090E8000C82448344AAF10107DA45E2
:1001A00001D100F031F8AFF2090EBAE80F0013F0F8
:1001B000010F18BFFB1A43F0010318475419000040
:1001C00074190000103A24BF78C878C1FAD85207D1
:1001D00024BF30C830C144BF04680C6070470000C1
:1001E0000023002400250026103A28BF78C1FBD840
:1001F000520728BF30C148BF0B6070471FB501F0E0
:1002000075FC1FBD10B510BD00F033F81146FFF7A7
:10021000F5FF01F01DFC00F051F803B4FFF7F2FF09
:1002200003BC01F0E2FB0000094880470948004791
:10023000FEE7FEE7FEE7FEE7FEE7FEE7FEE7FEE796
:10024000FEE7FEE704480549054A064B70470000F3
:10025000D1120008890100081002002010080020B7
:10026000100400201004002070477047704770474A
:100270007047754600F02CF8AE46050069465346B7
:1002800020F00700854618B020B5FFF7DBFFBDE87A
:1002900020404FF000064FF000074FF000084FF0ED
:1002A000000B21F00701AC46ACE8C009ACE8C0097E
:1002B000ACE8C009ACE8C0098D46704710B50446EB
:1002C000AFF300802046BDE81040FFF7A6BF000056
:1002D00000487047AC010020FEE7704790F83510E9
:1002E000022903D08021416501207047052180F853
:1002F00035100068016821F001010160002070479D
:100300002DE9F84FDFF88C91002209F1040A0AF177
:10031000040B4FF00F080BF1040E01260B689640FA
:100320003340B34271D14C68022C01D0122C11D150
:10033000D40800EB84073D6A5407E40E08FA04FC75
:1003400025EA0C05D1F810C00CFA04FC4CEA050CA7
:10035000C7F820C007685400032591F804C0A540E1
:100360000CF0030CAF430CFA04FC4CEA070CC0F889
:1003700000C04F68012F05D0022F03D0112F01D0EC
:10038000122F11D18768D1F80CC0AF430CFA04FCCE
:100390004CEA070CC0F808C04768B7430E79C6F3AB
:1003A000001696403E434660C668AE438D68A54041
:1003B0003543C5604C68E40065D5374C256845F485
:1003C00080452560246822F0030504F480440094ED
:1003D000324C2E19D6F808789407250F08FA05F440
:1003E000A7432F4CA04201D1002424E02D4CA04271
:1003F00001D101241FE02C4CA04201D102241AE0BB
:100400002A4CA04202D1032415E03CE0284CA04233
:1004100001D104240FE0274CA04201D105240AE0B9
:10042000254CA04201D1062405E0244CA04201D174
:10043000072400E00824AC403C43C6F80848D9F83B
:1004400000404D464E689C43F60300D51C432C608B
:10045000DAF8004055464E689C43B60300D51C436D
:100460002C60DBF800405D464E689C43F60200D5E8
:100470001C432C60DEF8004075464E689C43B60273
:1004800000D51C432C60521C102AFFF446AFBDE877
:10049000F88F0000003C0140443802400030014029
:1004A000000002400004024000080240000C02402C
:1004B000001002400014024000180240001C0240DC
:1004C0000AB1816170470904FBE700000148006838
:1004D000000C7047002004E00148006870470000ED
:1004E0000400002002480168491C016070470000B8
:1004F00004000020094810B5016841F40071016052
:10050000016841F480610160052000F049F80F2086
:1005100000F006F800F018F8002010BD003C024082
:1005200010B5044607484FF47A710068B0FBF1F04B
:1005300000F002FB00222146501E00F011F80020BE
:1005400010BD000000000020704700F01F020121D4
:1005500091404009800000F1E020C0F80011704790
:10056000F0B40E4B1B68C3F30223C3F10704042C41
:1005700000D904241D1D072D01D2002300E0DB1E3D
:10058000012606FA04F56D1E0D409D409E40761E24
:10059000164045EA0601F0BC00F03CBE0CED00E060
:1005A000064A00F0070110684FF6FF03184040EAC2
:1005B0000120034908431060704700000CED00E083
:1005C0000000FA052DE9F047DFF85C9104460E467D
:1005D000D9F8000000F00F01F0B28046B14207D216
:1005E00089F80000D9F8000000F00F00B04271D186
:1005F00020784E4F800705D53868A16820F0F000BC
:10060000084338602078C00756D0484960680839E8
:1006100001281AD002281BD0032819D0096889079D
:10062000002957DA396821F0030101433960FFF7E7
:1006300053FF0546606841F28831012811D0022835
:100640001CD003288A4625D032E009688903E7E7F1
:1006500009688901E4E7FFF73FFF411B514501D9D4
:1006600023E08A463868C0F381000128F3D123E0F3
:10067000FFF732FF411B514501D916E08A46386821
:10068000C0F381000228F3D116E0FFF725FF411BDC
:1006900051450AD83868C0F381000328F5D10BE032
:1006A000FFF71AFF411B514502D90320BDE8F0872F
:1006B000386810F00C0FF3D1D9F80010484601F05B
:1006C0000F01B14208D980F80080006800F00F00E7
:1006D000B04201D00120E9E72078400705D538680D
:1006E000E16820F4E050084338602078000706D520
:1006F0003868216920F4604040EAC100386000F0A9
:100700004BF83968F02292FAA2F201F0F001B2FA45
:1007100082F2D140064A515CC840064908600F2069
:10072000FFF7FEFE0020C1E7003C0240083802400F
:10073000F61A000800000020084809490068096806
:100740004FF4E05292FAA2F201F4E051B2FA82F2CE
:10075000D140044A515CC8407047000000000020AE
:1007600008380240061B0008084809490068096863
:100770004FF4604292FAA2F201F46041B2FA82F2BE
:10078000D140044A515CC84070470000000000207E
:1007900008380240061B000830B51948006810F000
:1007A0000C01184812D0184C04290ED008290DD17C
:1007B000134A121F1168136801F03F015D0247F6EA
:1007C000C07304D5B4FBF1F003E0204630BDB0FBAC
:1007D000F1F01168194093FAA3F3B3FA83F3D94007
:1007E000484311684FF4403292FAA2F201F44031CA
:1007F000B2FA82F2D140491C4900B0FBF1F030BDA1
:10080000083802400024F40040787D012DE9F84FBB
:1008100004460078DFF8F4A2BD4DC00748D0DAF8EE
:1008200000105046C1F38101012908D00068C0F3CF
:10083000810002280AD1281D0068400206D52868D8
:10084000800335D56068002870D031E06068B0F56D
:10085000803F10D0B0F5A02F286810D020F4803051
:100860002860286820F4802028606068A0B1FFF725
:1008700033FE06460CE0286840F48030F4E740F48C
:1008800080202860F7E7FFF727FE801B642873D8D5
:1008900028688003F7D50BE0FFF71EFE064604E04C
:1008A000FFF71AFE801B6428F1D828688003F7D46C
:1008B0002078DFF8608280074FF0010B4FF00009CD
:1008C00043D5DAF80010504611F00C0F4FF0F8073E
:1008D00009D00068C0F3810002280BD18B48001FAB
:1008E0000068400206D42868800713D5E068012814
:1008F0001CD10FE0E068D0B1C8F800B0FFF7ECFD04
:10090000064604E0FFF7E8FD801B0228BFD82868F0
:100910008007F7D5286897FAA7F22169B2FA82F220
:1009200020F0F8009140084328600EE0EBE0C8F8A2
:100930000090FFF7D1FD064604E0FFF7CDFD801BD8
:10094000022819D828688007F7D42078000722D514
:100950006E4F714861696C3779B1C0F800B0FFF72C
:10096000BBFD064604E0FFF7B7FD801B022803D855
:1009700038688007F7D50EE079E0C0F80090FFF7FF
:10098000ABFD064604E0FFF7A7FD801B02286ED8EA
:1009900038688007F7D42078400750D55B48383056
:1009A000016841F08051016000685C4F00F08050A8
:1009B0000090386840F480703860FFF78DFD06467F
:1009C00004E0FFF789FD801B022850D83868C00575
:1009D000F7D54E4FA068683701280FD00528386832
:1009E00010D020F001003860386820F00400386032
:1009F000A068B0B1FFF770FD06460EE0386840F021
:100A00000100F4E740F004003860F7E7FFF764FD09
:100A1000811B41F2883081426DD838688007F5D556
:100A20000DE0FFF759FD064606E0FFF755FD811B77
:100A300041F2883081425ED838688007F5D4A069D9
:100A4000F0B3DAF80010C1F3810102295BD002286B
:100A5000484605D0C8F86000FFF73EFD04464DE06B
:100A60004746C8F86000FFF737FD064605E042E05C
:100A7000FFF732FD801B02283DD828688001F7D49B
:100A8000D4E90701084347F6C07292FAA2F2616AFC
:100A9000B2FA82F29140A26A4FF0FF3303EB5202A6
:100AA0004FF4403393FAA3F3B3FA83F39A4011431C
:100AB0004FF0706292FAA2F20843B2FA82F200E0BA
:100AC0001FE0E16A914008431049091F0860C7F818
:100AD00060B0FFF701FD044604E0FFF7FDFC001BDA
:100AE000022808D828688001F7D50AE0FFF7F4FC4F
:100AF000001B022802D90320BDE8F88F2868800176
:100B0000F4D40020F8E70120F6E70000083802409E
:100B10000038024000004742800E4742007000400B
:100B20004FF0E0210428086903D020F00400086198
:100B3000704740F00400FAE710B5401EB0F1807F26
:100B400001D3012010BD4FF0E02460610F21601738
:100B500000F060FB0020A06107202061002010BD94
:100B60007047704710B5040003D094F8390010B1F5
:100B700007E0012010BD002084F83800204600F076
:100B80000DF8022084F83900211D206800F00AFCCD
:100B9000012084F83900002010BD000008B500686D
:100BA0000B49884212D10B48016841F002010160F3
:100BB0000068032200F00200009001211D20FFF7D1
:100BC000CFFCBDE808401D20FFF7BFBC08BD0000FA
:100BD00000040040403802400168CA6842F0010247
:100BE000CA600068016841F001010160002070479F
:100BF000704770B50446006801694FF00005C943AD
:100C0000890715D4C168C943890711D4E91E016158
:100C100001202076206880698007204602D0FFF7F7
:100C2000E7FF04E000F098F8204600F043F925764D
:100C300020680169C943490717D4C168C9434907F6
:100C400013D46FF0040101610220207620688069CE
:100C500010F4407F204602D0FFF7CAFF04E000F006
:100C60007BF8204600F026F9257620680169C94303
:100C7000090716D4C168C943090712D46FF00801E7
:100C80000161042020762068C0698007204602D0D8
:100C9000FFF7AEFF04E000F05FF8204600F00AF92D
:100CA000257620680169C943C90617D4C168C943BC
:100CB000C90613D46FF01001016108202076206866
:100CC000C06910F4407F204602D0FFF791FF04E096
:100CD00000F042F8204600F0EDF825762068016922
:100CE000C943C90708D1C168C943C90704D1891ECE
:100CF0000161204600F0FCF820680169C94309063B
:100D000009D4C168C943090605D46FF080010161A7
:100D10002046FFF725FF20680169C943490609D429
:100D2000C168C943490605D46FF0400101612046FE
:100D300000F0F0F820680169C94389060BD4C16846
:100D4000C943890607D46FF0200101612046BDE840
:100D50007040FFF706BF70BD704770B5044690F84D
:100D600038000D4601280DD0012684F83860022095
:100D700084F8390042B1042A18D0082A2AD00C2A53
:100D80004DD139E0022070BD206800F077FB20686B
:100D9000816941F0080181612068816921F00401C5
:100DA0008161206881692A69114311E0206800F09F
:100DB00091FB2068816941F400618161206881694B
:100DC00021F480618161206881692A6941EA0221F8
:100DD000816124E0206800F0AFFB2068C16941F028
:100DE0000801C1612068C16921F00401C161206866
:100DF000C1692A69114311E0206800F0CDFB206829
:100E0000C16941F40061C1612068C16921F4806158
:100E1000C1612068C1692A6941EA0221C16184F87F
:100E20003960002084F8380070BD10B5040003D08C
:100E300094F8390010B107E0012010BD002084F8BB
:100E40003800204600F00CF8022084F83900211DFB
:100E5000206800F0A7FA012084F83900002010BDB6
:100E6000124800B5016887B041F4807101600068E4
:100E700000F4807005900D481038016841F02001A1
:100E800001600068694600F0200005904FF4007092
:100E9000009002200190012002900320039009207D
:100EA00004900348FFF72CFA07B000BD4038024019
:100EB000001402407047000010B50446006801228B
:100EC00000F0D0FA08482168814202D007488142E8
:100ED00003D1486C40F4004048642068016841F048
:100EE00001010160002010BD00000140000401402C
:100EF0000649884206D10649D1F8840218B100207B
:100F0000C1F8840270470120FAE7000018010020B0
:100F1000000041427047704710F8391F407808437D
:100F20007047000070B5026804461068D1685369C4
:100F300010F00F0F50D003F0010501F49076354307
:100F40005DD0C20705D0CA0503D5E26B42F00102AD
:100F5000E263420705D5DA0703D0E26B42F00202F2
:100F6000E263820705D5DA0703D0E26B42F00402A0
:100F7000E263020705D5DA0703D0E26B42F008020C
:100F8000E263E26B002A33D0800604D5880602D5DE
:100F9000204600F045FB20684069E16BC0F38010FB
:100FA000090700D428B3204600F02CFB20684169D3
:100FB00049061AD5416921F040014161606BA0B139
:100FC0001B490165606BFFF789F9002810D0606B41
:100FD000016DBDE870400847830610D58B060ED51D
:100FE0002046BDE8704000F01BBB2046FFF793FF92
:100FF00070BD2046FFF78FFF0020E06370BD030641
:1010000006D50B0604D52046BDE8704000F0A4BC10
:101010004006F3D54806F1D5D168204621F04001BD
:10102000D160202184F8391000F0C4F870BD0000B0
:10103000F515000870B5040004D094F839000025B7
:1010400010B106E0012070BD84F83850204600F051
:1010500023F8242084F839002068C16821F4005165
:10106000C160204600F022FB2068016921F4904114
:1010700001612068416921F02A0141612068C1684D
:1010800041F40051C160E563202084F8390084F800
:101090003A00002070BD000010B500681A4986B003
:1010A00088422FD11948016841F0010101600068B0
:1010B00000F00100059015481430016841F010015E
:1010C00001600068012100F0100005904FF40070ED
:1010D00000900220CDE90101039007200C4C049000
:1010E00069462046FFF70CF9211500916946204614
:1010F000FFF706F92520FFF728FA032211462520DD
:10110000FFF72EFA06B010BD001001403038024043
:101110000000024090F83A30202B1DD1D1B1CAB165
:1011200090F83830012B17D081628285C28500216A
:10113000C163222280F83A2080F8381001684A6999
:1011400042F001024A610068C16841F49071C160D7
:1011500000207047012070470220704730B50068BA
:10116000114988420CD1114A5088010408D4114613
:10117000440409784FF0000306D50A2901D05380B2
:1011800030BD40F400400DE00D2909D0C0F30D043E
:10119000074D401C80B229555080C728EFD830BD7C
:1011A00040F48040508030BD001001400C00002011
:1011B000100000207047FEE7134810B5016886B0A4
:1011C00041F0040101600068104C00F0040005903B
:1011D00007200090012001900290032003906946AF
:1011E0002046FFF78DF8012211462046FFF768F9E7
:1011F000012202212046FFF763F901220421204643
:10120000FFF75EF906B010BD30380240000802401A
:10121000FEE770470907090E002806DA00F00F0004
:1012200000F1E02080F8141D704700F1E02080F804
:10123000001470477047704770B5214C92B000257C
:10124000266846F080562660246804F08054119485
:101250001C4C266846F48046266024680DF1240C58
:1012600004F4804411940124009424040194022481
:1012700006948CE80D006605CDE907616846FFF726
:10128000C5FA00B1FEE70CA90F2081E831004FF448
:10129000A0500F904FF48050109005210CA8FFF73C
:1012A00091F900B1FEE7FFF711F941F2010188421F
:1012B00004D10548016841F48071016012B070BD2D
:1012C0004038024000700040003C0240FFF70AB97D
:1012D0001048016841F4700101600F48016841F055
:1012E000010101600C4A00210832116002680B4BB9
:1012F0001A400260031D0A4A1A60026822F4802222
:10130000026005480C3001600249580680390860C7
:101310007047000088ED00E000380240FFFFF6FE55
:101320001030002410B5104A04460E48C2E90001EE
:101330000020C2E9020410611046FFF776FD0A4959
:1013400060203C310022086060084860022088600C
:101350000548FFF702FDBDE8104000210248FFF7F5
:10136000ABBD000000200040540100200148FFF701
:1013700040BC000018010020094A10B5074BC2E923
:1013800000310021C2E9021010461161FFF7EAFBAB
:10139000BDE810400248FFF71FBC000000040040F9
:1013A00018010020F0B50268234D244E244FDFF8C9
:1013B00094C0254B4FF0804EA84209D0704507D00D
:1013C000B04205D0B84203D0604501D0984203D165
:1013D00022F070044A682243A8421BD0704519D0FD
:1013E000B04217D0B84215D0604513D0984211D002
:1013F000164CA0420ED0164CA0420BD0154CA04269
:1014000008D0154CA04205D0144CA04202D0144C78
:10141000A04203D122F44074CA68224302608A6861
:10142000C2620A688262A84201D0984201D1096969
:10143000016301214161F0BD000001400004004052
:1014400000080040000C0040000401400040014042
:10145000004401400048014000180040001C0040CA
:101460000020004010B50123046A8B409C430462B5
:10147000036A8A401343036210BD000030B5026A5C
:1014800022F001020262056A426883690C6823F057
:1014900073031C438B6825F002052B430B4DA842B8
:1014A00002D00B4DA8420BD123F00805CB6822F4E3
:1014B00040722B434D6923F0040315438A692A4384
:1014C0004260846149684163036230BD00000140AD
:1014D0000004014030B5026A22F010020262036A81
:1014E000426884690D6824F4E64444EA05248D6862
:1014F00023F0200343EA05130D4DA84202D00D4D01
:10150000A8420ED1CD6823F0800343EA05134D694C
:1015100022F4406242EA85028D6923F0400342EAE8
:1015200085024260846149688163036230BD0000C6
:10153000000001400004014030B5026A22F48072CC
:101540000262036A4268C46923F4007324F07305DD
:101550000C682C438D6843EA05230D4DA84202D048
:101560000C4DA8420ED1CD6823F4006343EA052355
:101570004D6922F4405242EA05128D6923F48063DA
:1015800042EA05124260C4614968C163036230BD2A
:10159000000001400004014030B5026A22F480528C
:1015A0000262036A4268C4690D6824F4E64444EAAE
:1015B00005248D6823F4005343EA0533084DA842FF
:1015C00002D0084DA84204D14D6922F4804242EA7B
:1015D00085124260C46149680164036230BD000045
:1015E00000000140000401400149486370470000C9
:1015F0000020004010B5806B0021C185C184FFF739
:101600008AFC10BD0168CA6822F49072CA60016841
:101610004A6922F001024A61202180F83A1070479D
:1016200010B590F83A10222901D0022010BD81682F
:10163000B1F5805F11D00169002901681FD04968A8
:1016400001F07F03816A4A1C82620B70C18D491EC2
:101650000904090CC18518D026E00269816A002AB4
:101660000268526805D0D2B20A80816A491C816240
:10167000ECE7C2F308020A80816A891CF7E74A682E
:10168000816A4B1C83620A70E0E70168CA6822F431
:101690009072CA6001684A6922F001024A61202101
:1016A00080F83A10FFF75AFD002010BD2DE9F041F7
:1016B00004460068016921F44052E1681143016168
:1016C0002068C16849F20C6291432369A268E56908
:1016D0001A4363692B431A430A43C2602068416975
:1016E000A26921F440710A434261E0696425B0F5C2
:1016F000004F974A974920684FF032083FD0884200
:1017000001D090427CD1FFF72FF800EBC00101EB34
:10171000001061688900B0FBF1F6FFF725F800EBD7
:10172000C00101EB001061688900B0FBF1F0B0FB73
:10173000F5F06FF01801484306EB800108EB01104B
:10174000B0FBF5F000F0F006FFF70EF800EBC0017B
:1017500001EB001061688900B0FBF1F0B0FBF5F01F
:1017600006EB0016FFF700F800EBC00101EB0010DC
:1017700061688900B0FBF1F7FEF7F6FFD2E088421E
:1017800001D090423DD1FEF7EFFF00EBC00101EB2D
:10179000001061684900B0FBF1F0B0FBF5F0060104
:1017A000FEF7E2FF00EBC00101EB001061684900A9
:1017B000B0FBF1F7FEF7D8FF00EBC00101EB001022
:1017C00061684900B0FBF1F0B0FBF5F06FF0180173
:1017D000484307EB800108EBC100B0FBF5F000F0D7
:1017E000F80006EB4006FEF7BFFF00EBC00101EB7F
:1017F000001061684900B0FBF1F7FEF7B5FF3CE06F
:1018000055E0FEF799FF00EBC00101EB00106168A5
:101810004900B0FBF1F0B0FBF5F00601FEF78CFFDC
:1018200000EBC00101EB001061684900B0FBF1F76B
:10183000FEF782FF00EBC00101EB00106168490078
:10184000B0FBF1F0B0FBF5F06FF01801484307EB87
:10185000800108EBC100B0FBF5F000F0F80006EBEA
:101860004006FEF769FF00EBC00101EB0010616864
:101870004900B0FBF1F7FEF75FFF00EBC00101EBA1
:10188000001061684900B0FBF1F0B0FBF5F06FF0BB
:101890001801484307EB800108EBC100B0FBF5F0ED
:1018A00000F00700216830448860BDE8F081FEF751
:1018B00043FF00EBC00101EB001061688900B0FB41
:1018C000F1F6FEF739FF00EBC00101EB0010616893
:1018D0008900B0FBF1F0B0FBF5F06FF01801484360
:1018E00006EB800108EB0110B0FBF5F000F0F0060C
:1018F000FEF722FF00EBC00101EB001061688900D8
:10190000B0FBF1F0B0FBF5F006EB0016FEF714FFAC
:1019100000EBC00101EB001061688900B0FBF1F73A
:10192000FEF70AFF00EBC00101EB001061688900BF
:10193000B0FBF1F0B0FBF5F06FF01801484307EB96
:10194000800108EB0110B0FBF5F000F00F00A9E7F3
:10195000001401400010014090F83910212901D0F5
:10196000022070478168B1F5805F016A0BD04A1C84
:101970000262026809785160C18C491E0904090C91
:10198000C1840ED017E009880268C1F308015160D4
:1019900001690029016A02D0491C0162ECE7891C37
:1019A000FBE70168CA6822F08002CA600068C1686B
:1019B00041F04001C16000207047000010B50848A8
:1019C000FFF7B0FA0648FFF7A7FA2028FAD101225C
:1019D00004490348FFF79EFB0028F8D110BD000022
:1019E000D80000200C000020FEE7704710B5044628
:1019F0000420FFF795F80148046010BD080000209E
:101A000070B5054600244FF47A7603E0304600F0C6
:101A100005F8641CAC42F9D370BD000070B54FF0FE
:101A2000E02500216C69094AAB6912685043AA6934
:101A30009A42FCD002D2A3EB020302E0A4EB02061E
:101A40003344194413468142F1D370BD080000208D
:101A500001250024FEF74EFD0723022208214FF442
:101A6000A870FFF7E9FBA820FFF7C0FF4FF4E130B3
:101A700000F020F8FFF7A0FB42F2CF0141F28730DF
:101A8000FFF77AFC532140F2F310FFF74BFC4FF4C1
:101A900096760A20FFF7B4FF0DB1641C00E0641EC7
:101AA000A4B2B44200D9002504B901252046FFF7AD
:101AB0009BFDEEE70B4910B5094AC1E90020002063
:101AC0008860C860086188610C2048610846FFF79B
:101AD000B1FABDE81040012203490248FFF71ABBE2
:101AE00000100140D80000200C0000204FF0407092
:101AF000E1EE100A70470000000000000000010243
:101B000003040607080900000000010203040000A6
:101B1000301B00080000002010000000C401000875
:101B2000401B00081000002000080000E001000831
:101B30000024F4000000000000000000000000008D
:040000050800018965
:00000001FF
