:020000040800F2
:10000000480D002089020008531B00086B190008E6
:10001000511B0008B1080008B125000800000000CD
:10002000000000000000000000000000871F000822
:10003000E908000800000000851F00081D200008D6
:10004000A3020008A3020008A3020008A3020008FC
:10005000A3020008A3020008A3020008A3020008EC
:10006000A3020008A3020008A3020008A3020008DC
:10007000A3020008A3020008A3020008A3020008CC
:10008000A3020008A3020008A3020008A3020008BC
:10009000A3020008A3020008A3020008A3020008AC
:1000A000A3020008A3020008A3020008A30200089C
:1000B000A3020008A302000875200008A30200089C
:1000C000A3020008A3020008A3020008A30200087C
:1000D000A302000885250008A3020008A302000867
:1000E000A3020008A3020008A3020008A30200085C
:1000F000A3020008A3020008A3020008A30200084C
:10010000A3020008A3020008A3020008A30200083B
:10011000A3020008A3020008A3020008A30200082B
:10012000A3020008A3020008A3020008A30200081B
:10013000A3020008A3020008A3020008A30200080B
:10014000A3020008A3020008A3020008A3020008FB
:10015000A3020008A3020008A3020008A3020008EB
:10016000A3020008A3020008A3020008A3020008DB
:10017000A3020008A3020008A30200080000000078
:10018000A3020008A302000800F002F800F06DF8D6
:100190000AA090E8000C82448344AAF10107DA45E2
:1001A00001D100F062F8AFF2090EBAE80F0013F0C7
:1001B000010F18BFFB1A43F0010318472453000036
:1001C000445300000A444FF0000C10F8013B13F0B8
:1001D000070408BF10F8014B1D1108BF10F8015BA0
:1001E000641E05D010F8016B641E01F8016BF9D193
:1001F00013F0080F1EBF10F8014BAD1C0C1B09D1EA
:100200006D1E58BF01F801CBFAD505E014F8016B5B
:1002100001F8016B6D1EF9D59142D6D370470000ED
:100220000023002400250026103A28BF78C1FBD8FF
:10023000520728BF30C148BF0B607047642900F0E7
:10024000A180752900F09E80782900F0D78063296D
:1002500000F02B82732900F03082002070471FB518
:1002600003F000FC1FBD10B510BD00F059FA114697
:10027000FFF7F5FF02F0E2F900F077FA03B4FFF7B9
:10028000F2FF03BC02F09CF9094880470948004787
:10029000FEE7FEE7FEE7FEE7FEE7FEE7FEE7FEE736
:1002A000FEE7FEE704480549054A064B7047000093
:1002B000212000088901000848070020480D00207F
:1002C0004809002048090020704700000FB4044985
:1002D00010B503AA029800F0F5F910BC5DF814FB04
:1002E0001000002070B5044685690068C10601D57C
:1002F000302600E02026C00707D070BDD4E90121D8
:1003000030469047206A401C20626D1EF6D570BDB5
:1003100070B5044685690078C00707D170BDD4E97F
:10032000012120209047206A401C20626D1EF6D5D6
:1003300070BD70B50C460546012A05D028788006A8
:1003400000D5EA69002302E0012305E05B1C93422B
:1003500002D2E05C0028F9D1A869E618C01AA861A9
:10036000286A184428622846FFF7BCFF04E0D5E954
:10037000012114F8010B9047B442F8D32846FFF747
:10038000C7FF70BD2DE9F0410646002410687529AD
:10039000314616A510D0AFF30080002802DA4042A3
:1003A00013A507E031688A0701D512A502E04907C5
:1003B00004D511A5012401E0AFF3008000210A2239
:1003C00006F1240709E0B0FBF2FCB0FBF2F302FBFC
:1003D0001C00303078541846491C0028F3D12346BD
:1003E0002A463046BDE8F04100F0FCB800000000AD
:1003F0002D0000002B0000002000000070B5044616
:100400000D4621461068AFF300802188090502D50A
:100410000F4A7A4402E00E4A7A440E32002104F177
:10042000240305E000F00F060009965D5E54491CA8
:100430000028F7D120780023000704D5702D02D0C2
:1004400009B1022311322046BDE8704000F0CAB85D
:10045000FA4F00002DE9F05F894604464FF0000A8C
:10046000DFF874B1FB44C0F820A02046E16888475B
:10047000002874D0252806D0D4E901219047206AAD
:10048000401C2062F1E700265F462046E16888476D
:100490002028054607DB312D05D2781910F8200CED
:1004A00008B10643F1E7B00701D526F00406C4F809
:1004B0001CA00027C4F818A02A2D09D0284602F055
:1004C00078F838B304EB8708303DC8F8185019E0C5
:1004D00059F8041B204604EB87029161E1688847C4
:1004E000012F054618D1E069002820DA26F0200601
:1004F0001DE0D8F8180000EB800005EB4000303814
:10050000C8F818002046E1688847054602F051F80F
:100510000028EED1012F0AD02E2D08D12046E16807
:1005200088477F1C0546022F46F02006C4DBA069E1
:10053000002803DA404246F00106A061F00701D02E
:1005400026F010066C2D0BD0682D09D04C2D39D01B
:100550006A2D35D0742D35D07A2D33D016E038E0A1
:10056000E1682F4620468847B842054609D16C2FDE
:1005700026D04FF48060E168064320468847054650
:1005800004E06C2F1AD04FF4807006430DB3A5F130
:100590004100192802D8203546F400664A4629460B
:1005A000204626604E46FFF749FE80B101280BD059
:1005B000F61D26F0070000F1080956E74020E4E7A1
:1005C0008020D8E70020D6E706F104094DE7284649
:1005D00052E7206ABDE8F09FD04F00007047704797
:1005E000704770472DE9F0470D46994692460446FC
:1005F00000F124080168880604D5E06921F01001A3
:10060000216000E00120A84201DD471B00E0002737
:10061000A1697A1902EB0900081AA0612078C006C6
:1006200002D42046FFF75EFE002608E0D4E901214F
:100630001AF806009047206A401C761C20624E453E
:10064000F4DB2078C0060AD52046FFF74BFE06E013
:10065000D4E9012130209047206A401C2062381ED6
:10066000A7F10107F4DC07E0D4E9012118F805003F
:100670009047206A401C2062281EA5F10105F3DC8A
:100680002046FFF745FE2078000602D50220BDE88F
:10069000F0870120FBE710B5436913B1AFF3008089
:1006A00001E0FFF746FE012010BD127800F12401A1
:1006B0000A7000224A700122EDE711684FF0FF3204
:1006C000E9E70000074B70B50D467B4400F011F8D8
:1006D0000446284600F020F810B14FF0FF3070BDFE
:1006E000204670BD5B1F000001694A1C026108784A
:1006F000704700B58FB0CDE9013100210591054962
:100700007944CDE9031011466846FFF7A3FE0FB008
:1007100000BD0000E5FFFFFF007B00F08000704798
:10072000754600F02BF8AE4605006946534620F0AA
:100730000700854618B020B5FFF7B4FDBDE820409E
:100740004FF000064FF000074FF000084FF0000B8D
:1007500021F00701AC46ACE8C009ACE8C009ACE840
:10076000C009ACE8C0098D46704710B50446AFF328
:1007700000802046BDE81040FFF780BD004870476C
:10078000E8060020484910B54A6822F440324A6021
:100790004A6843681A434A6001684A6822F48072D2
:1007A0004A6001684A68036942EA03224A600168B4
:1007B0004A6822F040724A6001684A6883681A43B6
:1007C0004A6001688A6822F400628A6001688A6867
:1007D000C3681A438A60816A6FF07062D14201680F
:1007E0008A6822F070628A6001688A680CD0836A25
:1007F0001A438A6001688A6822F040528A60016860
:100800008A68C36A1A4301E022F040528A60016894
:100810008A6822F002028A6001688A68836942EA73
:1008200043028A60016A002901684A6815D042F4CF
:1008300000624A6001684A6822F460424A600168C6
:100840004B684FF46044426A94FAA4F4B4FA84F416
:10085000521EA24013434B6002E022F400624A6041
:100860000168CA6A22F47002CA620168CA6A838B8C
:100870000E4C04EB03531A43CA6201688A6822F4DF
:1008800000728A6001688A68036B42EA43228A60C8
:1008900001688A6822F480628A6001688A68406917
:1008A00042EA8020886010BD002301400000F0FF74
:1008B000FEE700001CB50B4909480860084600F037
:1008C0001AFA002000900220019000226946054893
:1008D00000F0EAF90021034800F055FA1CBD0000C1
:1008E0000074004098020020704700001FB5694660
:1008F00000900120019007200290002003900848FA
:1009000000F028F8064800F071F90A21044800F0C8
:100910001BF9034800F0C4F804B080B210BD000019
:10092000500200202DE9F04100250E4607462C46D6
:1009300008E03846FFF7DAFF0544052001F04CFED9
:10094000641CE4B2B442F4D3B5FBF6F080B2BDE867
:10095000F081000078B50024009490F83C20012A32
:1009600019D0012280F83C200A6807250368092A6B
:1009700013D9DE680A3A02EB42029540AE43DE60CC
:100980000A788B680A3A02EB420293400268D56803
:100990002B43D36010E0022078BD1E6902EB4202B7
:1009A0009540AE431E610A788B6802EB4202934089
:1009B000026815692B4313614A681F25072A13D261
:1009C00003685E6B521E02EB82029540AE435E638B
:1009D0000A8893B20A79521E02EB8202934002689F
:1009E000556B2B43536327E003680D2A12D21E6B0D
:1009F000D21F02EB82029540AE431E630A8893B277
:100A00000A79D21F02EB820293400268156B2B43D6
:100A1000136311E0DE6A0D3A02EB82029540AE43A9
:100A2000DE620A8893B20A790D3A02EB82029340A1
:100A30000268D56A2B43D362164B0568144A9D425F
:100A400006D10D68122D03D1556845F48005556017
:100A500005689D4218D10B68102B01D0112B13D1C2
:100A6000536843F400035360096810290CD10A4904
:100A70000A4A0968B1FBF2F101EB8101490000E08B
:100A8000491E00910029FBD180F83C40002078BD30
:100A900000230140002001400000002040420F00E0
:100AA0000068C06C704770B504004FF0000603D0BA
:100AB000206C002510B107E0012070BD656484F84A
:100AC0003C50204600F01AF8206CC00610D4206C70
:100AD00020F4885040F0020020642046FFF752FEC8
:100AE0006564206C20F0020040F00100206400E00A
:100AF000012684F83C50304670BD0000104800B517
:100B0000026887B0002142F480720260006800F43D
:100B1000807005900A481438026842F001020260B1
:100B2000006800F001000590302000900320CDE91E
:100B300001016946034800F06FF907B000BD0000ED
:100B400044380240000002402DE9F04104460068AC
:100B50000D4681684FF0000749050BD58068C00538
:100B600008D5206C40F02000206484F83C700120FF
:100B7000BDE8F08100F040FA06460FE0681C0DD099
:100B800025B100F039FA801BA84207D9206C40F04B
:100B90000400206484F83C700320E9E720680068C2
:100BA0008007EBD521686FF012000860206C40F4DC
:100BB000007020642068816811F0405F13D1A16942
:100BC00089B9C16A11F4700F02D0806840050AD457
:100BD000206C20F480702064206CC00403D4206C4E
:100BE00040F0010020640020C2E7000018B5002298
:100BF000009290F83C10012907D0012180F83C10A8
:100C000001688B68DB0702D011E0022018BD8B68F9
:100C100043F001038B602049204B0968B1FBF3F1DD
:100C200001EB410100E0491E00910029FBD1016860
:100C30008B68DB072DD0036C40F20164A34343F4BF
:100C4000807303644B685B0505D5036C23F4005384
:100C500043F480530364036CDB0404D5436C23F03A
:100C60000603436400E0426480F83C200C4A6FF0C5
:100C700022030B6051680068C90602D00949884206
:100C800007D1816811F0405F03D1816841F0804154
:100C90008160002018BD00000000002040420F00CD
:100CA000002301400020014070B54379012B1AD088
:100CB000012646710223037103681D6840F6FE7425
:100CC0009440A543D1E900410C4394402C431C605F
:100CD00001680B68C0249440A3430B600671002197
:100CE0004171084670BD022070BD006809B1006BFB
:100CF0007047C06A704770B5040003D020790025A2
:100D000010B105E0012070BD6571204600F008F8C3
:100D100002202071256101202071002070BD00009B
:100D2000104800B5026887B0002142F0005202600E
:100D3000006800F0005005900A481038026842F040
:100D400001020260006800F0010005901020009090
:100D50000320CDE901016946034800F05DF807B0C2
:100D600000BD0000403802400000024018B5046891
:100D700000940068104421B11430009003600020FA
:100D800018BD0830F9E730B54279012A16D00123A1
:100D90004371022202710268146803FA01F52C43C0
:100DA0001460002901680A680AD00C6802F48022E5
:100DB00004F46014B2F5802F0FD015E0022030BD8E
:100DC0000C6802F0040204F03804042A0CD1382C18
:100DD0000AD14A6842F0010205E0B4F5601F03D170
:100DE0004A6842F002024A600371002141710846DC
:100DF00030BD90F83510022903D0802141650120D3
:100E00007047052180F835100068016821F0010164
:100E100001600020704700002DE9F84FDFF88C9149
:100E2000002209F1040A0AF1040B4FF00F080BF13C
:100E3000040E01260B6896403340B34271D14C68D2
:100E4000022C01D0122C11D1D40800EB84073D6A8A
:100E50005407E40E08FA04FC25EA0C05D1F810C08A
:100E60000CFA04FC4CEA050CC7F820C007685400D3
:100E7000032591F804C0A5400CF0030CAF430CFA15
:100E800004FC4CEA070CC0F800C04F68012F05D0E5
:100E9000022F03D0112F01D0122F11D18768D1F862
:100EA0000CC0AF430CFA04FC4CEA070CC0F808C0B5
:100EB0004768B7430E79C6F3001696403E43466036
:100EC000C668AE438D68A5403543C5604C68E400F4
:100ED00065D5374C256845F480452560246822F0A7
:100EE000030504F480440094324C2E19D6F8087897
:100EF0009407250F08FA05F4A7432F4CA04201D10F
:100F0000002424E02D4CA04201D101241FE02C4CF0
:100F1000A04201D102241AE02A4CA04202D10324AB
:100F200015E03CE0284CA04201D104240FE0274CFE
:100F3000A04201D105240AE0254CA04201D106249B
:100F400005E0244CA04201D1072400E00824AC4075
:100F50003C43C6F80848D9F800404D464E689C43CB
:100F6000F60300D51C432C60DAF8004055464E6865
:100F70009C43B60300D51C432C60DBF800405D4663
:100F80004E689C43F60200D51C432C60DEF80040FE
:100F900075464E689C43B60200D51C432C60521C1B
:100FA000102AFFF446AFBDE8F88F0000003C014076
:100FB000443802400030014000000240000402407A
:100FC00000080240000C02400010024000140240E1
:100FD00000180240001C02400069084000D00120B7
:100FE00070470AB1816170470904FBE70148006856
:100FF000000C7047002004E00148006870470000C2
:101000000400002002480168491C0160704700008C
:1010100004000020094810B5016841F40071016026
:10102000016841F480610160052000F049F80F205B
:1010300000F006F800F018F8002010BD003C024057
:1010400010B5044607484FF47A710068B0FBF1F020
:1010500000F000FB00222146501E00F011F8002095
:1010600010BD000000000020704700F01F020121A9
:1010700091404009800000F1E020C0F80011704765
:10108000F0B40E4B1B68C3F30223C3F10704042C16
:1010900000D904241D1D072D01D2002300E0DB1E12
:1010A000012606FA04F56D1E0D409D409E40761EF9
:1010B000164045EA0601F0BC00F04CBD0CED00E026
:1010C000064A00F0070110684FF6FF03184040EA97
:1010D0000120034908431060704700000CED00E058
:1010E0000000FA052DE9F047DFF85C9104460E4652
:1010F000D9F8000000F00F01F0B28046B14207D2EB
:1011000089F80000D9F8000000F00F00B04271D15A
:1011100020784E4F800705D53868A16820F0F00090
:10112000084338602078C00756D0484960680839BD
:1011300001281AD002281BD0032819D00968890772
:10114000002957DA396821F0030101433960FFF7BC
:1011500053FF0546606841F28831012811D002280A
:101160001CD003288A4625D032E009688903E7E7C6
:1011700009688901E4E7FFF73FFF411B514501D9A9
:1011800023E08A463868C0F381000128F3D123E0C8
:10119000FFF732FF411B514501D916E08A463868F6
:1011A000C0F381000228F3D116E0FFF725FF411BB1
:1011B00051450AD83868C0F381000328F5D10BE007
:1011C000FFF71AFF411B514502D90320BDE8F08704
:1011D000386810F00C0FF3D1D9F80010484601F030
:1011E0000F01B14208D980F80080006800F00F00BC
:1011F000B04201D00120E9E72078400705D53868E2
:10120000E16820F4E050084338602078000706D5F4
:101210003868216920F4604040EAC100386000F07D
:101220004BF83968F02292FAA2F201F0F001B2FA1A
:1012300082F2D140064A515CC840064908600F203E
:10124000FFF7FEFE0020C1E7003C024008380240E4
:10125000783A000800000020084809490068096839
:101260004FF4E05292FAA2F201F4E051B2FA82F2A3
:10127000D140044A515CC840704700000000002083
:1012800008380240883A0008084809490068096897
:101290004FF4604292FAA2F201F46041B2FA82F293
:1012A000D140044A515CC840704700000000002053
:1012B00008380240883A000830B51948006810F034
:1012C0000C01184812D0441004290ED008290DD161
:1012D000134A121F1168136801F03F015D0247F6BF
:1012E000C07304D5B4FBF1F003E0204630BDB0FB81
:1012F000F1F01168194093FAA3F3B3FA83F3D940DC
:10130000484311684FF4403292FAA2F201F440319E
:10131000B2FA82F2D140491C4900B0FBF1F030BD75
:10132000083802400024F4002DE9F84F0446007804
:10133000DFF8F4A2BD4DC00748D0DAF800105046DF
:10134000C1F38101012908D00068C0F3810002289F
:101350000AD1281D0068400206D52868800335D5CB
:101360006068002870D031E06068B0F5803F10D030
:10137000B0F5A02F286810D020F4803028602868AD
:1013800020F4802028606068A0B1FFF735FE064693
:101390000CE0286840F48030F4E740F480202860B6
:1013A000F7E7FFF729FE801B642873D828688003BD
:1013B000F7D50BE0FFF720FE064604E0FFF71CFE22
:1013C000801B6428F1D828688003F7D42078DFF8E0
:1013D000608280074FF0010B4FF0000943D5DAF827
:1013E0000010504611F00C0F4FF0F80709D00068BC
:1013F000C0F3810002280BD18B48001F0068400217
:1014000006D42868800713D5E06801281CD10FE0B6
:10141000E068D0B1C8F800B0FFF7EEFD064604E082
:10142000FFF7EAFD801B0228BFD828688007F7D5A0
:10143000286897FAA7F22169B2FA82F220F0F80040
:101440009140084328600EE0EBE0C8F80090FFF7F9
:10145000D3FD064604E0FFF7CFFD801B022819D814
:1014600028688007F7D42078000722D56E4F71488E
:1014700061696C3779B1C0F800B0FFF7BDFD064671
:1014800004E0FFF7B9FD801B022803D83868800705
:10149000F7D50EE079E0C0F80090FFF7ADFD064605
:1014A00004E0FFF7A9FD801B02286ED8386880078A
:1014B000F7D42078400750D55B483830016841F0B8
:1014C0008051016000685C4F00F0805000903868E7
:1014D00040F480703860FFF78FFD064604E0FFF7A8
:1014E0008BFD801B022850D83868C005F7D54E4FB9
:1014F000A068683701280FD00528386810D020F080
:1015000001003860386820F004003860A068B0B18D
:10151000FFF772FD06460EE0386840F00100F4E780
:1015200040F004003860F7E7FFF766FD811B41F2E9
:10153000883081426DD838688007F5D50DE0FFF717
:101540005BFD064606E0FFF757FD811B41F2883040
:1015500081425ED838688007F5D4A069F0B3DAF824
:101560000010C1F3810102295BD00228484605D052
:10157000C8F86000FFF740FD04464DE04746C8F854
:101580006000FFF739FD064605E042E0FFF734FD55
:10159000801B02283DD828688001F7D4D4E90701D0
:1015A000084347F6C07292FAA2F2616AB2FA82F276
:1015B0009140A26A4FF0FF3303EB52024FF44033E5
:1015C00093FAA3F3B3FA83F39A4011434FF0706296
:1015D00092FAA2F20843B2FA82F200E01FE0E16A56
:1015E000914008431049091F0860C7F860B0FFF731
:1015F00003FD044604E0FFF7FFFC001B022808D8A7
:1016000028688001F7D50AE0FFF7F6FC001B0228E6
:1016100002D90320BDE8F88F28688001F4D40020A7
:10162000F8E70120F6E700000838024000380240E1
:1016300000004742800E4742007000404FF0E0211A
:101640000428086903D020F004000861704740F0C6
:101650000400FAE710B5401EB0F1807F01D30120ED
:1016600010BD4FF0E02460610F21601700F072FAA6
:101670000020A06107202061002010BD10B50400EB
:1016800003D094F8390010B107E0012010BD00200C
:1016900084F83800204600F00CF8022084F8390065
:1016A000211D206800F000FD012084F83900002091
:1016B00010BD70470168CA6842F00102CA60006844
:1016C000016841F00101016000207047704710F887
:1016D000391F40780843704770B5026804461068A7
:1016E000D168536910F00F0F50D003F0010501F4D9
:1016F000907635435DD0C20705D0CA0503D5E26BAD
:1017000042F00102E263420705D5DA0703D0E26B3B
:1017100042F00202E263820705D5DA0703D0E26BEA
:1017200042F00402E263020705D5DA0703D0E26B58
:1017300042F00802E263E26B002A33D0800604D54F
:10174000880602D5204600F04FFD20684069E16B15
:10175000C0F38010090700D428B3204600F036FDFE
:101760002068416949061AD5416921F0400141616B
:10177000606BA0B11B490165606BFFF73AFB002865
:1017800010D0606B016DBDE870400847830610D52E
:101790008B060ED52046BDE8704000F025BD2046E2
:1017A000FFF794FF70BD2046FFF790FF0020E06335
:1017B00070BD030606D50B0604D52046BDE8704073
:1017C00000F0AEBE4006F3D54806F1D5D1682046FC
:1017D00021F04001D160202184F8391000F0C4F8D4
:1017E00070BD0000BD21000870B5040004D094F85D
:1017F0003900002510B106E0012070BD84F8385092
:10180000204600F023F8242084F839002068C168BD
:1018100021F40051C160204600F02CFD20680169D0
:1018200021F4904101612068416921F02A01416160
:101830002068C16841F40051C160E563202084F84C
:10184000390084F83A00002070BD000010B500682F
:101850001A4986B088422FD11948016841F0010128
:101860000160006800F0010005901548143001681F
:1018700041F0100101600068012100F010000590A6
:101880004FF4007000900220CDE901010390072081
:101890000C4C049069462046FFF7BEFA21150091D2
:1018A00069462046FFF7B8FA2520FFF7DEFB032242
:1018B00011462520FFF7E4FB06B010BD00100140E3
:1018C000303802400000024090F83A30202B1DD101
:1018D000D1B1CAB190F83830012B17D0816282851E
:1018E000C2850021C163222280F83A2080F8381096
:1018F00001684A6942F001024A610068C16841F426
:101900009071C1600020704701207047022070472D
:1019100030B50068114988420CD1114A5088010441
:1019200008D41146440409784FF0000306D50A296B
:1019300001D0538030BD40F400400DE00D2909D0A6
:10194000C0F30D04074D401C80B229555080C728B4
:10195000EFD830BD40F48040508030BD00100140D1
:101960000C000020480100207047FEE730B5144C01
:1019700087B00020216841F04001216021680125E5
:1019800001F0400105914FF43851CDE900100320DA
:10199000CDE9025069460B48FFF73EFA206840F057
:1019A000010020602068009500F0010005900220F1
:1019B000029069460448FFF72FFA07B030BD0000D7
:1019C0003038024000180240000002402DE9F05F6C
:1019D00001263B4C7702DFF8ECB03B4D4FF48068BA
:1019E0004FF400694FF4005A012822D02078C8B182
:1019F00039462846FFF7F0FAE8B141462846FFF796
:101A0000EBFAC0B149462846FFF7E6FA98B15146CD
:101A10002846FFF7E1FA70B101215846FFF7DCFADA
:101A2000012808D039462846FFF7D6FA01282DD0DC
:101A300044E02670DCE70A2000F0CEFD0020207094
:101A400039462846FFF7C8FAA8B141462846FFF7AD
:101A5000C3FA98B149462846FFF7BEFA80B151460D
:101A60002846FFF7B9FA68B101215846FFF7B4FAE2
:101A7000012809D022E00120BDE8F09F0220FBE709
:101A80000320F9E70420F7E70520F5E7414628465B
:101A9000FFF7A2FA012811D149462846FFF79CFA20
:101AA00001280BD151462846FFF796FA012805D1A7
:101AB00001215846FFF790FA00B926700020DBE7B5
:101AC000140000200000024000180240104810B529
:101AD000016886B041F0040101600068012100F056
:101AE000040005900320CDE90210CDE90001094C66
:101AF00069462046FFF790F9012211462046FFF77C
:101B000070FA012202212046FFF76BFA06B010BDE1
:101B100030380240000802400B480A4901604FF487
:101B20008031416000218160C16001610122416119
:101B3000C0E90612054A0162C0E90912C1620163E7
:101B4000FEF7B1BF00200140500200200100000F4D
:101B5000FEE770470907090E002806DA00F00F00BB
:101B600000F1E02080F8141D704700F1E02080F8BB
:101B70000014704710B40021084B0A46002003EB04
:101B8000C004401CC0B262548028F8D3491CC9B2BA
:101B90000829F3D310BC00F0EDB80000AC0200201F
:101BA00010B57F2816D83F2914D80723A3EBD103FB
:101BB00001F00701C1F107040121A140064CDBB28D
:101BC00004EBC000002AC25CC9B201D00A4300E0A5
:101BD0008A43C25410BD0000AC02002070B55F48BB
:101BE00086B00026016841F001010160016801F042
:101BF00001010591016841F002010160016801F0F5
:101C000002010591016841F004010160016801F0E1
:101C100004010591016841F008010160016801F0CB
:101C200008010591016841F010010160006801247C
:101C300000F0100005901020CDE900040220CDE94D
:101C4000024069464648FFF7E7F84FF4E05000903D
:101C500069464448FFF7E0F84FF442500090694667
:101C60004148FFF7D9F84148C0F8B442C0F8B04243
:101C70003F4DC5F8B042C5F8AC42C5F8A862642033
:101C800005F52A7500F0A8FC2C600021AE2000F0BC
:101C900055F90021D52000F051F90021502000F025
:101CA0004DF90021A82000F049F900213F2000F063
:101CB00045F90021D32000F041F90021084600F049
:101CC0003DF90021402000F039F900218D2000F07D
:101CD00035F90021142000F031F90021202000F016
:101CE0002DF90021022000F029F90021A12000F0A7
:101CF00025F90021C02000F021F90021DA2000F0B0
:101D00001DF90021122000F019F90021812000F0B6
:101D100015F90021EF2000F011F90021D92000F081
:101D20000DF90021F12000F009F90021DB2000F07D
:101D300005F90021302000F001F90021A42000F075
:101D4000FDF80021A62000F0F9F80021AF2000F0F6
:101D5000F5F8FFF70FFF06B070BD00003038024005
:101D60000000024000040240000C0240008041429A
:101D70000080404270B5104E002505F1B000C0B2A1
:101D8000002100F0DBF80021084600F0D7F8002120
:101D9000102000F0D3F8002406EBC4000121405DC0
:101DA00000F0CCF8641CE4B2802CF5D36D1CEDB2CD
:101DB000082DE2D370BD0000AC0200202DE9F84FE1
:101DC00083461E460F468A46580700D0012000EB86
:101DD000D600710810FB01F0203AC0B202F0FF09F2
:101DE0000025009039E00C2E0FD0102E11D0182EA7
:101DF00036D11C4909EBC90001EB80004FF0000807
:101E0000445D200609D50A9A0AE009EB4900164903
:101E1000F2E7164901EB0910F0E70A9890B10022A9
:101E200039465846FFF7BCFE60067F1C040EFFB221
:101E3000A7EB0A00B04207D10BF10100574600F0B2
:101E4000FF0B08E00122EBE708F1010000F0FF08BA
:101E5000B8F1080FD5D36D1CEDB200988542C2D3FE
:101E6000BDE8F88FB4460008903A0008043F000827
:101E70002DE9FF4F81B00027DDF838B01D469246AE
:101E800080463C464FF001094FEA5B0627E0281BDD
:101E9000401EC1B20A2000F0FDFCBAFBF0F00A219E
:101EA000B0FBF1F201FB120027B9691E8C4201DA86
:101EB00048B101273030C2B206FB0480C0B25B4695
:101EC000CDF8009006E006FB0480C0B25B462022FD
:101ED000CDF800900299FFF771FF641CE4B2AC42A8
:101EE000D5D305B0BDE8F08F2DE9F84704461F466D
:101EF000802016460D46A0EB5709C3F140084FF06D
:101F0000010A16E0A14502D20024E819C5B2A8458D
:101F100003DA00242546FFF72DFECDF800A0327825
:101F20003B4629462046FFF749FF04EB5700C4B261
:101F3000761C30782028E5D2BDE8F88770B50F4DC3
:101F4000C5F8AC120023C5F8B0320D4A1946012479
:101F5000C2F8B032060602D5C2F8B44201E0C2F8B7
:101F6000B432C2F8B0424006491C000EC9B208297A
:101F7000EED3C5F8B042C5F8AC4270BD0080404217
:101F8000008041427047704770B5214C92B00025E7
:101F9000266846F080562660246804F08054119428
:101FA0001C4C266846F48046266024680DF1240CFB
:101FB00004F4804411940124009424040194022424
:101FC00006948CE80D006605CDE907616846FFF7C9
:101FD000ABF900B1FEE70CA90F2081E831004FF406
:101FE000A0500F904FF48050109005210CA8FFF7DF
:101FF00079F800B1FEE7FEF7F9FF41F201018842EE
:1020000004D10548016841F48071016012B070BDCF
:102010004038024000700040003C0240FEF7F2BF32
:102020001048016841F4700101600F48016841F0F7
:10203000010101600C4A00210832116002680B4B5B
:102040001A400260031D0A4A1A60026822F48022C4
:10205000026005480C30016002495806803908606A
:102060007047000088ED00E000380240FFFFF6FEF8
:102070001030002410B50A4C2068C068C043C00767
:1020800009D108480069804721680020486221681A
:102090006420C862E06021686FF00100086110BD33
:1020A000AC06002054000020F0B50268234D244EF9
:1020B000244FDFF894C0254B4FF0804EA84209D042
:1020C000704507D0B04205D0B84203D0604501D07A
:1020D000984203D122F070044A682243A8421BD0E0
:1020E000704519D0B04217D0B84215D0604513D012
:1020F000984211D0164CA0420ED0164CA0420BD0E4
:10210000154CA04208D0154CA04205D0144CA0425A
:1021100002D0144CA04203D122F44074CA68224376
:1021200002608A68C2620A688262A84201D098424C
:1021300001D10969016301214161F0BD0000014045
:102140000004004000080040000C00400004014072
:102150000040014000440140004801400018004098
:10216000001C004000200040F8B5064610480D460F
:102170000024016841F0040101600068032200F0BE
:102180000400009011461E20FEF77AFF1E20FEF785
:102190006CFF094A07481060C2E90154C2E90364B0
:1021A0001046FFF76BFABDE8F8400348FFF782BA24
:1021B0004038024000080040AC06002010B5806B9B
:1021C0000021C185C184FFF781FA10BD0168CA688A
:1021D00022F49072CA6001684A6922F001024A61E1
:1021E000202180F83A10704710B590F83A10222953
:1021F00001D0022010BD8168B1F5805F11D0016966
:10220000002901681FD0496801F07F03816A4A1CD8
:1022100082620B70C18D491E0904090CC18518D05A
:1022200026E00269816A002A0268526805D0D2B2AB
:102230000A80816A491C8162ECE7C2F308020A80C5
:10224000816A891CF7E74A68816A4B1C83620A70BD
:10225000E0E70168CA6822F49072CA6001684A69BE
:1022600022F001024A61202180F83A10FFF750FB6A
:10227000002010BD2DE9F04104460068016921F4F9
:102280004052E168114301612068C16849F20C6263
:1022900091432369A268E5691A4363692B431A4392
:1022A0000A43C26020684169A26921F440710A436F
:1022B0004261E0696425B0F5004F974A974920686C
:1022C0004FF032083FD0884201D090427CD1FEF7D7
:1022D000DBFF00EBC00101EB001061688900B0FB7F
:1022E000F1F6FEF7D1FF00EBC00101EB00106168D1
:1022F0008900B0FBF1F0B0FBF5F06FF01801484336
:1023000006EB800108EB0110B0FBF5F000F0F006E1
:10231000FEF7BAFF00EBC00101EB00106168890015
:10232000B0FBF1F0B0FBF5F006EB0016FEF7ACFFEA
:1023300000EBC00101EB001061688900B0FBF1F710
:10234000FEF7A2FFD2E0884201D090423DD1FEF7D5
:102350009BFF00EBC00101EB001061684900B0FB7E
:10236000F1F0B0FBF5F00601FEF78EFF00EBC001C7
:1023700001EB001061684900B0FBF1F7FEF784FF44
:1023800000EBC00101EB001061684900B0FBF1F007
:10239000B0FBF5F06FF01801484307EB800108EB44
:1023A000C100B0FBF5F000F0F80006EB4006FEF7C8
:1023B0006BFF00EBC00101EB001061684900B0FB4E
:1023C000F1F7FEF761FF3CE055E0FEF745FF00EB5B
:1023D000C00101EB001061684900B0FBF1F0B0FBF7
:1023E000F5F00601FEF738FF00EBC00101EB00102D
:1023F00061684900B0FBF1F7FEF72EFF00EBC0016A
:1024000001EB001061684900B0FBF1F0B0FBF5F0A2
:102410006FF01801484307EB800108EBC100B0FBE7
:10242000F5F000F0F80006EB4006FEF715FF00EBB4
:10243000C00101EB001061684900B0FBF1F7FEF745
:102440000BFF00EBC00101EB001061684900B0FB1D
:10245000F1F0B0FBF5F06FF01801484307EB800195
:1024600008EBC100B0FBF5F000F007002168304434
:102470008860BDE8F081FEF7EFFE00EBC00101EBE4
:10248000001061688900B0FBF1F6FEF7E5FE00EB95
:10249000C00101EB001061688900B0FBF1F0B0FBF6
:1024A000F5F06FF01801484306EB800108EB0110CE
:1024B000B0FBF5F000F0F006FEF7CEFE00EBC00139
:1024C00001EB001061688900B0FBF1F0B0FBF5F0A2
:1024D00006EB0016FEF7C0FE00EBC00101EB00109A
:1024E00061688900B0FBF1F7FEF7B6FE00EBC001B2
:1024F00001EB001061688900B0FBF1F0B0FBF5F072
:102500006FF01801484307EB800108EB0110B0FBA6
:10251000F5F000F00F00A9E70014014000100140A1
:1025200090F83910212901D0022070478168B1F557
:10253000805F016A0BD04A1C026202680978516010
:10254000C18C491E0904090CC1840ED017E009880A
:102550000268C1F30801516001690029016A02D0D3
:10256000491C0162ECE7891CFBE70168CA6822F09C
:102570008002CA600068C16841F04001C16000206B
:102580007047000010B50848FFF7A6F80648FFF7A7
:102590009EF82028FAD1012204490348FFF794F954
:1025A0000028F8D110BD0000100200200C0000200F
:1025B000FEE730380A2801D201207047002070471A
:1025C0007047000010B504460420FFF737F80148B3
:1025D000046010BD0800002070B5054600244FF4CB
:1025E0007A7603E0304600F005F8641CAC42F9D37B
:1025F00070BD000070B54FF0E02500216C69094AFC
:10260000AB6912685043AA699A42FCD002D2A3EB8C
:10261000020302E0A4EB020633441944134681424C
:10262000F1D370BD0800002003490A685206FCD5AA
:10263000C2B24A6070470000001001402DED048BCB
:10264000002682B03446FEF7E5FC0723022208216B
:102650004FF4A870FFF798FCA820FFF7B3FF4FF4E2
:10266000E13000F021F96E48416854208847FFF7B7
:102670002DFAFFF77BF9FFF74FFAFEF71BF9FFF78B
:10268000ADFA00210C2367A20846FFF72DFC0C23AE
:1026900067A200213C20FFF727FC0C2367A2194604
:1026A0000020FFF721FC0C2368A218210020FFF76F
:1026B0001BFC0C2368A224210020FFF715FC0C232F
:1026C0006AA230210020FFF70FFCFFF753FB002325
:1026D0001A4619466A48FEF749FB6A4F761CF6B25D
:1026E0000020FFF773F90546052802D0022D05D01A
:1026F00010E0B4F57A6F07D2C83402E0C82C02D9D2
:10270000C83CA4B200E000240022234611465C48E5
:10271000FEF72CFB0A2E03D0022D01D0052D78D117
:1027200000215748FEF7E1FA86B20C250423324611
:1027300018213C200095FFF79BFBFFF71BFB304661
:1027400001F07FF89FED508B53EC182B01F08CF8C3
:1027500001F046F809EE100A03232421BCEEC90A51
:10276000009510EE100A10EE102A86B23020FFF706
:102770007FFBFFF7FFFA00EE106AB8EE400A39EE71
:10278000400A9FED439A0323242120EE090A4820A2
:102790000095BCEEC00A10EE102AFFF769FBFFF7A8
:1027A000E9FA0A210520FEF7BDF801F04AF853ECDA
:1027B000182B01F059F801F013F808EE100A302137
:1027C0000323BCEEC80A009510EE100A10EE102A82
:1027D00086B20846FFF74CFBFFF7CCFA00EE106A12
:1027E00003233021B8EE400A4820009538EE400A15
:1027F00020EE090ABCEEC00A10EE102AFFF738FBE3
:10280000FFF7B8FAD7F8800238B10020C7F8800285
:1028100000260A20FFF7E0FE60E70120F6E700004F
:10282000540000204144432054455354000000000C
:10283000323032302F322F3300000000574B5F55BB
:10284000503A2B20204B4559313A2D00444143202A
:1028500056414C3A0000000044414320564F4C3A48
:102860002020302E303030560000000041444320FC
:10287000564F4C3A2020302E3030305600000000A9
:1028800098020020000041426666666666664A3F1E
:1028900000007A440346012000E05843491EC9B2B3
:1028A000FBD27047006870470B4910B5094AC1E96F
:1028B000002000208860C860086188610C204861A1
:1028C0000846FEF791FFBDE8104001220349024887
:1028D000FEF7FABF00100140100200200C0000209B
:1028E00070B594B0064613AB11AA694600F0DCF946
:1028F000002824D18DF840001D4C042514E02068E8
:1029000005EBC10113AB405812AA08A900F0CCF99D
:10291000002814D1694608A800F001FC88B19DF890
:102920004000401C8DF84000207D9DF840108842FA
:10293000E5D8207D9DF8401088420ED1042014B0C7
:1029400070BD9DF848009DF84410884201D90220CE
:10295000F5E79DF84000A075EBE710A9304600F0C0
:1029600057FA0028EBD19DF8400060750020E6E79B
:10297000540000202DE9F0417E4E9AB0B57D307DA7
:10298000A8427CD90421306801EBC50119AB40583D
:1029900018AA10A900F088F910A977A0FDF796FCF5
:1029A00000240DF1180832E0308B0121A1400842CB
:1029B00017D0222172A0FDF789FC204600F090FA82
:1029C000811970A02431FDF781FC22216CA0FDF754
:1029D0007DFC204600F084FA3044243048F824007E
:1029E0000BE0204600F07CFA3044416A48F824109D
:1029F000F07D00B364A0FDF769FC9DF86000401E07
:102A0000844202D062A0FDF761FC641CE4B29DF830
:102A100060008442C8D35FA0FDF758FC00F0A6FA1E
:102A2000707D0B2814D2DFE800F0080D31384048E3
:102A3000525E6B78890058A0DDE7306850F83500A9
:102A4000804704E0306850F83510069888470746FC
:102A500000F058FA9DF8640001286ED04FA0FDF7F1
:102A600035FC96F8EC0000280DD0D6F8F0000A21CD
:102A7000B0FBF1F201FB1202B0FBF1F100E002E069
:102A800047A0FDF723FC1AB0BDE8F081306850F88C
:102A90003520DDE906019047D9E7306806AC50F8EB
:102AA000353094E807009847D1E7306806AF50F812
:102AB000354097E80F00A047C9E70A9800903068B2
:102AC00006AF50F8354097E80F00A047BFE7DDE9B3
:102AD0000A01CDE90001306806AF50F8354097E8AB
:102AE0000F00A047B3E70AAB06AF93E807008DE8F5
:102AF0000700306850F8354097E80F00A047A6E778
:102B00000AAC06AF94E80F008DE80F00306850F86B
:102B1000354097E80F00A04799E70BAC06AF94E863
:102B20000F0001AC84E80F000A980090306850F85C
:102B3000354097E80F00A04789E711E00CAC06AFDD
:102B400094E80F0002AC84E80F00DDE90A01CDE94A
:102B50000001306850F8354097E80F00A04776E74D
:102B6000F07D394618B116A0FDF7B0FB79E717A044
:102B7000FAE70000540000200D0A25732800000029
:102B80002563000025730000305825580000000020
:102B90002C00000029000000256C64003B0D0A0099
:102BA00046756E6374696F6E2052756E2054696D40
:102BB000653A25642E2531646D730D0A000000000E
:102BC0003D305825583B0D0A000000003D256C752E
:102BD0003B0D0A00F0B500252E462F462C46037803
:102BE0002C2B03D0292B04D01BB103E014B90126F0
:102BF00000E00CB317B1222B2AD02AE0A3F1300C4D
:102C0000BCF1090F19D92D2B17D02B2B15D0A3F1FF
:102C1000610CBCF1050F10D9A3F1410CBCF1050FFB
:102C20000BD9582B09D0782B07D0222B0CD0202B76
:102C30001ED02C2B1CD0FF270CE05EB9612B00D3DB
:102C4000203B01F8013B13E026B901273C460FE089
:102C5000002426B10020087017702846F0BD3CB152
:102C60005C2B02D16D1CEDB2401C037801F8013BD6
:102C70006D1CEDB2401CB2E730B5002515700AE0BE
:102C800001F8014B1478401C641CE4B214709C429F
:102C900001D3012030BD0478202C01D0002CEFD1CD
:102CA0000D70002030BD00002DE9FF4F002482B0E0
:102CB00089469846A2462746012526462246EB46E7
:102CC000029915E0202810D002F07F03052B0CD2CA
:102CD00002B9802202F07F03042B01D12A280AD1F5
:102CE000521C0BF80300D2B201E0852A04D0491C23
:102CF00008780028E6D16AB102F07F0200200BF8C4
:102D0000020041A1584600F00AFA38B1012188F8C2
:102D1000001000224FF00008029B15E0002088F808
:102D20000000F6E708F1010000F0FF0813F8010FBA
:102D3000202801D02A2807D1184600F07DF928283C
:102D400002D02A2800D0C2461878282801D00028AE
:102D5000E8D10299BAF1000F01D05144491C4FF05B
:102D600000084346087888B1282804D0292806D0CE
:102D7000222810D011E083B9641CE4B20DE063B9DD
:102D800024B1641E14F0FF0402D00DE04FF00108DE
:102D9000012F27D02FE04BB100234CB12C280CD0B1
:102DA000202816D0282814D05AB110E00123F4E7C7
:102DB000202815D009F8010B12E00125521CD2B2CF
:102DC00007E0052E03D20BF80600761CF6B26D1C48
:102DD000EDB2012C04D1022D02D103257F1CFFB2DC
:102DE000491CBFE700200BF8060007A1684600F069
:102DF00096F900B9002704980770002089F80000B0
:102E000006B04046BDE8F08F766F696400000000B0
:102E10002DE9F04300248946304DB5B021462246C5
:102E20006B18491CC9B29A760A29F9D302E010F846
:102E3000011F99B101782829F9D1461C4FF00108EA
:102E400033AA69463046FFF7C5FE06449DF8CC001C
:102E500040B1012824D0FF2836D10BE0012035B045
:102E6000BDE8F0839DF8000070B334A9684600F017
:102E7000EBF808B10220F2E7204600F031F82844D0
:102E800034994162298B08FA04F081432983042094
:102E900029198876641CE4B20A2C15D90320DEE7D0
:102EA000684600F051F9471C204600F019F8411916
:102EB0006846243100F03FF9298B08FA04F00143F9
:102EC000281929838776E5E73078292801D000285A
:102ED000B6D189F800400020C1E70000540000206E
:102EE000024610B500200146054B05E05C18491C60
:102EF000A47EC9B22044C0B29142F7D310BD0000F5
:102F000054000020094800680169C943CA070849FC
:102F1000D1F8F02004D14FF6FF731A44C1F8F02025
:102F2000406A1044C1F8F00070470000AC06002071
:102F30005400002000EBC00101EB00104FF0FF3106
:102F400001EB800010B581B24FF47A70FFF70CF9F5
:102F500001490120C87510BD54000020034601201E
:102F600000E05843491EC9B2FBD2704707486FF0D2
:102F70000101026811610268090CD162C160006838
:102F8000002141620248C0F8F0107047AC060020F2
:102F9000540000202DE9F041164E3088010426D55A
:102FA0001549C0B2154F00250D54B968124888471D
:102FB00004000FD0104800F0D1F8012801D004001F
:102FC00014D0012C09D0022C09D0032C09D0042CD8
:102FD0000CD108E0F868804708E009A004E00BA0E5
:102FE00002E00DA000E00FA0FDF770F93580BDE80C
:102FF000F08100000E000020480100205400002055
:10300000BAAFCAFDB4EDCEF3210D0A00B2CECAFDAF
:10301000B4EDCEF3210D0A00B2CECAFDCCABB6E0C2
:10302000210D0A00CEB4D5D2B5BDC6A5C5E4B5C440
:10303000BAAFCAFD210D0A0010F8011F202901D1E5
:103040000028F9D1C8B270472DE9F0430E4600249C
:103050004FF00A082546014634600A78A2F1300391
:10306000092B14D903782D2B01D02B2B00D174B14F
:10307000A2F14103052B0AD9582A05D012F0FF0FFF
:1030800017D00120BDE8F083012C02D0F9E7412AD6
:1030900001D34FF0100802782D2A04D02B2A04D037
:1030A000641CE4B203E0022500E00125401C491C39
:1030B000D3E70746B8F1100F01D084B112E0032C1A
:1030C00001D20220DEE73878302802D178785828FB
:1030D00001D00320D6E7A41EE4B2BF1C01E0042007
:1030E000D0E70CB1641EE4B23878014630380928C4
:1030F00001D8814601E0A1F1370921464046FFF79A
:103100002DFF326809FB0020306017F8011F0029ED
:10311000E7D1022D01D1404230600020B2E70278B1
:103120000B789A4201D00120704712B1401C491C13
:10313000F5E70020704702780A700278002A02D072
:10314000401C491CF7E77047002102781AB1491C5E
:10315000C9B2401CF9E7084670470000F0B58DB0D1
:1031600004461E2308AA6946FFF786FD0990002839
:1031700072D19DF82000271800253E4C8DF8205074
:103180009DF8200054F820106846FFF7C8FF38B1BA
:103190009DF82000401CC0B28DF820000728EFD316
:1031A0009DF820000426344C072855D2DFE800F0B3
:1031B0000404395A605F5E0030A0FDF787F830A044
:1031C000FDF784F83EA0FDF781F84DA0FDF77EF8ED
:1031D0005BA0FDF77BF86AA0FDF778F878A0FDF713
:1031E00075F886A0FDF772F88BA0FDF76FF893A035
:1031F000FDF76CF897A0FDF769F89CA0FDF766F85D
:10320000A1A0FDF763F8A7A0FDF760F8B3A0FDF754
:103210005DF8C0A0FDF75AF8CBA0FDF757F8D7A08E
:103220001BE016A0FDF752F8E4A0FDF74FF88DF86B
:1032300020500BE0216806EBC0000958EFA0FDF715
:1032400045F89DF82000401C8DF82000217D9DF858
:1032500020008142EED856E257E2FDF737F8002011
:103260000DB0F0BD05A0FDF731F8CBE12CE20CE28A
:10327000EBE1000018000020540000200D0A0000BF
:103280002D2D2D2D2D2D2D2D2D2D2D2D2D2D2D2D6E
:103290002D2D2D2D2D2D2D2D55534D415254205674
:1032A000332E332D2D2D2D2D2D2D2D2D2D2D2D2D41
:1032B0002D2D2D2D2D2D2D2D2D2D2D200D0A0000E8
:1032C0002020202055534D415254CAC7D3C9414CE8
:1032D00049454E54454BBFAAB7A2B5C4D2BBB8F6B8
:1032E000C1E9C7C9B5C4B4AEBFDAB5F7CAD4BBA586
:1032F000BDBBD7E9BCFE2CCDA8B9FD200D0A00004E
:10330000CBFC2CC4E3BFC9D2D4CDA8B9FDB4AEBFA9
:10331000DAD6FACAD6B5F7D3C3B3CCD0F2C0EFC36E
:10332000E6B5C4C8CEBACEBAAFCAFD2CB2A2D6B4E6
:10333000D0D02ED2F2B4CB2CC4E3BFC90D0A00000A
:10334000D2D4CBE6D2E2B8FCB8C4BAAFCAFDB5C499
:10335000CAE4C8EBB2CECAFD28D6A7B3D6CAFDD7F9
:10336000D62831302F3136BDF8D6C62CD6A7B3D6E5
:10337000B8BACAFD29A1A2D7D6B7FBB4AE0D0A00D0
:10338000A1A2BAAFCAFDC8EBBFDAB5D8D6B7B5C8E7
:10339000D7F7CEAAB2CECAFD292CB5A5B8F6BAAFDA
:1033A000CAFDD7EEB6E0D6A7B3D63130B8F6CAE438
:1033B000C8EBB2CECAFD2CB2A2D6A7B3D60D0A0076
:1033C000BAAFCAFDB7B5BBD8D6B5CFD4CABE2ED614
:1033D000A7B3D6B2CECAFDCFD4CABEBDF8D6C6C931
:1033E000E8D6C3B9A6C4DC2CD6A7B3D6BDF8D6C6DA
:1033F000D7AABBBBB9A6C4DC2E0D0A00BCBCCAF55B
:10340000D6A7B3D63A7777772E6F70656E656476F8
:103410002E636F6D0D0A000055534D415254D3D0A9
:1034200037B8F6CFB5CDB3C3FCC1EE28B1D8D0EBD9
:10343000D0A1D0B4293A0D0A000000003F3A202064
:1034400020202020BBF1C8A1B0EFD6FAD0C5CFA272
:103450000D0A000068656C703A202020BBF1C8A1FD
:10346000B0EFD6FAD0C5CFA20D0A00006C69737414
:103470003A202020BFC9D3C3B5C4BAAFCAFDC1D05A
:10348000B1ED0D0A0A00000069643A2020202020D6
:10349000BFC9D3C3BAAFCAFDB5C44944C1D0B1EDA9
:1034A0000D0A0A006865783A20202020B2CECAFDB5
:1034B0003136BDF8D6C6CFD4CABE2CBAF3B8FABFDF
:1034C000D5B8F12BCAFDD7D6BCB4D6B4D0D0BDF890
:1034D000D6C6D7AABBBB0D0A0A0000006465633AD2
:1034E00020202020B2CECAFD3130BDF8D6C6CFD4C0
:1034F000CABE2CBAF3B8FABFD5B8F12BCAFDD7D6DD
:10350000BCB4D6B4D0D0BDF8D6C6D7AABBBB0D0AC2
:103510000A00000072756E74696D653A312CBFAA9D
:10352000C6F4BAAFCAFDD4CBD0D0BCC6CAB13B300A
:103530002CB9D8B1D5BAAFCAFDD4CBD0D0BCC6CA8D
:10354000B13B0D0A0A000000C7EBB0B4D5D5B3CC2F
:10355000D0F2B1E0D0B4B8F1CABDCAE4C8EBBAAF9A
:10356000CAFDC3FBBCB0B2CECAFDB2A2D2D4BBD896
:10357000B3B5BCFCBDE1CAF82E0D0A002D2D2D2DD2
:103580002D2D2D2D2D2D2D2D2D2D2D2D2D2D2D2D6B
:103590002D2D2D2D2D2D414C49454E54454B2D2D76
:1035A0002D2D2D2D2D2D2D2D2D2D2D2D2D2D2D2D4B
:1035B0002D2D2D2D2D2D2D200D0A00002D2D2D2DE5
:1035C0002D2D2D2D2D2D2D2D2D2D2D2D2D2D2D2D2B
:1035D0002D2D2D2D2DBAAFCAFDC7E5B5A52D2D2D4D
:1035E0002D2D2D2D2D2D2D2D2D2D2D2D2D2D2D2D0B
:1035F0002D2D2D2D2D2D2D2D200D0A0025730D0A7D
:103600000000000042A0FCF761FE8DF8205016E09B
:10361000216806EBC0000BAB08580AAA6946FFF701
:1036200043FB9DF82010206850F83120694648A0DF
:10363000FCF74CFE9DF82000401C8DF82000217DF9
:103640009DF820008142E3D85DE0AFF2D030FCF776
:103650003DFE08AA69463846FFF7BCFA9DF82000EF
:10366000002843D109A96846FFF7EEFC8DF8200039
:1036700010B104283AD102E03AA009991CE03CA01C
:10368000FCF724FE0120E0753DE038A0FCF71EFEAB
:1036900008AA69463846FFF79DFA9DF8200028BB26
:1036A00009A96846FFF7D0FC8DF8200010B1042866
:1036B0001CD104E033A00999FCF708FE23E034A0F4
:1036C000FCF704FEE5751EE028A0FCF7FFFD08AA44
:1036D00069463846FFF77EFA9DF8200030B909A9FF
:1036E0006846FFF7B1FC8DF8200008B10220B7E56D
:1036F000099810F0FF0084F8EC0001D029A000E048
:103700002FA0FCF7E3FD19A0A7E50120A8E5000024
:103710002D2D2D2D2D2D2D2D2D2D2D2D2D2D2D2DD9
:103720002D2D2D2D2D2D2D2D2DBAAFCAFD20494427
:10373000202D2D2D2D2D2D2D2D2D2D2D2D2D2D2DC6
:103740002D2D2D2D2D2D2D2D2D2D2D2D200D0A0026
:1037500025732069642069733A0D0A305825303882
:10376000580D0A004845583A305825580D0A0000AF
:103770003136BDF8D6C6B2CECAFDCFD4CABE210DF1
:103780000A0000004445433A256C750D0A0000000C
:103790003130BDF8D6C6B2CECAFDCFD4CABE210DD7
:1037A0000A00000052756E2054696D652043616CFB
:1037B00063756C6174696F6E204F4E0D0A000000D6
:1037C00052756E2054696D652043616C63756C6140
:1037D00074696F6E204F46460D0A00000160704705
:1037E00021F00042A2F16052B2F5801F01F00043C7
:1037F00028BFD2F17F6C0BD95FEA001C43EAC202FA
:1038000042EB507018BF704728BF20F0010070478E
:10381000B2F5801FBCBF184670474FEA410C1CF53B
:10382000001F02D2084600F022B970B500F0C6F8B9
:1038300000000089FFF7F6BF4FF00040A0F58000C0
:103840007047B0FA80F310FA03F10AD0C3F11D03F8
:1038500003F580634FEA41504FEA035202EBD12156
:1038600070474FF000007047DFF848C170B51CEAA0
:10387000111E1EBF1CEA13159EEA0C0F95EA0C0FD1
:1038800000F06F8081EA030423EA4C134EEAD47EF1
:1038900021EA4C1141F4801143F48013AE44A1FBA2
:1038A000024CA0FB0365AEF17F7E361955EB0C058B
:1038B000A1FB034C4CF10003A0FB021C16EB0C0611
:1038C000654153F10003094218BF46F0010613F4A5
:1038D000007F0BD14FEA03314FEA0530340341EA50
:1038E000155140EA16506FF003020AE04FEAC32177
:1038F0004FEAC520F40241EA555140EA56506FF0B4
:10390000020202EB2E4201EB025585EACE710AD08B
:103910005FEA440C18BF24F0004450F1000041F16C
:10392000000120EAD47040F2FE7C624500D270BDF6
:10393000A84214BF4FF080444FF04044002E08BF0F
:103940000024BEF1806FA8BFA1F1C041BDE8704066
:1039500080F282804FF0000001F1C04101F000418F
:1039600070479EEA0C0F0CEA131518BF95EA0C0F6E
:1039700006D04FF0000081EA030E0EF0004170BD4A
:1039800000F01CF88900013E00F007B800F009B80B
:103990004FEA430C5FEA5C5C08D081EA030100F067
:1039A0005BB84FEA410C5FEA5C5CF6D14FF0000077
:1039B000014970470000FF070000F87F0EF1020E7A
:1039C0002EF0030E5EF8046B364205D4012A43EB59
:1039D000030515F5001F12D8012841EB010C1CF559
:1039E000001F0CD80ED14FEAD17C15F5001F0CEB4F
:1039F0004C0C0CF1020C08BF4CEBD37C04E04FF0F4
:103A0000080C01E04FEAD37C0CEB4C0526FA05F6D6
:103A100006F00706B6F1040C06D20EEB860CBDE8E4
:103A200070404CF0010C6047DFE80CF0090B02021B
:103A30004FF000414FF00000A1F5002170BD194684
:103A40001046012851EB010418BFD4F5001484BFBF
:103A5000002001F0004170BD0808A0F500114FEAF8
:103A6000310170474FF04070E1EE100A7047FF21BE
:103A700041EAD050C005704700000000000000007F
:103A80000102030406070809000000000102030404
:103A90000000000000000000000000000000000026
:103AA0003F400000000000000000300040003000F7
:103AB0004000000009000BC03D000BC03D000900A4
:103AC00018C024407FE0224031800000180024C04C
:103AD0001B000D803240018003801C4027401C8069
:103AE00007400040100060000000000000000000DF
:103AF0000000000000001F80204040200000402007
:103B000020401F8000000000090006001F80060002
:103B100009000000040004003F80040004000000CD
:103B2000001000600000000000000000040004001D
:103B30000400040004000000000000400000000039
:103B400000000000002001C0060038004000000016
:103B50001F802040204020401F80000000001040B7
:103B60003FC000400000000018C021402240244017
:103B70001840000010802040244024401B8000009A
:103B800002000D0011003FC0014000003C802440B5
:103B900024402440238000001F80244024403440DF
:103BA000038000003000200027C038002000000003
:103BB0001B802440244024401B8000001C0022C0A5
:103BC000224022401F80000000000000084000004A
:103BD0000000000000000000046000000000000081
:103BE000000004000A001100208040400900090084
:103BF0000900090009000000000040402080110079
:103C00000A000400180020002340240018000000CF
:103C10001F802040274029401F400000004007C06F
:103C200039000F0001C0004020403FC02440244024
:103C30001B8000001F80204020402040308000007A
:103C400020403FC0204020401F80000020403FC057
:103C500024402E4030C0000020403FC024402E00B1
:103C6000300000000F00108020402240338002000E
:103C700020403FC0040004003FC0204020402040BE
:103C80003FC02040204000000060202020203FC096
:103C90002000200020403FC024400B0030C02040C6
:103CA00020403FC020400040004000C03FC03C00DA
:103CB00003C03C003FC0000020403FC00C40230038
:103CC0003FC020001F802040204020401F80000077
:103CD00020403FC024402400180000001F802140E5
:103CE000214020E01FA0000020403FC024402600CB
:103CF00019C0004018C024402440224031800000F8
:103D0000300020403FC020403000000020003F80B5
:103D1000004000403F80200020003E0001C007001E
:103D200038002000380007C03C0007C03800000001
:103D3000204039C0060039C0204000002000384033
:103D400007C0384020000000304021C026403840E5
:103D500020C00000000000007FE040204020000064
:103D6000000070000C0003800040000000004020B4
:103D700040207FE000000000000020004000200004
:103D800000000000001000100010001000100010D3
:103D90000000000040000000000000000000028061
:103DA0000540054003C0004020003FC004400440DF
:103DB000038000000000038004400440064000002F
:103DC00000000380044024403FC000400000038006
:103DD0000540054003400000000004401FC024408F
:103DE00024402000000002E0055005500650042049
:103DF00020403FC00440040003C0004000000440D5
:103E000027C000400000000000100010041027E050
:103E10000000000020403FC00140070004C00440F3
:103E2000204020403FC000400040000007C0040088
:103E300007C0040003C00000044007C004400400A1
:103E400003C00040000003800440044003800000E1
:103E5000041007F0045004400380000000000380B9
:103E60000440045007F00010044007C00240040062
:103E700004000000000006400540054004C00000AA
:103E8000000004001F800440004000000400078080
:103E90000040044007C000400400070004C0018047
:103EA00006000400060001C0070001C00600000073
:103EB000044006C0010006C00440000004100710C2
:103EC00004E00180060004000000044005C0064034
:103ED000044000000000000004007BE040200000DF
:103EE000000000000000FFF0000000000000402083
:103EF0007BE0040000000000400080004000200043
:103F00002000400000000000000000000000000051
:103F1000000000000000000000001FCC000C0000AA
:103F200000000000000008003000600008003000C1
:103F300060000000022003FC1E20022003FC1E2063
:103F40000220000000000E1811043FFF10840C78BE
:103F5000000000000F0010840F3800C0077818849C
:103F60000078000000780F8410C411240E9800E43B
:103F700000840008080068007000000000000000D5
:103F80000000000000000000000007E018182004F6
:103F900040020000000040022004181807E0000062
:103FA000000000000240024001800FF0018002404A
:103FB000024000000080008000800FF80080008038
:103FC000008000000001000D000E00000000000055
:103FD0000000000000000080008000800080008061
:103FE000008000800000000C000C000000000000B9
:103FF00000000000000000060018006001800600BC
:1040000018002000000007F0080810041004080839
:1040100007F000000000080408041FFC000400046E
:104020000000000000000E0C101410241044118435
:104030000E0C000000000C1810041104110412886A
:104040000C700000000000E00320042408241FFC82
:104050000024000000001F9810841104110410882F
:1040600010700000000007F008881104110418887F
:104070000070000000001C00100010FC13001C0069
:104080001000000000000E38114410841084114408
:104090000E38000000000700088C10441044088807
:1040A00007F00000000000000000030C030C0000FB
:1040B00000000000000000000001010600000000F8
:1040C00000000000000000800140022004100808E9
:1040D0001004000002200220022002200220022000
:1040E0000220000000001004080804100220014013
:1040F0000080000000000E001200100C106C1080F8
:104100000F00000003E00C1813E4142417C408285F
:1041100007D000000004003C03C41C40074000E43A
:10412000001C000410041FFC1104110411040E886B
:104130000070000003E00C181004100410041008B4
:104140001C10000010041FFC1004100410040808C8
:1041500007F0000010041FFC1104110417C4100420
:104160000818000010041FFC1104110017C01000F3
:104170000800000003E00C181004100410441C7820
:104180000040000010041FFC108400800080108498
:104190001FFC10040000100410041FFC1004100485
:1041A0000000000000030001100110011FFE1000BC
:1041B0001000000010041FFC110403801464181C7C
:1041C0001004000010041FFC10040004000400048C
:1041D000000C000010041FFC1F0000FC1F001FFC4F
:1041E0001004000010041FFC0C04030000E0101871
:1041F0001FFC100007F00808100410041004080841
:1042000007F0000010041FFC108410801080108044
:104210000F00000007F0081810241024101C080AD2
:1042200007F2000010041FFC1104110011C011302E
:104230000E0C000400000E1C1104108410841044A5
:104240001C3800001800100010041FFC100410009F
:104250001800000010001FF81004000400041004EF
:104260001FF8100010001E0011E0001C00701380E9
:104270001C0010001FC0103C00E01F0000E0103CBC
:104280001FC000001004180C163401C001C0163401
:10429000180C100410001C00130400FC13041C0074
:1042A000100000000804101C1064108413041C0487
:1042B000101800000000000000007FFE40024002D5
:1042C00040020000000030000C0003800060001C71
:1042D0000003000000004002400240027FFE000098
:1042E00000000000000000002000400040004000EE
:1042F0002000000000010001000100010001000198
:10430000000100010000400040002000000000000B
:104310000000000000000098012401440144014411
:1043200000FC000410001FFC008801040104008848
:104330000070000000000070008801040104010406
:1043400000880000000000700088010401041108CA
:104350001FFC0004000000F8014401440144014432
:1043600000C800000000010401040FFC1104110446
:1043700011001800000000D601290129012901C9F6
:104380000106000010041FFC00840100010001046C
:1043900000FC000400000104190419FC00040004DE
:1043A000000000000000000300010101190119FED6
:1043B0000000000010041FFC0024004001B4010CA8
:1043C000010400000000100410041FFC000400049D
:1043D00000000000010401FC0104010001FC0104D3
:1043E000010000FC010401FC008401000100010443
:1043F00000FC0004000000F80104010401040104B1
:1044000000F80000010101FF00850104010400889B
:104410000070000000000070008801040104010524
:1044200001FF00010104010401FC008401040100FA
:1044300001800000000000CC01240124012401249B
:104440000198000000000100010007F801040104C8
:1044500000000000010001F800040004000401084D
:1044600001FC0004010001800170000C00100160DB
:104470000180010001F0010C003001C00030010C8E
:1044800001F0010000000104018C00740170018C36
:1044900001040000010101810171000E001801609A
:1044A0000180010000000184010C013401440184F9
:1044B000010C0000000000000000000001003EFCB4
:1044C000400240020000000000000000FFFF00006A
:1044D000000000000000400240023EFC010000001D
:1044E00000000000000060008000800040004000EC
:1044F000200020000000000000000000000000007C
:1045000000000000000000000000000000000000AB
:10451000000000000000000000000000000000009B
:10452000000000000000000000000000000000008B
:10453000000000000000000000000000000000007B
:10454000000000000000000000000000000000006B
:10455000000000000000000000000000000000005B
:10456000000000000000000000000000000000004B
:10457000000000000000000000000000000000003B
:10458000000000000000000000000000000000002B
:10459000000000000000000000000000000000001B
:1045A000000000000000000000000000000000000B
:1045B00000000000000000000000000000000000FB
:1045C00000000000000000000000000000000000EB
:1045D00000000000000000000000000000000000DB
:1045E00000000000000000000000000000000000CB
:1045F00000000000000000000000000000000000BB
:1046000000000000000000000000000000000000AA
:10461000000000000000000000000000000000009A
:10462000000000000000000000000000000000008A
:10463000000000000000000000000000000000007A
:10464000000000000000000000000000000000006A
:10465000000000000000000000000000000000005A
:10466000000000000000000000000000000000004A
:10467000000000000000000000000000000000003A
:10468000000000000000000000000000000000002A
:10469000000000000000000000000000000000001A
:1046A000000000000000000000000000000000000A
:1046B00000000000000000000000000000000000FA
:1046C00000000000000000000000000000000000EA
:1046D00000000000000000000000000000000000DA
:1046E000000000000000000F80380FFE380F8038F7
:1046F00000000000000000000000000000000000BA
:1047000000000100000600000C000038000031002D
:10471000000600000C00003800003000000000001F
:104720000000000061800067F807F98000618000E8
:1047300061800061800061800067F807F980006196
:104740008000000000000000000001C0E003E0F075
:104750000630080418081FFFFE040E080787F00340
:1047600081E000000000000001F000060C000404DD
:1047700008060C7001F9C0000E00003BE000EC18C8
:10478000070808040C180003E00000000001E00026
:1047900007F003F818041C0804170807E1D003C049
:1047A000E00023B0003C08002008000010000000DA
:1047B0000000000100003100003200001C00000079
:1047C00000000000000000000000000000000000E9
:1047D00000000000000000000000000000000000D9
:1047E000000000007F0001FFC00780F00C001810DF
:1047F0000004200002000000000000200002100061
:10480000040C00180780F001FFC0007F00000000CA
:104810000000000000000000000000000000000098
:104820004200006600006600003C0000180003FF24
:10483000C0001800003C0000660000660000420056
:104840000000000008000008000008000008000048
:10485000080001FFC0000800000800000800000870
:1048600000000800000000000001000031000032DC
:1048700000001C000000000000000000000000001C
:104880000000000000000000000000000800000818
:1048900000000800000800000800000800000800F0
:1048A00000080000080000080000000000000000F0
:1048B0000000000038000038000038000000000050
:1048C00000000000000000000000000000000000E8
:1048D00000000000000600001C00007000018000C5
:1048E0000E0000380000C0000700001C000030006F
:1048F00000000000000000007F8001FFE0038070E6
:10490000060018040008040008060018038070015F
:10491000FFE0007F800000000000000000000100B8
:104920000801000801000803FFF807FFF80000086D
:104930000000080000080000000000000000000166
:10494000C03802C058040098040118040218040476
:1049500018061C1803F81801E0F800000000000019
:1049600000000001C0E003C0F004000804080804CF
:10497000080806180803F41801E7F00001E0000039
:1049800000000000000000000300000D0000110006
:1049900000610000810803010807FFF80FFFF8001D
:1049A00001080001080000000000000000E007FC12
:1049B000D006080806100806100806100806183861
:1049C000060FF00607C00000000000000000000015
:1049D0003F8001FFE003843002081804100804102F
:1049E00008041008071810030FF00007C0000000AB
:1049F00000000000000003C00007000006000006E1
:104A000000F80607F806180006E000070000060098
:104A10000000000000000001E1E003F7F0063410A0
:104A2000041808041808040C08040C0806161803D7
:104A3000F3F001C1E000000000000000F80003FCFA
:104A400030030638040208040208040208040410B3
:104A50000308F001FFC0007F00000000000000001C
:104A6000000000000000000000000000703800702E
:104A70003800703800000000000000000000000056
:104A80000000000000000000000000000000000026
:104A9000301A00301C000000000000000000000080
:104AA00000000000000000000000000800001400EA
:104AB000002200004100008080010040020020042C
:104AC0000010080008000000000000002100002184
:104AD0000000210000210000210000210000210031
:104AE0000021000021000021000000000000000063
:104AF00000000800080400100200200100400080AF
:104B000080004100002200001400000800000000A6
:104B100000000003C00004C00004000008003808C2
:104B20000F380808380810000C300007E00003C0F8
:104B300000000000000000003F8000FFE0038070E4
:104B4000020F1006708804C088048308047F88025E
:104B5000C09003012000FE40000008000018000182
:104B6000F8003E0801C20007020007E20000FE0054
:104B7000001FC80001F80000380000080400080702
:104B8000FFF807FFF80408080408080408080408E8
:104B90000806180803F41801E7F00001E00000001F
:104BA000000000003F8001FFE00380700200180455
:104BB0000008040008040008040010060020078014
:104BC000C000000004000807FFF807FFF804000811
:104BD000040008040008040018020010038070019B
:104BE000FFE0007F8000000004000807FFF807FFD7
:104BF000F8040808040808040808040808043E0823
:104C00000400080600180100600000000400080706
:104C1000FFF807FFF8040808040800040800040867
:104C200000043E00060000060000018000000000B5
:104C3000000000003F8001FFE003807006001804C0
:104C400000080402080402080203F00783F00002CF
:104C50000000020004000807FFF807FFF804080836
:104C60000008000008000008000008000408080709
:104C7000FFF807FFF804000800000000000004002F
:104C80000804000804000807FFF807FFF8040008FC
:104C900004000804000800000000000000000000FC
:104CA00000060000070000010400010400010400E8
:104CB0000307FFFE07FFFC040000040000040000DF
:104CC00004000807FFF807FFF8040C0800180000AC
:104CD0003E0004C7800503C80600F804003804003D
:104CE0001800000804000807FFF807FFF804000890
:104CF000000008000008000008000008000008008C
:104D0000001800006000000004000807FFF807809A
:104D10000807FC00007FC00003F80007C00078000F
:104D200007800807FFF807FFF804000804000807D9
:104D3000FFF807000803C00000E000003800001E74
:104D4000000007000001C00400F007FFF8040000A5
:104D5000000000007F8001FFE0038070060018045F
:104D6000000804000806001803003001FFE0007F7F
:104D70008000000004000807FFF807FFF80404089B
:104D8000040400040400040400040400060C0003EE
:104D9000F80001F000000000000000007F8001FF2B
:104DA000E00380700600880400880400C806003C08
:104DB00003003E01FFE6007F8400000004000807B6
:104DC000FFF807FFF8040808040800040C00040FAB
:104DD00000040BC00610F003F03801E008000008E2
:104DE00000000001E0F803F0300630100418080459
:104DF0001808040C08040C080206180207F00781C2
:104E0000E000000001800006000004000004000033
:104E100004000807FFF807FFF80400080400000476
:104E2000000006000001800004000007FFE007FF0B
:104E3000F004001800000800000800000800000846
:104E400000000804001007FFE00400000400000652
:104E5000000007E00007FE00041FE00001F800006A
:104E6000380001E0043E0007C00006000004000016
:104E700004000007E00007FFC0041FF80007C00798
:104E8000F80007FF80043FF80007C004F80007009F
:104E90000004000000000004000806001807C078A5
:104EA00005F1C8003E00001F800463E80780F80693
:104EB000001804000800000004000006000007803D
:104EC0000007E008047C08001FF80007F800180835
:104ED00004E00807000006000004000000000001D4
:104EE00000080600380400F80403E8040F08047CF6
:104EF0000805F00807C0080700180400600000005B
:104F00000000000000000000000000000000003F62
:104F1000FFFE2000022000022000022000022000EC
:104F20000200000000000000000008000007000070
:104F300000C0000038000006000001C00000300082
:104F4000000E000001000000000000000000200032
:104F5000022000022000022000022000023FFFFE8B
:104F60000000000000000000000000000000000041
:104F700000000000000800001000003000002000C9
:104F800000300000100000080000000000000000D9
:104F9000000001000001000001000001000001000C
:104FA00000010000010000010000010000010000FC
:104FB00001000001000000000000000000200000CF
:104FC00020000010000010000000000000000000A1
:104FD00000000000000000000000000000F00019C8
:104FE000F8001B18002208002608002408002410DE
:104FF000003FF8001FF8000008000018000000043F
:10500000000007FFF80FFFF000181800100800203C
:1050100008002008003018001FF0000FC00000003A
:105020000000000007C0001FF0001830002008003A
:105030002008002008003C08001C10000060000050
:10504000000000000000000007C0001FF00038183A
:1050500000200800200800200804101007FFF80FA7
:10506000FFF000001000000000000000000000073A
:10507000C0001FF000123000221800220800220891
:10508000003208001E10000E20000000000000008A
:10509000200000200800200801FFF803FFF8062088
:1050A0000804200804200807200003000000000076
:1050B00000000000000E000E6E001FF30031B10072
:1050C00020B10020B1003191001F13002E1E0020DE
:1050D0000E00300000000004000807FFF80FFFF882
:1050E000001008002000002000002008003FF80009
:1050F0001FF8000008000000000000000000002071
:1051000008002008002008063FF8063FF8000008C5
:10511000000008000008000000000000000000007F
:105120000000000003000003002001002001002017
:1051300003063FFE063FFC000000000000000000E8
:1051400000000004000807FFF80FFFF800018800C6
:105150000300002FC00038F80020380020080000AD
:10516000080000000000000000000400080400081F
:1051700004000807FFF80FFFF8000008000008000F
:105180000008000000000000002008003FF8003F79
:10519000F8001008002000003FF8003FF800100859
:1051A000002000003FF8003FF80000080000000069
:1051B0002008003FF8003FF8001008001000002011
:1051C00000002008003FF8001FF800000800000061
:1051D0000000000007C0000FF00018300030080089
:1051E0002008002008003008001830000FF00007E9
:1051F000C0000000000000002001003FFF003FFF52
:10520000001011002009002008002008003038009C
:105210001FF0000FC00000000000000007C0001FCA
:10522000F0003818002008002008002009001011A4
:10523000001FFF003FFF00000100000000200800E9
:105240002008002008003FF8003FF8000808001080
:10525000080020080020000030000030000000009E
:10526000000000000000000C78001E180033080049
:1052700023080021080021880021980030F0003820
:10528000600000000000000020000020000020005E
:1052900000FFF003FFF800200800200800200800AD
:1052A0000030000000000000000000002000003F6F
:1052B000F0007FF80000180000080000080020102F
:1052C000003FF8007FF00000100000000000000028
:1052D0002000003000003C00003F800023F0000070
:1052E00078000070002380003C00003000002000A7
:1052F000002000003C00003FE00023F80000E00038
:105300002700003E00003FE00021F80001E0003EE1
:1053100000002000000000002008002008003838AD
:10532000003E680027800003C8002CF800383800D1
:1053300020180020080000000000000020000030BD
:1053400003003C01003F830023EC00007000238039
:10535000003C0000200000200000000000000000D1
:1053600000000038080020380020F80023E8002F53
:1053700088003E0800380800201800007000000077
:10538000000000000000000000000000000000001D
:1053900008000014001FF7FC300006200002000087
:1053A00000000000000000000000000000000000FD
:1053B000000000000000FFFFFF00000000000000F0
:1053C00000000000000000000000000000002000BD
:1053D000023000061FF7FC00140000080000000067
:1053E00000000000000000000000000000000018A5
:1053F000000060000040000040000020000010009D
:10540000000800000400000400000C000010000070
:1054100030313233343536373839414243444546EA
:1054200040305800303132333435363738396162E4
:1054300063646566403078000400000800000000E6
:105440000000000200010000100000003F0000000A
:10545000646563006964000072756E74696D65004F
:1054600068656C70000000006C69737400000000D7
:1054700068657800766F69642077726974655F612A
:105480006464722875333220616464722C7533321F
:105490002076616C290000007533322072656164EA
:1054A0005F6164647228753332206164647229001C
:1054B000766F69642064656C61795F6D73287531FE
:1054C00036206E6D73290000766F69642064656C08
:1054D00061795F757328753332206E75732900000A
:1054E000005500080000002048010000C401000829
:1054F0005055000848010020000C00002002000860
:1055000011031124F43201134C541B0860041A686F
:10551000041A54041A70041A50041A580413A528C3
:105520001B08980813DD371B08740813D9251B08BE
:10553000B0081AF5081AC80822341420352F1B08A1
:10554000E1281375291B08950C4A045701D900005E
:040000050800018965
:00000001FF
