:020000040800F2
:10000000180600209D010008C31C00089B1700086B
:10001000C11C0008C502000881250008000000007E
:10002000000000000000000000000000811E000829
:10003000C702000800000000ED1D0008831E000834
:10004000B7010008B7010008B7010008B7010008B0
:10005000B7010008EF1D0008B7010008B70100084C
:10006000B7010008B7010008B7010008B701000890
:10007000B7010008B7010008B7010008B701000880
:10008000B7010008B7010008B7010008B701000870
:10009000B7010008B7010008B7010008B701000860
:1000A000B7010008B7010008B7010008B701000850
:1000B000611F00086D1F0008791F0008B7010008C4
:1000C000B7010008B7010008B7010008B701000830
:1000D000B70100086925000875250008B701000868
:1000E000B7010008B7010008B7010008B701000810
:1000F000B7010008B7010008B7010008B701000800
:10010000B7010008B7010008B7010008B7010008EF
:10011000B7010008B7010008B7010008851F0008F3
:10012000B7010008B7010008B7010008B7010008CF
:10013000B7010008B7010008B7010008B7010008BF
:10014000B7010008B7010008B7010008B7010008AF
:10015000B7010008B7010008B7010008B70100089F
:10016000B7010008B7010008B7010008B70100088F
:10017000B7010008B7010008B7010008000000003F
:10018000B7010008B7010008DFF80CD000F088F8CC
:1001900000480047652700081806002006488047E9
:1001A00006480047FEE7FEE7FEE7FEE7FEE7FEE75C
:1001B000FEE7FEE7FEE7FEE70D1F000889010008E5
:1001C0002DE9F05F0546002092469B46884606468C
:1001D000814640241BE0284641464746224600F01F
:1001E0004EF853465A46C01A914110D3114618464C
:1001F000224600F035F82D1A67EB01084F462246DB
:100200000120002100F02CF817EB00094E41201EC0
:10021000A4F10104DFDC484631462A464346BDE8E6
:10022000F09FD2B201E000F8012B491EFBD27047CB
:100230000022F6E710B513460A4604461946FFF7B2
:10024000F0FF204610BD30B504460020034600E014
:100250005B1C934203D2E05CCD5C401BF8D030BD08
:10026000202A04DB203A00FA02F100207047914076
:10027000C2F1200320FA03F3194390407047202A6B
:1002800004DB203A21FA02F00021704721FA02F340
:10029000D040C2F120029140084319467047000047
:1002A000064C074D06E0E06840F0010394E80700C3
:1002B00098471034AC42F6D3FFF76AFF442A00088F
:1002C000642A0008FEE77047704790F8351002294D
:1002D00003D08021416501207047052180F8351049
:1002E0000068016821F001010160002070470000F2
:1002F00070B5044600F002F90546601C02D00448BF
:100300000078044400F0FAF8401BA042FAD370BD14
:100310001000002001490860704700000000002024
:100320002DE9F84F00224FF0010803254FF00F0E82
:100330000B6808FA02F42340A3426ED14E68012EE6
:1003400005D0022E03D0112E01D0122E12D18668B4
:100350004FEA420C05FA0CF7BE43CF6807FA0CF7D8
:10036000374387604668A6430C79C4F30014944071
:1003700034434460C668570005FA07FC8C6826EAD7
:100380000C06BC403443C4604C68022C01D0122CD3
:1003900013D1D40800EB8404A346D4F8209054076A
:1003A0004FEAD46A0EFA0AF629EA06090E6906FA35
:1003B0000AF646EA0906CBF8206006680C7926EAB8
:1003C0000C0604F00304BC40344304604C68E400B1
:1003D00065D5364C266846F480462660246822F0AF
:1003E000030604F480440094314C3444A446D4F809
:1003F00008489607370F0EFA07F6B4432D4EB04261
:1004000001D1002624E02C4EB04201D101261FE08C
:100410002A4EB04202D102261AE040E0284EB042F5
:1004200001D1032614E0274EB04201D104260FE08B
:10043000254EB04201D105260AE0244EB04201D13A
:10044000062605E0224EB04201D1072600E008262C
:10045000BE402643CCF808681E4E34684F689C4363
:10046000FF0300D51C4334601A4C241D26684F68D6
:100470009E43BF0300D51E432660164E08363468DF
:100480004F689C43FF0200D51C433460114E0C366C
:1004900034684F689C43BF0200D51C433460521C33
:1004A000102AFFF445AFBDE8F88F00004438024041
:1004B00000300140000002400004024000080240F9
:1004C000000C0240001002400014024000180240DC
:1004D000001C0240003C01400069084000D001209F
:1004E0007047426931EA020200D109048161704714
:1004F0000AB1816170470904FBE700000148806888
:100500007047000010000020024881680278114402
:1005100081607047100000200B4810B5016841F45D
:1005200000710160016841F480610160016841F47B
:1005300080710160032000F077F8002000F006F8D9
:1005400000F024F8002010BD003C024070B50D4DB5
:1005500004464FF47A712878B1FBF0F00A49096833
:10056000B1FBF0F000F00AFB48B9102C07D20022D2
:100570002146501E00F038F800206C6070BD01204C
:1005800070BD0000100000200C0000200E4808B5CF
:10059000016841F480410160006800F480400090EF
:1005A0000948001F016841F0805101600068002285
:1005B00000F0805000901146052000F015F8BDE8CD
:1005C0000840052000F002B844380240002809DB4A
:1005D00000F01F02012191404009800000F1E0205D
:1005E000C0F8001170470000F0B40E4B1B680C46B9
:1005F000C3F30223C3F10705042D00D90425191DF7
:10060000072901D2002300E0DB1E012606FA05F1CE
:10061000491E214099409E40761E16403143F0BC51
:1006200002F00CB80CED00E0064900F00702086883
:100630004FF6FF03184040EA0220034A10430860C7
:10064000704700000CED00E00000FA052DE9F047CE
:100650000E46050065D0DFF81481D8F80000F7B227
:1006600000F00F00B04207D288F80070D8F8000000
:1006700000F00F00B04254D128683D4C810712D5DC
:10068000400703D5206840F4E05020602878000738
:1006900003D5206840F4604020602068A96820F0FD
:1006A000F000084320602878C0072DD030496868E2
:1006B0000839012812D0022813D0032811D0096864
:1006C000890700292DDA216821F003010143216007
:1006D000FFF714FF814641F2883A0EE0096889036A
:1006E000EFE709688901ECE7FFF708FFA0EB0901D4
:1006F000514502D90320BDE8F0872068696800F001
:100700000C00B0EB810FEFD1D8F80010404601F09B
:100710000F01B14207D90770006800F00F00B04226
:1007200001D00120E7E72878400705D52068E9686F
:1007300020F4E050084320602878000706D52068A0
:10074000296920F4604040EAC100206000F038F8D8
:100750002168084AC1F30311515CC840064908608A
:1007600006480068FFF7F2FE0020C4E7003C0240A4
:10077000083802402C2A00080C0000201400002039
:100780000448054900680968044AC1F38221515CA4
:10079000C84070470C000020083802403C2A00087E
:1007A0000448054900680968044AC1F34231515CB4
:1007B000C84070470C000020083802403C2A00085E
:1007C000154810B5006810F00C02144813D0411001
:1007D000042A0FD0082A0ED10F4C241F2268236848
:1007E00002F03F025B0207D52068C0F38810A0FB2F
:1007F000010106E0084610BD2168C1F38811A1FB84
:1008000000010023FFF7DCFC2168C1F30141491C12
:100810004900B0FBF1F010BD083802400024F4009C
:100820002DE9F84F04006ED02078DFF83C93C00724
:10083000A9F104054AD009F104000168C1F381015E
:10084000012908D00068C0F3810002280AD1D9F834
:100850000000400206D52868800337D5606800286C
:10086000E1D033E06068B0F5803F10D0B0F5A02F44
:10087000286810D020F480302860286820F4802078
:1008800028606068A8B1FFF739FE06460DE02868C9
:1008900040F48030F4E740F480202860F7E700BFA0
:1008A000FFF72CFE801B642873D828688003F7D5D7
:1008B0000CE0FFF723FE064605E000BFFFF71EFE33
:1008C000801B6428F0D828688003F7D42078DFF8EC
:1008D0009C8280074FF0000A3ED5A348001D0168A6
:1008E00011F00C0F08D00068C0F3810002280BD172
:1008F000D9F80000400207D42868800716D5E068C0
:10090000012800D112E02BE1E068B8B10120C8F85D
:100910000000FFF7F3FD064605E000BFFFF7EEFD20
:10092000801B0228C0D828688007F7D5286821696D
:1009300020F0F80040EAC10028600DE0C8F800A0EF
:10094000FFF7DCFD064604E0FFF7D8FD801B022818
:100950001FD828688007F7D42078000722D5824E58
:1009600083486169703671B101210160FFF7C6FDEE
:10097000074604E0FFF7C2FDC01B022809D8306813
:100980008007F7D50EE0C0F800A0FFF7B7FD0746D7
:1009900005E082E0FFF7B2FDC01B02287DD8306879
:1009A0008007F7D42078400768D5DFF8BCB100276E
:1009B0000BF13C0BDBF80000C0000BD4DBF800109F
:1009C00041F08051CBF80010DBF80000012700F067
:1009D00080500090674E3068C00510D4306840F4F5
:1009E00080703060FFF78AFD009005E0FFF786FD1C
:1009F0000099401A022850D83068C005F6D55A4EE2
:100A0000A0686C3601280FD00528306810D020F07F
:100A100001003060306820F004003060A068B8B198
:100A2000FFF76CFD00900FE0306840F00100F4E744
:100A300040F004003060F7E7FFF760FD0099411ACD
:100A400041F28830814266D830688007F4D50EE0E4
:100A5000FFF754FD009007E0FFF750FD0099411AA1
:100A600041F28830814256D830688007F4D42FB1E3
:100A7000DBF8001021F08051CBF80010A069C8B35A
:100A80003949091D0968C1F3810102294AD00228A8
:100A9000504607D0C8F8600000E03CE0FFF72EFDAC
:100AA00004463BE04746C8F86000FFF727FD0646CE
:100AB00005E000BFFFF722FD801B02282BD8286825
:100AC0008001F7D4D4E907010843A16A2A4A4908FA
:100AD00002EB0141626A41EA8211084394F82C104A
:100AE00040EA0161C9F8001001203866FFF706FDF1
:100AF000044606E036E000BFFFF700FD001B0228B9
:100B000009D828688001F7D52CE000BFFFF7F6FC74
:100B1000001B022802D90320BDE8F88F2868800155
:100B2000F4D41FE00128F7D0D9F80000E26900F4FE
:100B30008001914214D1226A00F03F0191420FD10D
:100B400047F6C071626A0140914209D1A26A00F47D
:100B50004031914204D1E16A00F07060884201D0D6
:100B60000120D9E70020D7E70438024000004742BF
:100B7000800E4742007000400000FFFF10B5401E8D
:100B8000B0F1807F01D3012010BD4FF0E0246061FF
:100B90000F21601701F052FD0020A06107202061A5
:100BA000002010BD7047704770B590F83C20012AB6
:100BB00032D0012480F83C40022280F83D200368B6
:100BC0005A689D6822F070060A6832435A60134BD7
:100BD00002689A4214D0B2F1804F11D0104B9A4261
:100BE0000ED0104B9A420BD00F4B9A4208D00F4BAD
:100BF0009A4205D00E4B9A4202D00E4B9A4204D133
:100C0000496825F080031943916080F83D40002138
:100C100080F83C10084670BD022070BD0000014005
:100C20000004004000080040000C004000040140A7
:100C3000004001400018004010B5040003D094F8B3
:100C40003D0010B107E0012010BD002084F83C00F9
:100C5000204600F00DF8022084F83D00211D206898
:100C600001F096F9012084F83D00002010BD00003D
:100C700010B586B0044614216846FFF7D9FA2168FA
:100C80003148B1F1804F15D0304A914221D10168ED
:100C900041F0020101600068002200F002000590AE
:100CA00011461D20FFF7A0FC5FF01D00FFF78EFC32
:100CB00006B010BD016841F001010160006800222A
:100CC00000F00100059011461C20FFF78DFC1C2050
:100CD000ECE71F4A914225D1016841F0040101600F
:100CE000006800F00400059017481038016841F0D2
:100CF000020101600068012100F00200059050151A
:100D000000900220CDE901010321CDE903106946DD
:100D10001048FFF705FB002211461E20FFF764FC78
:100D20001E20C3E70C4A9142C2D1016841F0200164
:100D300001600068002200F0200005901146372075
:100D4000FFF752FC3720B1E7403802400004004072
:100D5000000800400004024000140040022180F816
:100D60003D1001688A6802F00702062A03D00A686B
:100D700042F001020A60012180F83D100020704716
:100D80000168CA6842F00102CA600068816801F027
:100D90000701062903D0016841F00101016000202C
:100DA000704770B5044690F83C00012817D0012523
:100DB00084F83C50022084F83D002068826822F0CC
:100DC000770222F47F4282600868502830D00DDC20
:100DD00020284DD005DC98B310283BD148E00220F4
:100DE00070BD302844D0402834D139E0602828D064
:100DF000702806D0B0F5805F2CD0B0F5005F29D107
:100E00000AE0CB68D1E90121206801F032F92068BD
:100E1000816841F0770109E0CB68D1E901212068C0
:100E200001F027F92068816841F48041816011E078
:100E3000CA684968206801F0F1F95021206807E08C
:100E400016E0CA684968206801F03AFA6021206813
:100E500001F019F984F83D50002084F83C0070BD81
:100E6000CA684968206801F0D9F940212068EFE795
:100E7000226801461046EBE770B500682D498842AC
:100E800057D141152C48FFF727FB2C4D2C4C002641
:100E900078B12868016A21F4204101622868016A5A
:100EA00041F40051016228684662207840F0100049
:100EB0003EE00C21214800F0F7FA80B260802968FA
:100EC0000A6A22F420420A6229680A6A0A622178C0
:100ED000CA062AD50B064FF4F9721DD5A0F22D13C0
:100EE000934202D86068400009E0A0F279524FF4C2
:100EF000C7739A4205D86068400040F00100606006
:100F000013E0A0F6990098420FD8207A401C207276
:100F100001F0F000207008E0A0F5805069389042A0
:100F200003D841F0800020702672207820F0100055
:100F3000207070BD00080040000402401401002031
:100F4000880000202DE9F041044690F83C000D4651
:100F500001283DD0012684F83C60022084F83D0041
:100F6000AAB3042A46D02068082A55D0D5E900271C
:100F7000E968036A23F480530362D0F81CC0036A53
:100F80002CF4407C4CEA07274FF6FF7C27F470478F
:100F90000CEA013139434FF4204723F4204307EA98
:100FA00002321A43C16102622068C16921F44061C2
:100FB000C1612068C169AA6841EA0221C0F81C1019
:100FC00084F83D60002084F83C00BDE8F08101E039
:100FD0000220FAE7D5E90012EB68206801F030F949
:100FE0002068816921F00C01816120688169AA680B
:100FF00011430FE0D5E90012EB68206801F072F9A7
:101000002068816921F44061816120688169AA6852
:1010100041EA02218161D3E7D5E9002C2F7B016AE7
:1010200021F480710162C169036A21F0030141EA80
:101030000C0121F0F00C39074FF420674CEA1161E4
:1010400023F4206307EA02221A43C1610262206886
:10105000C16921F00C01C1612068C169AA6811430E
:10106000ACE710B5040003D094F83D0010B107E0E0
:10107000012010BD002084F83C00204600F00CF850
:10108000022084F83D00211D206800F081FF01202E
:1010900084F83D00002010BD704710B5026804467A
:1010A00031B1042908D008291AD00C2908D11BE035
:1010B000D06840F0020002E0D06840F00400D06048
:1010C0000122206800F0C8FF2068816801F0070154
:1010D000062903D0016841F001010160002010BD24
:1010E000D06840F00800EAE7D06840F01000E6E77A
:1010F00070B50446006801694FF00005C9438907CF
:1011000015D4C168C943890711D4E91E01610120C2
:101110002077206880698007204602D0FFF7ACFE68
:1011200004E000F0D5F8204600F057F92577206854
:101130000169C943490717D4C168C943490713D492
:101140006FF004010161022020772068806910F4AB
:10115000407F204602D0FFF78FFE04E000F0B8F891
:10116000204600F03AF9257720680169C94309074C
:1011700016D4C168C943090712D46FF00801016190
:10118000042020772068C0698007204602D0FFF73E
:1011900073FE04E000F09CF8204600F01EF925776D
:1011A00020680169C943C90617D4C168C943C90683
:1011B00013D46FF010010161082020772068C06906
:1011C00010F4407F204602D0FFF756FE04E000F006
:1011D0007FF8204600F001F9257720680169C943AE
:1011E000C90708D1C168C943C90704D1891E016173
:1011F000204600F043F920680169C943090609D473
:10120000C168C943090605D46FF080010161204619
:10121000FFF7C8FC20680169C943490609D4C168C1
:10122000C943490605D46FF040010161204600F032
:1012300050F920680169C94389060BD4C168C943C4
:10124000890607D46FF0200101612046BDE8704097
:10125000FFF7A9BC70BD000030B587B0044614216B
:101260006846FEF7E5FF16492068884226D11548F2
:101270000024016841F001010160016801F00101F1
:101280000591016841F0020101600068022500F04B
:1012900002000590C0200090CDE9015469460A483B
:1012A000CDE90345FFF73CF803200090CDE9015458
:1012B00069460648CDE90345FFF732F807B030BD6F
:1012C00000040040303802400000024000040240A8
:1012D000704770B5044690F83C000D4601280DD0CB
:1012E000012684F83C60022084F83D0042B1042AC3
:1012F00018D0082A2AD00C2A4DD139E0022070BD1E
:10130000206800F0C9FE2068816941F00801816110
:101310002068816921F004018161206881692A695E
:10132000114311E0206800F0E7FE2068816941F474
:10133000006181612068816921F480618161206898
:1013400081692A6941EA0221816124E0206800F074
:1013500009FF2068C16941F00801C1612068C169C5
:1013600021F00401C1612068C1692A69114311E0BB
:10137000206800F02BFF2068C16941F40061C16161
:101380002068C16921F48061C1612068C1692A694E
:1013900041EA0221C16184F83D60002084F83C00EC
:1013A00070BD10B5040003D094F83D0010B107E003
:1013B000012010BD002084F83C00204600F00CF80D
:1013C000022084F83D00211D206800F0E1FD01208D
:1013D00084F83D00002010BD7047704710B50446EA
:1013E0000068012200F038FE0B492068884202D0D4
:1013F0000A49884203D1416C41F4004141642068AC
:10140000816801F00701062903D0016841F001015C
:101410000160002010BD00000000014000040140F8
:1014200010B504460068002200F016FE114841F293
:10143000111221689310814202D00F48814209D1D4
:10144000086A104206D1086A184203D1486C20F499
:10145000004048642068016A114206D1016A1942BD
:1014600003D1016821F001010160012084F83D00F1
:10147000002010BD000001400004014010B50446EA
:1014800000680749884202D1642001F07BF80549D1
:101490002068884203D1BDE8104000F0A9BC10BD0F
:1014A00000140040000800400246002041B1042919
:1014B00009D008290AD00C2901D11068006C7047A6
:1014C0001068406B70471068806B70471068C06B85
:1014D000704770477047000070B502680446106896
:1014E000D168536910F00F0F52D003F0010501F4D9
:1014F00090762E435FD0C20705D0CA0503D5E26BB4
:1015000042F00102E263420705D5DA0703D0E26B3D
:1015100042F00202E263820705D5DA0703D0E26BEC
:1015200042F00402E263020707D501F020022A43D9
:1015300003D0E26B42F00802E263E26B002A33D090
:10154000800604D5880602D5204600F0FCFE2068FF
:101550004069E16BC0F38010090700D428B320462E
:1015600000F0E3FE2068416949061AD5416921F07F
:1015700040014161606BA0B11B490165606BFEF7E2
:10158000A4FE002810D0606B016DBDE870400847D4
:10159000830610D58B060ED52046BDE8704000F0BE
:1015A000D2BE2046FFF796FF70BD2046FFF792FFA0
:1015B0000020E06370BD030606D50B0604D5204667
:1015C000BDE8704000F09EBF4006F3D54806F1D557
:1015D000D168204621F04001D160202184F83910E3
:1015E00000F0DAF870BD00001B23000870B504009D
:1015F00004D094F83900002510B106E0012070BD38
:1016000084F83850204600F023F8242084F839006C
:101610002068C16821F40051C160204600F0DEFE60
:101620002068016921F4904101612068416921F03D
:101630002A0141612068C16841F40051C160E5633D
:10164000202084F8390084F83A00002070BD0000A2
:10165000F0B587B0044614216846FEF7E9FD2A4F2D
:101660002368002229490224032507262848BB4273
:1016700021D1264B14331F6847F010071F601B68E9
:1016800003F0100305930B6843F001030B60096836
:1016900002AB01F0010105916902CDE9001483E874
:1016A00064006946FEF73CFE002211462520FEF745
:1016B0009BFF252023E0174FBB4222D1134B103351
:1016C0001F6847F400371F601B6803F4003305935D
:1016D0000B6843F001030B60096802AB01F00101E4
:1016E00005910C21CDE9001483E864006946FEF7FA
:1016F00017FE002211462620FEF776FF2620FEF771
:1017000065FF07B0F0BD0000001001403038024016
:10171000000002400044004090F83A30202B22D1D3
:10172000F9B1F2B190F83830012B1CD0816282857A
:10173000C2850021C163222280F83A2080F8381047
:101740000168CA6842F48072CA6001684A6942F05E
:1017500001024A610068C16841F02001C1600020B7
:1017600070470120704702207047000010B5044602
:1017700000680749884201D100F01CFF0549206834
:10178000884203D1BDE8104000F014BF10BD000036
:1017900000100140004400407047FEE72DE9F04191
:1017A00001262E4D2E4F2F4C01281DD02878A0B198
:1017B00010212046FEF790FEC0B108212046FEF71A
:1017C0008BFE98B104212046FEF786FE70B1012100
:1017D0003846FEF781FE012808D010212046FEF78A
:1017E0007BFE012826D037E02E70E1E70A20FEF7C5
:1017F0007FFD0020287010212046FEF76DFE80B18D
:1018000008212046FEF768FE70B104212046FEF74D
:1018100063FE58B101213846FEF75EFE012807D06D
:101820001AE00120BDE8F0810220FBE70320F9E780
:101830000420F7E708212046FEF74EFE01280BD1D1
:1018400004212046FEF748FE012805D10121384633
:10185000FEF742FE00B92E700020E3E704000020EE
:10186000000002400010024001460020682934D0E8
:1018700014DC38293BD009DC022926D0102934D0C9
:10188000182930D0222900D11CA070474A2932D013
:101890005A292ED06229F8D119A07047B02920D03A
:1018A00009DC902917D0982919D0A2290BD0A82992
:1018B000F3D114A07047C22909D0E02909D0E22948
:1018C000F8D111A0704711A0704711A0704711A066
:1018D000704711A0704711A0704711A0704711A068
:1018E000704711A0704711A0704711A0704712A057
:1018F000704712A0704713A070470000340000002A
:101900003200000038000000330000003100000009
:1019100035000000360000003700000039000000EC
:101920002A00000030000000230000005550000095
:101930004C454654000000004F4B000052494748B8
:1019400054000000444F574E000000002DE9F041C4
:1019500086B014216846FEF76BFC37480024016806
:1019600041F010010160016801F01001059101686A
:1019700041F020010160016801F02001059101683A
:1019800041F080010160016801F08001059101686A
:1019900041F001010160016801F001010591016858
:1019A00041F0020101600068244F00F002004FF492
:1019B00000760590002231463846FEF799FDDFF8A3
:1019C0008080002244F220014046FEF791FD1C2059
:1019D00001258DE8310069461A48FEF7A1FC009602
:1019E000CDE90154694638460394FEF799FCCDE9E8
:1019F00000540226694614480296FEF791FCA8039B
:101A00008DE86100694640460396FEF789FCE803CD
:101A1000CDE90004694640460294FEF781FC20208F
:101A20008DE861000320039069464046FEF778FC8C
:101A300006B0BDE8F08100003038024000140240DA
:101A400000040240001002400000024010B586B0C1
:101A500000241648009401940294039404944FF0D7
:101A60008041059401605321C0E901144FF6FF71D4
:101A7000C0E903148461FFF7DFF808B1FEF724FC26
:101A80004FF48050009069460848FFF78AF908B182
:101A9000FEF71AFC049404A904480594FFF784F89F
:101AA000002801D0FEF710FC06B010BD9400002005
:101AB00010B58EB000240794089409940A940B94EE
:101AC0001C2168460C94FEF7B3FB2A4828490160A4
:101AD0005321C0E9011444F62061C0E90314846174
:101AE000FFF7AAF808B1FEF7EFFB4FF4805007901C
:101AF00007A92048FFF755F908B1FEF7E5FB1D4897
:101B0000FFF74FFC08B1FEF7DFFB0B940BA9194858
:101B10000C94FFF749F808B1FEF7D6FB6020CDE939
:101B2000000402940022694612480494FFF7D1FB96
:101B300008B1FEF7C9FB042269460E48FFF7C9FB4E
:101B400008B1FEF7C1FB082269460A48FFF7C1FB4E
:101B500008B1FEF7B9FB0C2269460648FFF7B9FB4E
:101B600008B1FEF7B1FB0348FFF776FB0EB010BDDE
:101B700000040040D400002010B58AB000242248A0
:101B8000049405940694079408940994009401948D
:101B900002941C49039401605321C0E9011442F2EC
:101BA0001071C0E903148461FFF746F808B1FEF72D
:101BB0008BFB4FF48050049004A91348FFF7F1F811
:101BC00008B1FEF781FB1048FFF74BFA08B1FEF7AA
:101BD0007BFB089408A90C480994FEF7E5FF08B1BF
:101BE000FEF772FB0120CDE9004002940C22694609
:101BF00005480394FFF7A6F9002801D0FEF764FB1F
:101C00000AB010BD00080040140100201CB50024DB
:101C10000E4800940C490194016042F2CF01C0E9E2
:101C200001140A218461C160FFF706F808B1FEF7CC
:101C30004BFB0094694605480194FEF7B5FF002868
:101C400001D0FEF741FB1CBD0014004054010020F0
:101C50000C4810B50A4901604FF4E13141600021A0
:101C600081600C22C160C0E904128161C161FFF78B
:101C7000BDFC002803D0BDE81040FEF725BB10BD19
:101C800000100140940100200C4810B50A49016081
:101C90004FF4E1314160002181600C22C160C0E954
:101CA00004128161C161FFF7A1FC002803D0BDE8E7
:101CB0001040FEF709BB10BD00440040D4010020D5
:101CC000FEE77047F0B43D4A4FF4FA735C009E00A3
:101CD000126840F2DC5540F6C41701280CD00228E7
:101CE00022D0032839D0042866D15A295AD04CDC96
:101CF00081B32D294DD153E05A290FD003DC41B1D6
:101D00002D2904D107E087290AD0B4290AD000215F
:101D100040E0536300E05463002149E05563FBE772
:101D20005663F9E75763F7E75A290FD003DC41B14F
:101D30002D2904D107E087290AD0B4290BD004212A
:101D400028E0936300E09463042131E09563FBE7AE
:101D50009663F9E722E09763F6E75A290FD003DC90
:101D600041B12D2904D107E087290AD0B4290AD02E
:101D700008210FE0D36300E0D463082118E0D563A5
:101D8000FBE7D663F9E7D763F7E787290CD0B429D7
:101D90000CD00C21F0BC0948FFF742BB136406E0ED
:101DA000146404E0156402E0166400E017640C217A
:101DB000F0BC0248FFF712BBF0BC7047D400002013
:101DC00010B500210848FFF72BFB04210648FFF758
:101DD00027FB08210448FFF723FBBDE810400C2136
:101DE0000148FFF71DBB0000D4000020704770477A
:101DF0000B4801780A0611D521F0100101700A077D
:101E000002D141F040010170C9B201F00F020E2A67
:101E100001D2491C01E001F070010170704700001F
:101E20008800002010B50448FEF7AAFFBDE8104066
:101E30000C210148FFF731B91401002070B50F499A
:101E400000200D786A0618D54A686FEA1244E6B297
:101E5000130E00249E420BD153B9C2F30723D24381
:101E6000D2B29A4200D118464C6008B12A0604D476
:101E700025F040020A700C724C6070BD8800002092
:101E80007047FEF741BB000030B593B03021684683
:101E9000FEF7CEF914210CA8FEF7CAF9194800255F
:101EA000016841F080510160006800F0805011909D
:101EB0001548016841F4804101600068022400F483
:101EC0008040119001200090000401908001CDE934
:101ED000064008AA0420A82182E813000B90684657
:101EE000FEF79EFC0CA90F2081E831004FF4A050B2
:101EF0000F90E002109005210CA8FEF7A7FB13B08D
:101F000030BD0000403802400070004010480168B9
:101F100041F4700101600F48016841F00101016066
:101F20000C4A00210832116002680B4B1A40026013
:101F3000031D0A4A1A60026822F4802202600548E2
:101F40000C30016002495806803908607047000073
:101F500088ED00E000380240FFFFF6FE103000245C
:101F60000148FFF7C5B80000940000200148FFF7C2
:101F7000BFB80000D40000200148FFF7B9B8000046
:101F8000140100200148FFF7B3B8000054010020FD
:101F9000F0B50268254C264D264E274F274B4FF0B3
:101FA000804CA04209D0604507D0A84205D0B0427D
:101FB00003D0B84201D0984204D122F0700E4A6892
:101FC00042EA0E02A0421BD0604519D0A84217D0A9
:101FD000B04215D0B84213D0984211D0184DA84243
:101FE0000ED0184DA8420BD0174DA84208D0174D5F
:101FF000A84205D0164DA84202D0164DA84203D1E2
:1020000022F44075CA682A434D6922F080022A43AF
:1020100002608A68C2620A688262A04201D0984265
:1020200001D10969016301214161F0BD0000014056
:102030000004004000080040000C00400004014083
:1020400000400140004401400048014000180040A9
:10205000001C00400020004010B501F01F030121CA
:10206000046A99408C430462016A9A4011430162F8
:1020700010BD10B5846842EA032224F47F440A4369
:102080002243826010BD826822F070020A4342F04F
:102090000701816070470000F0B5026A22F001027A
:1020A0000262036A42688469124E24F073050C6868
:1020B0002C4323F002058B682B430D4DA84201D021
:1020C000B04205D123F00807CB683B4323F004035B
:1020D000A84201D0B04205D14D6922F440721543A7
:1020E0008A692A4342608461496841630362F0BDA2
:1020F0000000014000040140F0B5026A22F0100225
:102100000262026A436884690D6824F4E64444EA82
:1021100005248D6822F0200242EA05120F4D104E70
:10212000A84201D0B04206D1CF6822F0800242EA34
:10213000071222F04002A84201D0B04207D14D69F7
:1021400023F4406343EA85038D6943EA85034360D2
:102150008461496881630262F0BD000000000140B3
:1021600000040140F0B5026A22F480720262026A41
:102170004368C46922F4007224F073050C68124E9F
:102180002C438D6842EA05220E4DA84201D0B04290
:1021900006D1CF6822F4006242EA072222F480626C
:1021A000A84201D0B04207D14D6923F4405343EA1D
:1021B00005138D6943EA05134360C4614968C1632F
:1021C0000262F0BD000001400004014030B5026A27
:1021D00022F480520262046A4268C3690D6823F4E3
:1021E000E64343EA05238D6824F4005444EA0534A9
:1021F000084DA84202D0084DA84204D14D6922F4EE
:10220000804242EA85124260C36149680164046207
:1022100030BD0000000001400004014010B5036A19
:10222000046A24F001040462846924F0F00444EA9E
:10223000021423F00A020A438461026210BD000006
:1022400070B5046A24F0010404628469056A154EBD
:10225000B04214D0B0F1804F11D0134EB0420ED026
:10226000124EB0420BD0124EB04208D0114EB042C6
:1022700005D0114EB04202D0104EB04203D124F02E
:102280000304144301E044F001041A0724F0F004AD
:1022900044EA126225F00A0301F00A01194382613F
:1022A000016270BD000001400004004000080040D1
:1022B000000C0040000401400040014000180040B4
:1022C00010B5036A23F0100303628369046A23F4E0
:1022D000704343EA023224F0A00343EA0111826111
:1022E000016210BD30B5046A24F0100404628469F0
:1022F000056A24F4407444EA022222F470444FF642
:10230000FF7202EA03322243A02425F0A00304EA6C
:10231000011119438261016230BD10B5806B00214B
:10232000C185C184FFF7D6F810BD0168CA6822F4E0
:102330009072CA6001684A6922F001024A61202154
:1023400080F83A10704710B590F83A10222901D061
:10235000022010BD8168B1F5805F11D001690029AC
:1023600001681FD0496801F07F03816A4A1C8262BC
:102370000B70C18D491E0904090CC18518D02BE0D2
:102380000269816A002A0268526805D0D2B20A80C6
:10239000816A491C8162ECE7C2F308020A80816A03
:1023A000891CF7E74A68816A4B1C83620A70E0E780
:1023B0000168CA6822F02002CA600168CA6822F473
:1023C0008072CA6001684A6922F001024A612021D4
:1023D00080F83A10FFF7CAF9002010BD2DE9F0414E
:1023E000044600680169E26821F44051114301612B
:1023F0002169A068E26908436169114308432168C3
:10240000CA6849F20C639A430243CA602068416972
:10241000A26921F4407111434161E06919276425E3
:102420003226B0F5004F354A354920684FF0000894
:1024300006D0884201D0904236D1FEF7B1F935E09E
:10244000884201D0904202D1FEF7AAF901E0FEF7DE
:1024500097F961684A18A0FB070148EB0803FDF7EC
:10246000AFFE0146B0FBF5F00201B1FBF5F06FF0F5
:102470001803584301EB800006EBC000B0FBF5F0F9
:1024800000F0F80002EB4002B1FBF5F0584301EB1D
:10249000800006EBC000B0FBF5F000F007002168FB
:1024A00010448860BDE8F081FEF76AF961688B0F1F
:1024B0008A00A0FB0701FDF783FE0146B0FBF5F0A3
:1024C0006FF01802504301EB800006EB0010B0FBE8
:1024D000F5F000F0F002B1FBF5F002EB0012B1FBF9
:1024E000F5F06FF01803584301EB800006EB001085
:1024F000B0FBF5F000F00F00D1E700000014014040
:102500000010014090F83910212901D002207047B5
:102510008168B1F5805F016A0BD04A1C02620268D3
:1025200009785160C18C491E0904090CC1840ED080
:1025300017E009880268C1F30801516001690029A8
:10254000016A02D0491C0162ECE7891CFBE70168C3
:10255000CA6822F08002CA600068C16841F0400188
:10256000C1600020704700000148FEF7B5BF0000C1
:10257000940100200148FEF7AFBF0000D401002005
:10258000FEE700000A4991F86720002A0FD091F871
:102590006620824207D3002081F8660081F8670038
:1025A000012081F8680011F8660F401C0870704720
:1025B0001C0000200D480022012180F8662080F8D0
:1025C000671090F8653090F86410C15490F8651069
:1025D000491CC9B280F86510642901D380F86520D0
:1025E0000249012264310248FFF796B81C0000201E
:1025F000D401002010B5012205490648FFF78CF8E8
:102600000548FEF7ABFBBDE810400348FEF7B8BB3A
:1026100080000020D4010020540100200FB4054B9D
:1026200010B503A9044A029800F027F810BC5DF821
:1026300014FB000051270008080000200907090EBC
:10264000002804DB00F1E02080F80014704700F05F
:102650000F0000F1E02080F8141D704702E008C868
:10266000121F08C1002AFAD170477047002001E00C
:1026700001C1121F002AFBD170472DE9F84F99467E
:10268000924688460546002706E025280AD051468E
:102690004A4690476D1C7F1C28780028F5D13846A3
:1026A000BDE8F88F002315F8011F18462E2915D113
:1026B00015F8011F04232A290DD06FF02F02297865
:1026C000A1F13004092C09D800EB800002EB400096
:1026D00008446D1CF3E758F8040B6D1C2A78002A97
:1026E000DDD0632A07D0732A0FD0104651464A46E0
:1026F00090477F1C2AE018F8042B8DF80020002159
:102700008DF801106E46012103E058F8046B4FF07C
:10271000FF315A074FF0000401D409E0641C8442E1
:102720000BDA8C42FADB325D002AF7D105E0641C3B
:102730008C42FCDB305D0028F9D1274404E016F818
:10274000010B51464A469047641EF8D26D1CA3E720
:1027500003490A685206FCD5C2B24A6070470000BD
:10276000001001400024FDF7D7FEFFF78DFBFFF7B7
:10277000EDF8FFF789FAFFF79BF9FFF769FAFFF722
:1027800065F9FFF743FAFFF7F7F9A820FDF7C2FD57
:102790006D4D00224FF480412846FDF7A9FE00222E
:1027A00020212846FDF7A4FEFFF724FF6748FEF727
:1027B000D5FA08216548FEF711FEFFF733FB3225F5
:1027C0000020FEF7EBFF01281FD0022817D00328B6
:1027D00006D004280BD10121FFF774FA5CA004E0B5
:1027E00002210420FFF76EFA5DA0FFF717FF641CBB
:1027F000E4B2B4FBF5F005FB104060B111E0042138
:102800000846FFF75FFA5AA0EFE705210420FFF71B
:1028100059FA5BA0E9E700244FF400715C48FDF72A
:1028200060FEFFF70BFB002871D0FFF71DF806468E
:10283000012258A1FDF707FD00B3022256A1304640
:10284000FDF701FDF0B1052254A13046FDF7FBFC78
:1028500050B3042253A13046FDF7F5FC90B3042297
:1028600052A13046FDF7EFFC00283ED0022251A1D4
:102870003046FDF7E8FC00284AD05CE0FFF7A0FAFC
:102880004DA056E000210120FFF71CFA0021022094
:10289000FFF718FA00210320FFF714FA00210420A3
:1028A000FFF710FA48A044E02D210120FFF70AFAB3
:1028B0002D210220FFF706FA2D210320FFF702FA4F
:1028C0002D2132E0FFE75A210120FFF7FBF95A21C1
:1028D0000220FFF7F7F95A210320FFF7F3F95A21F5
:1028E0000420FFF7EFF93CA023E087210120FFF748
:1028F000E9F987210220FFF7E5F987210320FFF797
:10290000E1F987210420FFF7DDF938A011E016E096
:10291000B4210120FFF7D6F9B4210220FFF7D2F944
:10292000B4210320FFF7CEF9B4210420FFF7CAF940
:1029300033A0FFF773FE314635A0FFF76FFE0A2084
:10294000FDF7D6FC3CE7000000040240D400002064
:10295000726F74617465202D3930B6C80D0A00009D
:10296000726F74617465202D3435B6C80D0A00008D
:10297000726F74617465203435B6C80D0A000000AA
:10298000726F74617465203930B6C80D0A0000009A
:10299000001402402A0000005550000052494748E8
:1029A00054000000444F574E000000004C45465470
:1029B000000000004F4B00000D0A726F74617465D7
:1029C0002073746F700D0A000D0A726F7461746564
:1029D000203435B6C80D0A000D0A726F7461746533
:1029E000202D3435B6C80D0A000000000D0A726FA4
:1029F00074617465202D3930B6C80D0A00000000DE
:102A00000D0A726F74617465203930B6C80D0A0002
:102A10000D0A546865204B65792056616C756520F8
:102A20006973202573200D0A0000000000000000DB
:102A3000000000000102030406070809000000006E
:102A400001020304642A0008000000201C000000AA
:102A50005C260008802A00081C000020FC050000FD
:102A60006C260008000000000100000000000000CB
:102A70000024F4000100000010000000000000002D
:040000050800018965
:00000001FF
