:020000040800F2
:10000000B0190020890200081B44000823180008CA
:100010001944000885070008C54B000800000000CF
:100020000000000000000000000000009B450008E8
:1000300087070008000000003D4400083146000822
:10004000A3020008A3020008A3020008A3020008FC
:10005000A3020008A3020008A3020008A3020008EC
:10006000A3020008A3020008A3020008A3020008DC
:10007000A3020008A3020008A3020008A3020008CC
:10008000A3020008A3020008A3020008A3020008BC
:10009000A3020008A3020008A3020008A3020008AC
:1000A000A3020008A3020008A3020008A30200089C
:1000B000A3020008A302000889460008A302000862
:1000C000A3020008A3020008A3020008A30200087C
:1000D000A3020008994B0008A3020008A30200082D
:1000E000A3020008A3020008A3020008A30200085C
:1000F000A3020008A3020008A3020008A30200084C
:10010000A3020008A3020008A3020008A30200083B
:10011000A3020008A3020008A3020008A30200082B
:10012000A3020008A3020008A3020008A30200081B
:10013000A3020008A3020008A3020008A30200080B
:10014000A3020008A3020008A3020008A3020008FB
:10015000A3020008A3020008A3020008A3020008EB
:10016000A3020008A3020008A3020008A3020008DB
:10017000A3020008A3020008A30200080000000078
:10018000A3020008A302000800F002F800F06DF8D6
:100190000AA090E8000C82448344AAF10107DA45E2
:1001A00001D100F062F8AFF2090EBAE80F0013F0C7
:1001B000010F18BFFB1A43F00103184790AA000073
:1001C000B0AA00000A444FF0000C10F8013B13F0F5
:1001D000070408BF10F8014B1D1108BF10F8015BA0
:1001E000641E05D010F8016B641E01F8016BF9D193
:1001F00013F0080F1EBF10F8014BAD1C0C1B09D1EA
:100200006D1E58BF01F801CBFAD505E014F8016B5B
:1002100001F8016B6D1EF9D59142D6D370470000ED
:100220000023002400250026103A28BF78C1FBD8FF
:10023000520728BF30C148BF0B607047642900F0E7
:10024000A180752900F09E80782900F0D78063296D
:1002500000F02B82732900F03082002070471FB518
:1002600006F0CEF81FBD10B510BD00F059FA1146CA
:10027000FFF7F5FF04F084FE00F077FA03B4FFF710
:10028000F2FF03BC04F03FFE0948804709480047DD
:10029000FEE7FEE7FEE7FEE7FEE7FEE7FEE7FEE736
:1002A000FEE7FEE704480549054A064B7047000093
:1002B0003546000889010008B0130020B01900205D
:1002C000B0150020B0150020704700000FB404499D
:1002D00010B503AA029800F0F5F910BC5DF814FB04
:1002E0001000002070B5044685690068C10601D57C
:1002F000302600E02026C00707D070BDD4E90121D8
:1003000030469047206A401C20626D1EF6D570BDB5
:1003100070B5044685690078C00707D170BDD4E97F
:10032000012120209047206A401C20626D1EF6D5D6
:1003300070BD70B50C460546012A05D028788006A8
:1003400000D5EA69002302E0012305E05B1C93422B
:1003500002D2E05C0028F9D1A869E618C01AA861A9
:10036000286A184428622846FFF7BCFF04E0D5E954
:10037000012114F8010B9047B442F8D32846FFF747
:10038000C7FF70BD2DE9F0410646002410687529AD
:10039000314616A510D0AFF30080002802DA4042A3
:1003A00013A507E031688A0701D512A502E04907C5
:1003B00004D511A5012401E0AFF3008000210A2239
:1003C00006F1240709E0B0FBF2FCB0FBF2F302FBFC
:1003D0001C00303078541846491C0028F3D12346BD
:1003E0002A463046BDE8F04100F0FCB800000000AD
:1003F0002D0000002B0000002000000070B5044616
:100400000D4621461068AFF300802188090502D50A
:100410000F4A7A4402E00E4A7A440E32002104F177
:10042000240305E000F00F060009965D5E54491CA8
:100430000028F7D120780023000704D5702D02D0C2
:1004400009B1022311322046BDE8704000F0CAB85D
:1004500066A700002DE9F05F894604464FF0000AC8
:10046000DFF874B1FB44C0F820A02046E16888475B
:10047000002874D0252806D0D4E901219047206AAD
:10048000401C2062F1E700265F462046E16888476D
:100490002028054607DB312D05D2781910F8200CED
:1004A00008B10643F1E7B00701D526F00406C4F809
:1004B0001CA00027C4F818A02A2D09D0284604F053
:1004C0001BFD38B304EB8708303DC8F8185019E01D
:1004D00059F8041B204604EB87029161E1688847C4
:1004E000012F054618D1E069002820DA26F0200601
:1004F0001DE0D8F8180000EB800005EB4000303814
:10050000C8F818002046E1688847054604F0F4FC66
:100510000028EED1012F0AD02E2D08D12046E16807
:1005200088477F1C0546022F46F02006C4DBA069E1
:10053000002803DA404246F00106A061F00701D02E
:1005400026F010066C2D0BD0682D09D04C2D39D01B
:100550006A2D35D0742D35D07A2D33D016E038E0A1
:10056000E1682F4620468847B842054609D16C2FDE
:1005700026D04FF48060E168064320468847054650
:1005800004E06C2F1AD04FF4807006430DB3A5F130
:100590004100192802D8203546F400664A4629460B
:1005A000204626604E46FFF749FE80B101280BD059
:1005B000F61D26F0070000F1080956E74020E4E7A1
:1005C0008020D8E70020D6E706F104094DE7284649
:1005D00052E7206ABDE8F09F3CA7000070477047D3
:1005E000704770472DE9F0470D46994692460446FC
:1005F00000F124080168880604D5E06921F01001A3
:10060000216000E00120A84201DD471B00E0002737
:10061000A1697A1902EB0900081AA0612078C006C6
:1006200002D42046FFF75EFE002608E0D4E901214F
:100630001AF806009047206A401C761C20624E453E
:10064000F4DB2078C0060AD52046FFF74BFE06E013
:10065000D4E9012130209047206A401C2062381ED6
:10066000A7F10107F4DC07E0D4E9012118F805003F
:100670009047206A401C2062281EA5F10105F3DC8A
:100680002046FFF745FE2078000602D50220BDE88F
:10069000F0870120FBE710B5436913B1AFF3008089
:1006A00001E0FFF746FE012010BD127800F12401A1
:1006B0000A7000224A700122EDE711684FF0FF3204
:1006C000E9E70000074B70B50D467B4400F011F8D8
:1006D0000446284600F020F810B14FF0FF3070BDFE
:1006E000204670BD9F48000001694A1C02610878DD
:1006F000704700B58FB0CDE9013100210591054962
:100700007944CDE9031011466846FFF7A3FE0FB008
:1007100000BD0000E5FFFFFF007B00F08000704798
:10072000754600F02BF8AE4605006946534620F0AA
:100730000700854618B020B5FFF7B4FDBDE820409E
:100740004FF000064FF000074FF000084FF0000B8D
:1007500021F00701AC46ACE8C009ACE8C009ACE840
:10076000C009ACE8C0098D46704710B50446AFF328
:1007700000802046BDE81040FFF780BD004870476C
:100780004C130020FEE7704770B5B3F5804F05D0DD
:100790006FF0704140F82210002070BD50F82230F8
:1007A000084C2340D1E9004544EA05148D688E8940
:1007B0002D0245EA064589692C430C431C4340F849
:1007C0002240E9E70000F0CFF0B50C6850F8245063
:1007D000114A1540D1E90123D1E903671A433E4389
:1007E00032434E6932438E693243CE6932430E6AD8
:1007F00032434E6A32438E6A3243CE6A3243CE6B04
:10080000096B32430A432A43082B01D142F04002CC
:1008100040F824200020F0BD8000F0FF30B500EB50
:1008200082004268D1E9003443EA04138C688D8960
:10083000240244EA054423430C8A084D02F0404256
:1008400005EB045423430C7D6D0105EB04648969B9
:1008500023430B4313434360002030BD0000F0FFEF
:1008600090F83510022903D080214165012070479E
:10087000052180F835100068016821F00101016050
:10088000002070472DE9F84FDFF88C91002209F124
:10089000040A0AF1040B4FF00F080BF1040E0126B5
:1008A0000B6896403340B34271D14C68022C01D0A2
:1008B000122C11D1D40800EB84073D6A5407E40ED2
:1008C00008FA04FC25EA0C05D1F810C00CFA04FC67
:1008D0004CEA050CC7F820C007685400032591F8BE
:1008E00004C0A5400CF0030CAF430CFA04FC4CEA26
:1008F000070CC0F800C04F68012F05D0022F03D0AD
:10090000112F01D0122F11D18768D1F80CC0AF433D
:100910000CFA04FC4CEA070CC0F808C04768B7435F
:100920000E79C6F3001696403E434660C668AE4355
:100930008D68A5403543C5604C68E40065D5374CEB
:10094000256845F480452560246822F0030504F4F9
:1009500080440094324C2E19D6F808789407250F5D
:1009600008FA05F4A7432F4CA04201D1002424E04B
:100970002D4CA04201D101241FE02C4CA04201D1FA
:1009800002241AE02A4CA04202D1032415E03CE0E4
:10099000284CA04201D104240FE0274CA04201D1F1
:1009A00005240AE0254CA04201D1062405E0244C90
:1009B000A04201D1072400E00824AC403C43C6F823
:1009C0000848D9F800404D464E689C43F60300D5D0
:1009D0001C432C60DAF8004055464E689C43B60331
:1009E00000D51C432C60DBF800405D464E689C43FC
:1009F000F60200D51C432C60DEF8004075464E68B8
:100A00009C43B60200D51C432C60521C102AFFF4F4
:100A100046AFBDE8F88F0000003C0140443802407A
:100A20000030014000000240000402400008024083
:100A3000000C024000100240001402400018024066
:100A4000001C02400069084000D0012070470AB134
:100A5000816170470904FBE701480068000C70479A
:100A6000002004E0014800687047000004000020F6
:100A700002480168491C0160704700000400002022
:100A8000094810B5016841F400710160016841F442
:100A900080610160052000F049F80F2000F006F8A1
:100AA00000F018F8002010BD003C024010B50446CC
:100AB00007484FF47A710068B0FBF1F000F026FDB2
:100AC00000222146501E00F011F8002010BD000049
:100AD00000000020704700F01F02012191404009F2
:100AE000800000F1E020C0F800117047F0B40E4B18
:100AF0001B68C3F30223C3F10704042C00D90424A8
:100B00001D1D072D01D2002300E0DB1E012606FA81
:100B100004F56D1E0D409D409E40761E164045EA30
:100B20000601F0BC03F07ABC0CED00E0064A00F0D0
:100B3000070110684FF6FF03184040EA01200349FF
:100B400008431060704700000CED00E00000FA055B
:100B50002DE9F047DFF85C9104460E46D9F8000015
:100B600000F00F01F0B28046B14207D289F80000D0
:100B7000D9F8000000F00F00B04271D120784E4F3C
:100B8000800705D53868A16820F0F0000843386078
:100B90002078C00756D048496068083901281AD023
:100BA00002281BD0032819D009688907002957DAC1
:100BB000396821F0030101433960FFF753FF05460F
:100BC000606841F28831012811D002281CD0032826
:100BD0008A4625D032E009688903E7E70968890178
:100BE000E4E7FFF73FFF411B514501D923E08A4667
:100BF0003868C0F381000128F3D123E0FFF732FF0A
:100C0000411B514501D916E08A463868C0F381007E
:100C10000228F3D116E0FFF725FF411B51450AD802
:100C20003868C0F381000328F5D10BE0FFF71AFF05
:100C3000411B514502D90320BDE8F087386810F008
:100C40000C0FF3D1D9F80010484601F00F01B14262
:100C500008D980F80080006800F00F00B04201D091
:100C60000120E9E72078400705D53868E16820F4DD
:100C7000E050084338602078000706D538682169BD
:100C800020F4604040EAC100386000F04BF8396859
:100C9000F02292FAA2F201F0F001B2FA82F2D1400F
:100CA000064A515CC840064908600F20FFF7FEFE67
:100CB0000020C1E7003C02400838024024640008DC
:100CC0000000002008480949006809684FF4E05214
:100CD00092FAA2F201F4E051B2FA82F2D140044A4F
:100CE000515CC840704700000000002008380240F6
:100CF0003464000808480949006809684FF46042F4
:100D000092FAA2F201F46041B2FA82F2D140044AAE
:100D1000515CC840704700000000002008380240C5
:100D20003464000830B51948006810F00C01184808
:100D300012D0441004290ED008290DD1134A121FD5
:100D40001168136801F03F015D0247F6C07304D5D6
:100D5000B4FBF1F003E0204630BDB0FBF1F01168C8
:100D6000194093FAA3F3B3FA83F3D94048431168C7
:100D70004FF4403292FAA2F201F44031B2FA82F218
:100D8000D140491C4900B0FBF1F030BD08380240A9
:100D90000024F4002DE9F84F04460078DFF8F4A2AF
:100DA000BD4DC00748D0DAF800105046C1F38101AC
:100DB000012908D00068C0F3810002280AD1281D4B
:100DC0000068400206D52868800335D56068002891
:100DD00070D031E06068B0F5803F10D0B0F5A02F42
:100DE000286810D020F480302860286820F4802003
:100DF00028606068A0B1FFF735FE06460CE0286861
:100E000040F48030F4E740F480202860F7E7FFF7F3
:100E100029FE801B642873D828688003F7D50BE06F
:100E2000FFF720FE064604E0FFF71CFE801B642847
:100E3000F1D828688003F7D42078DFF86082800733
:100E40004FF0010B4FF0000943D5DAF8001050467F
:100E500011F00C0F4FF0F80709D00068C0F38100C3
:100E600002280BD18B48001F0068400206D4286876
:100E7000800713D5E06801281CD10FE0E068D0B1ED
:100E8000C8F800B0FFF7EEFD064604E0FFF7EAFD04
:100E9000801B0228BFD828688007F7D5286897FAF2
:100EA000A7F22169B2FA82F220F0F80091400843DB
:100EB00028600EE0EBE0C8F80090FFF7D3FD06468F
:100EC00004E0FFF7CFFD801B022819D828688007AF
:100ED000F7D42078000722D56E4F714861696C37CE
:100EE00079B1C0F800B0FFF7BDFD064604E0FFF79A
:100EF000B9FD801B022803D838688007F7D50EE0BB
:100F000079E0C0F80090FFF7ADFD064604E0FFF77A
:100F1000A9FD801B02286ED838688007F7D4207896
:100F2000400750D55B483830016841F0805101607E
:100F300000685C4F00F080500090386840F480708A
:100F40003860FFF78FFD064604E0FFF78BFD801B3E
:100F5000022850D83868C005F7D54E4FA0686837CA
:100F600001280FD00528386810D020F00100386023
:100F7000386820F004003860A068B0B1FFF772FD57
:100F800006460EE0386840F00100F4E740F0040047
:100F90003860F7E7FFF766FD811B41F28830814238
:100FA0006DD838688007F5D50DE0FFF75BFD064684
:100FB00006E0FFF757FD811B41F2883081425ED881
:100FC00038688007F5D4A069F0B3DAF80010C1F3EF
:100FD000810102295BD00228484605D0C8F860008C
:100FE000FFF740FD04464DE04746C8F86000FFF7B4
:100FF00039FD064605E042E0FFF734FD801B02287C
:101000003DD828688001F7D4D4E90701084347F6A2
:10101000C07292FAA2F2616AB2FA82F29140A26AB6
:101020004FF0FF3303EB52024FF4403393FAA3F334
:10103000B3FA83F39A4011434FF0706292FAA2F22E
:101040000843B2FA82F200E01FE0E16A91400843EF
:101050001049091F0860C7F860B0FFF703FD044698
:1010600004E0FFF7FFFC001B022808D82868800175
:10107000F7D50AE0FFF7F6FC001B022802D903208F
:10108000BDE8F88F28688001F4D40020F8E701203B
:10109000F6E70000083802400038024000004742EE
:1010A000800E47420070004070B5040004D094F8F0
:1010B0005100002510B106E0012070BD84F85050A9
:1010C000204600F037F8022084F8510020680168BB
:1010D00021F040010160D4E901010843D4E9031281
:1010E0001143084361690843218B01F400710843EF
:1010F000E1690843216A0843A16A0843216808603E
:10110000A069042101EA1040616A0843216848602F
:10111000A06AB0F5005F02D12168E06A086120682A
:10112000C16921F40061C1616565012084F8510045
:10113000002070BD114800B5016887B041F0020180
:101140000160006800F0020005900C48143001684E
:1011500041F4805101600068012100F48050059045
:10116000382000900220CDE9010103900520049071
:1011700069460348FFF786FB07B000BD30380240E0
:10118000000402402DE9F84F04460020DDF82890C5
:101190009B4616460D46ADF80000804694F8500078
:1011A000012701280ED0012084F85000FFF75AFCD7
:1011B000824694F85100616801280CD0B1F5827F15
:1011C00007D102E00220BDE8F88FA16809B9042820
:1011D00001D00220EBE045B13EB1BBF1000F04D0DD
:1011E00094F85100012802D004E00120DFE005203E
:1011F00084F8510000206065A663A4F83EB0A4F80E
:101200003CB02563A4F836B0A4F834B02064606420
:10121000A06A4FF4005B58450AD1206801684DF67A
:10122000FF72114001602068016841F400510160C3
:1012300020680168490603D4016841F0400101605B
:10124000E068B0F5006F606804D0E8B3E08E012874
:1012500043D078E010B1E08E012837D1216835F80D
:10126000020BC860E08E401EE0862FE0B7B1E08E32
:10127000A0B120688168890710D535F8021BC160CC
:10128000E08E401EE086E08E002738B9A06A5845FF
:1012900004D12068016841F480510160E08F50B1B1
:1012A00020688168C90706D0C06826F8020BE08F65
:1012B000401EE0870127B9F1FF3F07D0FFF7D2FBBF
:1012C000A0EB0A01494500E007E06FD2E08E00285C
:1012D000CCD1E08F0028C9D13BE0216815F8010B83
:1012E0000873E08E401EE0862DE0B7B1E08EA0B11D
:1012F00020688168890710D515F8011B0173E08EFD
:10130000401EE086E08E002738B9A06A584504D117
:101310002068016841F480510160E08F50B120687D
:101320008168C90706D0C06806F8010BE08F401E2F
:10133000E0870127B9F1FF3F05D0FFF793FBA0EB52
:101340000A01494532D2E08E0028CED1E08F002834
:10135000CBD1A06A584513D101224B4611462046F5
:10136000CDF800A003F0CEF820B1606D40F002008F
:1013700060651BE02068C068ADF80000BDF80000A3
:1013800020688168C90608D5616D41F00201616578
:101390004FF6EF7181604FF001084B4601220221A8
:1013A0002046CDF800A003F0ADF810B10320804630
:1013B00010E052464946204603F094F820B1202020
:1013C0004FF00108606505E0A06818B92068C168A1
:1013D00080680090012084F85100002084F85000BB
:1013E0004046F0E670B515460E46040003D094F86A
:1013F000490010B107E0012070BD002084F84800CA
:10140000204600F01BF804F108012068FFF7DCF922
:101410003146A2682068FFF701FAD4E901022946A3
:10142000236BFFF7B1F9A168206850F8212042F042
:10143000010240F82120002070BD0000284810B5AE
:10144000016886B041F001010160006800F0010010
:10145000059023480838016841F0080101600168DF
:1014600001F008010591016841F010010160016877
:1014700001F010010591016841F02001016001684F
:1014800001F020010591016841F040010160006810
:10149000694600F0400005904CF233700090022045
:1014A000019001200290032003900C2004900D482D
:1014B000FFF7E8F94FF68070009069460A48FFF799
:1014C000E1F94FF48054694608480094FFF7DAF9CF
:1014D000694607480094FFF7D5F906B010BD000033
:1014E00038380240000C0240001002400014024054
:1014F000001802404FF0E0210428086903D020F0D2
:1015000004000861704740F00400FAE710B5401E7F
:10151000B0F1807F01D3012010BD4FF0E024606165
:101520000F21601702F07AFF0020A06107202061E0
:10153000002010BD10B5040003D094F8390010B19C
:1015400007E0012010BD002084F83800204600F09C
:101550000CF8022084F83900211D206803F0AEF851
:10156000012084F83900002010BD70470168CA6866
:1015700042F00102CA600068016841F001010160A7
:1015800000207047704710F8391F407808437047B3
:1015900070B5026804461068D168536910F00F0FE7
:1015A00050D003F0010501F4907635435DD0C207B9
:1015B00005D0CA0503D5E26B42F00102E26342079F
:1015C00005D5DA0703D0E26B42F00202E26382073C
:1015D00005D5DA0703D0E26B42F00402E2630207AA
:1015E00005D5DA0703D0E26B42F00802E263E26B52
:1015F000002A33D0800604D5880602D5204603F0A1
:10160000FDF820684069E16BC0F38010090700D441
:1016100028B3204603F0E4F82068416949061AD54A
:10162000416921F040014161606BA0B11B49016536
:10163000606BFFF715F9002810D0606B016DBDE8F5
:1016400070400847830610D58B060ED52046BDE8AE
:10165000704003F0D3B82046FFF794FF70BD2046DA
:10166000FFF790FF0020E06370BD030606D50B0670
:1016700004D52046BDE8704003F05CBA4006F3D5BF
:101680004806F1D5D168204621F04001D1602021E3
:1016900084F8391000F0C4F870BD0000D14700088C
:1016A00070B5040004D094F83900002510B106E0AC
:1016B000012070BD84F83850204600F023F8242023
:1016C00084F839002068C16821F40051C1602046C7
:1016D00003F0DAF82068016921F490410161206883
:1016E000416921F02A0141612068C16841F400513B
:1016F000C160E563202084F8390084F83A000020B6
:1017000070BD000010B500681A4986B088422FD11C
:101710001948016841F001010160006800F0010012
:10172000059015481430016841F01001016000680F
:10173000012100F0100005904FF40070009002208D
:10174000CDE90101039007200C4C04906946204626
:10175000FFF798F82115009169462046FFF792F8A7
:101760002520FFF7B8F9032211462520FFF7BEF91F
:1017700006B010BD001001403038024000000240A9
:1017800090F83A30202B1DD1D1B1CAB190F8383041
:10179000012B17D081628285C2850021C16322227C
:1017A00080F83A2080F8381001684A6942F0010256
:1017B0004A610068C16841F49071C16000207047BF
:1017C000012070470220704730B5006811498842F7
:1017D0000CD1114A5088010408D4114644040978F8
:1017E0004FF0000306D50A2901D0538030BD40F4E4
:1017F00000400DE00D2909D0C0F30D04074D401C39
:1018000080B229555080C728EFD830BD40F48040C1
:10181000508030BD001001400C000020500100201D
:101820007047FEE770B5144886B00025016841F0A6
:1018300001010160016801F001010591016841F0B9
:10184000100101600068032400F0100005900220E0
:101850000126CDE90204CDE9006569460748FFF796
:1018600011F81C2003948DE8610069460448FFF7D5
:1018700009F806B070BD0000303802400000024098
:10188000001002402DE9F04101262E4C2E4F2F4D25
:1018900001281DD02078A0B110212846FFF7D2F8EA
:1018A000C0B108212846FFF7CDF898B10421284699
:1018B000FFF7C8F870B101213846FFF7C3F80128D7
:1018C00008D010212846FFF7BDF8012826D037E0C0
:1018D0002670E1E70A2003F021FB00202070102190
:1018E0002846FFF7AFF880B108212846FFF7AAF88D
:1018F00070B104212846FFF7A5F858B101213846F8
:10190000FFF7A0F8012807D01AE00120BDE8F08118
:101910000220FBE70320F9E70420F7E70821284627
:10192000FFF790F801280BD104212846FFF78AF829
:10193000012805D101213846FFF784F800B9267047
:101940000020E3E71C0000200000024000100240DD
:1019500070B506460A4800240188458820464D4354
:10196000214602F0F1FB02F021FDB1B24FF0D84068
:1019700002E0A0F88010641CAC42FAD370BD0000F5
:10198000A80200202DE9F04F334B2C241946987102
:101990002A2589882B2645F2105B4FF4305E4FF4E0
:1019A00048774FF0F00949F2413A4FF4A07845F2F8
:1019B000103C4FF4F07258B1A3F80080A3F80290E5
:1019C000514501D0614529D11C815D819E8139E05D
:1019D000A3F80090A3F80280514501D0614508D1D9
:1019E0001C815D819E81614531D1A3F800805A80C0
:1019F0002DE0594508D1A3F808E04FF4285058814C
:101A00004FF42C50988106E0A1F5C85063381ED1E0
:101A10001C815E819D811A805F8018E0594508D144
:101A2000A3F808E04FF4285058814FF42C509881C7
:101A300006E0A1F5C850633804D11C815D819E8108
:101A40001F805A80614502D11A80A3F80280BDE848
:101A5000F04F002002F09CBAA80200202DE9F041CE
:101A6000374D90460C4602460F0AA8882946160AAA
:101A70004989A0F51343413B0CD0A0F5A643103B88
:101A800008D0A0F5AA43103B11D0A0F5C853633B82
:101A900027D04BE0084602F07DFC304602F06EFC99
:101AA000D0B202F06BFCA88902F074FC38E0084662
:101AB00002F070FC304602F061FC6889401C80B284
:101AC00002F068FCD0B202F059FCA88902F062FC76
:101AD000384602F053FCA889401C80B202F05AFC40
:101AE00021E0A87918B92888801A401E82B20846D9
:101AF00002F050FC160A304602F040FCD0B202F070
:101B00003DFC304602F03AFCD0B202F037FCA88926
:101B100002F040FC384602F031FCE0B202F02EFC4C
:101B2000384602F02BFCE0B202F028FC4FF0D8401F
:101B3000298920F87E1FA0F80280BDE8F08100000E
:101B4000A80200202DE9F0431F468146A2EB0900C0
:101B5000079B401C0C4686B29DB24FF0D84810E05F
:101B60002146484602F0F0FA02F020FC00204146EF
:101B700003E0A1F88050401C80B2B042F9D3641C4D
:101B8000A4B2BC42ECD9BDE8F08300002DE9F04FCF
:101B9000FF4895B00024016841F00201016000682F
:101BA0004FF0010900F00200139003204FF4004AA7
:101BB000CDE91090CDE90EA90EA9F648FEF762FE18
:101BC000F548F6494FF02045C0E900510621C0E92B
:101BD00002141021C0E9044184610902C461C0E912
:101BE00009418900C0E90B4189014463C0E90E4104
:101BF0000F20CDE907043C2009900920CDE900041D
:101C000008200D94029003946A4607A90694E248BE
:101C1000FFF7E8FB322003F081F9D32002F0BAFB92
:101C200002F084F9DC4A5032908002F07FF9908013
:101C300002F07CF94FF6FF7B0BEA0020908002F067
:101C400075F9918845F210360843A0F5134190804C
:101C500045F2105441F66317413949D0D42002F0BF
:101C600099FB02F063F9908002F060F9908002F035
:101C70005DF90BEA0020D846908002F057F9918870
:101C800008439080B04233D04FF45A4002F082FBB8
:101C900002F04CF990804FF45B4002F07BFB02F0C5
:101CA00045F908EA002090804FF45C4002F072FB96
:101CB00002F03CF9918808439080504501D194800E
:101CC00016E0A04214D0A12002F064FB02F02EF92D
:101CD000908002F02BF908EA0020908002F026F9AB
:101CE00091880843A0F5AE419080613900D197807A
:101CF00092469188AAA0FEF7E9FABAF8040049F2E0
:101D0000413840457ED1CF2002F044FB002002F054
:101D100035FBC12002F032FB302002F02FFBED201A
:101D200002F038FB642002F029FB032002F026FBBE
:101D3000122002F023FB812002F020FBE82002F0B9
:101D400029FB852002F01AFB102002F017FB7A20F5
:101D500002F014FBCB2002F01DFB392002F00EFB39
:101D60002C2002F00BFB002002F008FB342002F0D4
:101D700005FB022002F002FBF72002F00BFB202003
:101D800002F0FCFAEA2002F005FB002002F0F6FA6D
:101D9000002002F0F3FAC02002F0FCFA1B2002F04F
:101DA000EDFAC12002F0F6FA012002F0E7FAC520B0
:101DB00002F0F0FA302002F0E1FA302002F0DEFA10
:101DC000C72002F0E7FAB72002F0D8FA362002F076
:101DD000E1FA482002F0D2FA3A2002F0DBFA55206C
:101DE00002F0CCFAB12002F0D5FA002002F0C6FAD7
:101DF0001A2002F0C3FAB62002F0CCFA0A2002F050
:101E0000BDFA00E095E0A22002F0B8FAF22002F05C
:101E1000C1FA002002F0B2FA262002F0BBFA01203B
:101E200002F0ACFAE02002F0B5FA0F2002F0A6FAB8
:101E30002A2002F0A3FA282002F0A0FA082002F0DB
:101E40009DFA0E2002F09AFA082002F097FA542028
:101E500002F094FAA92002F091FA432002F08EFADF
:101E60000A2002F08BFA0F2002F088FA002002F01C
:101E700085FA002002F082FA002002F07FFA0020AA
:101E800002F07CFAE12002F085FA002002F076FAF6
:101E9000152002F073FA172002F070FA072002F002
:101EA0006DFA112002F06AFA062002F067FA2B2080
:101EB00002F064FA562002F061FA3C2002F05EFA69
:101EC000052002F05BFA102002F058FA0F2002F011
:101ED00055FA3F2002F052FA3F2002F04FFA0F204D
:101EE00002F04CFA2B2002F055FA002002F046FADC
:101EF000002002F043FA012002F040FA3F2002F0F5
:101F00003DFA2A2002F046FA002002F037FA0020BB
:101F100002F034FA002002F031FAEF2002F02EFA3B
:101F2000112002F037FA782002F0F8FF292001F0A2
:101F300010BFB0427ED1ED2002F02CFA012002F059
:101F40001DFAFE2002F01AFAEE2002F023FADE203B
:101F500002F014FA212002F011FAF12002F01AFA2C
:101F6000012002F00BFADF2002F014FA102002F038
:101F700005FAC42002F00EFA8F2002F0FFF9C62005
:101F800002F008FA002002F0F9F9E22010E0000067
:101F9000303802400004024058020020040100A032
:101FA000204C43442049443A25780D0A00000000A3
:101FB00002F0E4F9E22002F0E1F9E22002F0DEF9B9
:101FC000BF2002F0E7F9AA2002F0D8F9B02002F011
:101FD000E1F90D2002F0D2F9002002F0CFF90D2036
:101FE00002F0CCF9002002F0C9F9112002F0C6F984
:101FF000002002F0C3F9192002F0C0F9002002F01D
:10200000BDF9212002F0BAF9002002F0B7F92D2025
:1020100002F0B4F9002002F0B1F93D2002F0AEF96F
:10202000002002F0ABF95D2002F0A8F9002002F0D8
:10203000A5F900E0FDE35D2002F0A0F9002002F028
:102040009DF9B12002F0A6F9802002F097F9002056
:1020500002F094F98B2002F091F9002002F08EF941
:10206000962002F08BF9002002F088F9B22002F0ED
:1020700091F9002002F082F9002002F07FF902209D
:1020800002F07CF9002002F079F9032002F076F9E1
:10209000002002F073F9B32002F07CF9002002F076
:1020A0006DF9002002F06AF9002002F067F90020C3
:1020B00002F064F9002002F061F9002002F05EF9FC
:1020C000002002F05BF9002002F058F9002002F035
:1020D00055F9002002F052F9002002F04FF90020DB
:1020E00002F04CF9002002F049F9002002F046F914
:1020F000002002F043F9002002F040F9002002F035
:102100003DF9002002F03AF9002002F037F90020F2
:1021100002F034F9002002F031F9002002F02EF92B
:10212000002002F02BF9002002F028F9B42002F080
:1021300031F98B2002F022F9002002F01FF99620DD
:1021400002F01CF9002002F019F9A12002F016F9A2
:10215000002002F013F9B52002F01CF9022002F071
:102160000DF9002002F00AF9032002F007F900201F
:1021700002F004F9042002F001F9002002F0FEF858
:10218000B62002F007F9002002F0F8F8002002F073
:10219000F5F8B72002F0FEF8002002F0EFF800207A
:1021A00002F0ECF83F2002F0E9F8002002F0E6F837
:1021B0005E2002F0E3F8002002F0E0F8642002F074
:1021C000DDF8002002F0DAF88C2002F0D7F80020C9
:1021D00002F0D4F8AC2002F0D1F8002002F0CEF8E2
:1021E000DC2002F0CBF8002002F0C8F8702002F0EA
:1021F000C5F8002002F0C2F8902002F0BFF80020DD
:1022000002F0BCF8EB2002F0B9F8002002F0B6F8BA
:10221000DC2002F0B3F8002002F0B0F8B82002F0A1
:10222000B9F8002002F0AAF8002002F0A7F8002078
:1022300002F0A4F8002002F0A1F8002002F09EF8BD
:10224000002002F09BF8002002F098F8002002F035
:1022500095F8BA2002F09EF8242002F08FF80020B2
:1022600002F08CF8002002F089F8002002F086F8D5
:10227000C12002F08FF8202002F080F8002002F048
:102280007DF8542002F07AF8002002F077F8FF2061
:1022900002F074F8002002F071F8C22002F07AF81F
:1022A0000A2002F06BF8002002F068F8042002F027
:1022B00065F8002002F062F8C32002F06BF83C20C1
:1022C00002F05CF8002002F059F83A2002F056F8CB
:1022D000002002F053F8392002F050F8002002F0FC
:1022E0004DF8372002F04AF8002002F047F83C2071
:1022F00002F044F8002002F041F8362002F03EF8E7
:10230000002002F03BF8322002F038F8002002F002
:1023100035F82F2002F032F8002002F02FF82C20A0
:1023200002F02CF8002002F029F8292002F026F80B
:10233000002002F023F8262002F020F8002002F00E
:102340001DF8242002F01AF8002002F017F82420CB
:1023500002F014F8002002F011F8232002F00EF829
:10236000002002F00BF83C2002F008F8002002F0F8
:1023700005F8362002F002F8002001F0FFFF3220BD
:1023800001F0FCFF002001F0F9FF2F2001F0F6FF23
:10239000002001F0F3FF2C2001F0F0FF002001F0FD
:1023A000EDFF292001F0EAFF002001F0E7FF2620E1
:1023B00001F0E4FF002001F0E1FF242001F0DEFF46
:1023C000002001F0DBFF242001F0D8FF002001F005
:1023D000D5FF232001F0D2FF002001F0CFFFC42061
:1023E00001F0D8FF622001F0C9FF002001F0C6FF14
:1023F000052001F0C3FF002001F0C0FF842001F0A0
:10240000BDFF002001F0BAFFF02001F0B7FF00206F
:1024100001F0B4FF182001F0B1FF002001F0AEFF81
:10242000A42001F0ABFF002001F0A8FF182001F06C
:10243000A5FF002001F0A2FF502001F09FFF002027
:1024400001F09CFF0C2001F099FF002001F096FFA5
:10245000172001F093FF002001F090FF952001F07C
:102460008DFF002001F08AFFF32001F087FF00209C
:1024700001F084FFE62001F081FF002001F07EFFE3
:10248000C52001F087FF322001F078FF002001F025
:1024900075FF442001F072FF002001F06FFF6520FE
:1024A00001F06CFF002001F069FF762001F066FF6B
:1024B000002001F063FF882001F060FF002001F0A0
:1024C0005DFFC62001F066FF202001F057FF0020CD
:1024D00001F054FF172001F051FF002001F04EFFE2
:1024E000012001F04BFF002001F048FFC72001F060
:1024F00051FF002001F042FF002001F03FFF0020CB
:1025000001F03CFF002001F039FFC82001F042FF3C
:10251000002001F033FF002001F030FF002001F027
:102520002DFF002001F02AFFC92001F033FF002019
:1025300001F024FF002001F021FF002001F01EFF28
:10254000002001F01BFF002001F018FF002001F027
:1025500015FF002001F012FF002001F00FFF002006
:1025600001F00CFF002001F009FF002001F006FF40
:10257000002001F003FF002001F000FF002001F027
:10258000FDFE002001F0FAFE002001F0F7FEE02041
:1025900001F000FF162001F0F1FE002001F0EEFE38
:1025A0001C2001F0EBFE002001F0E8FE212001F0EC
:1025B000E5FE002001F0E2FE362001F0DFFE002003
:1025C00001F0DCFE462001F0D9FE002001F0D6FE2D
:1025D000522001F0D3FE002001F0D0FE642001F073
:1025E000CDFE002001F0CAFE7A2001F0C7FE0020D7
:1025F00001F0C4FE8B2001F0C1FE002001F0BEFE00
:10260000992001F0BBFE002001F0B8FEA82001F0E7
:10261000B5FE002001F0B2FEB92001F0AFFE0020AF
:1026200001F0ACFEC42001F0A9FE002001F0A6FEDE
:10263000CA2001F0A3FE002001F0A0FED22001F08C
:102640009DFE002001F09AFED92001F097FE0020A7
:1026500001F094FEE02001F091FE002001F08EFEDA
:10266000F32001F08BFE002001F088FEE12001F054
:1026700091FE162001F082FE002001F07FFE1C205A
:1026800001F07CFE002001F079FE222001F076FEB0
:10269000002001F073FE362001F070FE002001F0F2
:1026A0006DFE452001F06AFE002001F067FE522019
:1026B00001F064FE002001F061FE642001F05EFE86
:1026C000002001F05BFE7A2001F058FE002001F0AE
:1026D00055FE8B2001F052FE002001F04FFE9920A4
:1026E00001F04CFE002001F049FEA82001F046FE5A
:1026F000002001F043FEB92001F040FE002001F06F
:102700003DFEC42001F03AFE002001F037FECA2051
:1027100001F034FE002001F031FED22001F02EFE47
:10272000002001F02BFED82001F028FE002001F04F
:1027300025FEE02001F022FE002001F01FFEF32024
:1027400001F01CFE002001F019FEE22001F022FE43
:10275000052001F013FE002001F010FE0B2001F017
:102760000DFE002001F00AFE1B2001F007FE0020F4
:1027700001F004FE342001F001FE002001F0FEFD16
:10278000442001F0FBFD002001F0F8FD4F2001F096
:10279000F5FD002001F0F2FD612001F0EFFD0020C9
:1027A00001F0ECFD792001F0E9FD002001F0E6FDEB
:1027B000882001F0E3FD002001F0E0FD972001F00A
:1027C000DDFD002001F0DAFDA62001F0D7FD00209C
:1027D00001F0D4FDB72001F0D1FD002001F0CEFDC5
:1027E000C22001F0CBFD002001F0C8FDC72001F0A0
:1027F000C5FD002001F0C2FDD12001F0BFFD002089
:1028000001F0BCFDD62001F0B9FD002001F0B6FDBD
:10281000DD2001F0B3FD002001F0B0FDF32001F058
:10282000ADFD002001F0AAFDE32001F0B3FD05207D
:1028300000E00CE301F0A2FD002001F09FFD0A2062
:1028400001F09CFD002001F099FD1C2001F096FD97
:10285000002001F093FD332001F090FD002001F0F5
:102860008DFD442001F08AFD002001F087FD5020FD
:1028700001F084FD002001F081FD622001F07EFD69
:10288000002001F07BFD782001F078FD002001F0B0
:1028900075FD882001F072FD002001F06FFD97208A
:1028A00001F06CFD002001F069FDA62001F066FD3D
:1028B000002001F063FDB72001F060FD002001F071
:1028C0005DFDC22001F05AFD002001F057FDC72038
:1028D00001F054FD002001F051FDD12001F04EFD2A
:1028E000002001F04BFDD52001F048FD002001F053
:1028F00045FDDD2001F042FD002001F03FFDF32009
:1029000001F03CFD002001F039FDE42001F042FD22
:10291000012001F033FD002001F030FD012001F025
:102920002DFD002001F02AFD022001F027FD0020EE
:1029300001F024FD2A2001F021FD002001F01EFD00
:102940003C2001F01BFD002001F018FD4B2001F0A0
:1029500015FD002001F012FD5D2001F00FFD0020AB
:1029600001F00CFD742001F009FD002001F006FDCE
:10297000842001F003FD002001F000FD932001F010
:10298000FDFC002001F0FAFCA22001F0F7FC002081
:1029900001F0F4FCB32001F0F1FC002001F0EEFCAA
:1029A000BE2001F0EBFC002001F0E8FCC42001F0A7
:1029B000E5FC002001F0E2FCCD2001F0DFFC00206E
:1029C00001F0DCFCD32001F0D9FC002001F0D6FCA2
:1029D000DD2001F0D3FC002001F0D0FCF32001F059
:1029E000CDFC002001F0CAFCE52001F0D3FC002062
:1029F00001F0C4FC002001F0C1FC002001F0BEFC8D
:102A0000002001F0BBFC022001F0B8FC002001F026
:102A1000B5FC292001F0B2FC002001F0AFFC3C2005
:102A200001F0ACFC002001F0A9FC4B2001F0A6FC59
:102A3000002001F0A3FC5D2001F0A0FC002001F0CB
:102A40009DFC742001F09AFC002001F097FC84208A
:102A500001F094FC002001F091FC932001F08EFC29
:102A6000002001F08BFCA22001F088FC002001F086
:102A700085FCB32001F082FC002001F07FFCBE2029
:102A800001F07CFC002001F079FCC42001F076FC10
:102A9000002001F073FCCD2001F070FC002001F05B
:102AA0006DFCD32001F06AFC002001F067FCDC2003
:102AB00001F064FC002001F061FCF32001F05EFCF9
:102AC000002001F05BFCE62001F064FC112001F025
:102AD00055FC002001F052FC342001F04FFC002096
:102AE00001F04CFC562001F049FC002001F046FCAE
:102AF000762001F043FC002001F040FC772001F03B
:102B00003DFC002001F03AFC662001F037FC00207B
:102B100001F034FC882001F031FC002001F02EFC93
:102B2000992001F02BFC002001F028FCBB2001F0D3
:102B300025FC002001F022FC992001F01FFC002060
:102B400001F01CFC662001F019FC002001F016FCCD
:102B5000552001F013FC002001F010FC552001F07D
:102B60000DFC002001F00AFC452001F007FC0020CC
:102B700001F004FC432001F001FC002001F0FEFB09
:102B8000442001F0FBFB002001F0F8FBE72001F0FE
:102B900001FC322001F0F2FB002001F0EFFB552098
:102BA00001F0ECFB002001F0E9FB762001F0E6FBF0
:102BB000002001F0E3FB662001F0E0FB002001F0C3
:102BC000DDFB672001F0DAFB002001F0D7FB672076
:102BD00001F0D4FB002001F0D1FB872001F0CEFBF7
:102BE000002001F0CBFB992001F0C8FB002001F090
:102BF000C5FBBB2001F0C2FB002001F0BFFB992008
:102C000001F0BCFB002001F0B9FB772001F0B6FB1E
:102C1000002001F0B3FB442001F0B0FB002001F0E4
:102C2000ADFB562001F0AAFB002001F0A7FB2320FA
:102C300001F0A4FB002001F0A1FB332001F09EFB7A
:102C4000002001F09BFB452001F098FB002001F0E3
:102C500095FBE82001F09EFB002001F08FFB002097
:102C600001F08CFB992001F089FB002001F086FB2C
:102C7000872001F083FB002001F080FB882001F019
:102C80007DFB002001F07AFB772001F077FB00202C
:102C900001F074FB662001F071FB002001F06EFB77
:102CA000882001F06BFB002001F068FBAA2001F0F6
:102CB00065FB002001F062FBBB2001F05FFB002000
:102CC00001F05CFB992001F059FB002001F056FB5C
:102CD000662001F053FB002001F050FB552001F06D
:102CE0004DFB002001F04AFB552001F047FB00207E
:102CF00001F044FB442001F041FB002001F03EFBC9
:102D0000442001F03BFB002001F038FB552001F08E
:102D100035FB002001F032FBE92001F03BFBAA204B
:102D200001F02CFB002001F029FB002001F026FB24
:102D3000002001F023FB002001F02CFBAA2001F071
:102D40001DFBCF2001F026FB002001F017FB002027
:102D500001F014FB002001F011FB002001F00EFB3C
:102D6000002001F00BFB002001F008FB002001F027
:102D700005FB002001F002FB002001F0FFFA00201B
:102D800001F0FCFA002001F0F9FA002001F0F6FA57
:102D9000002001F0F3FA002001F0F0FA002001F029
:102DA000EDFA002001F0EAFA002001F0E7FAF02045
:102DB00001F0F0FA002001F0E1FA502001F0DEFA13
:102DC000002001F0DBFA002001F0D8FA002001F029
:102DD000D5FAF32001F0DEFA002001F0CFFAF92055
:102DE00001F0D8FA062001F0C9FA102001F0C6FA65
:102DF000292001F0C3FA002001F0C0FA3A2001F0C6
:102E0000C9FA552001F0BAFA112001F0C3FA642082
:102E100002F084F8292001F0BDFA352001F0BAFA59
:102E2000002001F0ABFA512001F0B4FAFF2001F0CC
:102E3000A5FA532001F0AEFA2C2001F09FFA55209C
:102E400001F0A8FA822001F099FA2C20FDE3A042BB
:102E50007ED14FF470435521184601F0B1FAAA21F2
:102E60004FF2010001F0ACFA52214FF2020001F0E2
:102E7000A7FA08214FF2030001F0A2FA01214FF254
:102E8000040001F09DFA0D214FF4304001F098FA52
:102E90000D214BF2010001F093FA0D214BF20200DB
:102EA00001F08EFA34214FF4364001F089FA3421D2
:102EB0004BF2016001F084FA34214BF2026001F020
:102EC0007FFA0D214FF4314001F07AFA0D214BF2D7
:102ED000011001F075FA0D214BF2021001F070FAA9
:102EE00034214FF4374001F06BFA34214BF201707A
:102EF00001F066FA34214BF2027001F061FA002110
:102F00004FF4324001F05CFA00214BF2012001F055
:102F100057FA00214BF2022001F052FA24214FF41B
:102F2000384001F04DFA24214BF6010001F048FA37
:102F300024214BF6020001F043FA01214FF43F40F7
:102F400001F03EFA0F214FF4334001F039FA00E06E
:102F5000FEE30F214BF2013001F032FA0F214BF268
:102F6000023001F02DFA34214FF4394001F028FAF3
:102F700034214BF6011001F023FA34214BF60210F4
:102F800001F01EFA08214FF4354001F019FA08212A
:102F90004BF2015001F014FA08214BF2025001F0FB
:102FA0000FFA03214FF4424001F00AFA24214FF4B2
:102FB0003A4001F005FA24214BF6012001F000FA15
:102FC00024214BF6022001F0FBF900214FF43C4094
:102FD00001F0F6F978214BF6014001F0F1F90021FA
:102FE0004BF6024001F0ECF900214FF43D4001F0B6
:102FF000E7F978214BF6015001F0E2F900214BF698
:10300000025001F0DDF900214FF43E4001F0D8F903
:1030100064214BF6016001F0D3F900214FF45140D7
:1030200001F0CEF933214DF2011001F0C9F9002170
:103030004DF2021001F0C4F934214DF2031001F0F9
:10304000BFF900214DF2041001F0BAF93A214DF216
:10305000051001F0B5F900214DF2061001F0B0F9AC
:103060004A214DF2071001F0ABF900214DF2081092
:1030700001F0A6F95C214DF2091001F0A1F900213F
:103080004DF20A1001F09CF981214DF20B1001F074
:1030900097F900214DF20C1001F092F9A6214DF2A2
:1030A0000D1001F08DF900214DF20E1001F088F99C
:1030B000E5214DF20F1001F083F901214DF21010BE
:1030C00001F07EF913214DF2111001F079F901217F
:1030D0004DF2121001F074F954214DF2131001F069
:1030E0006FF901214DF2141001F06AF982214DF2BD
:1030F000151001F065F901214DF2161001F060F98B
:10310000CA214DF2171001F05BF902214DF218109F
:1031100001F056F900214DF2191001F051F9022188
:103120004DF21A1001F04CF901214DF21B1001F083
:1031300047F902214DF21C1001F042F934214DF201
:103140001D1001F03DF902214DF21E1001F038F979
:1031500067214DF21F1001F033F902214DF22010CA
:1031600001F02EF984214DF2211001F029F90221FC
:103170004DF2221001F024F9A4214DF2231001F0A8
:103180001FF902214DF2241001F01AF9B7214DF276
:10319000251001F015F902214DF2261001F010F969
:1031A000CF214DF2271001F00BF902214DF228102A
:1031B00001F006F9DE214DF2291001F001F902219A
:1031C0004DF22A1001F0FCF8F2214DF22B1001F023
:1031D000F7F802214DF22C1001F0F2F8FE214DF229
:1031E0002D1001F0EDF803214DF22E1001F0E8F85A
:1031F00010214DF22F1001F0E3F803214DF23010B1
:1032000001F0DEF833214DF2311001F0D9F803213D
:103210004DF2321001F0D4F86D214DF2331001F06F
:10322000CFF800214FF4524001F0CAF833214DF29B
:10323000012001F0C5F800214DF2022001F0C0F894
:1032400034214DF2032001F0BBF800214DF204209F
:1032500001F0B6F83A214DF2052001F0B1F8002155
:103260004DF2062001F0ACF84A214DF2072001F0A2
:10327000A7F800214DF2082001F0A2F85C214DF2E0
:10328000092001F09DF800214DF20A2001F098F884
:1032900081214DF20B2001F093F800214DF20C201A
:1032A00001F08EF8A6214DF20D2001F089F80021E1
:1032B0004DF20E2001F084F8E5214DF20F2001F0CF
:1032C0007FF801214DF2102001F07AF813214DF220
:1032D000112001F075F801214DF2122001F070F873
:1032E00054214DF2132001F06BF801214DF214200E
:1032F00001F066F882214DF2152001F061F80121FC
:103300004DF2162001F05CF8CA214DF2172001F0B1
:1033100057F802214DF2182001F052F800214DF229
:10332000192001F04DF802214DF21A2001F048F861
:1033300001214DF21B2001F043F802214DF21C2027
:1033400001F03EF834214DF21D2001F039F8022140
:103350004DF21E2001F034F867214DF21F2001F0DC
:103360002FF802214DF2202001F02AF884214DF29D
:10337000212001F025F802214DF2222001F020F851
:10338000A4214DF2232001F01BF802214DF224204C
:1033900001F016F8B7214DF2252001F011F80221B5
:1033A0004DF2262001F00CF8CF214DF2272001F03C
:1033B00007F802214DF2282001F002F8DE214DF23B
:1033C000292000F0FDFF02214DF22A2000F0F8FF35
:1033D000F2214DF22B2000F0F3FF02214DF22C20C0
:1033E00000F0EEFFFE214DF22D2000F0E9FF032159
:1033F0004DF22E2000F0E4FF10214DF22F2000F0BE
:10340000DFFF03214DF2302000F0DAFF33214DF2CF
:10341000312000F0D5FF03214DF2322000F0D0FF23
:103420006D214DF2332000F0CBFF00214FF45340CB
:1034300000F0C6FF33214DF2013000F0C1FF002142
:103440004DF2023000F0BCFF34214DF2033000F0A9
:10345000B7FF00214DF2043000F0B2FF3A214DF2E7
:10346000053000F0ADFF00214DF2063000F0A8FF5E
:103470004A214DF2073000F0A3FF00214DF2083041
:1034800000F09EFF5C214DF2093000F099FF002111
:103490004DF20A3000F094FF81214DF20B3000F024
:1034A0008FFF00214DF20C3000F08AFFA6214DF273
:1034B0000D3000F085FF00214DF20E3000F080FF4E
:1034C000E5214DF20F3000F07BFF01214DF210306D
:1034D00000F076FF13214DF2113000F071FF012151
:1034E0004DF2123000F06CFF54214DF2133000F019
:1034F00067FF01214DF2143000F062FF82214DF28E
:10350000153000F05DFF01214DF2163000F058FF3C
:10351000CA214DF2173000F053FF02214DF218304E
:1035200000F04EFF00214DF2193000F049FF02215A
:103530004DF21A3000F044FF01214DF21B3000F033
:103540003FFF02214DF21C3000F03AFF34214DF2D2
:103550001D3000F035FF02214DF21E3000F030FF2B
:1035600067214DF21F3000F02BFF02214DF2203079
:1035700000F026FF84214DF2213000F021FF0221CE
:103580004DF2223000F01CFFA4214DF2233000F058
:1035900017FF02214DF2243000F012FFB7214DF247
:1035A000253000F00DFF02214DF2263000F008FF1B
:1035B000CF214DF2273000F003FF02214DF22830D9
:1035C00000F0FEFEDE214DF2293000F0F9FE02216E
:1035D0004DF22A3000F0F4FEF2214DF22B3000F0D3
:1035E000EFFE02214DF22C3000F0EAFEFE214DF2FA
:1035F0002D3000F0E5FE03214DF22E3000F0E0FE0C
:1036000010214DF22F3000F0DBFE03214DF230305F
:1036100000F0D6FE33214DF2313000F0D1FE03210F
:103620004DF2323000F0CCFE6D214DF2333000F01F
:10363000C7FE00214FF4544000F0C2FE33214DF28A
:10364000014000F0BDFE002100E082E34DF20240A7
:1036500000F0B6FE34214DF2034000F0B1FE00212F
:103660004DF2044000F0ACFE3A214DF2054000F06E
:10367000A7FE00214DF2064000F0A2FE4A214DF2C5
:10368000074000F09DFE00214DF2084000F098FE3A
:103690005C214DF2094000F093FE00214DF20A40FA
:1036A00000F08EFE81214DF20B4000F089FE0021DA
:1036B0004DF20C4000F084FEA6214DF20D4000F0CA
:1036C0007FFE00214DF20E4000F07AFEE5214DF222
:1036D0000F4000F075FE01214DF2104000F070FE29
:1036E00013214DF2114000F06BFE01214DF212400A
:1036F00000F066FE54214DF2134000F061FE0121FE
:103700004DF2144000F05CFE82214DF2154000F0B5
:1037100057FE01214DF2164000F052FECA214DF233
:10372000174000F04DFE02214DF2184000F048FE17
:1037300000214DF2194000F043FE02214DF21A40E3
:1037400000F03EFE01214DF21B4000F039FE00E08A
:1037500002E302214DF21C4000F032FE34214DF212
:103760001D4000F02DFE02214DF21E4000F028FE0B
:1037700067214DF21F4000F023FE02214DF2204050
:1037800000F01EFE84214DF2214000F019FE0221BE
:103790004DF2224000F014FEA4214DF2234000F02F
:1037A0000FFE02214DF2244000F00AFEB7214DF237
:1037B000254000F005FE02214DF2264000F000FEFB
:1037C000CF214DF2274000F0FBFD02214DF22840B1
:1037D00000F0F6FDDE214DF2294000F0F1FD02215E
:1037E0004DF22A4000F0ECFDF2214DF22B4000F0AA
:1037F000E7FD02214DF22C4000F0E2FDFE214DF2EA
:103800002D4000F0DDFD03214DF22E4000F0D8FDEB
:1038100010214DF22F4000F0D3FD03214DF2304036
:1038200000F0CEFD33214DF2314000F0C9FD0321FF
:103830004DF2324000F0C4FD6D214DF2334000F0F6
:10384000BFFD00214FF4554000F0BAFD33214DF289
:10385000015000F0B5FD00214DF2025000F0B0FD26
:1038600034214DF2035000F0ABFD00214DF2045025
:1038700000F0A6FD3A214DF2055000F0A1FD002117
:103880004DF2065000F09CFD4A214DF2075000F029
:1038900097FD00214DF2085000F092FD5C214DF2A1
:1038A000095000F08DFD00214DF20A5000F088FD16
:1038B00081214DF20B5000F083FD00214DF20C50A0
:1038C00000F07EFDA6214DF20D5000F079FD0021A3
:1038D0004DF20E5000F074FDE5214DF20F5000F056
:1038E0006FFD01214DF2105000F06AFD13214DF2E1
:1038F000115000F065FD01214DF2125000F060FD05
:1039000054214DF2135000F05BFD01214DF2145093
:1039100000F056FD82214DF2155000F051FD0121BD
:103920004DF2165000F04CFDCA214DF2175000F038
:1039300047FD02214DF2185000F042FD00214DF2EA
:10394000195000F03DFD02214DF21A5000F038FDF3
:1039500001214DF21B5000F033FD02214DF21C50AD
:1039600000F02EFD34214DF21D5000F029FD022102
:103970004DF21E5000F024FD67214DF21F5000F063
:103980001FFD02214DF2205000F01AFD84214DF25E
:10399000215000F015FD02214DF2225000F010FDE3
:1039A000A4214DF2235000F00BFD02214DF22450D2
:1039B00000F006FDB7214DF2255000F001FD022177
:1039C0004DF2265000F0FCFCCF214DF2275000F0C4
:1039D000F7FC02214DF2285000F0F2FCDE214DF2FE
:1039E000295000F0EDFC02214DF22A5000F0E8FCD5
:1039F000F2214DF22B5000F0E3FC02214DF22C504D
:103A000000F0DEFCFE214DF22D5000F0D9FC032128
:103A10004DF22E5000F0D4FC10214DF22F5000F04A
:103A2000CFFC03214DF2305000F0CAFC33214DF29F
:103A3000315000F0C5FC03214DF2325000F0C0FCC3
:103A40006D214DF2335000F0BBFC00214FF4564085
:103A500000F0B6FC33214DF2016000F0B1FC002112
:103A60004DF2026000F0ACFC34214DF2036000F036
:103A7000A7FC00214DF2046000F0A2FC3A214DF2B7
:103A8000056000F09DFC00214DF2066000F098FCFE
:103A90004A214DF2076000F093FC00214DF20860CE
:103AA00000F08EFC5C214DF2096000F089FC0021E1
:103AB0004DF20A6000F084FC81214DF20B6000F0B1
:103AC0007FFC00214DF20C6000F07AFCA6214DF243
:103AD0000D6000F075FC00214DF20E6000F070FCEE
:103AE000E5214DF20F6000F06BFC01214DF21060FA
:103AF00000F066FC13214DF2116000F061FC012121
:103B00004DF2126000F05CFC54214DF2136000F0A5
:103B100057FC01214DF2146000F052FC82214DF25D
:103B2000156000F04DFC01214DF2166000F048FCDC
:103B3000CA214DF2176000F043FC02214DF21860DB
:103B400000F03EFC00214DF2196000F039FC02212A
:103B50004DF21A6000F034FC01214DF21B6000F0C0
:103B60002FFC02214DF21C6000F02AFC34214DF2A2
:103B70001D6000F025FC02214DF21E6000F020FCCB
:103B800067214DF21F6000F01BFC02214DF2206006
:103B900000F016FC84214DF2216000F011FC02219E
:103BA0004DF2226000F00CFCA4214DF2236000F0E5
:103BB00007FC02214DF2246000F002FCB7214DF217
:103BC000256000F0FDFB02214DF2266000F0F8FBBD
:103BD000CF214DF2276000F0F3FB02214DF2286067
:103BE00000F0EEFBDE214DF2296000F0E9FB02213E
:103BF0004DF22A6000F0E4FBF2214DF22B6000F060
:103C0000DFFB02214DF22C6000F0DAFBFE214DF2C9
:103C10002D6000F0D5FB03214DF22E6000F0D0FBAB
:103C200010214DF22F6000F0CBFB03214DF23060EC
:103C300000F0C6FB33214DF2316000F0C1FB0321DF
:103C40004DF2326000F0BCFB6D214DF2336000F0AC
:103C5000B7FB5521184600F0B3FBAA214FF2010033
:103C600000F0AEFB52214FF2020000F0A9FB082148
:103C70004FF2030000F0A4FB00214FF2040000F01B
:103C80009FFBCC214FF4314000F09AFB00214BF216
:103C9000011000F095FB05214FF4364000F090FB39
:103CA00070214FF4374000F08BFB70214BF2017014
:103CB00000F086FB01214FF4384000F081FB032126
:103CC0004BF6010000F07CFB03214BF6020000F0F4
:103CD00077FB03214BF6030000F072FB02214FF447
:103CE0003C4000F06DFB00214BF6014000F068FB0A
:103CF00000214BF6024000F063FBD0214FF4494015
:103D000000F05EFB02214CF6011000F059FB50213F
:103D10004CF6021000F054FB50214CF6031000F05A
:103D20004FFB50214CF6041000F04AFB00214FF4E9
:103D3000545000F045FB55214FF4685000F040FB13
:103D40004FF4885000F026FB782001F0F5F84FF48E
:103D5000245000F01FFBB9E0B842FCD1E22000F093
:103D600019FB1D2000F00AFB022000F007FB0420D5
:103D700000F004FB642001F0DFF8E02000F00AFB13
:103D8000012000F0FBFA0A2001F0C8F8E02000F062
:103D900001FB032000F0F2FA0C2001F0BFF8012033
:103DA00000F0F8FA0A2001F0B9F8E62000F0F2FA83
:103DB0002F2000F0E3FAFF2000F0E0FAFF2000F0EF
:103DC000DDFAB02000F0E6FA202000F0D7FA00205B
:103DD00000F0D4FA032000F0D1FA40F21F3000F0D6
:103DE000CDFA012000F0CAFA40F2DF1000F0C6FA66
:103DF000002000F0C3FAB42000F0CCFA042000F058
:103E0000BDFA40F21F4000F0B9FA002000F0B6FA07
:103E10002E2000F0B3FA002000F0B0FA002000F0ED
:103E2000ADFA002000F0AAFA002000F0A7FAB620B0
:103E300000F0B0FA022000F0A1FA4FF4037000F095
:103E40009DFA002000F09AFA172000F097FA15204A
:103E500000F094FA002000F091FA002000F08EFAB1
:103E6000F02000F097FA032000F088FA292000F0F3
:103E700091FAD02000F08EFA002000F07FFABE20E8
:103E800000F088FA052000F079FAFE2000F076FABA
:103E9000012000F073FA002000F070FA002000F01A
:103EA0006DFA002000F06AFAB82000F073FA0320DF
:103EB00000F064FA012000F061FABA2000F06AFA1A
:103EC000012000F05BFA642000F03AF8BAF8040030
:103ED000404505D0B04203D0A04201D0B84217D12E
:103EE000D5F81C0120F00F00C5F81C01D5F81C0105
:103EF00020F47060C5F81C01D5F81C0140F00300E7
:103F0000C5F81C01D5F81C0140F40070C5F81C016F
:103F10000020FDF737FD0449C1F8BC925846FDF773
:103F200017FD15B0BDE8F08F0080404208B54FF096
:103F3000D840B0F88000ADF80000BDF8000008BD22
:103F400010B50246BE2000F025FA052000F016FA52
:103F5000104602F044F99FED0C1B53EC112B02F0BC
:103F600051F902F00FF980B200F008FA012000F0D8
:103F700005FAFF2000F002FA002000F0FFF9BDE88A
:103F80001040002000F0FAB9666666666666044076
:103F9000F0B56C4D00232946AA79898841F663144F
:103FA000012A01D01AB11BE0A14202D118E0A142BE
:103FB00016D1082814D2DFE800F00406080A0C0E17
:103FC000101206200CE007200AE0042008E005207B
:103FD00006E0012004E0002002E0032000E00220CF
:103FE000A1F5134745F2103245F21056413F05D076
:103FF000914203D0B14201D0A14277D1082812D218
:10400000DFE800F0110406080A0C0E1080230AE015
:10401000402308E0C02306E0202304E0602302E000
:10402000A02300E0E023B14202D14FF4585000E059
:104030003620914205D0B14203D0A14201D043F0D5
:104040000803194600F0BCF9AA88A2420AD09806D3
:104050002888698802D5884202D303E0884201D9C2
:10406000298068806889B24241D100F093F900202C
:1040700000F084F96889401C80B200F08BF90020C0
:1040800000F07CF96889801C80B200F083F92888F0
:10409000401EC0F30F2000F071F96889C01C80B287
:1040A00000F078F92878401EC0B200F067F9A889BE
:1040B00000F070F9002000F061F9A889401C80B27E
:1040C00000F068F9002000F059F9A889801C80B23E
:1040D00000F060F96888401EC0F30F2000F04EF930
:1040E000A889C01C80B200F055F922E028E000F059
:1040F00051F9002000F042F9002000F03FF9288833
:10410000401EC0F30F2000F039F92878401EC0B2DD
:1041100000F034F9A88900F03DF9002000F02EF9F4
:10412000002000F02BF96888401EC0F30F2000F03B
:1041300025F9A878BDE8F040401EC0B200F01EB9D5
:10414000F0BD0000A8020020F0B53F4D0C4602462D
:10415000060AA9882846270A4089A1F51343413B4E
:1041600028D0A1F5A643103B24D0A1F5C853633B4A
:104170002FD0A1F5AA43103B64D100F00BF93046D3
:1041800000F0FCF86889401C80B200F003F9D0B25E
:1041900000F0F4F8A88900F0FDF8384600F0EEF8D9
:1041A000A889401C80B200F0F5F8E0B2BDE8F0400C
:1041B00000F0E4B800F0EEF8304600F0DFF8D0B2DE
:1041C00000F0DCF8A88900F0E5F8384600F0D6F8F1
:1041D000EBE7A97929B300F0DDF8304600F0CEF81E
:1041E000D0B200F0CBF82888401EC0F30F2000F0BA
:1041F000C5F82878401EC0B200F0C0F8A88900F0C9
:10420000C9F8384600F0BAF8E0B200F0B7F86888AC
:10421000401EC0F30F2000F0B1F8A878401EC0B2D5
:10422000C4E72988891A491E8AB200F0B3F8002031
:1042300000F0A4F8002000F0A1F8100A00F09EF8A9
:10424000D0B2D9E7F0BD0000A80200202DE9F84F58
:1042500082461F460E468B46580700D0012000EBD1
:10426000D700790810FB01F0203AC0B202F0FF0934
:104270000025009047E00C2F10D0102F12D0182FDF
:1042800014D0202F42D1224901EBC9104FF0000871
:10429000445D200610D51F48026811E009EB490073
:1042A0001D4906E01D4901EB0910EFE71C4909EB28
:1042B000C90001EB8000E9E70A9828B9154842686F
:1042C00031465046FDF7CAFB6006040E1548761CC1
:1042D000B6B24088B04219D9A6EB0B00B84209D15A
:1042E0000AF101001FFA80FA0E485E460188514526
:1042F0000CD906E008F1010000F0FF08B8F1080F42
:10430000C7D36D1CEDB200988542B4D3BDE8F88FD9
:10431000FC7B0008140000203C640008B068000822
:10432000A06E0008A80200202DE9F84F044600F016
:10433000FF0810190D46DDE90A761FFA80FA5819B0
:104340001FFA80F94FF0000B11E0544502D3E81931
:10435000444685B24D450FD23B4629462046CDF80E
:1043600000B0FFF773FF04EB570084B2761C32787D
:10437000A2F120005E28E8D9BDE8F88F01B5BDF8AC
:104380000000ADF80000BDF800004FF0D841A1F8E2
:10439000800008BD01B5BDF80000ADF80000BDF813
:1043A00000004FF0D841A1F87E0008BD03484FF04F
:1043B000D8410089A1F87E0070470000A8020020C3
:1043C0004FF0D84222F87E0F51807047104810B548
:1043D000016886B041F0040101600068012100F02D
:1043E000040005900320CDE90210CDE90001094C3D
:1043F00069462046FCF746FA012211462046FCF7A2
:1044000026FB012202212046FCF721FB06B010BD4D
:104410003038024000080240FEE770470907090EE5
:10442000002806DA00F00F0000F1E02080F8141DEB
:10443000704700F1E02080F80014704770470000DA
:1044400010B5124C1048022120604FF48270606059
:104450000020A060C4E90301012161614902A1615A
:104460003821C4E907106062A0620720E06220469C
:10447000FCF71AFE2068016841F040010160BDE8C8
:104480001040FF2000F004B800300140B8020020C6
:1044900001B582B04FF47A700090012301AA02A9FD
:1044A0000248FCF76FFE9DF804000EBDB802002024
:1044B0000B4A10B511680B6823F040030B601168BC
:1044C0000B684FF6C77423400B6011680B680343F9
:1044D0000B601068016841F04001016010BD0000F0
:1044E000B802002038B50B46009204460022802115
:1044F00000F008F8002804D0606D40F020006065EE
:10450000032038BD2DE9F0411D4617460E460446EE
:10451000DDF8188035E0681C33D02DB1FCF7A2FA25
:10452000A0EB0800A8422CD32068416821F0E001EC
:1045300041606068B0F5827F0BD1A068B0F5004F94
:1045400002D0B0F5806F04D12068016821F04001ED
:104550000160A06AB0F5005F0AD1206801684DF6DD
:10456000FF72114001602068016841F40051016050
:10457000012084F85100002084F850000320BDE899
:10458000F0812068806836EA000004D00020B8423C
:10459000C1D10020F3E70120F9E7704770B5214C45
:1045A00092B00025266846F080562660246804F004
:1045B000805411941C4C266846F48046266024687A
:1045C0000DF1240C04F4804411940124009424047B
:1045D0000194022406948CE80D006605CDE907617C
:1045E0006846FCF7D7FB00B1FEE70CA90F2081E875
:1045F00031004FF4A0500F904FF4805010900521DF
:104600000CA8FCF7A5FA00B1FEE7FCF725FA41F289
:104610000101884204D10548016841F480710160BC
:1046200012B070BD4038024000700040003C0240B3
:10463000FCF71EBA1048016841F4700101600F4890
:10464000016841F0010101600C4A0021083211604B
:1046500002680B4B1A400260031D0A4A1A60026886
:1046600022F48022026005480C300160024958069D
:10467000803908607047000088ED00E00038024093
:10468000FFFFF6FE1030002410B50A4C2068C06809
:10469000C043C00709D1084800698047216800204D
:1046A000486221686420C862E06021686FF0010000
:1046B000086110BD101300205C000020F0B50268F6
:1046C000234D244E244FDFF894C0254B4FF0804EED
:1046D000A84209D0704507D0B04205D0B84203D0F7
:1046E000604501D0984203D122F070044A68224309
:1046F000A8421BD0704519D0B04217D0B84215D08F
:10470000604513D0984211D0164CA0420ED0164CE2
:10471000A0420BD0154CA04208D0154CA04205D0A9
:10472000144CA04202D0144CA04203D122F4407495
:10473000CA68224302608A68C2620A688262A8422A
:1047400001D0984201D10969016301214161F0BDA5
:10475000000001400004004000080040000C004040
:104760000004014000400140004401400048014075
:1047700000180040001C004000200040F8B506462C
:1047800010480D460024016841F0040101600068F2
:10479000032200F00400009011461E20FCF7A6F949
:1047A0001E20FCF798F9094A07481060C2E9015435
:1047B000C2E903641046FCF7BDFEBDE8F8400348BB
:1047C000FCF7D4BE4038024000080040101300201F
:1047D00010B5806B0021C185C184FCF7D3FE10BDEC
:1047E0000168CA6822F49072CA6001684A6922F0BE
:1047F00001024A61202180F83A10704710B590F804
:104800003A10222901D0022010BD8168B1F5805FE5
:1048100011D00169002901681FD0496801F07F03A8
:10482000816A4A1C82620B70C18D491E0904090C01
:10483000C18518D026E00269816A002A02685268A0
:1048400005D0D2B20A80816A491C8162ECE7C2F3CA
:1048500008020A80816A891CF7E74A68816A4B1C52
:1048600083620A70E0E70168CA6822F49072CA6045
:1048700001684A6922F001024A61202180F83A1059
:10488000FCF7A2FF002010BD2DE9F04104460068AE
:10489000016921F44052E168114301612068C16857
:1048A00049F20C6291432369A268E5691A4363697E
:1048B0002B431A430A43C26020684169A26921F46C
:1048C00040710A434261E0696425B0F5004F974AA0
:1048D000974920684FF032083FD0884201D090427B
:1048E0007CD1FCF707FA00EBC00101EB0010616816
:1048F0008900B0FBF1F6FCF7FDF900EBC00101EB1C
:10490000001061688900B0FBF1F0B0FBF5F06FF0CA
:104910001801484306EB800108EB0110B0FBF5F0ED
:1049200000F0F006FCF7E6F900EBC00101EB001027
:1049300061688900B0FBF1F0B0FBF5F006EB001602
:10494000FCF7D8F900EBC00101EB001061688900A9
:10495000B0FBF1F7FCF7CEF9D2E0884201D09042EB
:104960003DD1FCF7C7F900EBC00101EB0010616815
:104970004900B0FBF1F0B0FBF5F00601FCF7BAF925
:1049800000EBC00101EB001061684900B0FBF1F7DA
:10499000FCF7B0F900EBC00101EB001061684900C1
:1049A000B0FBF1F0B0FBF5F06FF01801484307EBF6
:1049B000800108EBC100B0FBF5F000F0F80006EB59
:1049C0004006FCF797F900EBC00101EB00106168AD
:1049D0004900B0FBF1F7FCF78DF93CE055E0FCF73E
:1049E00071F900EBC00101EB001061684900B0FBF8
:1049F000F1F0B0FBF5F00601FCF764F900EBC00143
:104A000001EB001061684900B0FBF1F7FCF75AF9BF
:104A100000EBC00101EB001061684900B0FBF1F050
:104A2000B0FBF5F06FF01801484307EB800108EB8D
:104A3000C100B0FBF5F000F0F80006EB4006FCF713
:104A400041F900EBC00101EB001061684900B0FBC7
:104A5000F1F7FCF737F900EBC00101EB00106168DA
:104A60004900B0FBF1F0B0FBF5F06FF018014843DE
:104A700007EB800108EBC100B0FBF5F000F0070088
:104A8000216830448860BDE8F081FCF71BF900EB39
:104A9000C00101EB001061688900B0FBF1F6FCF782
:104AA00011F900EBC00101EB001061688900B0FB57
:104AB000F1F0B0FBF5F06FF01801484306EB800110
:104AC00008EB0110B0FBF5F000F0F006FCF7FAF887
:104AD00000EBC00101EB001061688900B0FBF1F050
:104AE000B0FBF5F006EB0016FCF7ECF800EBC001AC
:104AF00001EB001061688900B0FBF1F7FCF7E2F808
:104B000000EBC00101EB001061688900B0FBF1F01F
:104B1000B0FBF5F06FF01801484307EB800108EB9C
:104B20000110B0FBF5F000F00F00A9E70014014000
:104B30000010014090F83910212901D0022070475F
:104B40008168B1F5805F016A0BD04A1C026202687D
:104B500009785160C18C491E0904090CC1840ED02A
:104B600017E009880268C1F3080151600169002952
:104B7000016A02D0491C0162ECE7891CFBE701686D
:104B8000CA6822F08002CA600068C16841F0400132
:104B9000C16000207047000010B50848FCF7F8FC21
:104BA0000648FCF7F0FC2028FAD10122044903480A
:104BB000FCF7E6FD0028F8D110BD00001802002027
:104BC0000C000020FEE7000070B5040300F02EF991
:104BD00000F0D6F8104D0020C5F898022020FFF70D
:104BE00057FC0E480088A0F56F41183902D1200EFD
:104BF000FFF74EFCC4F30740FFF74AFCC4F307205D
:104C0000FFF746FCE0B2FFF743FC0120C5F898022D
:104C1000BDE8704000F0B4B8008040421E000020A3
:104C200070B51A4886B00025016841F002010160A4
:104C30000068012400F0020005904020CDE9000446
:104C40000220CDE9024069461148FBF71BFE114ED8
:104C5000C6F89842FFF7F4FB0020FFF729FC00F0AC
:104C600051F80D490880A0F56F4117390BD1032089
:104C700000F06AF8C00706D1C6F89852B720FFF7CF
:104C800007FCC6F8984206B070BD000030380240FC
:104C900000040240008040421E0000202DE9F04147
:104CA000164F0646002015460C46C7F8980203200A
:104CB000FFF7EEFB12480088A0F56F41183902D1CA
:104CC000200EFFF7E5FBC4F30740FFF7E1FBC4F359
:104CD0000720FFF7DDFBE0B2FFF7DAFB002405E079
:104CE000FF20FFF7D5FB3055641CA4B2AC42F7D3CC
:104CF0000120C7F89802BDE8F08100000080404222
:104D00001E00002070B50F4D0024C5F89842902079
:104D100005F52675FFF7BCFB0020FFF7B9FB002067
:104D2000FFF7B6FB0020FFF7B3FBFF20FFF7B0FB58
:104D300044EA0024FF20FFF7ABFB20430121296058
:104D400070BD00000080404210B5012803D0022849
:104D500003D0032803D0052002E0352000E0152011
:104D6000064C0021C4F8981204F52674FFF790FB56
:104D7000FF20FFF78DFB0121216010BD0080404224
:104D800010B50120FFF7E0FFC007FAD110BD000009
:104D90002DE9F05FC1F30B06DFF88C800F0BC6F531
:104DA00080548A4681461546A24200D814463903EB
:104DB0008B464FF480524046FFF770FF002006E01C
:104DC000321818F80210FF2903D1401C80B2A0420B
:104DD000F6D3A04221D23846FFF7F6FE002006E0C7
:104DE00019F800208319401C08F8032080B2A04263
:104DF000F6D359464FF48052404600F027F8A542BA
:104E00000FD0281BA144A244002685B24FF4805441
:104E10007F1CA542CBD82C46C9E7224651464846BE
:104E2000EBE7BDE8F09F00001003002010B5064C32
:104E30000020C4F89802062004F52674FFF728FB2A
:104E40000120206010BD0000008040422DE9F041AB
:104E50000746C8B2C0F580740E461546A24200D877
:104E600014464FF4807822463146384600F00EF85A
:104E7000A54208D0281B2744264485B24446A542B3
:104E8000F1D82C46EFE7BDE8F08100002DE9F041B4
:104E900015460C460646FFF7C9FF154F0020C7F818
:104EA00098020220FFF7F4FA12480088A0F56F413B
:104EB000183902D1200EFFF7EBFAC4F30740FFF7D1
:104EC000E7FAC4F30720FFF7E3FAE0B2FFF7E0FAEE
:104ED000002404E0305DFFF7DBFA641CA4B2AC42AE
:104EE000F8D30120C7F89802BDE8F041FFF748BFAA
:104EF000008040421E00002030380A2801D20120E4
:104F0000704700207047704710B504460420FCF736
:104F1000F1FA0148046010BD0800002070B5054694
:104F200000244FF47A7603E0304600F005F8641C64
:104F3000AC42F9D370BD000070B54FF0E025002100
:104F40006C69094AAB6912685043AA699A42FCD05D
:104F500002D2A3EB020302E0A4EB0206334419449D
:104F600013468142F1D370BD0800002003490A684E
:104F70005206FCD5C2B24A607047000000100140E2
:104F80008AB00024FBF77CFD0723022208214FF49E
:104F9000A870FFF703FBA820FFF7B6FF4FF4E1303E
:104FA00000F054F96748416854208847FFF70EFA2B
:104FB000FCF738FCFCF7EAFDFFF732FEDFF88881EA
:104FC0004FF478411025C8F8001060A0CDE90050DA
:104FD0002B46C82232211E20FFF7A6F960A0CDE99A
:104FE00000501023C82246211E20FFF79DF95FA024
:104FF000CDE900501023C8225A211E20FFF794F952
:105000005EA0CDE900501023C8226E211E20FFF7BC
:105010008BF95DA0CDE900501023C82282211E200B
:10502000FFF782F95E4F4FF4FA764EF617791DE0DE
:105030005CA0CDE900501023C82296211E20FFF766
:1050400073F93046FFF76AFF5CA0CDE900501023EA
:10505000C82296211E20FFF767F93046FFF75EFF52
:10506000D7F8A402E0B10020C7F8A402FFF74AFE77
:105070004845DDD157A0CDE900501023C822962124
:105080001E20FFF751F91F214FF00076C8F80010DD
:105090000020FCF7F7FB022804D0012820D040E0D4
:1050A0000120E1E74FF6FF70009040F23F13EF223E
:1050B000AA210020FCF746FD4AA0CDE900501023AC
:1050C000C822AA211E20FFF72FF91A22A6F1640197
:1050D0004A48FFF75DFE1023C82249A0AA211BE021
:1050E0004DA0CDE900501023C822AA211E20FFF7B1
:1050F0001BF91A22A6F1640102A8FFF7CFFD4CA00C
:10510000CDE900501023C822AA211E20FFF70CF978
:105110001023C82202A8BE21CDE900501E20FFF7AF
:1051200003F9641CA4B20A20FFF7F8FE142CAFD1D7
:10513000D7F8A40220B10020C7F8A4020024A7E7F2
:105140000120F9E75C000020140000204578706C15
:105150006F7265722053544D3332463400000000A4
:1051600053504920544553540000000041544F4DC2
:1051700040414C49454E54454B00000032303137D8
:105180002F342F31330000004B4559313A577269A3
:10519000746520204B4559303A5265616400000027
:1051A00000804242573235513132382043686563BE
:1051B0006B204661696C656421000000506C65617C
:1051C000736520436865636B212020202020202008
:1051D0002000000057323551313238205265616469
:1051E00079210000537461727420577269746520CC
:1051F000573235513132382E2E2E2E000A640008D7
:1052000057323551323536205772697465204669F8
:105210006E6973686564210053746172742052650D
:10522000616420573235513132382E2E2E2E200017
:10523000546865204461746120526561646564202E
:1052400049733A2020200000006870470B4910B5D0
:10525000094AC1E9002000208860C86008618861AF
:105260000C2048610846FCF71BFABDE810400122FB
:1052700003490248FCF784BA0010014018020020DC
:105280000C00002070B594B0064613AB11AA694615
:1052900000F0DCF9002824D18DF840001D4C0425D5
:1052A00014E0206805EBC10113AB405812AA08A90D
:1052B00000F0CCF9002814D1694608A800F001FCE0
:1052C00088B19DF84000401C8DF84000207D9DF87D
:1052D00040108842E5D8207D9DF8401088420ED1CC
:1052E000042014B070BD9DF848009DF84410884219
:1052F00001D90220F5E79DF84000A075EBE710A961
:10530000304600F057FA0028EBD19DF84000607558
:105310000020E6E75C0000202DE9F0417E4E9AB0C7
:10532000B57D307DA8427CD90421306801EBC501F0
:1053300019AB405818AA10A900F088F910A977A055
:10534000FAF7C4FF00240DF1180832E0308B012178
:10535000A140084217D0222172A0FAF7B7FF2046D9
:1053600000F090FA811970A02431FAF7AFFF2221E2
:105370006CA0FAF7ABFF204600F084FA30442430EA
:1053800048F824000BE0204600F07CFA3044416AE3
:1053900048F82410F07D00B364A0FAF797FF9DF859
:1053A0006000401E844202D062A0FAF78FFF641CA6
:1053B000E4B29DF860008442C8D35FA0FAF786FF8C
:1053C00000F0A6FA707D0B2814D2DFE800F0080D7B
:1053D00031384048525E6B78890058A0DDE730686C
:1053E00050F83500804704E0306850F835100698D2
:1053F0008847074600F058FA9DF8640001286ED0EF
:105400004FA0FAF763FF96F8EC0000280DD0D6F80D
:10541000F0000A21B0FBF1F201FB1202B0FBF1F146
:1054200000E002E047A0FAF751FF1AB0BDE8F081B2
:10543000306850F83520DDE906019047D9E730683B
:1054400006AC50F8353094E807009847D1E730684B
:1054500006AF50F8354097E80F00A047C9E70A9813
:105460000090306806AF50F8354097E80F00A0472D
:10547000BFE7DDE90A01CDE90001306806AF50F869
:10548000354097E80F00A047B3E70AAB06AF93E8B3
:1054900007008DE80700306850F8354097E80F00A6
:1054A000A047A6E70AAC06AF94E80F008DE80F000E
:1054B000306850F8354097E80F00A04799E70BACEB
:1054C00006AF94E80F0001AC84E80F000A98009042
:1054D000306850F8354097E80F00A04789E711E0A1
:1054E0000CAC06AF94E80F0002AC84E80F00DDE9D5
:1054F0000A01CDE90001306850F8354097E80F0007
:10550000A04776E7F07D394618B116A0FAF7DEFE1F
:1055100079E717A0FAE700005C0000200D0A257368
:10552000280000002563000025730000305825582E
:10553000000000002C00000029000000256C640021
:105540003B0D0A0046756E6374696F6E2052756E6E
:105550002054696D653A25642E2531646D730D0AFA
:10556000000000003D305825583B0D0A00000000A7
:105570003D256C753B0D0A00F0B500252E462F46E3
:105580002C4603782C2B03D0292B04D01BB103E02D
:1055900014B9012600E00CB317B1222B2AD02AE05F
:1055A000A3F1300CBCF1090F19D92D2B17D02B2BDF
:1055B00015D0A3F1610CBCF1050F10D9A3F1410C7A
:1055C000BCF1050F0BD9582B09D0782B07D0222B13
:1055D0000CD0202B1ED02C2B1CD0FF270CE05EB94A
:1055E000612B00D3203B01F8013B13E026B90127D2
:1055F0003C460FE0002426B10020087017702846B2
:10560000F0BD3CB15C2B02D16D1CEDB2401C0378A7
:1056100001F8013B6D1CEDB2401CB2E730B500252E
:1056200015700AE001F8014B1478401C641CE4B2C8
:1056300014709C4201D3012030BD0478202C01D08D
:10564000002CEFD10D70002030BD00002DE9FF4F80
:10565000002482B089469846A24627460125264660
:105660002246EB46029915E0202810D002F07F0375
:10567000052B0CD202B9802202F07F03042B01D14A
:105680002A280AD1521C0BF80300D2B201E0852A65
:1056900004D0491C08780028E6D16AB102F07F02E4
:1056A00000200BF8020041A1584600F00AFA38B178
:1056B000012188F8001000224FF00008029B15E03D
:1056C000002088F80000F6E708F1010000F0FF086C
:1056D00013F8010F202801D02A2807D1184600F01E
:1056E0007DF9282802D02A2800D0C2461878282818
:1056F00001D00028E8D10299BAF1000F01D051443D
:10570000491C4FF000084346087888B1282804D087
:10571000292806D0222810D011E083B9641CE4B2F5
:105720000DE063B924B1641E14F0FF0402D00DE053
:105730004FF00108012F27D02FE04BB100234CB1CF
:105740002C280CD0202816D0282814D05AB110E0CC
:105750000123F4E7202815D009F8010B12E00125F8
:10576000521CD2B207E0052E03D20BF80600761CBD
:10577000F6B26D1CEDB2012C04D1022D02D103252D
:105780007F1CFFB2491CBFE700200BF8060007A1F1
:10579000684600F096F900B90027049807700020C9
:1057A00089F8000006B04046BDE8F08F766F696466
:1057B000000000002DE9F04300248946304DB5B0CB
:1057C000214622466B18491CC9B29A760A29F9D398
:1057D00002E010F8011F99B101782829F9D1461C7F
:1057E0004FF0010833AA69463046FFF7C5FE06446C
:1057F0009DF8CC0040B1012824D0FF2836D10BE021
:10580000012035B0BDE8F0839DF8000070B334A9E5
:10581000684600F0EBF808B10220F2E7204600F0FD
:1058200031F8284434994162298B08FA04F0814305
:105830002983042029198876641CE4B20A2C15D91E
:105840000320DEE7684600F051F9471C204600F0CF
:1058500019F841196846243100F03FF9298B08FAFC
:1058600004F00143281929838776E5E73078292851
:1058700001D00028B6D189F800400020C1E700001F
:105880005C000020024610B500200146054B05E0F3
:105890005C18491CA47EC9B22044C0B29142F7D31F
:1058A00010BD00005C000020094800680169C94380
:1058B000CA070849D1F8F02004D14FF6FF731A4403
:1058C000C1F8F020406A1044C1F8F00070470000B1
:1058D000101300205C00002000EBC00101EB001061
:1058E0004FF0FF3101EB800010B581B24FF47A70B8
:1058F000FEF744FF01490120C87510BD5C0000207F
:105900000346012000E05843491EC9B2FBD270474C
:1059100007486FF00101026811610268090CD16249
:10592000C1600068002141620248C0F8F010704771
:10593000101300205C0000202DE9F041164E308845
:10594000010426D51549C0B2154F00250D54B9687C
:105950001248884704000FD0104800F0D1F8012801
:1059600001D0040014D0012C09D0022C09D0032C42
:1059700009D0042C0CD108E0F868804708E009A0A1
:1059800004E00BA002E00DA000E00FA0FAF79EFCDF
:105990003580BDE8F08100000E000020500100209D
:1059A0005C000020BAAFCAFDB4EDCEF3210D0A00B1
:1059B000B2CECAFDB4EDCEF3210D0A00B2CECAFDBF
:1059C000CCABB6E0210D0A00CEB4D5D2B5BDC6A58C
:1059D000C5E4B5C4BAAFCAFD210D0A0010F8011F15
:1059E000202901D10028F9D1C8B270472DE9F04330
:1059F0000E4600244FF00A082546014634600A7816
:105A0000A2F13003092B14D903782D2B01D02B2BB5
:105A100000D174B1A2F14103052B0AD9582A05D04F
:105A200012F0FF0F17D00120BDE8F083012C02D047
:105A3000F9E7412A01D34FF0100802782D2A04D04B
:105A40002B2A04D0641CE4B203E0022500E0012507
:105A5000401C491CD3E70746B8F1100F01D084B1B0
:105A600012E0032C01D20220DEE73878302802D180
:105A70007878582801D00320D6E7A41EE4B2BF1CD2
:105A800001E00420D0E70CB1641EE4B2387801468E
:105A90003038092801D8814601E0A1F137092146B3
:105AA0004046FFF72DFF326809FB0020306017F8F1
:105AB000011F0029E7D1022D01D1404230600020B2
:105AC000B2E702780B789A4201D00120704712B1F8
:105AD000401C491CF5E70020704702780A700278E4
