:020000040800F2
:1000000078080020010100084B170008F3140008CD
:100010004917000839020008091B00080000000009
:100020000000000000000000000000004F17000862
:100030003B020008000000004D170008511700089F
:100040001B0100081B0100081B0100081B01000820
:100050001B0100081B0100081B0100081B01000810
:100060001B0100081B0100081B0100081B01000800
:100070001B0100081B0100081B0100081B010008F0
:100080001B0100081B0100081B0100081B010008E0
:100090001B0100081B0100081B0100081B010008D0
:1000A0001B0100081B0100081B0100081B010008C0
:1000B0001B0100081B0100081B0100081B010008B0
:1000C0001B0100081B0100081B0100081B010008A0
:1000D0001B0100081B0100081B0100081B01000890
:1000E0001B0100081B0100081B010008DFF80CD0F1
:1000F00000F03EF800480047991B000878080020EF
:100100000648804706480047FEE7FEE7FEE7FEE7B1
:10011000FEE7FEE7FEE7FEE7FEE7FEE7B3170008AF
:10012000ED000008D2B201E000F8012B491EFBD21D
:1001300070470022F6E710B513460A4604461946F2
:10014000FFF7F0FF204610BD20F00040C10DC0F3C6
:10015000160040F400007F2901DA0020704796293C
:1001600003DCC1F19601C84070479639884070475A
:10017000064C074D06E0E06840F0010394E80700F4
:1001800098471034AC42F6D3FFF7B4FFE41C0008E4
:10019000041D000870B58C1810F8015B15F00703FA
:1001A00001D110F8013B2A1106D110F8012B03E010
:1001B00010F8016B01F8016B5B1EF9D12B0705D418
:1001C0000023521E0DD401F8013BFAE710F8013B61
:1001D000CB1A921C03E013F8015B01F8015B521E7D
:1001E000F9D5A142D8D3002070BD000070B50446F7
:1001F00000688168C943C9071CD1816821F00101E9
:10020000816000F05DFA05460FE000BF00F058FA8B
:10021000401B022809D9A06A40F01000A062E06AE1
:1002200040F00100E062012070BD20688068C0439A
:10023000C007EBD0002070BDFEE77047704700009C
:10024000F8B50024009490F824202546012A12D005
:10025000012280F824204A681F23072A0DD206684D
:10026000776B521E02EB820293409F430B689340D0
:100270001F43776319E00220F8BD06680D2A0AD2F1
:10028000376BD21F02EB820293409F430B6893406F
:100290001F43376309E0F76A0D3A02EB820293408D
:1002A0009F430B6893401F43F7620A680723066861
:1002B0000A2A0AD3F7680A3A02EB420293409F43A4
:1002C0008B6893401F43F76008E0376902EB4202F6
:1002D00093409F438B6893401F4337610A68102AFD
:1002E00001D0112A20D1124B02689A4217D193688B
:1002F0001B0219D4936843F4000393600968102922
:1003000012D10C490C4A0968B1FBF2F101EB8101F1
:10031000490000E0491E00910029FBD104E0816AF8
:1003200041F020018162012480F824502046F8BD6C
:10033000002401408C02002040420F002DE9F041D2
:100340004FF0000704003D467ED0A06A002628B981
:10035000E66284F82460204600F07EF82046FFF72D
:1003600045FFA16AC90600D420B1A06A40F0100080
:10037000A06269E0A16A21F4885141F00201A16202
:100380006268E169237B0A4347EA43010A43A168A3
:100390004FF48077B94209D0012907D05FF00001FE
:1003A00094F814C0BCF1010F02D00AE03946F7E717
:1003B000F3B1A36A43F02003A362E36A43F00103AD
:1003C000E3622368D3F804C02CF4694C4CEA010CB6
:1003D000C3F804C021688B68DFF870C003EA0C031F
:1003E00013438B60A168B9420BD0012909D00CE0FE
:1003F000DFF85CC0A3690CEB43330B4343F40061AB
:10040000DFE7218A0D05A5F580152168CB6A23F465
:1004100070032B43CB62216889680E4B19409142CF
:1004200008D1E662A16A21F0020141F00101A16256
:10043000BDE8F081A06A20F0020040F01000A06248
:10044000E06A40F00100E0620120F1E7FDF7E1FF22
:1004500000E0FFFFFE0E1FFF00B585B000210091F8
:1004600001910291039100680E49884218D10E480B
:10047000816941F400718161816901F40071049125
:10048000816941F0080181618069694600F00800D6
:1004900004900220009003200190044800F01AF814
:1004A00005B000BD0024014000100240000C0140D6
:1004B00070B5044600F004F90546601C02D00448FB
:1004C0000078044400F0FCF8401BA042FAD370BD51
:1004D000800200202DE9F84FDFF8B891002409F1DF
:1004E000040A0AF1040B23460F270BF1040EC9E09E
:1004F0000125A5402A40AA427DD1674ED1F804C00B
:10050000ACEB0608B44532D014DCBCF1030F3AD092
:1005100009DCBCF1000F2AD0BCF1010F1CD0BCF1EA
:10052000020F31D11DE0BCF1110F17D0BCF1120F39
:100530002AD119E0B8F5881F19D006DCB8F5803F3C
:1005400015D0B8F5801F1FD111E0B8F5001F0ED0EF
:10055000B8F5041F18D10AE0CB6815E0CB681B1D65
:1005600012E0CB6808330FE0CB680C330CE08B68EB
:100570002BB1012B4FF0080303D0456104E00423A5
:1005800002E0056100E00023FF2A01D8064601E0F1
:1005900000F104064FEA840501D9A5F12005D6F83B
:1005A000008007FA05FC28EA0C0803FA05F548EA7A
:1005B0000508C6F800804D68ED0062D5374DAE697C
:1005C00046F00106AE61AD6924F0030605F00105B1
:1005D0000095334D06EB050CDCF80850A607360FE6
:1005E00007FA06F825EA0805DFF8B880404503D188
:1005F0004FF0000817E044E0DFF8AC80404502D13E
:100600004FF001080FE0DFF8A480404502D14FF021
:10061000020808E0DFF89880404502D14FF0030857
:1006200001E04FF0040808FA06F848EA0508CCF89B
:1006300008804D68D9F80060ED034D4601D516439A
:1006400000E096432E604D68DAF80060AD03554631
:1006500001D5164300E096432E604D68DBF800603C
:10066000ED025D4601D5164300E096432E604D68CD
:10067000DEF80060AD02754601D5164300E09643F2
:100680002E60641C0D682A46E5407FF431AFBDE85A
:10069000F88F00000004014000001110001002401B
:1006A0000000014000080140000C01400010014022
:1006B000001401400AB1016170470904FBE7000022
:1006C000014880687047000080020020024881686D
:1006D000027811448160704780020020074810B5FD
:1006E000016841F010010160032000F06BF8002068
:1006F00000F006F800F024F8002010BD00200240B1
:1007000070B50D4D04464FF47A712878B1FBF0F0C6
:100710000A490968B1FBF0F000F0EEFB48B9102C73
:1007200007D200222146501E00F02CF800206C60F9
:1007300070BD012070BD0000800200208C020020EE
:100740000E4808B5816941F001018161816901F0BC
:1007500001010091C16941F08051C161C06900F09F
:1007600080500090052000F02DF80548416821F0E8
:10077000E06141F00071416008BD000000100240DE
:1007800000000140F0B40E4B1B680C46C3F302237B
:10079000C3F10705042D00D90425191D072901D22D
:1007A000002300E0DB1E012606FA05F1491E214068
:1007B00099409E40761E16403143F0BC01F0AEB920
:1007C0000CED00E0064900F0070208684FF6FF0351
:1007D000184040EA0220034A1043086070470000B6
:1007E0000CED00E00000FA052DE9F843054600781D
:1007F000354CC00754D0E0690026C00008D4E06939
:1008000040F08050E061E069012600F080500090E7
:100810002E480168C90512D40168804641F48071F0
:100820000160FFF74DFF074605E000BFFFF748FFF7
:10083000C01B642823D8D8F80000C005F6D5206A6C
:1008400010F4407021D0A98801F4407181421CD07D
:10085000206A1F49012220F440700A6000220A60C9
:100860002062C00711D0FFF72BFF074641F28838FE
:1008700008E000BFFFF724FFC11B414502D9032058
:10088000BDE8F883206A8007F4D5206A696820F4FF
:100890004070084320621EB1E06920F08050E061A2
:1008A0002878800705D56068A96820F4404008438F
:1008B00060602878C00605D56068E96820F480008B
:1008C000084360600020DBE7001002400070004039
:1008D000400442422DE9F0470F46050061D0434EE7
:1008E000306800F00700B84209D2306820F00700F5
:1008F00038433060306800F00700B84251D12868B2
:100900003B4C810712D5400703D5606840F4E06096
:1009100060602878000703D5606840F4605060602C
:100920006068A96820F0F000084360602878C0077C
:1009300028D06868012810D02168022810D08907C3
:1009400000292EDA616821F0030101436160FFF79D
:10095000B7FE804641F288390DE021688903EFE750
:100960008901EDE7FFF7ACFEA0EB0801494502D98C
:100970000320BDE8F0876068696800F00C00B0EB08
:10098000810FEFD1306800F00700B8420BD9306812
:1009900020F0070038433060306800F00700B842AC
:1009A00001D00120E5E72878400705D56068E968AF
:1009B00020F4E060084360602878000706D560688E
:1009C000296920F4605040EAC100606000F038F806
:1009D0006168084AC1F30311515CC84006490860C8
:1009E00006480068FFF78CFE0020C2E700200240A6
:1009F00000100240CC1C00088C0200208402002061
:100A00000448054900684968044AC1F30221515C61
:100A1000C84070478C02002000100240DC1C000817
:100A20000448054900684968044AC1F3C221515C81
:100A3000C84070478C02002000100240DC1C0008F7
:100A400013A185B00FC98DE80F0015A0154A0068E5
:100A50000490516801F00C00042804D0082804D048
:100A6000114805B070471148FBE7C1F38343C90340
:100A70001DF8030009D5516804AAC1F34041515C37
:100A80000A4A5043B0FBF1F0EBE709494843E8E775
:100A900002030405060708090A0B0C0D0E0F1010BF
:100AA000010200000010024000127A00001BB70093
:100AB00000093D002DE9F84F040070D02078C04DAA
:100AC000C00749D06868C0F38100012807D0686872
:100AD000C0F38100022809D16868C00306D52868E0
:100AE000800339D560680028E7D035E06068B0F54C
:100AF000803F0BD010B1B0F5A02F11D0286820F4A2
:100B000080302860286820F4802002E0286840F4C3
:100B100080302860606890B1FFF7D2FD06460AE099
:100B2000286840F480202860F0E700BFFFF7C8FD88
:100B3000801B642873D828688003F7D50CE0FFF782
:100B4000BFFD064605E000BFFFF7BAFD801B642825
:100B5000F0D828688003F7D420789A4E80074FF0A9
:100B600001094FF0000839D5686810F00C0F07D064
:100B70006868C0F38100022809D16868C00306D400
:100B80002868800714D52069012808D110E0206961
:100B9000B0B1C6F80090FFF793FD074605E00AE103
:100BA000FFF78EFDC01B0228C4D828688007F7D540
:100BB0002868616920F0F80040EAC10028600DE073
:100BC000C6F80080FFF77CFD074604E0FFF778FDDC
:100BD000C01B022823D828688007F7D42078000794
:100BE0002CD57948A169D9B1C0F80090FFF768FD0C
:100BF000074604E0FFF764FDC01B02280FD8686AAF
:100C00008007F7D571484FF4FA510068B0FBF1F056
:100C1000009000BF0098411E0091FAD20EE080E0E3
:100C2000C0F80080FFF74CFD074604E0FFF748FDE1
:100C3000C01B022875D8686A8007F7D4207840075F
:100C400060D5E8690027C00008D4E86940F080500A
:100C5000E861E869012700F0805000905C48016875
:100C6000C90513D40168834641F480710160FFF720
:100C700027FD824606E000BFFFF722FDA0EB0A0039
:100C800064284ED8DBF80000C005F5D5E0680128DF
:100C90000AD008B1052813D0286A20F00100286284
:100CA000286A20F0040002E0286A40F0010028626F
:100CB000E06841F2883B98B1FFF702FD82460BE005
:100CC000286A40F004002862EEE700BFFFF7F8FC56
:100CD000A0EB0A0159455AD8286A8007F6D50CE0DE
:100CE000FFF7EEFC824605E0FFF7EAFCA0EB0A0105
:100CF00059454CD8286A8007F6D41FB1E86920F01E
:100D00008050E861E06988B36968C1F38101022914
:100D100044D00228C6F8608004D0FFF7D1FC044616
:100D200038E034E0FFF7CCFC074604E0FFF7C8FCEE
:100D3000C01B02282BD828688001F7D4206AB0F5A0
:100D4000803F05D16868A16820F4003008436860DE
:100D5000D4E908010843696821F474110843686004
:100D6000C6F86090FFF7ACFC044606E025E000BF43
:100D7000FFF7A6FC001B022809D828688001F7D5D8
:100D80001BE000BFFFF79CFC001B022802D90320D8
:100D9000BDE8F88F28688001F4D40EE00128F7D070
:100DA0006868226A00F48031914204D1616A00F4DB
:100DB0007010884201D00120EAE70020E8E7000037
:100DC0000010024000004242800442428C02002097
:100DD0000070004070B5040009D0606A002540B181
:100DE00025616561A56294F8510040B10CE00120D5
:100DF00070BD6068B0F5827FF4D0E561F2E784F8F9
:100E00005050204600F040F8022084F8510020683D
:100E1000016821F040010160A088218900F48270FE
:100E200001F404410843A18901F400610843217CD5
:100E300001F002010843217D01F001010843218BEB
:100E400001F400710843217F01F03801084394F850
:100E5000201001F080010843218D01F40051084366
:100E600021680860A069042101EA104021684860F7
:100E70002068C16921F40061C1616565012084F8C1
:100E80005100002070BD000030B585B000240094F2
:100E900001940294039400681449884223D11448B1
:100EA000816941F480518161816901F4805104912B
:100EB000816941F00401816180690E4D00F00400F8
:100EC0000490A02000900220019003200390694626
:100ED0002846FFF7FFFA4020CDE90004694628467E
:100EE0000294FFF7F7FA05B030BD00000030014072
:100EF000001002400008014010B5401EB0F1807F94
:100F000001D3012010BD4FF0E02460610F21601774
:100F100000F004FE0020A06107202061002010BD29
:100F200070B590F83C20012A26D0012480F83C407E
:100F3000022280F83D2003685A689D6822F07006FE
:100F40000A6832435A600D4B02689A4208D0B2F1E7
:100F5000804F05D00A4B9A4202D00A4B9A4204D1E4
:100F6000496825F080031943916080F83D400021D5
:100F700080F83C10084670BD022070BD002C014076
:100F8000000400400008004010B5040003D094F8AD
:100F90003D0010B107E0012010BD002084F83C00A6
:100FA000204600F01FF8022084F83D00211D206833
:100FB00000F000FC012084F8460084F83E0084F82C
:100FC0003F0084F8400084F8410084F8420084F82F
:100FD000430084F8440084F8450084F83D00002074
:100FE00010BD000008B50068B0F1804F08D1054879
:100FF000C16941F00101C161C06900F001000090C8
:1010000008BD00000010024070B5044690F83C0096
:10101000012817D0012584F83C50022084F83D00B7
:101020002068826822F0770222F47F42826008689A
:10103000502830D00DDC20284DD005DC98B3102886
:101040003BD148E0022070BD302844D0402834D144
:1010500039E0602828D0702806D0B0F5805F2CD009
:10106000B0F5005F29D10AE0CB68D1E90121206801
:1010700000F0E3FB2068816841F0770109E0CB686C
:10108000D1E90121206800F0D8FB2068816841F493
:101090008041816011E0CA684968206800F082FCE4
:1010A0005021206807E016E0CA684968206800F00F
:1010B0008AFC6021206800F0CAFB84F83D500020C3
:1010C00084F83C0070BDCA684968206800F06AFC7A
:1010D00040212068EFE7226801461046EBE7000058
:1010E00000B585B000210091019102910391006843
:1010F000B0F1804F1AD10E48816941F00801816139
:101100008069694600F008000490082000900220E1
:10111000019003900748FFF7DDF90748416821F483
:10112000407141F0E06141F48071416005B000BD63
:1011300000100240000C01400000014070B5044660
:1011400090F83C000D4601280AD0012084F83C00AC
:1011500042B1042A18D0082A2AD00C2A4DD139E0ED
:10116000022070BD206800F07BFB2068816941F09F
:10117000080181612068816921F004018161206892
:1011800081692A69114311E0206800F091FB206811
:10119000816941F4006181612068816921F4806185
:1011A0008161206881692A6941EA0221816124E024
:1011B000206800F0A9FB2068C16941F00801C16105
:1011C0002068C16921F00401C1612068C1692A69F0
:1011D000114311E0206800F0C3FB2068C16941F4AD
:1011E0000061C1612068C16921F48061C16120682A
:1011F000C1692A6941EA0221C161002084F83C00EA
:1012000070BD10B5040003D094F83D0010B107E0A4
:10121000012010BD002084F83C00204600F01EF89C
:10122000022084F83D00211D206800F0C3FA01204F
:1012300084F8460084F83E0084F83F0084F84000BB
:1012400084F8410084F8420084F8430084F84400A4
:1012500084F8450084F83D00002010BD7047000070
:1012600010B50446022249B104290ED0082913D032
:1012700094F84100012816D0012010BD94F83E00DA
:101280000128F9D184F83E200FE094F83F000128AE
:10129000F2D184F83F2008E094F840000128EBD117
:1012A00084F8402001E084F841200122206800F009
:1012B000B7FA0F492068884203D1426C42F40042D9
:1012C00042642068884208D0B0F1804F05D00949B7
:1012D000884202D00849884204D1816801F00701A0
:1012E000062903D0016841F001010160002010BD12
:1012F000002C0140000400400008004030B50446C6
:101300000D460068002200F08BFA174B41F21111D4
:1013100020688A10984209D1036A0B4206D1036AF9
:10132000134203D1436C23F4004343642068036AEF
:101330000B4206D1016A114203D1016821F001017B
:10134000016001203DB1042D08D0082D09D084F89A
:101350004100002030BD84F83E00FAE784F83F00E9
:10136000F7E784F84000F4E7002C014070B5040072
:1013700004D094F83900002510B106E0012070BDBA
:1013800084F83850204600F023F8242084F83900EF
:101390002068C16821F40051C160204600F026FB9E
:1013A0002068016921F4904101612068416921F0C0
:1013B0002A0141612068C16841F40051C160E563C0
:1013C000202084F8390084F83A00002070BD000025
:1013D00030B585B000240094019402940394006811
:1013E0001449884224D11448816941F480418161C3
:1013F000816901F480410491816941F004018161B6
:1014000080690E4D00F0040004904FF400700090CD
:10141000022001900320039069462846FFF75AF8FE
:101420002815CDE90004694628460294FFF752F8D2
:1014300005B030BD003801400010024000080140F6
:101440002DE9F843044690F839001F4616460D462C
:1014500020284CD1C5B1BEB194F83800012846D03F
:10146000012084F838004FF00008C4F83C802120A7
:1014700084F83900FFF724F9A6848146E684A06841
:10148000B0F5805F03D004E00120BDE8F883206957
:1014900028B12E465FF0000584F838800EE0002663
:1014A000FAE78021204600F0FDFAA0B9AEB116F8A7
:1014B000010B21684860E08C401EE084E08C4B46C4
:1014C0004FF0000200970028EBD14FF0400120467A
:1014D00000F0E8FA30B10320D7E735F8020BC0F38B
:1014E0000800E6E7202084F839000020CDE702203C
:1014F000CBE7FEE73EB50024114800940194029426
:101500000E498460016004730475012505614FF480
:1015100060214460C161FEF711FF08B1FEF78EFE45
:101520000920CDE90005694602940548FEF788FECA
:10153000002801D0FEF782FE3EBD000000240140DD
:10154000640300202DE9F04385B00025364800955E
:10155000019502950395816941F0040181618169DA
:1015600001F004010491816941F008018161806901
:10157000DFF8B88000F00800049000220121404606
:10158000FFF798F801221A214046FFF793F8DFF899
:10159000A09000224FF488714846FFF78BF8012293
:1015A00020214846FFF786F8012401AA022600946C
:1015B00082E8700069464046FEF78CFF01AA0327C7
:1015C000009682E8B00069464046FEF783FF182087
:1015D000CDE90004CDE9024769464046FEF77AFFAF
:1015E0004FF47840CDE90005694648460295FEF77C
:1015F00071FF1020CDE90004CDE902476946484655
:10160000FEF768FF20208DE8D10069464846FEF7C6
:1016100061FF20028DE8710069464846FEF75AFFD7
:1016200005B0BDE8F0830000001002400008014052
:10163000000C0140104810B50E4901604FF4827152
:10164000416000218160C1604FF400720161C0E916
:1016500005123822C0E90721416281620A21C16274
:10166000FFF7B8FB002803D0BDE81040FEF7E6BD49
:1016700010BD0000003001409403002010B58EB072
:1016800000240794089409940A940B941C2168463A
:101690000C94FEF74EFD1D484FF08041C0E9001448
:1016A0004FF47A71C0E9024104618461FFF76CFC78
:1016B00008B1FEF7C3FD4FF48050079007A9134807
:1016C000FFF7A2FC08B1FEF7B9FD1048FFF799FD3E
:1016D00008B1FEF7B3FD0B940BA90C480C94FFF76F
:1016E0001FFC08B1FEF7AAFD6020CDE900040294BA
:1016F0000422694605480494FFF720FD08B1FEF76F
:101700009DFD0248FFF7ECFC0EB010BDEC0300207D
:101710000C4810B50A4901604FF4E13141600021E5
:1017200081600C22C160C0E904128161C161FFF7D0
:101730001DFE002803D0BDE81040FEF77FBD10BDA0
:101740000038014034040020FEE7704770477047BE
:10175000FEF7BCBF30B593B028216846FEF7E9FC20
:1017600014210AA8FEF7E5FC0024022501200F94AD
:10177000049000951020059012944004CDE9084093
:101780001194109407956846FFF794F90F20CDE95E
:101790000A056802CDE90C4001210AA80E94FFF762
:1017A00099F8A80311900F950FA8FFF71DF813B033
:1017B00030BD7047F0B50268164B174C174D4FF00F
:1017C0008047984205D0B84203D0A04201D0A84239
:1017D00003D122F070064A683243984205D0B842DD
:1017E00003D0A04201D0A84203D122F44074CA68B9
:1017F00022434C6922F08002224302608A68C2625E
:101800000A688262984201D109690163012141613C
:10181000F0BD0000002C0140000400400008004022
:1018200010B501F01F030121046A99408C43046242
:10183000016A9A401143016210BD10B5846842EA02
:10184000032224F47F440A432243826010BD82684D
:1018500022F070020A4342F00701816070470000E5
:1018600030B5026A22F001020262026A43688469AA
:1018700024F073050C682C4322F002058A682A4381
:101880000A4DA8420BD122F00805CA6823F4407320
:101890002A434D6922F004021D438B692B434360A8
:1018A000846149684163026230BD0000002C014040
:1018B00030B5026A22F010020262026A436884694B
:1018C0000D6824F4E64444EA05248D6822F02002E1
:1018D00042EA05120B4DA8420ED1CD6822F08002DB
:1018E00042EA05124D6923F4406343EA85038D699A
:1018F00022F0400243EA85034360846149688163C2
:10190000026230BD002C014030B5026A22F48072C0
:101910000262036A4268C46923F4007324F0730509
:101920000C682C438D6843EA05230C4DA8420ED168
:10193000CD6823F4006343EA05234D6922F4405245
:1019400042EA05128D6923F4806342EA051242607F
:10195000C4614968C163036230BD0000002C0140CE
:1019600030B5026A22F480520262046A4268C36996
:101970000D6823F4E64343EA05238D6824F40054FC
:1019800044EA0534064DA84204D14D6922F4804250
:1019900042EA85124260C36149680164046230BD55
:1019A000002C014010B5036A046A24F001040462AB
:1019B000846924F0F00444EA021423F00A020A4382
:1019C0008461026210BD10B5036A23F01003036244
:1019D0008369046A23F4704343EA023224F0A003CB
:1019E00043EA01118261016210BD000070B5044636
:1019F00000680169E26821F44051114301612169E5
:101A0000A0680843616908432168CA6841F20C6311
:101A10009A430243CA6020684169A26921F4407177
:101A2000114341611E492068884202D1FEF7F8FF48
:101A300001E0FEF7E5FF00EBC00101EB001260687A
:101A400064218000B2FBF0F3B3FBF1F36FF01806F2
:101A50007343B2FBF0F5B2FBF0F605EB83053223DE
:101A600003EB0515B5FBF1F5B6FBF1F605F0F00556
:101A700005EB0615B2FBF0F6B2FBF0F0B0FBF1F0AF
:101A80006FF01802504306EB800003EB0010B0FB30
:101A9000F1F0216800F00F002844886070BD00005C
:101AA000003801402DE9F041984617460E4604469D
:101AB000069D1DE0681C1BD02DB1FEF701FEA0EBBA
:101AC0000800A84214D92068C16821F4D071C1600F
:101AD0002068416921F001014161202084F839002A
:101AE00084F83A00002084F838000320BDE8F08133
:101AF0002068006836EA000004D00020B842D9D03F
:101B00000020F3E70120F9E7FEE70000014A02495F
:101B100000F023B87D1B0008900200200907090E81
:101B2000002804DB00F1E02080F80014704700F08A
:101B30000F0000F1E02080F8141D704702E008C893
:101B4000121F08C1002AFAD170477047002001E037
:101B500001C1121F002AFBD170472DE9F041164642
:101B60000F460446002503E03946B047641C6D1C4F
:101B700020780028F8D12846BDE8F08138B5044621
:101B800000904FF47A73012269460248FFF758FC2F
:101B9000204638BD34040020FEF7A0FDFFF7DAFD33
:101BA000FFF7D0FCFFF746FDFFF7A4FCFFF7B0FD01
:101BB000FFF764FD0B4C002220212046FEF77AFD42
:101BC000012210212046FEF775FD41F2883400BF46
:101BD00000F020F804A0FFF799FF2046FEF768FC0C
:101BE000F6E70000000C01400A0D202A2A2A2A2AC2
:101BF000205354415254205052494E54462041449F
:101C00004320494E464F202A2A2A2A2A2A2A2A20B5
:101C10000D0A0A002DE9F05FDFF8A0A0DFF8A09020
:101C2000AAF18F08274D0024A8F5B07B1AF80460AC
:101C300018F80470642046435BF82700FEF784FA26
:101C4000B9FBF0F0E82F20D04FF08041C862400887
:101C500088631D480068016841F0010101600421AA
:101C60001948FFF7FDFA3046FEF722FC0122102149
:101C70002846FEF71FFD002220212846FEF71AFD08
:101C800004211148FFF73AFB02E03046FEF710FC52
:101C9000002210212846FEF70DFD012220212846B2
:101CA000FEF708FD6420FEF703FC641C8F2CBDD3F7
:101CB000BDE8F05F04210448FFF720BBEF010020DE
:101CC000005A6202000C0140EC03002000000000FA
:101CD00000000000010203040607080900000000DC
:101CE00001020304041D000800000020940200000B
:101CF00094010008C01E000894020020E4050000C2
:101D00004C1B000821181EDC41B81EE941C3F5F642
:101D100041CDCC02429A990A420AD712425C8F1BEB
:101D200042CDCC2410232E421A39041E4442D7A39C
:101D30004F08180E5C427B146942C3F57642ECD121
:101D400082201A8A301A92301A9B101EA442B89E22
:101D5000AE241AB9041AC41C1ACF081ADC041AE9F2
:101D6000041AF7501B0243601D43CDCC12081A1B06
:101D7000081A24081B2E436019041A440C1A4F0831
:101D8000180A5C439A19694366E676201A82141889
:101D90000A8A439AD99243CD8C9B101AA4101AAE8A
:101DA000241AB9041EC44366A6CF081ADC301EE903
:101DB0004333F3F6201B02446018094433D3124422
:101DC000CD8C1B081324441CA02E446019041E440F
:101DD0004466A64F08100B5C443313694433F37612
:101DE000441BC08220138A441BE092081A9B081AE5
:101DF000A4081AAE241AB9041AC40C1ACF0813DCAA
:101E0000441B20E90813F74414D0024514900A45F6
:101E10001BD012081A1B081B2445601A45601904C0
:101E20001A440C1A4F08135C45141069451BF076D0
:101E300020280E82453C4341413F3E3F3C3F4AE81B
:101E40000B180E4648454143434648464146433FEA
:101E5000111B3F41153D433CE8E81E3929FA3E2954
:101E60004B464829180F464848484A4B4D4B4A486C
:101E7000464341431549040F154B4A4B4343431A0C
:101E80007A480D3F4F4D4F484804014D0602040863
:101E90000A19086D0802020C092908490F092129AD
:101EA0004B040C09692B6B0202040B1804081A5925
:101EB000091A0C04230204320182105324F4000096
:04000005080000ED02
:00000001FF
