:020000040800F2
:1000000090070020290200084B0F0008A30E0008EB
:10001000490F0008D9020008511400080000000030
:100020000000000000000000000000006F0F00084A
:10003000DB020008000000006D0F0008051000083A
:100040005514000843020008430200084302000858
:10005000430200084302000843020008430200086C
:10006000430200084302000843020008430200085C
:10007000430200084302000843020008430200084C
:10008000430200084302000843020008430200083C
:10009000430200084302000843020008430200082C
:1000A000430200084302000843020008430200081C
:1000B000430200084302000843020008430200080C
:1000C00043020008430200084302000843020008FC
:1000D00043020008251400084302000843020008F8
:1000E00043020008430200084302000843020008DC
:1000F00043020008430200084302000843020008CC
:1001000043020008430200084302000843020008BB
:1001100043020008430200084302000843020008AB
:10012000430200084302000843020008430200089B
:10013000430200084302000843020008430200088B
:10014000430200084302000843020008430200087B
:10015000430200084302000843020008430200086B
:10016000430200084302000843020008430200085B
:100170004302000843020008430200080000000098
:10018000430200084302000800F002F800F03CF8C7
:100190000AA090E8000C82448344AAF10107DA45E2
:1001A00001D100F031F8AFF2090EBAE80F0013F0F8
:1001B000010F18BFFB1A43F001031847DC130000BE
:1001C000FC130000103A24BF78C878C1FAD852074F
:1001D00024BF30C830C144BF04680C6070470000C1
:1001E0000023002400250026103A28BF78C1FBD840
:1001F000520728BF30C148BF0B6070471FB501F0E0
:10020000B9F91FBD10B510BD00F033F81146FFF766
:10021000F5FF01F06BF900F051F803B4FFF7F2FFBE
:1002200003BC01F02FF90000094880470948004746
:10023000FEE7FEE7FEE7FEE7FEE7FEE7FEE7FEE796
:10024000FEE7FEE704480549054A064B70470000F3
:100250000910000889010008900100209007002083
:10026000900300209003002070477047704770474C
:100270007047754600F02CF8AE46050069465346B7
:1002800020F00700854618B020B5FFF7DBFFBDE87A
:1002900020404FF000064FF000074FF000084FF0ED
:1002A000000B21F00701AC46ACE8C009ACE8C0097E
:1002B000ACE8C009ACE8C0098D46704710B50446EB
:1002C000AFF300802046BDE81040FFF7A6BF000056
:1002D000004870472C010020FEE7704790F8351069
:1002E000022903D08021416501207047052180F853
:1002F00035100068016821F001010160002070479D
:100300002DE9F84FDFF88C91002209F1040A0AF177
:10031000040B4FF00F080BF1040E01260B689640FA
:100320003340B34271D14C68022C01D0122C11D150
:10033000D40800EB84073D6A5407E40E08FA04FC75
:1003400025EA0C05D1F810C00CFA04FC4CEA050CA7
:10035000C7F820C007685400032591F804C0A540E1
:100360000CF0030CAF430CFA04FC4CEA070CC0F889
:1003700000C04F68012F05D0022F03D0112F01D0EC
:10038000122F11D18768D1F80CC0AF430CFA04FCCE
:100390004CEA070CC0F808C04768B7430E79C6F3AB
:1003A000001696403E434660C668AE438D68A54041
:1003B0003543C5604C68E40065D5374C256845F485
:1003C00080452560246822F0030504F480440094ED
:1003D000324C2E19D6F808789407250F08FA05F440
:1003E000A7432F4CA04201D1002424E02D4CA04271
:1003F00001D101241FE02C4CA04201D102241AE0BB
:100400002A4CA04202D1032415E03CE0284CA04233
:1004100001D104240FE0274CA04201D105240AE0B9
:10042000254CA04201D1062405E0244CA04201D174
:10043000072400E00824AC403C43C6F80848D9F83B
:1004400000404D464E689C43F60300D51C432C608B
:10045000DAF8004055464E689C43B60300D51C436D
:100460002C60DBF800405D464E689C43F60200D5E8
:100470001C432C60DEF8004075464E689C43B60273
:1004800000D51C432C60521C102AFFF446AFBDE877
:10049000F88F0000003C0140443802400030014029
:1004A000000002400004024000080240000C02402C
:1004B000001002400014024000180240001C0240DC
:1004C0000AB1816170470904FBE700000148006838
:1004D000000C7047002004E00148006870470000ED
:1004E0000400002002480168491C016070470000B8
:1004F00004000020094810B5016841F40071016052
:10050000016841F480610160052000F049F80F2086
:1005100000F006F800F018F8002010BD003C024082
:1005200010B5044607484FF47A710068B0FBF1F04B
:1005300000F002FB00222146501E00F011F80020BE
:1005400010BD000000000020704700F01F020121D4
:1005500091404009800000F1E020C0F80011704790
:10056000F0B40E4B1B68C3F30223C3F10704042C41
:1005700000D904241D1D072D01D2002300E0DB1E3D
:10058000012606FA04F56D1E0D409D409E40761E24
:10059000164045EA0601F0BC00F0D8BC0CED00E0C6
:1005A000064A00F0070110684FF6FF03184040EAC2
:1005B0000120034908431060704700000CED00E083
:1005C0000000FA052DE9F047DFF85C9104460E467D
:1005D000D9F8000000F00F01F0B28046B14207D216
:1005E00089F80000D9F8000000F00F00B04271D186
:1005F00020784E4F800705D53868A16820F0F000BC
:10060000084338602078C00756D0484960680839E8
:1006100001281AD002281BD0032819D0096889079D
:10062000002957DA396821F0030101433960FFF7E7
:1006300053FF0546606841F28831012811D0022835
:100640001CD003288A4625D032E009688903E7E7F1
:1006500009688901E4E7FFF73FFF411B514501D9D4
:1006600023E08A463868C0F381000128F3D123E0F3
:10067000FFF732FF411B514501D916E08A46386821
:10068000C0F381000228F3D116E0FFF725FF411BDC
:1006900051450AD83868C0F381000328F5D10BE032
:1006A000FFF71AFF411B514502D90320BDE8F0872F
:1006B000386810F00C0FF3D1D9F80010484601F05B
:1006C0000F01B14208D980F80080006800F00F00E7
:1006D000B04201D00120E9E72078400705D538680D
:1006E000E16820F4E050084338602078000706D520
:1006F0003868216920F4604040EAC100386000F0A9
:100700004BF83968F02292FAA2F201F0F001B2FA45
:1007100082F2D140064A515CC840064908600F2069
:10072000FFF7FEFE0020C1E7003C0240083802400F
:100730007E15000800000020084809490068096883
:100740004FF4E05292FAA2F201F4E051B2FA82F2CE
:10075000D140044A515CC8407047000000000020AE
:10076000083802408E1500080848094900680968E1
:100770004FF4604292FAA2F201F46041B2FA82F2BE
:10078000D140044A515CC84070470000000000207E
:10079000083802408E15000830B51948006810F07E
:1007A0000C01184812D0184C04290ED008290DD17C
:1007B000134A121F1168136801F03F015D0247F6EA
:1007C000C07304D5B4FBF1F003E0204630BDB0FBAC
:1007D000F1F01168194093FAA3F3B3FA83F3D94007
:1007E000484311684FF4403292FAA2F201F44031CA
:1007F000B2FA82F2D140491C4900B0FBF1F030BDA1
:10080000083802400024F40040787D012DE9F84FBB
:1008100004460078DFF8F4A2BD4DC00748D0DAF8EE
:1008200000105046C1F38101012908D00068C0F3CF
:10083000810002280AD1281D0068400206D52868D8
:10084000800335D56068002870D031E06068B0F56D
:10085000803F10D0B0F5A02F286810D020F4803051
:100860002860286820F4802028606068A0B1FFF725
:1008700033FE06460CE0286840F48030F4E740F48C
:1008800080202860F7E7FFF727FE801B642873D8D5
:1008900028688003F7D50BE0FFF71EFE064604E04C
:1008A000FFF71AFE801B6428F1D828688003F7D46C
:1008B0002078DFF8608280074FF0010B4FF00009CD
:1008C00043D5DAF80010504611F00C0F4FF0F8073E
:1008D00009D00068C0F3810002280BD18B48001FAB
:1008E0000068400206D42868800713D5E068012814
:1008F0001CD10FE0E068D0B1C8F800B0FFF7ECFD04
:10090000064604E0FFF7E8FD801B0228BFD82868F0
:100910008007F7D5286897FAA7F22169B2FA82F220
:1009200020F0F8009140084328600EE0EBE0C8F8A2
:100930000090FFF7D1FD064604E0FFF7CDFD801BD8
:10094000022819D828688007F7D42078000722D514
:100950006E4F714861696C3779B1C0F800B0FFF72C
:10096000BBFD064604E0FFF7B7FD801B022803D855
:1009700038688007F7D50EE079E0C0F80090FFF7FF
:10098000ABFD064604E0FFF7A7FD801B02286ED8EA
:1009900038688007F7D42078400750D55B48383056
:1009A000016841F08051016000685C4F00F08050A8
:1009B0000090386840F480703860FFF78DFD06467F
:1009C00004E0FFF789FD801B022850D83868C00575
:1009D000F7D54E4FA068683701280FD00528386832
:1009E00010D020F001003860386820F00400386032
:1009F000A068B0B1FFF770FD06460EE0386840F021
:100A00000100F4E740F004003860F7E7FFF764FD09
:100A1000811B41F2883081426DD838688007F5D556
:100A20000DE0FFF759FD064606E0FFF755FD811B77
:100A300041F2883081425ED838688007F5D4A069D9
:100A4000F0B3DAF80010C1F3810102295BD002286B
:100A5000484605D0C8F86000FFF73EFD04464DE06B
:100A60004746C8F86000FFF737FD064605E042E05C
:100A7000FFF732FD801B02283DD828688001F7D49B
:100A8000D4E90701084347F6C07292FAA2F2616AFC
:100A9000B2FA82F29140A26A4FF0FF3303EB5202A6
:100AA0004FF4403393FAA3F3B3FA83F39A4011431C
:100AB0004FF0706292FAA2F20843B2FA82F200E0BA
:100AC0001FE0E16A914008431049091F0860C7F818
:100AD00060B0FFF701FD044604E0FFF7FDFC001BDA
:100AE000022808D828688001F7D50AE0FFF7F4FC4F
:100AF000001B022802D90320BDE8F88F2868800176
:100B0000F4D40020F8E70120F6E70000083802409E
:100B10000038024000004742800E4742007000400B
:100B20004FF0E0210428086903D020F00400086198
:100B3000704740F00400FAE710B5401EB0F1807F26
:100B400001D3012010BD4FF0E02460610F21601738
:100B500000F0FCF90020A06107202061002010BDFA
:100B6000704710F8391F40780843704770B5026825
:100B700004461068D168536910F00F0F50D003F08D
:100B8000010501F4907635435DD0C20705D0CA0552
:100B900003D5E26B42F00102E263420705D5DA07B2
:100BA00003D0E26B42F00202E263820705D5DA0766
:100BB00003D0E26B42F00402E263020705D5DA07D4
:100BC00003D0E26B42F00802E263E26B002A33D00A
:100BD000800604D5880602D5204600F055FA206824
:100BE0004069E16BC0F38010090700D428B32046A8
:100BF00000F03CFA2068416949061AD5416921F0A4
:100C000040014161606BA0B11B490165606BFFF75A
:100C100065FB002810D0606B016DBDE8704008478F
:100C2000830610D58B060ED52046BDE8704000F037
:100C30002BBA2046FFF794FF70BD2046FFF790FFC8
:100C40000020E06370BD030606D50B0604D52046E0
:100C5000BDE8704000F0B4BB4006F3D54806F1D5BE
:100C6000D168204621F04001D160202184F839105C
:100C700000F0C4F870BD00005D10000870B50400FD
:100C800004D094F83900002510B106E0012070BDB1
:100C900084F83850204600F023F8242084F83900E6
:100CA0002068C16821F40051C160204600F032FA8A
:100CB0002068016921F4904101612068416921F0B7
:100CC0002A0141612068C16841F40051C160E563B7
:100CD000202084F8390084F83A00002070BD00001C
:100CE00010B500681A4986B088422FD119480168AA
:100CF00041F001010160006800F001000590154815
:100D00001430016841F0100101600068012100F019
:100D1000100005904FF4007000900220CDE9010111
:100D2000039007200C4C049069462046FFF7E8FA30
:100D30002115009169462046FFF7E2FA2520FFF7CA
:100D400004FC032211462520FFF70AFC06B010BD63
:100D500000100140303802400000024090F83A3064
:100D6000202B1DD1D1B1CAB190F83830012B17D04A
:100D700081628285C2850021C163222280F83A20E7
:100D800080F8381001684A6942F001024A6100683F
:100D9000C16841F49071C160002070470120704724
:100DA0000220704730B50068114988420CD1114AC1
:100DB0005088010408D41146440409784FF0000318
:100DC00006D50A2901D0538030BD40F400400DE023
:100DD0000D2909D0C0F30D04074D401C80B22955E0
:100DE0005080C728EFD830BD40F48040508030BDDF
:100DF000001001400C00002010000020704700008F
:100E000010B5064800F048F80549D1F8840218B139
:100E10000020C1F8840210BD0120FAE7180100206B
:100E20000000414210B501684A68D243920507D4D8
:100E30008A68D243D20703D1921E8A60FFF7E0FF8F
:100E400010BD10B504000FD000F010F8E068216864
:100E500040F080000860616820690843A168084389
:100E600021684860002010BD012010BD094808B568
:100E7000016841F4006101600068032200F4006031
:100E8000009002210020FFF76BFBBDE80840002026
:100E9000FFF75BBB40380240C1680068016000207A
:100EA0007047FEE770B5144886B00025016841F030
:100EB00001010160016801F001010591016841F043
:100EC000200101600068032400F02000059002204A
:100ED0000126CDE90204CDE9006569460748FFF720
:100EE0000FFA4FF4606003948DE86100694604488E
:100EF000FFF706FA06B070BD30380240000002402D
:100F0000001402400E4810B5016886B041F004019B
:100F100001600068012100F0040005900320CDE984
:100F20000210CDE90001074C69462046FFF7E8F9B9
:100F3000012203212046FFF7C3FA06B010BD0000CE
:100F40003038024000080240FEE770470907090EEA
:100F5000002806DA00F00F0000F1E02080F8141DF0
:100F6000704700F1E02080F8001470477047704728
:100F700070B5214C92B00025266846F08056266058
:100F8000246804F0805411941C4C266846F4804672
:100F9000266024680DF1240C04F48044119401248B
:100FA000009424040194022406948CE80D00660544
:100FB000CDE907616846FFF729FC00B1FEE70CA9FF
:100FC0000F2081E831004FF4A0500F904FF4805073
:100FD000109005210CA8FFF7F5FA00B1FEE7FFF726
:100FE00075FA41F20101884204D10548016841F4D3
:100FF0008071016012B070BD403802400070004046
:10100000003C0240FFF76EBA1048016841F47001DD
:1010100001600F48016841F0010101600C4A0021A4
:101020000832116002680B4B1A400260031D0A4A25
:101030001A60026822F48022026005480C300160C8
:1010400002495806803908607047000088ED00E0CA
:1010500000380240FFFFF6FE1030002410B5806B10
:101060000021C185C184FFF77BFD10BD0168CA68FE
:1010700022F49072CA6001684A6922F001024A6152
:10108000202180F83A10704710B590F83A102229C4
:1010900001D0022010BD8168B1F5805F11D00169D7
:1010A000002901681FD0496801F07F03816A4A1C4A
:1010B00082620B70C18D491E0904090CC18518D0CC
:1010C00026E00269816A002A0268526805D0D2B21D
:1010D0000A80816A491C8162ECE7C2F308020A8037
:1010E000816A891CF7E74A68816A4B1C83620A702F
:1010F000E0E70168CA6822F49072CA6001684A6930
:1011000022F001024A61202180F83A10FFF74AFEDE
:10111000002010BD2DE9F04104460068016921F46A
:101120004052E168114301612068C16849F20C62D4
:1011300091432369A268E5691A4363692B431A4303
:101140000A43C26020684169A26921F440710A43E0
:101150004261E0696425B0F5004F974A97492068DD
:101160004FF032083FD0884201D090427CD1FFF747
:10117000FBFA00EBC00101EB001061688900B0FBD5
:10118000F1F6FFF7F1FA00EBC00101EB0010616826
:101190008900B0FBF1F0B0FBF5F06FF018014843A7
:1011A00006EB800108EB0110B0FBF5F000F0F00653
:1011B000FFF7DAFA00EBC00101EB0010616889006B
:1011C000B0FBF1F0B0FBF5F006EB0016FFF7CCFA40
:1011D00000EBC00101EB001061688900B0FBF1F782
:1011E000FFF7C2FAD2E0884201D090423DD1FFF72A
:1011F000BBFA00EBC00101EB001061684900B0FBD5
:10120000F1F0B0FBF5F00601FFF7AEFA00EBC0011C
:1012100001EB001061684900B0FBF1F7FFF7A4FA99
:1012200000EBC00101EB001061684900B0FBF1F078
:10123000B0FBF5F06FF01801484307EB800108EBB5
:10124000C100B0FBF5F000F0F80006EB4006FFF738
:101250008BFA00EBC00101EB001061684900B0FBA4
:10126000F1F7FFF781FA3CE055E0FFF765FA00EB94
:10127000C00101EB001061684900B0FBF1F0B0FB68
:10128000F5F00601FFF758FA00EBC00101EB001082
:1012900061684900B0FBF1F7FFF74EFA00EBC001BF
:1012A00001EB001061684900B0FBF1F0B0FBF5F014
:1012B0006FF01801484307EB800108EBC100B0FB59
:1012C000F5F000F0F80006EB4006FFF735FA00EB0A
:1012D000C00101EB001061684900B0FBF1F7FFF7B6
:1012E0002BFA00EBC00101EB001061684900B0FB74
:1012F000F1F0B0FBF5F06FF01801484307EB800107
:1013000008EBC100B0FBF5F000F0070021683044A5
:101310008860BDE8F081FFF70FFA00EBC00101EB38
:10132000001061688900B0FBF1F6FFF705FA00EBE9
:10133000C00101EB001061688900B0FBF1F0B0FB67
:10134000F5F06FF01801484306EB800108EB01103F
:10135000B0FBF5F000F0F006FFF7EEF900EBC0018E
:1013600001EB001061688900B0FBF1F0B0FBF5F013
:1013700006EB0016FFF7E0F900EBC00101EB0010EF
:1013800061688900B0FBF1F7FFF7D6F900EBC00107
:1013900001EB001061688900B0FBF1F0B0FBF5F0E3
:1013A0006FF01801484307EB800108EB0110B0FB18
:1013B000F5F000F00F00A9E7001401400010014013
:1013C00090F83910212901D0022070478168B1F5C9
:1013D000805F016A0BD04A1C026202680978516082
:1013E000C18C491E0904090CC1840ED017E009887C
:1013F0000268C1F30801516001690029016A02D045
:10140000491C0162ECE7891CFBE70168CA6822F00D
:101410008002CA600068C16841F04001C1600020DC
:101420007047000010B50848FFF7A0FB0648FFF71B
:1014300098FB2028FAD1012204490348FFF78EFCCB
:101440000028F8D110BD0000D80000200C000020BA
:10145000FEE700000148FFF7E5BC0000180100208E
:1014600030B4074B054CC3E9021060151861C3E99D
:10147000004230BC1846FFF7E4BC0000002C0040DE
:10148000180100207047000010B504460420FFF743
:1014900047FB0148046010BD0800002070B50546F8
:1014A00000244FF47A7603E0304600F005F8641C1F
:1014B000AC42F9D370BD000070B54FF0E0250021BB
:1014C0006C69094AAB6912685043AA699A42FCD018
:1014D00002D2A3EB020302E0A4EB02063344194458
:1014E00013468142F1D370BD08000020FFF702F8D7
:1014F0000723022208214FF4A870FFF739FDA82026
:10150000FFF7C2FF4FF4E13000F018F8FFF7FAFCE4
:10151000FFF7C8FC084C0020C4F880024FF4967016
:10152000FFF7BCFF4FF4C0725F217F20FFF798FFE9
:101530000120C4F88002FCE7000041420B4910B5CD
:10154000094AC1E9002000208860C86008618861FC
:101550000C2048610846FFF791FBBDE810400122CE
:1015600003490248FFF7FABB00100140D8000020F1
:101570000C0000204FF04070E1EE100A70470000B0
:101580000000000000000102030406070809000033
:101590000000010203040000B8150008000000204C
:1015A00010000000C4010008C81500081000002049
:1015B00080070000E00100080024F40000000000A3
:0815C000000000000000000023
:040000050800018965
:00000001FF
