:020000040800F2
:10000000E0070020290200089F1000089B1000084C
:100010009D100008D9020008111700080000000018
:100020000000000000000000000000003511000882
:100030002D03000800000000C1100008CD110008C9
:10004000430200084302000843020008430200087C
:10005000430200084302000843020008430200086C
:10006000430200084302000843020008430200085C
:10007000430200084302000843020008430200084C
:10008000430200084302000843020008430200083C
:10009000430200084302000843020008430200082C
:1000A000430200084302000843020008430200081C
:1000B000430200082512000843020008430200081A
:1000C00043020008430200084302000843020008FC
:1000D00043020008E5160008430200084302000836
:1000E00043020008430200084302000843020008DC
:1000F00043020008430200084302000843020008CC
:1001000043020008430200084302000843020008BB
:1001100043020008430200084302000843020008AB
:10012000430200084302000843020008430200089B
:10013000430200084302000843020008430200088B
:10014000430200084302000843020008430200087B
:10015000430200084302000843020008430200086B
:10016000430200084302000843020008430200085B
:100170004302000843020008430200080000000098
:10018000430200084302000800F002F800F03CF8C7
:100190000AA090E8000C82448344AAF10107DA45E2
:1001A00001D100F031F8AFF2090EBAE80F0013F0F8
:1001B000010F18BFFB1A43F001031847CC160000CB
:1001C000EC160000103A24BF78C878C1FAD852075C
:1001D00024BF30C830C144BF04680C6070470000C1
:1001E0000023002400250026103A28BF78C1FBD840
:1001F000520728BF30C148BF0B6070471FB501F0E0
:1002000031FB1FBD10B510BD00F033F81146FFF7EC
:10021000F5FF01F0EDFA00F051F803B4FFF7F2FF3B
:1002200003BC01F076FA00000948804709480047FE
:10023000FEE7FEE7FEE7FEE7FEE7FEE7FEE7FEE796
:10024000FEE7FEE704480549054A064B70470000F3
:10025000D111000889010008E0010020E00700201A
:10026000E0030020E00300207047704770477047AC
:100270007047754600F02CF8AE46050069465346B7
:1002800020F00700854618B020B5FFF7DBFFBDE87A
:1002900020404FF000064FF000074FF000084FF0ED
:1002A000000B21F00701AC46ACE8C009ACE8C0097E
:1002B000ACE8C009ACE8C0098D46704710B50446EB
:1002C000AFF300802046BDE81040FFF7A6BF000056
:1002D000004870477C010020FEE7000030B508218F
:1002E000074B0A22B0FBF2F402FB1404B0FBF2F05D
:1002F0005D18491EC9B205F8014C0629F2D830BD77
:100300001800002030B50221074B0A22B0FBF2F49E
:1003100002FB1404B0FBF2F05D18491E05F8014C15
:1003200011F0FF01F2D130BD18000020704790F8A5
:100330003510022903D08021416501207047052135
:1003400080F835100068016821F00101016000208B
:10035000704700002DE9F84FDFF88C91002209F179
:10036000040A0AF1040B4FF00F080BF1040E0126EA
:100370000B6896403340B34271D14C68022C01D0D7
:10038000122C11D1D40800EB84073D6A5407E40E07
:1003900008FA04FC25EA0C05D1F810C00CFA04FC9C
:1003A0004CEA050CC7F820C007685400032591F8F3
:1003B00004C0A5400CF0030CAF430CFA04FC4CEA5B
:1003C000070CC0F800C04F68012F05D0022F03D0E2
:1003D000112F01D0122F11D18768D1F80CC0AF4373
:1003E0000CFA04FC4CEA070CC0F808C04768B74395
:1003F0000E79C6F3001696403E434660C668AE438B
:100400008D68A5403543C5604C68E40065D5374C20
:10041000256845F480452560246822F0030504F42E
:1004200080440094324C2E19D6F808789407250F92
:1004300008FA05F4A7432F4CA04201D1002424E080
:100440002D4CA04201D101241FE02C4CA04201D12F
:1004500002241AE02A4CA04202D1032415E03CE019
:10046000284CA04201D104240FE0274CA04201D126
:1004700005240AE0254CA04201D1062405E0244CC5
:10048000A04201D1072400E00824AC403C43C6F858
:100490000848D9F800404D464E689C43F60300D505
:1004A0001C432C60DAF8004055464E689C43B60366
:1004B00000D51C432C60DBF800405D464E689C4331
:1004C000F60200D51C432C60DEF8004075464E68ED
:1004D0009C43B60200D51C432C60521C102AFFF42A
:1004E00046AFBDE8F88F0000003C014044380240B0
:1004F00000300140000002400004024000080240B9
:10050000000C02400010024000140240001802409B
:10051000001C024001480068000C7047002004E005
:10052000014800687047000004000020024801688C
:10053000491C01607047000004000020094810B504
:10054000016841F400710160016841F4806101605B
:10055000052000F049F80F2000F006F800F018F828
:10056000002010BD003C024010B5044607484FF47F
:100570007A710068B0FBF1F000F002FB0022214626
:10058000501E00F011F8002010BD000000000020F7
:10059000704700F01F02012191404009800000F1E6
:1005A000E020C0F800117047F0B40E4B1B68C3F395
:1005B0000223C3F10704042C00D904241D1D072DB8
:1005C00001D2002300E0DB1E012606FA04F56D1EB1
:1005D0000D409D409E40761E164045EA0601F0BC47
:1005E00000F05EBD0CED00E0064A00F00701106867
:1005F0004FF6FF03184040EA01200349084310600A
:10060000704700000CED00E00000FA052DE9F0470E
:10061000DFF85C9104460E46D9F8000000F00F01A7
:10062000F0B28046B14207D289F80000D9F8000044
:1006300000F00F00B04271D120784E4F800705D5F1
:100640003868A16820F0F000084338602078C007BF
:1006500056D048496068083901281AD002281BD0B2
:10066000032819D009688907002957DA396821F069
:10067000030101433960FFF753FF0546606841F20B
:100680008831012811D002281CD003288A4625D0A1
:1006900032E009688903E7E709688901E4E7FFF7C1
:1006A0003FFF411B514501D923E08A463868C0F31A
:1006B00081000128F3D123E0FFF732FF411B5145B0
:1006C00001D916E08A463868C0F381000228F3D1C8
:1006D00016E0FFF725FF411B51450AD83868C0F3E3
:1006E00081000328F5D10BE0FFF71AFF411B5145AC
:1006F00002D90320BDE8F087386810F00C0FF3D161
:10070000D9F80010484601F00F01B14208D980F82D
:100710000080006800F00F00B04201D00120E9E73E
:100720002078400705D53868E16820F4E050084398
:1007300038602078000706D53868216920F46040C9
:1007400040EAC100386000F04BF83968F02292FAB4
:10075000A2F201F0F001B2FA82F2D140064A515CF5
:10076000C840064908600F20FFF7FEFE0020C1E7E1
:10077000003C0240083802406E18000800000020CB
:1007800008480949006809684FF4E05292FAA2F259
:1007900001F4E051B2FA82F2D140044A515CC840FF
:1007A0007047000000000020083802407E18000852
:1007B00008480949006809684FF4604292FAA2F2B9
:1007C00001F46041B2FA82F2D140044A515CC8405F
:1007D0007047000000000020083802407E18000822
:1007E00030B51948006810F00C01184812D0184CA8
:1007F00004290ED008290DD1134A121F116813685D
:1008000001F03F015D0247F6C07304D5B4FBF1F07F
:1008100003E0204630BDB0FBF1F01168194093FAB7
:10082000A3F3B3FA83F3D940484311684FF440323D
:1008300092FAA2F201F44031B2FA82F2D140491C9C
:100840004900B0FBF1F030BD083802400024F4004C
:1008500040787D012DE9F84F04460078DFF8F4A2D6
:10086000BD4DC00748D0DAF800105046C1F38101F1
:10087000012908D00068C0F3810002280AD1281D90
:100880000068400206D52868800335D560680028D6
:1008900070D031E06068B0F5803F10D0B0F5A02F87
:1008A000286810D020F480302860286820F4802048
:1008B00028606068A0B1FFF733FE06460CE02868A8
:1008C00040F48030F4E740F480202860F7E7FFF739
:1008D00027FE801B642873D828688003F7D50BE0B7
:1008E000FFF71EFE064604E0FFF71AFE801B642891
:1008F000F1D828688003F7D42078DFF86082800779
:100900004FF0010B4FF0000943D5DAF800105046C4
:1009100011F00C0F4FF0F80709D00068C0F3810008
:1009200002280BD18B48001F0068400206D42868BB
:10093000800713D5E06801281CD10FE0E068D0B132
:10094000C8F800B0FFF7ECFD064604E0FFF7E8FD4D
:10095000801B0228BFD828688007F7D5286897FA37
:10096000A7F22169B2FA82F220F0F8009140084320
:1009700028600EE0EBE0C8F80090FFF7D1FD0646D6
:1009800004E0FFF7CDFD801B022819D828688007F6
:10099000F7D42078000722D56E4F714861696C3713
:1009A00079B1C0F800B0FFF7BBFD064604E0FFF7E1
:1009B000B7FD801B022803D838688007F7D50EE002
:1009C00079E0C0F80090FFF7ABFD064604E0FFF7C2
:1009D000A7FD801B02286ED838688007F7D42078DE
:1009E000400750D55B483830016841F080510160C4
:1009F00000685C4F00F080500090386840F48070D0
:100A00003860FFF78DFD064604E0FFF789FD801B87
:100A1000022850D83868C005F7D54E4FA06868370F
:100A200001280FD00528386810D020F00100386068
:100A3000386820F004003860A068B0B1FFF770FD9E
:100A400006460EE0386840F00100F4E740F004008C
:100A50003860F7E7FFF764FD811B41F2883081427F
:100A60006DD838688007F5D50DE0FFF759FD0646CB
:100A700006E0FFF755FD811B41F2883081425ED8C8
:100A800038688007F5D4A069F0B3DAF80010C1F334
:100A9000810102295BD00228484605D0C8F86000D1
:100AA000FFF73EFD04464DE04746C8F86000FFF7FB
:100AB00037FD064605E042E0FFF732FD801B0228C5
:100AC0003DD828688001F7D4D4E90701084347F6E8
:100AD000C07292FAA2F2616AB2FA82F29140A26AFC
:100AE0004FF0FF3303EB52024FF4403393FAA3F37A
:100AF000B3FA83F39A4011434FF0706292FAA2F274
:100B00000843B2FA82F200E01FE0E16A9140084334
:100B10001049091F0860C7F860B0FFF701FD0446DF
:100B200004E0FFF7FDFC001B022808D828688001BC
:100B3000F7D50AE0FFF7F4FC001B022802D90320D6
:100B4000BDE8F88F28688001F4D40020F8E7012080
:100B5000F6E7000008380240003802400000474233
:100B6000800E4742007000404FF0E02104280869E1
:100B700003D020F004000861704740F00400FAE759
:100B800010B5401EB0F1807F01D3012010BD4FF0A1
:100B9000E02460610F21601700F082FA0020A0615C
:100BA00007202061002010BD7047704710B5040079
:100BB00003D094F8390010B107E0012010BD0020E7
:100BC00084F83800204600F00DF8022084F839003F
:100BD000211D206800F042FB012084F8390000202C
:100BE00010BD000008B500680B49884212D10B48BF
:100BF000016841F0020101600068032200F0020078
:100C0000009001211D20FFF7CFFCBDE808401D200A
:100C1000FFF7BFBC08BD00000004004040380240A0
:100C20000168CA6842F00102CA600068016841F0C8
:100C30000101016000207047704770B504460068EC
:100C400001694FF00005C943890715D4C168C9433C
:100C5000890711D4E91E016101202076206880698E
:100C60008007204602D0FFF7E7FF04E000F098F885
:100C7000204600F096F8257620680169C9434907A7
:100C800017D4C168C943490713D46FF00401016147
:100C9000022020762068806910F4407F204602D030
:100CA000FFF7CAFF04E000F07BF8204600F079F877
:100CB000257620680169C943090716D4C168C9436C
:100CC000090712D46FF00801016104202076206822
:100CD000C0698007204602D0FFF7AEFF04E000F0B5
:100CE0005FF8204600F05DF8257620680169C94369
:100CF000C90617D4C168C943C90613D46FF01001DF
:100D00000161082020762068C06910F4407F2046E9
:100D100002D0FFF791FF04E000F042F8204600F017
:100D200040F8257620680169C943C90708D1C16820
:100D3000C943C90704D1891E0161204600F032F879
:100D400020680169C943090609D4C168C943090675
:100D500005D46FF0800101612046FFF725FF206870
:100D60000169C943490609D4C168C943490605D484
:100D70006FF040010161204600F03EF820680169F3
:100D8000C94389060BD4C168C943890607D46FF0EB
:100D9000200101612046BDE87040FFF706BF70BD2D
:100DA00070477047124910B588421FD1114CA07886
:100DB000FFF794FA607800F007FD2078FFF7A2FAB9
:100DC000A0780021401CC0B2A0703C2803D16078FC
:100DD000401C6070A17060783C2807D12078401CCE
:100DE000C0B220706170182800D1217010BD0000C1
:100DF00040010020320000207047704710F8391F72
:100E0000407808437047000070B5026804461068D7
:100E1000D168536910F00F0F50D003F0010501F4B1
:100E2000907635435DD0C20705D0CA0503D5E26B85
:100E300042F00102E263420705D5DA0703D0E26B14
:100E400042F00202E263820705D5DA0703D0E26BC3
:100E500042F00402E263020705D5DA0703D0E26B31
:100E600042F00802E263E26B002A33D0800604D528
:100E7000880602D5204600F067FA20684069E16BD9
:100E8000C0F38010090700D428B3204600F04EFAC2
:100E90002068416949061AD5416921F04001416144
:100EA000606BA0B11B490165606BFFF740FA002839
:100EB00010D0606B016DBDE870400847830610D507
:100EC0008B060ED52046BDE8704000F03DBA2046A6
:100ED000FFF793FF70BD2046FFF78FFF0020E06310
:100EE00070BD030606D50B0604D52046BDE870404C
:100EF00000F0C6BB4006F3D54806F1D5D1682046C0
:100F000021F04001D160202184F8391000F0C4F8AC
:100F100070BD00001D13000870B5040004D094F8E3
:100F20003900002510B106E0012070BD84F838506A
:100F3000204600F023F8242084F839002068C16896
:100F400021F40051C160204600F044FA2068016994
:100F500021F4904101612068416921F02A01416139
:100F60002068C16841F40051C160E563202084F825
:100F7000390084F83A00002070BD000010B5006808
:100F80001A4986B088422FD11948016841F0010101
:100F90000160006800F001000590154814300168F8
:100FA00041F0100101600068012100F0100005907F
:100FB0004FF4007000900220CDE90101039007205A
:100FC0000C4C049069462046FFF7C4F921150091A6
:100FD00069462046FFF7BEF92520FFF7DAFA03221B
:100FE00011462520FFF7E0FA06B010BD00100140C1
:100FF000303802400000024090F83A30202B1DD1DA
:10100000D1B1CAB190F83830012B17D081628285F6
:10101000C2850021C163222280F83A2080F838106E
:1010200001684A6942F001024A610068C16841F4FE
:101030009071C16000207047012070470220704706
:1010400030B50068114988420CD1114A508801041A
:1010500008D41146440409784FF0000306D50A2944
:1010600001D0538030BD40F400400DE00D2909D07F
:10107000C0F30D04074D401C80B229555080C7288D
:10108000EFD830BD40F48040508030BD00100140AA
:101090000C000020380000207047FEE7FEE7704794
:1010A0000907090E002806DA00F00F0000F1E02021
:1010B00080F8141D704700F1E02080F8001470479C
:1010C000704700002DE9F0410A4E0546002406F164
:1010D0001007305DC043C0B200F01CFB285D385CD7
:1010E00000F018FB00F038FB641CE4B2082CF0D3CD
:1010F000BDE8F081100000200C4800B5016887B001
:1011000041F0200101600068694600F02000059070
:101110004FF4604000900120019002900320039062
:101120000348FFF717F907B000BD00003038024050
:10113000001402407047000070B5214C92B00025A9
:10114000266846F080562660246804F08054119486
:101150001C4C266846F48046266024680DF1240C59
:1011600004F4804411940124009424040194022482
:1011700006948CE80D006605CDE907616846FFF727
:1011800069FB00B1FEE70CA90F2081E831004FF4A4
:10119000A0500F904FF48050109005210CA8FFF73D
:1011A00035FA00B1FEE7FFF7B5F941F201018842D7
:1011B00004D10548016841F48071016012B070BD2E
:1011C0004038024000700040003C0240FFF7AEB9DA
:1011D0001048016841F4700101600F48016841F056
:1011E000010101600C4A00210832116002680B4BBA
:1011F0001A400260031D0A4A1A60026822F4802223
:10120000026005480C3001600249580680390860C8
:101210007047000088ED00E000380240FFFFF6FE56
:10122000103000240148FFF708BD000040010020F5
:10123000094A10B5074BC2E900310021C2E902108A
:1012400010461161FFF7B2FCBDE810400248FFF7FD
:10125000E7BC00000004004040010020F0B5026837
:10126000234D244E244FDFF894C0254B4FF0804E81
:10127000A84209D0704507D0B04205D0B84203D08B
:10128000604501D0984203D122F070044A6822439D
:10129000A8421BD0704519D0B04217D0B84215D023
:1012A000604513D0984211D0164CA0420ED0164C77
:1012B000A0420BD0154CA04208D0154CA04205D03E
:1012C000144CA04202D0144CA04203D122F440742A
:1012D000CA68224302608A68C2620A688262A842BF
:1012E00001D0984201D10969016301214161F0BD3A
:1012F000000001400004004000080040000C0040D5
:101300000004014000400140004401400048014009
:1013100000180040001C00400020004010B5806B09
:101320000021C185C184FFF768FD10BD0168CA684E
:1013300022F49072CA6001684A6922F001024A618F
:10134000202180F83A10704710B590F83A10222901
:1013500001D0022010BD8168B1F5805F11D0016914
:10136000002901681FD0496801F07F03816A4A1C87
:1013700082620B70C18D491E0904090CC18518D009
:1013800026E00269816A002A0268526805D0D2B25A
:101390000A80816A491C8162ECE7C2F308020A8074
:1013A000816A891CF7E74A68816A4B1C83620A706C
:1013B000E0E70168CA6822F49072CA6001684A696D
:1013C00022F001024A61202180F83A10FFF738FE2E
:1013D000002010BD2DE9F04104460068016921F4A8
:1013E0004052E168114301612068C16849F20C6212
:1013F00091432369A268E5691A4363692B431A4341
:101400000A43C26020684169A26921F440710A431D
:101410004261E0696425B0F5004F974A974920681A
:101420004FF032083FD0884201D090427CD1FFF784
:10143000BFF900EBC00101EB001061688900B0FB4F
:10144000F1F6FFF7B5F900EBC00101EB00106168A0
:101450008900B0FBF1F0B0FBF5F06FF018014843E4
:1014600006EB800108EB0110B0FBF5F000F0F00690
:10147000FFF79EF900EBC00101EB001061688900E5
:10148000B0FBF1F0B0FBF5F006EB0016FFF790F9BA
:1014900000EBC00101EB001061688900B0FBF1F7BF
:1014A000FFF786F9D2E0884201D090423DD1FFF7A4
:1014B0007FF900EBC00101EB001061684900B0FB4F
:1014C000F1F0B0FBF5F00601FFF772F900EBC00197
:1014D00001EB001061684900B0FBF1F7FFF768F914
:1014E00000EBC00101EB001061684900B0FBF1F0B6
:1014F000B0FBF5F06FF01801484307EB800108EBF3
:10150000C100B0FBF5F000F0F80006EB4006FFF775
:101510004FF900EBC00101EB001061684900B0FB1E
:10152000F1F7FFF745F93CE055E0FFF729F900EB4B
:10153000C00101EB001061684900B0FBF1F0B0FBA5
:10154000F5F00601FFF71CF900EBC00101EB0010FC
:1015500061684900B0FBF1F7FFF712F900EBC00139
:1015600001EB001061684900B0FBF1F0B0FBF5F051
:101570006FF01801484307EB800108EBC100B0FB96
:10158000F5F000F0F80006EB4006FFF7F9F800EB85
:10159000C00101EB001061684900B0FBF1F7FFF7F3
:1015A000EFF800EBC00101EB001061684900B0FBEF
:1015B000F1F0B0FBF5F06FF01801484307EB800144
:1015C00008EBC100B0FBF5F000F0070021683044E3
:1015D0008860BDE8F081FFF7D3F800EBC00101EBB4
:1015E000001061688900B0FBF1F6FFF7C9F800EB65
:1015F000C00101EB001061688900B0FBF1F0B0FBA5
:10160000F5F06FF01801484306EB800108EB01107C
:10161000B0FBF5F000F0F006FFF7B2F800EBC00108
:1016200001EB001061688900B0FBF1F0B0FBF5F050
:1016300006EB0016FFF7A4F800EBC00101EB001069
:1016400061688900B0FBF1F7FFF79AF800EBC00181
:1016500001EB001061688900B0FBF1F0B0FBF5F020
:101660006FF01801484307EB800108EB0110B0FB55
:10167000F5F000F00F00A9E7001401400010014050
:1016800090F83910212901D0022070478168B1F506
:10169000805F016A0BD04A1C0262026809785160BF
:1016A000C18C491E0904090CC1840ED017E00988B9
:1016B0000268C1F30801516001690029016A02D082
:1016C000491C0162ECE7891CFBE70168CA6822F04B
:1016D0008002CA600068C16841F04001C16000201A
:1016E0007047000010B50848FFF78EFB0648FFF76B
:1016F00085FB2028FAD1012204490348FFF77CFC2E
:101700000028F8D110BD0000000100200C000020CE
:10171000FEE770472DE9F04100240E4F05462646AE
:101720004FF00108C7F8B462280602D5C7F8BC829A
:1017300001E0C7F8BC626806050EC7F8B482032052
:1017400000F028F8C7F8B462641CE4B2082CE9D3AE
:10175000BDE8F0810080424270B5084C0025C4F815
:10176000B8520A2004F52E7400F014F8012020600D
:101770000A2000F00FF8256070BD00000080424292
:1017800010B504460420FFF7EFF90148046010BDCE
:101790000800002070B54FF0E02500216C69094A6F
:1017A000AB6912685043AA699A42FCD002D2A3EBFB
:1017B000020302E0A4EB02063344194413468142BB
:1017C000F1D370BD0800002030B50521074B0A2277
:1017D000B0FBF2F402FB1404B0FBF2F05D18491EFA
:1017E000C9B205F8014C0329F2D830BD1800002019
:1017F000FEF7A4FE0723022208214FF4A870FFF78A
:101800009BFCA820FFF7BCFFFFF776FC4FF4E1300C
:1018100000F00CF842F2CF0142F20F70FFF708FD22
:101820000148FFF74FFCFBE7180000200B4910B5FB
:10183000094AC1E9002000208860C8600861886109
:101840000C2048610846FFF767FBBDE81040012205
:1018500003490248FFF7D0BB0010014000010020FF
:101860000C0000204FF04070E1EE100A70470000BD
:101870000000000000000102030406070809000040
:101880000000010203040000A81800080000002066
:1018900038000000C4010008E018000838000020EB
:1018A000A8070000E00100080024F4000000000088
:1018B0000000000000000000010204081020408029
:1018C00001021100001100003F065B4F666D7D07AD
:1018D0007F6F777C395E797100400C00000000005A
:040000050800018965
:00000001FF
