:020000040800F2
:10000000A80400204501000811060008BF020008EE
:100010000D0600088D010008D30B00080000000049
:10002000000000000000000000000000B107000810
:100030009101000800000000990600089D080008D2
:100040005F0100085F0100085F0100085F01000810
:100050005F0100085F0100085F0100085F01000800
:100060005F0100085F0100085F0100085F010008F0
:100070005F0100085F0100085F0100085F010008E0
:100080005F0100085F0100085F0100085F010008D0
:100090005F0100085F0100085F0100085F010008C0
:1000A0005F010008050900085F0100085F01000802
:1000B0001909000825090008350900085F01000832
:1000C0005F0100085F0100085F0100085F01000890
:1000D0005F0100084D09000881090008B509000802
:1000E0005F0100085F0100085F0100085F01000870
:1000F0005F0100085F0100085F0100085F01000860
:100100005F0100085F0100085F0100085F0100084F
:100110005F0100085F0100085F0100085F0100083F
:100120005F0100085F0100085F0100085F0100082F
:10013000DFF80CD000F018F800480047CD0D00089B
:10014000A80400200648804706480047FEE7FEE76F
:10015000FEE7FEE7FEE7FEE7FEE7FEE7FEE7FEE777
:10016000A508000831010008064C074D06E0E068CC
:1001700040F0010394E8070098471034AC42F6D3EE
:10018000FFF7DAFFB80E0008D80E000800BFFEE740
:1001900070472DE9F041024600250026002000238B
:1001A0000024002791F803C00CF00F0591F803C05C
:1001B0000CF0100CBCF1000F03D091F802C04CEA17
:1001C000050591F800C0BCF1000F31D01468002083
:1001D0002BE04FF0010C0CFA00F3B1F800C00CEA70
:1001E00003069E4220D183004FF00F0C0CFA03F758
:1001F000BC4305FA03FC4CEA040491F803C0BCF1CB
:10020000280F06D14FF0010C0CFA00FCC2F814C004
:100210000AE091F803C0BCF1480F05D14FF0010C82
:100220000CFA00FCC2F810C0401C0828D1D314609E
:10023000B1F800C0BCF1FF0F34DD546800202EE09F
:1002400000F1080C4FF0010808FA0CF3B1F800C0F7
:100250000CEA03069E4221D183004FF00F0C0CFAEA
:1002600003F7BC4305FA03FC4CEA040491F803C00D
:10027000BCF1280F05D100F1080C08FA0CF8C2F8FF
:10028000148091F803C0BCF1480F07D100F1080CAD
:100290004FF0010808FA0CF8C2F81080401C08283A
:1002A000CED35460BDE8F0810246002093680B4035
:1002B0000BB1012000E0002070470161704700BFD2
:1002C000FEE7014601F00F02102A31D2DFE802F00A
:1002D000080A0C0E10121416181B1E2124272A2D92
:1002E000012070470220FCE70420FAE70820F8E725
:1002F0001020F6E72020F4E74020F2E78020F0E726
:100300004FF48070EDE74FF40070EAE74FF480603F
:10031000E7E74FF40060E4E74FF48050E1E74FF483
:100320000050DEE74FF48040DBE74FF40040D8E7B1
:100330000020D6E701460022C1F30712082A13D293
:10034000DFE802F0120406080A0C0E100748704796
:100350000748FCE70748FAE70748F8E70748F6E7E1
:100360000748F4E70748F2E70020F0E700080140FB
:10037000000C014000100140001401400018014031
:10038000001C01400020014070B504462046FFF7E4
:10039000D1FF05462046FFF794FF06463146284622
:1003A000FFF78BFF31462846FFF77EFF70BD000048
:1003B00030B51A4800681A4AB0FBF2F1B1F1807FFB
:1003C00001D301201DE021F07F40401E4FF0E022CC
:1003D000506150170F22002807DA13071D0E114B2A
:1003E00000F00F04241F1D5503E013071C0E0E4BD5
:1003F0001C5400BF00204FF0E022906107201061E4
:10040000002008B100BFFEE74FF0E020006920F0B7
:1004100001004FF0E021086130BD00000C00002019
:1004200040420F0018ED00E000E400E004480068DE
:1004300020B103480068401E014908607047000071
:100440004C00002038B504462E4884421BD10121BF
:10045000042000F033F96015ADF8000018208DF885
:10046000030002208DF8020069462748FFF791FE3D
:100470002015ADF8000004208DF8030069462248DD
:10048000FFF787FE3CE0214884421BD10121052073
:1004900000F014F90420ADF8000018208DF80300D6
:1004A00002208DF8020069461748FFF772FE082007
:1004B000ADF8000004208DF8030069461248FFF7EC
:1004C00068FE1DE0124884421AD10121092000F083
:1004D000F5F82015ADF8000018208DF80300022073
:1004E0008DF8020069460B48FFF753FEE014ADF8A3
:1004F000000004208DF8030069460648FFF749FE16
:1005000038BD0000003801400008014000440040B0
:1005100000480040000C014070B504460D462046DE
:10052000FFF790FF2946204600F002F870BD00005A
:100530007FB504460D461B48844204D1012188033F
:1005400000F0BCF80EE01848844204D101214804B0
:1005500000F0A4F806E01548844203D10121880484
:1005600000F09CF800950020ADF80400ADF80600FE
:10057000ADF80800ADF80C000C20ADF80A00694693
:10058000204600F0B1FA012240F22551204600F049
:1005900086FA0121204600F03FFA4021204600F073
:1005A00023FA7FBD0038014000440040004800406D
:1005B000F8B504460D4616461F46284600F062F878
:1005C0000F48844203D125208DF800000CE00D482F
:1005D000844203D126208DF8000005E00A488442B9
:1005E00002D127208DF800008DF801608DF802708F
:1005F00001208DF80300684600F00CF8F8BD0000FB
:1006000000380140004400400048004000BFFEE7C1
:100610007047000070B5002100230F22C47804B396
:10062000154C246804F4E064C4F5E064210AC1F1C7
:100630000403CA40447804FA03F184781440214347
:1006400009010E4C0678A155047804F01F05012419
:10065000AC4005786D11AD0005F1E025C5F800410D
:1006600009E0047804F01F050124AC40044D06782D
:10067000761145F8264070BD0CED00E000E400E086
:1006800080E100E002490143024A11607047000026
:100690000000FA050CED00E07047000029B1064AA1
:1006A000D2690243044BDA6104E0034AD26982430F
:1006B000014BDA61704700000010024029B1064A80
:1006C00092690243044B9A6104E0034A92698243AF
:1006D000014B9A61704700000010024030B50021C4
:1006E0000022002400232D4D6D6805F00C0121B17E
:1006F000042905D0082923D105E0294D056022E011
:10070000274D05601FE0254D6D6805F47012234DDF
:100710006D6805F48034022505EB92421CB9214D29
:10072000554305600BE01D4D6D6805F400351DB1A6
:100730001C4D5543056002E0194D5543056002E02C
:10074000174D056000BF00BF144D6D6805F0F00146
:100750000909154D6B5C0568DD4045600F4D6D68FE
:1007600005F4E061090A104D6B5C4568DD40856069
:100770000A4D6D6805F46051C90A0B4D6B5C456804
:10078000DD40C560054D6D6805F44041890B074D9E
:100790006B5CC568B5FBF3F5056130BD0010024028
:1007A00000127A0000093D002C0000203C000020CF
:1007B000704710B500F002F810BD00000CB5002025
:1007C000019000903348006840F48030314908605F
:1007D00000BF3048006800F4003000900198401CD1
:1007E0000190009818B90198B0F5A06FF1D129488F
:1007F000006800F4003010B10120009001E00020FA
:1008000000900098012843D12348006840F0100070
:10081000214908600846006820F003000860084687
:10082000006840F0020008601A48406819494860B2
:100830000846406848600846406840F48060486068
:100840000846406820F47C1048600846406840F440
:10085000E81048600846006840F08070086000BFFB
:100860000C48006800F000700028F9D00948406882
:1008700020F00300074948600846406840F0020045
:10088000486000BF0348406800F00C000828F9D118
:100890000CBD0000001002400020024010B5FFF720
:1008A000C5FD10BD10B51348006840F001001149A6
:1008B000086008464068104908400E4948600846EC
:1008C00000680E4908400B4908600846006820F49B
:1008D000802008600846406820F4FE0048604FF41D
:1008E0001F008860FFF765FF4FF000600449086053
:1008F00010BD0000001002400000FFF8FFFFF6FEF0
:1009000008ED00E010B500F003FA0121014800F005
:1009100019F810BD002C014010B50121880700F026
:1009200011F810BD10B50121014800F00BF810BD01
:100930000004004010B50121014800F003F810BD8B
:1009400000080040CA4302827047000010B540F220
:100950002551094800F079F860B140F22551064868
:1009600000F04BF8044800F02BF9C4B2214603A074
:1009700000F032F910BD000000380140256300008E
:1009800010B540F22551094800F05FF860B140F21F
:100990002551064800F031F8044800F011F9C4B2BE
:1009A000214603A000F018F910BD000000440040EB
:1009B0002563000010B540F22551094800F045F8C4
:1009C00060B140F22551064800F017F8044800F0E5
:1009D000F7F8C4B2214603A000F0FEF810BD0000F5
:1009E000004800402563000001F40072B2F5007F6A
:1009F00000D100BFCA430280704710B50022002317
:100A000040F66A14A14200D100BF0A1201249440AA
:100A1000A3B2DC43048010BD21B1828942F40052AC
:100A2000828104E082894DF6FF731A40828170470B
:100A300002460020B1F5007F00D100BF13880B40B3
:100A40000BB1012000E00020704770B50246002481
:100A500000230025002040F66A16B14200D100BFF5
:100A6000C1F3421501F01F03012606FA03F3012D1D
:100A700002D19689334006E0022D02D1168A334016
:100A800001E0968A33400C12012606FA04F4168817
:100A9000344013B10CB1012000E0002070BDF0B56E
:100AA0000346002400260025002040F66A17B942BC
:100AB00000D100BF1846C1F3421401F01F06012700
:100AC00007FA06F5012C01D10C3004E0022C01D10B
:100AD000103000E014301AB107682F43076002E0BD
:100AE0000768AF430760F0BD2DE9F04786B00546C3
:100AF0000E460024A24600BFA1460027B08900B1DF
:100B000000BF2F462C8A4CF6FF700440F088044347
:100B10002C82AC894EF6F3100440B088318908432A
:100B2000718908430443AC81AC8A4FF6FF4004400E
:100B3000B0890443AC8201A8FFF7D0FD1F4887426B
:100B400002D1DDF810A001E0DDF80CA0A88900F4C6
:100B5000004040B10AEBCA0000EB0A1031684900BE
:100B6000B0FBF1F807E00AEBCA0000EB0A103168AD
:100B70008900B0FBF1F86420B8FBF0F00401200913
:100B8000642101FB1089A88900F4004040B13220A3
:100B900000EBC900B0FBF1F000F00700044308E0EF
:100BA000322000EB09106421B0FBF1F000F00F00DF
:100BB00004432C8106B0BDE8F087000000380140F6
:100BC00001468888C0F308007047C1F3080282809C
:100BD000704700BFFEE700000FB4054B10B503A936
:100BE000044A029800F017F810BC5DF814FB0000EE
:100BF000ED0C00086C00002002E008C8121F08C1BC
:100C0000002AFAD170477047002001E001C1121F8D
:100C1000002AFBD170472DE9F84F99469246884645
:100C20000546002706E025280AD051464A46904747
:100C30006D1C7F1C28780028F5D13846BDE8F88F58
:100C4000002315F8011F18462E2915D115F8011F8C
:100C500004232A290DD06FF02F022978A1F1300446
:100C6000092C09D800EB800002EB400008446D1C01
:100C7000F3E758F8040B6D1C2A78002ADDD0632AAC
:100C800007D0732A0FD0104651464A4690477F1C22
:100C90002AE018F8042B8DF8002000218DF80110AF
:100CA0006E46012103E058F8046B4FF0FF315A07FC
:100CB0004FF0000401D409E0641C84420BDA8C423A
:100CC000FADB325D002AF7D105E0641C8C42FCDBC4
:100CD000305D0028F9D1274404E016F8010B514695
:100CE0004A469047641EF8D26D1CA3E770B50446CF
:100CF0000D46E1B20548FFF768FF00BF80210348B9
:100D0000FFF796FE0028F9D0204670BD003801405C
:100D100038B5002446E0204600F04AF878BB234866
:100D2000005D401C214908550846005D012800DC93
:100D300036E01E48005D022808D18DF800400020F2
:100D40008DF80100009800F081F828E01748005D58
:100D5000322800DC24E01548005D33280BD18DF8E3
:100D6000004002208DF80100009800F06FF802208A
:100D70000E49085513E002200C4908550FE0FFE723
:100D80000A48005D012807DD8DF8004001208DF83C
:100D90000100009800F05AF800200449085500BFEF
:100DA000601CC4B2042CB6DB38BD00006700002014
:100DB00010B50446044931F81400FFF7E5FA08B904
:100DC000002010BD0120FCE75C000020FFF7F0FAD6
:100DD0004FF4E1310A48FFF79FFB00231A464FF416
:100DE000E0610748FFF7E4FB06A0FFF7F5FE09A066
:100DF000FFF7F2FE0EA0FFF7EFFE00BFFEE70000D8
:100E000000380140546869732069732053656E642B
:100E100065720A00506C6561736520496E70757467
:100E200020616E792063686172616374657273001A
:100E300057616974696E6720616E737765722E2ED3
:100E40002E2E2E2E2E2E2E2E0A00000001B5164913
:100E50000978022900D108BD9DF80010134A144BEF
:100E60001B7802F813109DF80110114B1B7802EB50
:100E7000430251700E490978491C0D4A1170114600
:100E80000978142901DB0021117009490878094902
:100E90000978884203D10221034A117002E001213E
:100EA000014A117000BFD6E76600002070000020E4
:100EB0006500002064000020D80E0008000000201B
:100EC00070000000F80B0008480F000870000020B8
:100ED00038040000080C000800004040CDCC4C4114
:100EE0003200000000A24A040000000000000000E0
:100EF000010203040607080900004040CDCC4C4124
:100F0000320000000000000001020304010203049B
:100F1000060708090204060800004040CDCC4C41F9
:100F2000320000000000000000004040CDCC4C41E9
:100F30003200000010001100120013000000000039
:080F40000000000000000000A9
:0400000508000131BD
:00000001FF
