:020000040800F2
:1000000020050020A1010008030E00085B0D000878
:10001000010E000839020008091300080000000062
:10002000000000000000000000000000270E000893
:100030003B02000800000000250E0008BD0E00086D
:10004000BB010008BB010008BB010008BB010008A0
:10005000BB010008BB010008BB010008BB01000890
:10006000BB010008BB010008BB010008BB01000880
:10007000BB010008BB010008BB010008BB01000870
:10008000BB010008BB010008BB010008BB01000860
:10009000BB010008BB010008BB010008BB01000850
:1000A000BB010008BB010008BB010008BB01000840
:1000B000BB010008BB010008BB010008BB01000830
:1000C000BB010008BB010008BB010008BB01000820
:1000D000BB010008DD120008BB010008BB010008DD
:1000E000BB010008BB010008BB010008BB01000800
:1000F000BB010008BB010008BB010008BB010008F0
:10010000BB010008BB010008BB010008BB010008DF
:10011000BB010008BB010008BB010008BB010008CF
:10012000BB010008BB010008BB010008BB010008BF
:10013000BB010008BB010008BB010008BB010008AF
:10014000BB010008BB010008BB010008BB0100089F
:10015000BB010008BB010008BB010008BB0100088F
:10016000BB010008BB010008BB010008BB0100087F
:10017000BB010008BB010008BB0100080000000033
:10018000BB010008BB010008DFF810D000F042F806
:100190000048004799140008AFF3008020050020B4
:1001A0000648804706480047FEE7FEE7FEE7FEE711
:1001B000FEE7FEE7FEE7FEE7FEE7FEE7C10E00080A
:1001C00089010008D2B201E000F8012B491EFBD2E0
:1001D00070470022F6E710B513460A460446194652
:1001E000FFF7F0FF204610BD421C10F8011B00294C
:1001F000FBD1801A704710B5002200E0521C835CCE
:100200008C5CA34201D1002BF8D1D8B2E1B2401AE4
:1002100010BD0000064C074D06E0E06840F0010309
:1002200094E8070098471034AC42F6D3FFF7B0FFCC
:10023000FC1500081C160008FEE7704790F8351002
:10024000022903D08021416501207047052180F8F3
:1002500035100068016821F001010160002070473D
:100260002DE9F84FDFF88C91002209F1040A0AF118
:10027000040B4FF00F080BF1040E01260B6896409B
:100280003340B34271D14C68022C01D0122C11D1F1
:10029000D40800EB84073D6A5407E40E08FA04FC16
:1002A00025EA0C05D1F810C00CFA04FC4CEA050C48
:1002B000C7F820C007685400032591F804C0A54082
:1002C0000CF0030CAF430CFA04FC4CEA070CC0F82A
:1002D00000C04F68012F05D0022F03D0112F01D08D
:1002E000122F11D18768D1F80CC0AF430CFA04FC6F
:1002F0004CEA070CC0F808C04768B7430E79C6F34C
:10030000001696403E434660C668AE438D68A540E1
:100310003543C5604C68E40065D5374C256845F425
:1003200080452560246822F0030504F4804400948D
:10033000324C2E19D6F808789407250F08FA05F4E0
:10034000A7432F4CA04201D1002424E02D4CA04211
:1003500001D101241FE02C4CA04201D102241AE05B
:100360002A4CA04202D1032415E03CE0284CA042D4
:1003700001D104240FE0274CA04201D105240AE05A
:10038000254CA04201D1062405E0244CA04201D115
:10039000072400E00824AC403C43C6F80848D9F8DC
:1003A00000404D464E689C43F60300D51C432C602C
:1003B000DAF8004055464E689C43B60300D51C430E
:1003C0002C60DBF800405D464E689C43F60200D589
:1003D0001C432C60DEF8004075464E689C43B60214
:1003E00000D51C432C60521C102AFFF446AFBDE818
:1003F000F88F0000003C01404438024000300140CA
:10040000000002400004024000080240000C0240CC
:10041000001002400014024000180240001C02407C
:100420000AB1816170470904FBE7000001480068D8
:10043000000C7047002004E001480068704700008D
:100440000400002002480168491C01607047000058
:1004500004000020094810B5016841F400710160F2
:10046000016841F480610160052000F049F80F2027
:1004700000F006F800F018F8002010BD003C024023
:1004800010B5044607484FF47A710068B0FBF1F0EC
:1004900000F000FB00222146501E00F011F8002061
:1004A00010BD000000000020704700F01F02012175
:1004B00091404009800000F1E020C0F80011704731
:1004C000F0B40E4B1B68C3F30223C3F10704042CE2
:1004D00000D904241D1D072D01D2002300E0DB1EDE
:1004E000012606FA04F56D1E0D409D409E40761EC5
:1004F000164045EA0601F0BC00F084BC0CED00E0BB
:10050000064A00F0070110684FF6FF03184040EA62
:100510000120034908431060704700000CED00E023
:100520000000FA052DE9F047DFF85C9104460E461D
:10053000D9F8000000F00F01F0B28046B14207D2B6
:1005400089F80000D9F8000000F00F00B04271D126
:1005500020784E4F800705D53868A16820F0F0005C
:10056000084338602078C00756D048496068083989
:1005700001281AD002281BD0032819D0096889073E
:10058000002957DA396821F0030101433960FFF788
:1005900053FF0546606841F28831012811D00228D6
:1005A0001CD003288A4625D032E009688903E7E792
:1005B00009688901E4E7FFF73FFF411B514501D975
:1005C00023E08A463868C0F381000128F3D123E094
:1005D000FFF732FF411B514501D916E08A463868C2
:1005E000C0F381000228F3D116E0FFF725FF411B7D
:1005F00051450AD83868C0F381000328F5D10BE0D3
:10060000FFF71AFF411B514502D90320BDE8F087CF
:10061000386810F00C0FF3D1D9F80010484601F0FB
:100620000F01B14208D980F80080006800F00F0087
:10063000B04201D00120E9E72078400705D53868AD
:10064000E16820F4E050084338602078000706D5C0
:100650003868216920F4604040EAC100386000F049
:100660004BF83968F02292FAA2F201F0F001B2FAE6
:1006700082F2D140064A515CC840064908600F200A
:10068000FFF7FEFE0020C1E7003C024008380240B0
:10069000E4150008000000200848094900680968BE
:1006A0004FF4E05292FAA2F201F4E051B2FA82F26F
:1006B000D140044A515CC84070470000000000204F
:1006C00008380240F415000808480949006809681C
:1006D0004FF4604292FAA2F201F46041B2FA82F25F
:1006E000D140044A515CC84070470000000000201F
:1006F00008380240F415000830B51948006810F0B9
:100700000C01184812D0441004290ED008290DD12C
:10071000134A121F1168136801F03F015D0247F68A
:10072000C07304D5B4FBF1F003E0204630BDB0FB4C
:10073000F1F01168194093FAA3F3B3FA83F3D940A7
:10074000484311684FF4403292FAA2F201F440316A
:10075000B2FA82F2D140491C4900B0FBF1F030BD41
:10076000083802400024F4002DE9F84F04460078D0
:10077000DFF8F4A2BD4DC00748D0DAF800105046AB
:10078000C1F38101012908D00068C0F3810002286B
:100790000AD1281D0068400206D52868800335D597
:1007A0006068002870D031E06068B0F5803F10D0FC
:1007B000B0F5A02F286810D020F480302860286879
:1007C00020F4802028606068A0B1FFF735FE06465F
:1007D0000CE0286840F48030F4E740F48020286082
:1007E000F7E7FFF729FE801B642873D82868800389
:1007F000F7D50BE0FFF720FE064604E0FFF71CFEEE
:10080000801B6428F1D828688003F7D42078DFF8AB
:10081000608280074FF0010B4FF0000943D5DAF8F2
:100820000010504611F00C0F4FF0F80709D0006887
:10083000C0F3810002280BD18B48001F00684002E2
:1008400006D42868800713D5E06801281CD10FE082
:10085000E068D0B1C8F800B0FFF7EEFD064604E04E
:10086000FFF7EAFD801B0228BFD828688007F7D56C
:10087000286897FAA7F22169B2FA82F220F0F8000C
:100880009140084328600EE0EBE0C8F80090FFF7C5
:10089000D3FD064604E0FFF7CFFD801B022819D8E0
:1008A00028688007F7D42078000722D56E4F71485A
:1008B00061696C3779B1C0F800B0FFF7BDFD06463D
:1008C00004E0FFF7B9FD801B022803D838688007D1
:1008D000F7D50EE079E0C0F80090FFF7ADFD0646D1
:1008E00004E0FFF7A9FD801B02286ED83868800756
:1008F000F7D42078400750D55B483830016841F084
:100900008051016000685C4F00F0805000903868B2
:1009100040F480703860FFF78FFD064604E0FFF773
:100920008BFD801B022850D83868C005F7D54E4F84
:10093000A068683701280FD00528386810D020F04B
:1009400001003860386820F004003860A068B0B159
:10095000FFF772FD06460EE0386840F00100F4E74C
:1009600040F004003860F7E7FFF766FD811B41F2B5
:10097000883081426DD838688007F5D50DE0FFF7E3
:100980005BFD064606E0FFF757FD811B41F288300C
:1009900081425ED838688007F5D4A069F0B3DAF8F0
:1009A0000010C1F3810102295BD00228484605D01E
:1009B000C8F86000FFF740FD04464DE04746C8F820
:1009C0006000FFF739FD064605E042E0FFF734FD21
:1009D000801B02283DD828688001F7D4D4E907019C
:1009E000084347F6C07292FAA2F2616AB2FA82F242
:1009F0009140A26A4FF0FF3303EB52024FF44033B1
:100A000093FAA3F3B3FA83F39A4011434FF0706261
:100A100092FAA2F20843B2FA82F200E01FE0E16A21
:100A2000914008431049091F0860C7F860B0FFF7FC
:100A300003FD044604E0FFF7FFFC001B022808D872
:100A400028688001F7D50AE0FFF7F6FC001B0228B2
:100A500002D90320BDE8F88F28688001F4D4002073
:100A6000F8E70120F6E700000838024000380240AD
:100A700000004742800E4742007000404FF0E021E6
:100A80000428086903D020F004000861704740F092
:100A90000400FAE710B5401EB0F1807F01D30120B9
:100AA00010BD4FF0E02460610F21601700F0AAF93B
:100AB0000020A06107202061002010BD704710F8C1
:100AC000391F40780843704770B5026804461068C3
:100AD000D168536910F00F0F50D003F0010501F4F5
:100AE000907635435DD0C20705D0CA0503D5E26BC9
:100AF00042F00102E263420705D5DA0703D0E26B58
:100B000042F00202E263820705D5DA0703D0E26B06
:100B100042F00402E263020705D5DA0703D0E26B74
:100B200042F00802E263E26B002A33D0800604D56B
:100B3000880602D5204600F003FA20684069E16B80
:100B4000C0F38010090700D428B3204600F0EAF96A
:100B50002068416949061AD5416921F04001416187
:100B6000606BA0B11B490165606BFFF767FB002854
:100B700010D0606B016DBDE870400847830610D54A
:100B80008B060ED52046BDE8704000F0D9B920464E
:100B9000FFF794FF70BD2046FFF790FF0020E06351
:100BA00070BD030606D50B0604D52046BDE870408F
:100BB00000F062BB4006F3D54806F1D5D168204667
:100BC00021F04001D160202184F8391000F0C4F8F0
:100BD00070BD0000150F000870B5040004D094F833
:100BE0003900002510B106E0012070BD84F83850AE
:100BF000204600F023F8242084F839002068C168DA
:100C000021F40051C160204600F0E0F9206801693C
:100C100021F4904101612068416921F02A0141617C
:100C20002068C16841F40051C160E563202084F868
:100C3000390084F83A00002070BD000010B500684B
:100C40001A4986B088422FD11948016841F0010144
:100C50000160006800F0010005901548143001683B
:100C600041F0100101600068012100F010000590C2
:100C70004FF4007000900220CDE90101039007209D
:100C80000C4C049069462046FFF7EAFA21150091C2
:100C900069462046FFF7E4FA2520FFF706FC032209
:100CA00011462520FFF70CFC06B010BD00100140D6
:100CB000303802400000024090F83A30202B1DD11D
:100CC000D1B1CAB190F83830012B17D0816282853A
:100CD000C2850021C163222280F83A2080F83810B2
:100CE00001684A6942F001024A610068C16841F442
:100CF0009071C1600020704701207047022070474A
:100D000030B50068114988420CD1114A508801045D
:100D100008D41146440409784FF0000306D50A2987
:100D200001D0538030BD40F400400DE00D2909D0C2
:100D3000C0F30D04074D401C80B229555080C728D0
:100D4000EFD830BD40F48040508030BD00100140ED
:100D50000C000020140000207047FEE730B5144C52
:100D600087B00020216841F0400121602168012501
:100D700001F0400105914FF43851CDE900100320F6
:100D8000CDE9025069460B48FFF76AFA206840F047
:100D9000010020602068009500F00100059002200D
:100DA000029069460448FFF75BFA07B030BD0000C7
:100DB0003038024000180240000002400E4810B5D2
:100DC000016886B041F00401016000680B4C00F03E
:100DD000040005900F200090012001900290032054
:100DE000039069462046FFF73BFA01220F21204677
:100DF000FFF716FB06B010BD303802400008024075
:100E0000FEE770470907090E002806DA00F00F0018
:100E100000F1E02080F8141D704700F1E02080F818
:100E2000001470477047704770B5214C92B0002590
:100E3000266846F080562660246804F08054119499
:100E40001C4C266846F48046266024680DF1240C6C
:100E500004F4804411940124009424040194022495
:100E600006948CE80D006605CDE907616846FFF73A
:100E70007BFC00B1FEE70CA90F2081E831004FF4A4
:100E8000A0500F904FF48050109005210CA8FFF750
:100E900049FB00B1FEE7FFF7C9FA41F201018842C0
:100EA00004D10548016841F48071016012B070BD41
:100EB0004038024000700040003C0240FFF7C2BAD8
:100EC0001048016841F4700101600F48016841F069
:100ED000010101600C4A00210832116002680B4BCD
:100EE0001A400260031D0A4A1A60026822F4802236
:100EF000026005480C3001600249580680390860DC
:100F00007047000088ED00E000380240FFFFF6FE69
:100F10001030002410B5806B0021C185C184FFF71B
:100F2000CDFD10BD0168CA6822F49072CA600168E4
:100F30004A6922F001024A61202180F83A10704784
:100F400010B590F83A10222901D0022010BD816816
:100F5000B1F5805F11D00169002901681FD049688F
:100F600001F07F03816A4A1C82620B70C18D491EA9
:100F70000904090CC18518D026E00269816A002A9B
:100F80000268526805D0D2B20A80816A491C816227
:100F9000ECE7C2F308020A80816A891CF7E74A6815
:100FA000816A4B1C83620A70E0E70168CA6822F418
:100FB0009072CA6001684A6922F001024A612021E8
:100FC00080F83A10FFF79CFE002010BD2DE9F0419B
:100FD00004460068016921F44052E168114301614F
:100FE0002068C16849F20C6291432369A268E569EF
:100FF0001A4363692B431A430A43C260206841695C
:10100000A26921F440710A434261E0696425B0F5A8
:10101000004F974A974920684FF032083FD08842E6
:1010200001D090427CD1FFF74FFB00EBC00101EBF8
:10103000001061688900B0FBF1F6FFF745FB00EB9B
:10104000C00101EB001061688900B0FBF1F0B0FB5A
:10105000F5F06FF01801484306EB800108EB011032
:10106000B0FBF5F000F0F006FFF72EFB00EBC0013F
:1010700001EB001061688900B0FBF1F0B0FBF5F006
:1010800006EB0016FFF720FB00EBC00101EB0010A0
:1010900061688900B0FBF1F7FFF716FBD2E08842E8
:1010A00001D090423DD1FFF70FFB00EBC00101EBF7
:1010B000001061684900B0FBF1F0B0FBF5F00601EB
:1010C000FFF702FB00EBC00101EB00106168490073
:1010D000B0FBF1F7FFF7F8FA00EBC00101EB0010ED
:1010E00061684900B0FBF1F0B0FBF5F06FF018015A
:1010F000484307EB800108EBC100B0FBF5F000F0BE
:10110000F80006EB4006FFF7DFFA00EBC00101EB49
:10111000001061684900B0FBF1F7FFF7D5FA3CE039
:1011200055E0FFF7B9FA00EBC00101EB0010616870
:101130004900B0FBF1F0B0FBF5F00601FFF7ACFAA7
:1011400000EBC00101EB001061684900B0FBF1F752
:10115000FFF7A2FA00EBC00101EB00106168490043
:10116000B0FBF1F0B0FBF5F06FF01801484307EB6E
:10117000800108EBC100B0FBF5F000F0F80006EBD1
:101180004006FFF789FA00EBC00101EB001061682F
:101190004900B0FBF1F7FFF77FFA00EBC00101EB6C
:1011A000001061684900B0FBF1F0B0FBF5F06FF0A2
:1011B0001801484307EB800108EBC100B0FBF5F0D4
:1011C00000F00700216830448860BDE8F081FFF737
:1011D00063FA00EBC00101EB001061688900B0FB0D
:1011E000F1F6FFF759FA00EBC00101EB001061685E
:1011F0008900B0FBF1F0B0FBF5F06FF01801484347
:1012000006EB800108EB0110B0FBF5F000F0F006F2
:10121000FFF742FA00EBC00101EB001061688900A2
:10122000B0FBF1F0B0FBF5F006EB0016FFF734FA77
:1012300000EBC00101EB001061688900B0FBF1F721
:10124000FFF72AFA00EBC00101EB0010616889008A
:10125000B0FBF1F0B0FBF5F06FF01801484307EB7D
:10126000800108EB0110B0FBF5F000F00F00A9E7DA
:10127000001401400010014090F83910212901D0DC
:10128000022070478168B1F5805F016A0BD04A1C6B
:101290000262026809785160C18C491E0904090C78
:1012A000C1840ED017E009880268C1F308015160BB
:1012B00001690029016A02D0491C0162ECE7891C1E
:1012C000FBE70168CA6822F08002CA600068C16852
:1012D00041F04001C16000207047000010B508488F
:1012E000FFF7F2FB0648FFF7EAFB2028FAD10122BC
:1012F00004490348FFF7E0FC0028F8D110BD0000C6
:10130000DC0000200C000020FEE700000FB4054BBD
:1013100010B503A9044A029800F017F810BC5DF854
:1013200014FB0000851400081000002002E008C82B
:10133000121F08C1002AFAD170477047002001E04F
:1013400001C1121F002AFBD170472DE9F84F9946C1
:10135000924688460546002706E025280AD05146D1
:101360004A4690476D1C7F1C28780028F5D13846E6
:10137000BDE8F88F002315F8011F18462E2915D156
:1013800015F8011F04232A290DD06FF02F022978A8
:10139000A1F13004092C09D800EB800002EB4000D9
:1013A00008446D1CF3E758F8040B6D1C2A78002ADA
:1013B000DDD0632A07D0732A0FD0104651464A4623
:1013C00090477F1C2AE018F8042B8DF8002000219C
:1013D0008DF801106E46012103E058F8046B4FF0C0
:1013E000FF315A074FF0000401D409E0641C844225
:1013F0000BDA8C42FADB325D002AF7D105E0641C7F
:101400008C42FCDB305D0028F9D1274404E016F85B
:10141000010B51464A469047641EF8D26D1CA3E763
:1014200010B504460420FFF729FB0148046010BDF5
:101430000800002070B5054600244FF47A7603E0DA
:10144000304600F005F8641CAC42F9D370BD0000D2
:1014500070B54FF0E02500216C69094AAB6912684C
:101460005043AA699A42FCD002D2A3EB020302E0E5
:10147000A4EB02063344194413468142F1D370BDF4
:101480000800002003490A685206FCD5C2B24A602F
:101490007047000000100140B2B0FEF7DBFF0723E9
:1014A000022208214FF4A870FFF7BEFCA820FFF726
:1014B000B7FF4FF4E13000F079F8FFF77FFCFFF75A
:1014C0004DFC24A0FFF722FF26A0FFF71FFF294CA9
:1014D000294E00252088010415D5C3B200206A4694
:1014E000DFF898C0264F07E01CF800101154396847
:1014F0004906FCD5401C80B29842F5D3114621A084
:10150000FFF704FF258020A16846FEF774FE90B126
:101510001FA16846FEF76FFE80B11FA0FFF7F6FE21
:101520006420FFF787FF6846FEF75EFE01466846C7
:10153000FEF74FFECEE7C6F8805202E00120C6F863
:1015400080026846FEF750FE01466846FEF741FEFF
:10155000E9E70000BFAAB5C6A3BA6C65645F6F6E09
:101560000D0A0000B9D8B5C6A3BA6C65645F6F6692
:10157000660D0A000E000020000041421400002009
:1015800000100140256300006C65645F6F6E000011
:101590006C65645F6F6666000D0A20696E70757415
:1015A000206572726F72200D0A0000000B4910B5A1
:1015B000094AC1E9002000208860C860086188618C
:1015C0000C2048610846FFF707FBBDE810400122E8
:1015D00003490248FFF770BB00100140DC00002007
:1015E0000C000020000000000000000001020304C5
:1015F0000607080900000000010203041C16000889
:1016000000000020140000002C1300083016000811
:10161000140000200C0500003C1300080024F40016
:1016200000000000000000000000000000000000BA
:040000050800018965
:00000001FF
