:020000040800F2
:10000000780400204501000845060008C3020008E6
:10001000410600088D010008FF0A000800000000EA
:1000200000000000000000000000000011070008B0
:100030009101000800000000CD060008FD0700083F
:100040005F0100085F0100085F0100085F01000810
:100050005F0100085F0100085F0100085F01000800
:100060005F0100085F0100085F0100085F010008F0
:100070005F0100085F0100085F0100085F010008E0
:100080005F0100085F0100085F0100085F010008D0
:100090005F0100085F0100085F0100085F010008C0
:1000A0005F010008650800085F0100085F010008A3
:1000B00079080008C9080008D90800085F0100088D
:1000C0005F0100085F0100085F0100085F01000890
:1000D0005F010008C5090008F90900082D0A000899
:1000E0005F0100085F0100085F0100085F01000870
:1000F0005F0100085F0100085F0100085F01000860
:100100005F0100085F0100085F0100085F0100084F
:100110005F0100085F0100085F0100085F0100083F
:100120005F0100085F0100085F0100085F0100082F
:10013000DFF80CD000F018F800480047F90C000870
:10014000780400200648804706480047FEE7FEE79F
:10015000FEE7FEE7FEE7FEE7FEE7FEE7FEE7FEE777
:100160000508000831010008064C074D06E0E0686C
:1001700040F0010394E8070098471034AC42F6D3EE
:10018000FFF7DAFF940D0008B40D000800BFFEE78A
:1001900070472DE9F041024600250026002000238B
:1001A0000024002791F803C00CF00F0591F803C05C
:1001B0000CF0100CBCF1000F03D091F802C04CEA17
:1001C000050591F800C0BCF1000F31D01468002083
:1001D0002BE04FF0010C0CFA00F3B1F800C00CEA70
:1001E00003069E4220D183004FF00F0C0CFA03F758
:1001F000BC4305FA03FC4CEA040491F803C0BCF1CB
:10020000280F06D14FF0010C0CFA00FCC2F814C004
:100210000AE091F803C0BCF1480F05D14FF0010C82
:100220000CFA00FCC2F810C0401C0828D1D314609E
:10023000B1F800C0BCF1FF0F34DD546800202EE09F
:1002400000F1080C4FF0010808FA0CF3B1F800C0F7
:100250000CEA03069E4221D183004FF00F0C0CFAEA
:1002600003F7BC4305FA03FC4CEA040491F803C00D
:10027000BCF1280F05D100F1080C08FA0CF8C2F8FF
:10028000148091F803C0BCF1480F07D100F1080CAD
:100290004FF0010808FA0CF8C2F81080401C08283A
:1002A000CED35460BDE8F0810246002093680B4035
:1002B0000BB1012000E000207047416170470161EF
:1002C000704700BFFEE70000F8B506460D46304611
:1002D00000F0ACF80446304600F052F807462148DA
:1002E000844204D10121042000F002FA2EE01E48CD
:1002F000844204D10121082000F0FAF926E01B48CD
:10030000844204D10121102000F0F2F91EE01848C7
:10031000844204D10121202000F0EAF916E01548BA
:10032000844204D10121402000F0E2F90EE012489D
:10033000844204D10121802000F0DAF906E00F4860
:10034000844203D10121801500F0D2F9ADF800708C
:100350008DF8035003208DF8020069462046FFF710
:1003600018FFF8BD00080140000C014000100140DA
:100370000014014000180140001C01400020014011
:10038000014601F00F02102A31D2DFE802F0080A1C
:100390000C0E10121416181B1E2124272A2D0120C2
:1003A00070470220FCE70420FAE70820F8E7102055
:1003B000F6E72020F4E74020F2E78020F0E74FF452
:1003C0008070EDE74FF40070EAE74FF48060E7E7F4
:1003D0004FF40060E4E74FF48050E1E74FF4005041
:1003E000DEE74FF48040DBE74FF40040D8E7002021
:1003F000D6E72DE9F04105460C46284600F016F8F0
:1004000007462846FFF7BCFF064634B1012C09D148
:1004100031463846FFF753FF05E031463846FFF7CF
:100420004CFF00E000BF00BFBDE8F08101460022A4
:10043000C1F30712082A13D2DFE802F012040608FB
:100440000A0C0E10074870470748FCE70748FAE710
:100450000748F8E70748F6E70748F4E70748F2E7F0
:100460000020F0E700080140000C014000100140AE
:100470000014014000180140001C01400020014010
:1004800070B504462046FFF7D1FF05462046FFF72A
:1004900077FF064631462846FFF711FF31462846CA
:1004A000FFF702FF70BD00003EB504460D462C4824
:1004B000844204D10121C01400F01AF916E0B4F10D
:1004C000804F04D10121084600F002F90EE02548D2
:1004D000844204D10121022000F0FAF806E022480B
:1004E000844203D10121042000F0F2F8ADF8045059
:1004F0004720ADF800000020ADF802006946204614
:1005000000F00EFA0121204600F0EEF9012211461A
:10051000204600F0FBF90121204600F0EBF91048DD
:10052000844204D10021C01400F0E2F816E0B4F1D6
:10053000804F04D10021012000F0CAF80EE00948E4
:10054000844204D10021022000F0C2F806E00648EF
:10055000844203D10021042000F0BAF83EBD00001F
:10056000002C01400004004000080040F8B504469B
:100570000D4616461F46284600F09EF81248844253
:1005800003D119208DF8000013E0B4F1804F03D19E
:100590001C208DF800000CE00C48844203D11D2083
:1005A0008DF8000005E00A48844202D11E208DF833
:1005B00000008DF801608DF8027001208DF80300B5
:1005C000684600F041F8F8BD002C014000040040EE
:1005D0000008004070B504460D461048844204D11E
:1005E0002946C01400F084F816E0B4F1804F04D11D
:1005F0002946012000F06CF80EE00948844204D13D
:100600002946022000F064F806E00648844203D13F
:100610002946042000F05CF870BD0000002C014069
:1006200000040040000800400448006820B103486E
:100630000068401E01490860704700000C0000205F
:1006400000BFFEE77047000070B5002100230F22B5
:10065000C47804B3154C246804F4E064C4F5E06481
:10066000210AC1F10403CA40447804FA03F18478F2
:100670001440214309010E4C0678A155047804F07A
:100680001F050124AC4005786D11AD0005F1E02592
:10069000C5F8004109E0047804F01F050124AC40CE
:1006A000044D0678761145F8264070BD0CED00E04B
:1006B00000E400E080E100E002490143024A1160E9
:1006C000704700000000FA050CED00E070470000E4
:1006D00029B1064AD2690243044BDA6104E0034AB5
:1006E000D2698243014BDA6170470000001002407A
:1006F00029B1064A92690243044B9A6104E0034A15
:1007000092698243014B9A617047000000100240D9
:10071000704710B500F002F810BD00000CB50020C5
:10072000019000903348006840F4803031490860FF
:1007300000BF3048006800F4003000900198401C71
:100740000190009818B90198B0F5A06FF1D129482F
:10075000006800F4003010B10120009001E000209A
:1007600000900098012843D12348006840F0100011
:10077000214908600846006820F003000860084628
:10078000006840F0020008601A4840681949486053
:100790000846406848600846406840F48060486009
:1007A0000846406820F47C1048600846406840F4E1
:1007B000E81048600846006840F08070086000BF9C
:1007C0000C48006800F000700028F9D00948406823
:1007D00020F00300074948600846406840F00200E6
:1007E000486000BF0348406800F00C000828F9D1B9
:1007F0000CBD0000001002400020024010B5FFF7C1
:1008000013FF10BD10B51348006840F001001149F6
:10081000086008464068104908400E49486008468C
:1008200000680E4908400B4908600846006820F43B
:10083000802008600846406820F4FE0048604FF4BD
:100840001F008860FFF765FF4FF0006004490860F3
:1008500010BD0000001002400000FFF8FFFFF6FE90
:1008600008ED00E010B500F0E9F90121014800F0C1
:100870003EF810BD002C014010B512480068401C25
:100880001049086008460068B0F57A7F03D100215E
:100890003D20FFF7AEFD0B480068B0F5FA6F03D1BD
:1008A00001213D20FFF7A5FD06480068B0F5FA6F6D
:1008B00002DD0020034908600121880700F017F8D5
:1008C00010BD00003800002010B50121014800F0E3
:1008D0000EF810BD0004004010B50121014800F0E1
:1008E00006F810BD00080040CA4302827047CA43A0
:1008F0000282704721B1028842F00102028004E0C6
:1009000002884FF6FE731A40028070471AB183893D
:100910000B43838102E083898B438381704700000E
:10092000002202881D4B98420ED01D4B98420BD0DE
:10093000B0F1804F08D01B4B984205D01A4B98421B
:1009400002D01A4B984204D14FF68F731A404B884D
:100950001A43174B984207D0164B984204D04FF6D3
:10096000FF431A40CB881A4302808B8883850B880B
:1009700003850A4B98420BD0094B984208D00E4B86
:10098000984205D00D4B984202D00D4B984201D1B0
:100990000B7A03860123838270470000002C0140FC
:1009A000003401400004004000080040000C0040FA
:1009B000001000400014004000400140004401408D
:1009C0000048014010B540F22551094800F064F894
:1009D00060B140F22551064800F042F8044800F0AA
:1009E00085F8C4B2214603A000F08CF810BD0000C9
:1009F000003801402563000010B540F22551094838
:100A000000F04AF860B140F22551064800F028F89D
:100A1000044800F06BF8C4B2214603A000F072F85D
:100A200010BD0000004400402563000010B540F2F6
:100A30002551094800F030F860B140F225510648D0
:100A400000F00EF8044800F051F8C4B2214603A0AB
:100A500000F058F810BD0000004800402563000079
:100A600010B50022002340F66A14A14200D100BF55
:100A70000A1201249440A3B2DC43048010BD024654
:100A80000020B1F5007F00D100BF13880B400BB1EF
:100A9000012000E00020704770B5024600240023CA
:100AA0000025002040F66A16B14200D100BFC1F314
:100AB000421501F01F03012606FA03F3012D02D1AE
:100AC0009689334006E0022D02D1168A334001E0B8
:100AD000968A33400C12012606FA04F41688344034
:100AE00013B10CB1012000E0002070BD01468888E0
:100AF000C0F308007047C1F308028280704700BF4E
:100B0000FEE700000FB4054B10B503A9044A029894
:100B100000F017F810BC5DF814FB0000190C000879
:100B20003C00002002E008C8121F08C1002AFAD1C8
:100B300070477047002001E001C1121F002AFBD15D
:100B400070472DE9F84F994692468846054600279A
:100B500006E025280AD051464A4690476D1C7F1C66
:100B600028780028F5D13846BDE8F88F002315F81D
:100B7000011F18462E2915D115F8011F04232A2913
:100B80000DD06FF02F022978A1F13004092C09D87B
:100B900000EB800002EB400008446D1CF3E758F8BE
:100BA000040B6D1C2A78002ADDD0632A07D0732A33
:100BB0000FD0104651464A4690477F1C2AE018F84D
:100BC000042B8DF8002000218DF801106E460121C4
:100BD00003E058F8046B4FF0FF315A074FF0000460
:100BE00001D409E0641C84420BDA8C42FADB325DEA
:100BF000002AF7D105E0641C8C42FCDB305D002844
:100C0000F9D1274404E016F8010B51464A469047B3
:100C1000641EF8D26D1CA3E770B504460D46E1B220
:100C20000548FFF768FF00BF80210348FFF727FF53
:100C30000028F9D0204670BD0038014038B50024A6
:100C400046E0204600F04AF878BB2348005D401C8F
:100C5000214908550846005D012800DC36E01E48A1
:100C6000005D022808D18DF8004000208DF80100B9
:100C7000009800F059F828E01748005D322800DCA1
:100C800024E01548005D33280BD18DF80040022088
:100C90008DF80100009800F047F802200E49085531
:100CA00013E002200C4908550FE0FFE70A48005DF9
:100CB000012807DD8DF8004001208DF80100009823
:100CC00000F032F800200449085500BF601CC4B28F
:100CD000042CB6DB38BD00002700002010B5044608
:100CE000044931F81400FFF7CBFB08B9002010BD10
:100CF0000120FCE71C00002010213D20FFF7E4FA52
:100D00004FF47A71C806FFF7CFFB00231A464FF461
:100D1000E0614FF08040FFF729FC01218807FFF7D1
:100D200059FC00BFFEE7000001B516490978022909
:100D300000D108BD9DF80010134A144B1B7802F82F
:100D400013109DF80110114B1B7802EB43025170F8
:100D50000E490978491C0D4A117011460978142969
:100D600001DB002111700949087809490978884296
:100D700003D10221034A117002E00121014A1170DE
:100D800000BFD6E7260000204000002025000020FC
:100D900024000020B40D00080000002040000000E6
:100DA000240B0008F40D0008400000203804000067
:100DB000340B000800004040CDCC4C413200000014
:100DC0000000000000004040CDCC4C41320000004B
:100DD00010001100120013000000000000000000CD
:100DE00000004040CDCC4C4132000000000000002B
:040DF00000000000FF
:0400000508000131BD
:00000001FF
