:020000040800F2
:10000000780F0020290200085F0F0008AB0E0008DF
:100010005D0F00086B030008A9160008000000002F
:10002000000000000000000000000000C7110008F0
:100030006D03000800000000C51100085D120008F3
:10004000430200084302000843020008430200087C
:10005000430200084302000843020008430200086C
:10006000430200084302000843020008430200085C
:10007000430200084302000843020008430200084C
:10008000430200084302000843020008430200083C
:10009000430200084302000843020008430200082C
:1000A000430200084302000843020008430200081C
:1000B000430200084302000843020008430200080C
:1000C00043020008430200084302000843020008FC
:1000D000430200087D16000843020008430200089E
:1000E00043020008430200084302000843020008DC
:1000F00043020008430200084302000843020008CC
:1001000043020008430200084302000843020008BB
:1001100043020008430200084302000843020008AB
:10012000430200084302000843020008430200089B
:10013000430200084302000843020008430200088B
:10014000430200084302000843020008430200087B
:10015000430200084302000843020008430200086B
:10016000430200084302000843020008430200085B
:100170004302000843020008430200080000000098
:10018000430200084302000800F002F800F03CF8C7
:100190000AA090E8000C82448344AAF10107DA45E2
:1001A00001D100F031F8AFF2090EBAE80F0013F0F8
:1001B000010F18BFFB1A43F001031847F84E000067
:1001C000184F0000103A24BF78C878C1FAD85207F7
:1001D00024BF30C830C144BF04680C6070470000C1
:1001E0000023002400250026103A28BF78C1FBD840
:1001F000520728BF30C148BF0B6070471FB502F0DF
:1002000055FA1FBD10B510BD00F081F81146FFF77B
:10021000F5FF01F0F3FA00F09FF803B4FFF7F2FFE7
:1002200003BC01F042FA0000094880470948004732
:10023000FEE7FEE7FEE7FEE7FEE7FEE7FEE7FEE796
:10024000FEE7FEE704480549054A064B70470000F3
:10025000611200088901000878090020780F002049
:10026000780B0020780B002070474FF00002042923
:10027000C0F0128010F0030C00F01B80CCF1040CD5
:10028000BCF1020F18BF00F8012BA8BF20F8022B09
:10029000A1EB0C0100F00DB85FEAC17C24BF00F8AF
:1002A000012B00F8012B48BF00F8012B70474FF0DD
:1002B000000200B5134694469646203922BFA0E8B6
:1002C0000C50A0E80C50B1F12001BFF4F7AF0907C2
:1002D00028BFA0E80C5048BF0CC05DF804EB8900B3
:1002E00028BF40F8042B08BF704748BF20F8022BF6
:1002F00011F0804F18BF00F8012B7047704770470E
:100300007047000000487047180900207047754684
:10031000FFF7F8FFAE4605006946534620F0070098
:10032000854618B020B5FFF78DFFBDE820404FF09F
:1003300000064FF000074FF000084FF0000B21F0CF
:100340000701AC46ACE8C009ACE8C009ACE8C0099C
:10035000ACE8C0098D46704710B50446AFF3008085
:100360002046BDE81040FFF758BFFEE7704790F801
:100370003510022903D080214165012070470521F5
:1003800080F835100068016821F00101016000204B
:10039000704731B500F0F8F8009C0546601C00D0AD
:1003A000641C00F0F1F8401BA042FAD338BD0000F5
:1003B0002DE9F84FDFF88C91002209F1040A0AF1C7
:1003C000040B4FF00F080BF1040E01260B6896404A
:1003D0003340B34271D14C68022C01D0122C11D1A0
:1003E000D40800EB84073D6A5407E40E08FA04FCC5
:1003F00025EA0C05D1F810C00CFA04FC4CEA050CF7
:10040000C7F820C007685400032591F804C0A54030
:100410000CF0030CAF430CFA04FC4CEA070CC0F8D8
:1004200000C04F68012F05D0022F03D0112F01D03B
:10043000122F11D18768D1F80CC0AF430CFA04FC1D
:100440004CEA070CC0F808C04768B7430E79C6F3FA
:10045000001696403E434660C668AE438D68A54090
:100460003543C5604C68E40065D5374C256845F4D4
:1004700080452560246822F0030504F4804400943C
:10048000324C2E19D6F808789407250F08FA05F48F
:10049000A7432F4CA04201D1002424E02D4CA042C0
:1004A00001D101241FE02C4CA04201D102241AE00A
:1004B0002A4CA04202D1032415E03CE0284CA04283
:1004C00001D104240FE0274CA04201D105240AE009
:1004D000254CA04201D1062405E0244CA04201D1C4
:1004E000072400E00824AC403C43C6F80848D9F88B
:1004F00000404D464E689C43F60300D51C432C60DB
:10050000DAF8004055464E689C43B60300D51C43BC
:100510002C60DBF800405D464E689C43F60200D537
:100520001C432C60DEF8004075464E689C43B602C2
:1005300000D51C432C60521C102AFFF446AFBDE8C6
:10054000F88F0000003C0140443802400030014078
:10055000000002400004024000080240000C02407B
:10056000001002400014024000180240001C02402B
:100570000AB1816170470904FBE700000148006887
:10058000000C7047002004E001480068704700003C
:100590000400002002480168491C01607047000007
:1005A00004000020094810B5016841F400710160A1
:1005B000016841F480610160052000F049F80F20D6
:1005C00000F006F800F018F8002010BD003C0240D2
:1005D00010B5044607484FF47A710068B0FBF1F09B
:1005E00000F000FB00222146501E00F011F8002010
:1005F00010BD000000000020704700F01F02012124
:1006000091404009800000F1E020C0F800117047DF
:10061000F0B40E4B1B68C3F30223C3F10704042C90
:1006200000D904241D1D072D01D2002300E0DB1E8C
:10063000012606FA04F56D1E0D409D409E40761E73
:10064000164045EA0601F0BC00F08ABC0CED00E063
:10065000064A00F0070110684FF6FF03184040EA11
:100660000120034908431060704700000CED00E0D2
:100670000000FA052DE9F047DFF85C9104460E46CC
:10068000D9F8000000F00F01F0B28046B14207D265
:1006900089F80000D9F8000000F00F00B04271D1D5
:1006A00020784E4F800705D53868A16820F0F0000B
:1006B000084338602078C00756D048496068083938
:1006C00001281AD002281BD0032819D009688907ED
:1006D000002957DA396821F0030101433960FFF737
:1006E00053FF0546606841F28831012811D0022885
:1006F0001CD003288A4625D032E009688903E7E741
:1007000009688901E4E7FFF73FFF411B514501D923
:1007100023E08A463868C0F381000128F3D123E042
:10072000FFF732FF411B514501D916E08A46386870
:10073000C0F381000228F3D116E0FFF725FF411B2B
:1007400051450AD83868C0F381000328F5D10BE081
:10075000FFF71AFF411B514502D90320BDE8F0877E
:10076000386810F00C0FF3D1D9F80010484601F0AA
:100770000F01B14208D980F80080006800F00F0036
:10078000B04201D00120E9E72078400705D538685C
:10079000E16820F4E050084338602078000706D56F
:1007A0003868216920F4604040EAC100386000F0F8
:1007B0004BF83968F02292FAA2F201F0F001B2FA95
:1007C00082F2D140064A515CC840064908600F20B9
:1007D000FFF7FEFE0020C1E7003C0240083802405F
:1007E000B62600080000002008480949006809688A
:1007F0004FF4E05292FAA2F201F4E051B2FA82F21E
:10080000D140044A515CC8407047000000000020FD
:1008100008380240C62600080848094900680968E7
:100820004FF4604292FAA2F201F46041B2FA82F20D
:10083000D140044A515CC8407047000000000020CD
:1008400008380240C626000830B51948006810F084
:100850000C01184812D0441004290ED008290DD1DB
:10086000134A121F1168136801F03F015D0247F639
:10087000C07304D5B4FBF1F003E0204630BDB0FBFB
:10088000F1F01168194093FAA3F3B3FA83F3D94056
:10089000484311684FF4403292FAA2F201F4403119
:1008A000B2FA82F2D140491C4900B0FBF1F030BDF0
:1008B000083802400024F4002DE9F84F044600787F
:1008C000DFF8F4A2BD4DC00748D0DAF8001050465A
:1008D000C1F38101012908D00068C0F3810002281A
:1008E0000AD1281D0068400206D52868800335D546
:1008F0006068002870D031E06068B0F5803F10D0AB
:10090000B0F5A02F286810D020F480302860286827
:1009100020F4802028606068A0B1FFF735FE06460D
:100920000CE0286840F48030F4E740F48020286030
:10093000F7E7FFF729FE801B642873D82868800337
:10094000F7D50BE0FFF720FE064604E0FFF71CFE9C
:10095000801B6428F1D828688003F7D42078DFF85A
:10096000608280074FF0010B4FF0000943D5DAF8A1
:100970000010504611F00C0F4FF0F80709D0006836
:10098000C0F3810002280BD18B48001F0068400291
:1009900006D42868800713D5E06801281CD10FE031
:1009A000E068D0B1C8F800B0FFF7EEFD064604E0FD
:1009B000FFF7EAFD801B0228BFD828688007F7D51B
:1009C000286897FAA7F22169B2FA82F220F0F800BB
:1009D0009140084328600EE0EBE0C8F80090FFF774
:1009E000D3FD064604E0FFF7CFFD801B022819D88F
:1009F00028688007F7D42078000722D56E4F714809
:100A000061696C3779B1C0F800B0FFF7BDFD0646EB
:100A100004E0FFF7B9FD801B022803D8386880077F
:100A2000F7D50EE079E0C0F80090FFF7ADFD06467F
:100A300004E0FFF7A9FD801B02286ED83868800704
:100A4000F7D42078400750D55B483830016841F032
:100A50008051016000685C4F00F080500090386861
:100A600040F480703860FFF78FFD064604E0FFF722
:100A70008BFD801B022850D83868C005F7D54E4F33
:100A8000A068683701280FD00528386810D020F0FA
:100A900001003860386820F004003860A068B0B108
:100AA000FFF772FD06460EE0386840F00100F4E7FB
:100AB00040F004003860F7E7FFF766FD811B41F264
:100AC000883081426DD838688007F5D50DE0FFF792
:100AD0005BFD064606E0FFF757FD811B41F28830BB
:100AE00081425ED838688007F5D4A069F0B3DAF89F
:100AF0000010C1F3810102295BD00228484605D0CD
:100B0000C8F86000FFF740FD04464DE04746C8F8CE
:100B10006000FFF739FD064605E042E0FFF734FDCF
:100B2000801B02283DD828688001F7D4D4E907014A
:100B3000084347F6C07292FAA2F2616AB2FA82F2F0
:100B40009140A26A4FF0FF3303EB52024FF440335F
:100B500093FAA3F3B3FA83F39A4011434FF0706210
:100B600092FAA2F20843B2FA82F200E01FE0E16AD0
:100B7000914008431049091F0860C7F860B0FFF7AB
:100B800003FD044604E0FFF7FFFC001B022808D821
:100B900028688001F7D50AE0FFF7F6FC001B022861
:100BA00002D90320BDE8F88F28688001F4D4002022
:100BB000F8E70120F6E7000008380240003802405C
:100BC00000004742800E4742007000404FF0E02195
:100BD0000428086903D020F004000861704740F041
:100BE0000400FAE710B5401EB0F1807F01D3012068
:100BF00010BD4FF0E02460610F21601700F0B0F9E4
:100C00000020A06107202061002010BD704710F86F
:100C1000391F40780843704770B502680446106871
:100C2000D168536910F00F0F50D003F0010501F4A3
:100C3000907635435DD0C20705D0CA0503D5E26B77
:100C400042F00102E263420705D5DA0703D0E26B06
:100C500042F00202E263820705D5DA0703D0E26BB5
:100C600042F00402E263020705D5DA0703D0E26B23
:100C700042F00802E263E26B002A33D0800604D51A
:100C8000880602D5204600F02BFB20684069E16B06
:100C9000C0F38010090700D428B3204600F012FBEF
:100CA0002068416949061AD5416921F04001416136
:100CB000606BA0B11B490165606BFFF758FB002812
:100CC00010D0606B016DBDE870400847830610D5F9
:100CD0008B060ED52046BDE8704000F001BB2046D3
:100CE000FFF794FF70BD2046FFF790FF0020E06300
:100CF00070BD030606D50B0604D52046BDE870403E
:100D000000F08ABC4006F3D54806F1D5D1682046EC
:100D100021F04001D160202184F8391000F0C4F89E
:100D200070BD0000B512000870B5040004D094F83E
:100D30003900002510B106E0012070BD84F838505C
:100D4000204600F023F8242084F839002068C16888
:100D500021F40051C160204600F008FB20680169C1
:100D600021F4904101612068416921F02A0141612B
:100D70002068C16841F40051C160E563202084F817
:100D8000390084F83A00002070BD000010B50068FA
:100D90001A4986B088422FD11948016841F00101F3
:100DA0000160006800F001000590154814300168EA
:100DB00041F0100101600068012100F01000059071
:100DC0004FF4007000900220CDE90101039007204C
:100DD0000C4C049069462046FFF7EAFA2115009171
:100DE00069462046FFF7E4FA2520FFF706FC0322B8
:100DF00011462520FFF70CFC06B010BD0010014085
:100E0000303802400000024090F83A30202B1DD1CB
:100E1000D1B1CAB190F83830012B17D081628285E8
:100E2000C2850021C163222280F83A2080F8381060
:100E300001684A6942F001024A610068C16841F4F0
:100E40009071C160002070470120704702207047F8
:100E500030B50068114988420CD1114A508801040C
:100E600008D41146440409784FF0000306D50A2936
:100E700001D0538030BD40F400400DE00D2909D071
:100E8000C0F30D04074D401C80B229555080C7287F
:100E9000EFD830BD40F48040508030BD001001409C
:100EA0000C000020100000207047FEE730B5144C05
:100EB00087B00020216841F04001216021680125B0
:100EC00001F0400105914FF43851CDE900100320A5
:100ED000CDE9025069460B48FFF76AFA206840F0F6
:100EE000010020602068009500F0010005900220BC
:100EF000029069460448FFF75BFA07B030BD000076
:100F0000303802400018024000000240114810B57D
:100F1000016886B041F02001016000680E4C00F0CD
:100F2000200005904FF4C0600090012001900290D5
:100F30000320039069462046FFF73AFA0122510246
:100F40002046FFF715FB012291022046FFF710FB18
:100F500006B010BD3038024000140240FEE7704772
:100F60000907090E002806DA00F00F0000F1E02062
:100F700080F8141D704700F1E02080F800147047DD
:100F800010B40021084B0A46002003EBC004401CAB
:100F9000C0B262548028F8D3491CC9B20829F3D3DF
:100FA00010BC00F0C7B800001801002070B55C4804
:100FB00086B00026016841F001010160016801F07E
:100FC00001010591016841F002010160016801F031
:100FD00002010591016841F004010160016801F01E
:100FE00004010591016841F008010160016801F008
:100FF00008010591016841F01001016000680124B9
:1010000000F0100005904FF4E050CDE900040220FC
:10101000CDE9024069464348FFF7CAF94FF4405012
:10102000009069464048FFF7C3F94048C0F8B44211
:10103000C0F8B0423E4DC5F8B042C5F8AC42C5F864
:10104000A862642005F52A7500F03AFB2C600021A7
:10105000AE2000F093F80021D52000F08FF8002199
:10106000502000F08BF80021A82000F087F8002124
:101070003F2000F083F80021D32000F07FF800210A
:10108000084600F07BF80021402000F077F80021AE
:101090008D2000F073F80021142000F06FF800217B
:1010A000202000F06BF80021022000F067F80021FA
:1010B000A12000F063F80021C02000F05FF80021BB
:1010C000DA2000F05BF80021122000F057F8002130
:1010D000812000F053F80021EF2000F04FF80021AC
:1010E000D92000F04BF80021F12000F047F8002152
:1010F000DB2000F043F80021302000F03FF8002111
:10110000A42000F03BF80021A62000F037F80021D1
:10111000AF2000F033F8FFF733FF06B070BD0000DA
:101120003038024000040240000C0240008041427E
:101130000080404270B5104E002505F1B000C0B2ED
:10114000002100F01BF80021084600F017F80021EC
:10115000102000F013F8002406EBC4000121405DCC
:1011600000F00CF8641CE4B2802CF5D36D1CEDB2D9
:10117000082DE2D370BD00001801002070B50F4D9E
:10118000C5F8AC120023C5F8B0320D4A1946012447
:10119000C2F8B032060602D5C2F8B44201E0C2F885
:1011A000B432C2F8B0424006491C000EC9B2082948
:1011B000EED3C5F8B042C5F8AC4270BD00804042E5
:1011C000008041427047704770B5214C92B00025B5
:1011D000266846F080562660246804F080541194F6
:1011E0001C4C266846F48046266024680DF1240CC9
:1011F00004F48044119401240094240401940224F2
:1012000006948CE80D006605CDE907616846FFF796
:1012100053FB00B1FEE70CA90F2081E831004FF429
:10122000A0500F904FF48050109005210CA8FFF7AC
:1012300021FA00B1FEE7FFF7A1F941F2010188426E
:1012400004D10548016841F48071016012B070BD9D
:101250004038024000700040003C0240FFF79AB95D
:101260001048016841F4700101600F48016841F0C5
:10127000010101600C4A00210832116002680B4B29
:101280001A400260031D0A4A1A60026822F4802292
:10129000026005480C300160024958068039086038
:1012A0007047000088ED00E000380240FFFFF6FEC6
:1012B0001030002410B5806B0021C185C184FFF778
:1012C000A5FC10BD0168CA6822F49072CA6001686A
:1012D0004A6922F001024A61202180F83A107047E1
:1012E00010B590F83A10222901D0022010BD816873
:1012F000B1F5805F11D00169002901681FD04968EC
:1013000001F07F03816A4A1C82620B70C18D491E05
:101310000904090CC18518D026E00269816A002AF7
:101320000268526805D0D2B20A80816A491C816283
:10133000ECE7C2F308020A80816A891CF7E74A6871
:10134000816A4B1C83620A70E0E70168CA6822F474
:101350009072CA6001684A6922F001024A61202144
:1013600080F83A10FFF774FD002010BD2DE9F04120
:1013700004460068016921F44052E16811430161AB
:101380002068C16849F20C6291432369A268E5694B
:101390001A4363692B431A430A43C26020684169B8
:1013A000A26921F440710A434261E0696425B0F505
:1013B000004F974A974920684FF032083FD0884243
:1013C00001D090427CD1FFF727FA00EBC00101EB7E
:1013D000001061688900B0FBF1F6FFF71DFA00EB21
:1013E000C00101EB001061688900B0FBF1F0B0FBB7
:1013F000F5F06FF01801484306EB800108EB01108F
:10140000B0FBF5F000F0F006FFF706FA00EBC001C4
:1014100001EB001061688900B0FBF1F0B0FBF5F062
:1014200006EB0016FFF7F8F900EBC00101EB001026
:1014300061688900B0FBF1F7FFF7EEF9D2E088426E
:1014400001D090423DD1FFF7E7F900EBC00101EB7D
:10145000001061684900B0FBF1F0B0FBF5F0060147
:10146000FFF7DAF900EBC00101EB001061684900F9
:10147000B0FBF1F7FFF7D0F900EBC00101EB001072
:1014800061684900B0FBF1F0B0FBF5F06FF01801B6
:10149000484307EB800108EBC100B0FBF5F000F01A
:1014A000F80006EB4006FFF7B7F900EBC00101EBCF
:1014B000001061684900B0FBF1F7FFF7ADF93CE0BF
:1014C00055E0FFF791F900EBC00101EB00106168F6
:1014D0004900B0FBF1F0B0FBF5F00601FFF784F92D
:1014E00000EBC00101EB001061684900B0FBF1F7AF
:1014F000FFF77AF900EBC00101EB001061684900C9
:10150000B0FBF1F0B0FBF5F06FF01801484307EBCA
:10151000800108EBC100B0FBF5F000F0F80006EB2D
:101520004006FFF761F900EBC00101EB00106168B4
:101530004900B0FBF1F7FFF757F900EBC00101EBF1
:10154000001061684900B0FBF1F0B0FBF5F06FF0FE
:101550001801484307EB800108EBC100B0FBF5F030
:1015600000F00700216830448860BDE8F081FFF793
:101570003BF900EBC00101EB001061688900B0FB92
:10158000F1F6FFF731F900EBC00101EB00106168E3
:101590008900B0FBF1F0B0FBF5F06FF018014843A3
:1015A00006EB800108EB0110B0FBF5F000F0F0064F
:1015B000FFF71AF900EBC00101EB00106168890028
:1015C000B0FBF1F0B0FBF5F006EB0016FFF70CF9FD
:1015D00000EBC00101EB001061688900B0FBF1F77E
:1015E000FFF702F900EBC00101EB00106168890010
:1015F000B0FBF1F0B0FBF5F06FF01801484307EBDA
:10160000800108EB0110B0FBF5F000F00F00A9E736
:10161000001401400010014090F83910212901D038
:10162000022070478168B1F5805F016A0BD04A1CC7
:101630000262026809785160C18C491E0904090CD4
:10164000C1840ED017E009880268C1F30801516017
:1016500001690029016A02D0491C0162ECE7891C7A
:10166000FBE70168CA6822F08002CA600068C168AE
:1016700041F04001C16000207047000010B50848EB
:10168000FFF7CAFA0648FFF7C2FA2028FAD101226A
:1016900004490348FFF7B8FB0028F8D110BD00004B
:1016A000D80000200C000020FEE7704710B504466B
:1016B0000420FFF78BFA0148046010BD08000020E9
:1016C00070B5054600244FF47A7603E0304600F00A
:1016D00005F8641CAC42F9D370BD000070B54FF042
:1016E000E02500216C69094AAB6912685043AA6978
:1016F0009A42FCD002D2A3EB020302E0A4EB020662
:101700003344194413468142F1D370BD08000020D0
:1017100010B50446012100F0C2F90021204600F076
:10172000BBF92849204600F0A7F927A3142200217D
:10173000204600F041F90121204600F0ADF923498F
:10174000204600F099F922A308221521204600F036
:1017500033F90021204600F09FF91A49204600F095
:101760008BF91CA31E223321204600F025F91AA371
:101770001E224321204600F01FF92F23232202219D
:10178000204600F0BDF82F2324220321204600F03C
:10179000B7F80C2320222D21204600F015F90C2348
:1017A00021222E21204600F00FF90C49204600F09E
:1017B00063F920463622BDE8104009A3012100F05C
:1017C000FBB80000AC290008550000002B4C0008B5
:1017D0003800000067000000B2000000CE260008BC
:1017E0006769746875622E636F6D2F6F6C696B72B9
:1017F0006175732F7538673200000000A6B0FEF7E0
:10180000D1FE0723022208214FF4A870FFF7DCFC69
:10181000A820FFF74BFF4FF4E13000F02BFFFFF75C
:1018200075FBFFF7C3FBFFF741FB684600F00CF8C0
:10183000684600F0CFF86846FFF76AFF684600F098
:10184000EEF80028F7D1F3E710B50446084B094A33
:10185000094900F05DF9204600F0A0FC0021204677
:1018600000F0ACFC2046BDE8104000F007B80000D6
:10187000CD25000833220008504F0008016890F879
:101880003820097C12FB01F1C900406BFEF7EDBC6A
:101890002DE9F041044690F870001F4615460E46AB
:1018A00030B1012809D002280CD0032815D10FE04F
:1018B000E16D20468847284408E0E16D20468847CE
:1018C000301A09E0E16D20468847281A85B204E005
:1018D000E16D20468847304486B22846A4F864600B
:1018E000A4F8660039460025204600F000FB010000
:1018F00003D0204600F02DFA85B22846BDE8F081DD
:1019000038B50024009400F001F838BD3FB581B02F
:10191000044690F88C000899002839D0BDF81000D2
:10192000002835D0012811D9022902D0032907D077
:101930000CE0BDF80820101A401CADF8080005E0C6
:10194000BDF80C20101A401CADF80C0011F0010578
:1019500020D0B4F84810BDF80800814218D8B4F877
:101960004A10814214D9B4F84E30B4F84C2004A97E
:1019700003A800F065F900280AD00095206BBDF897
:101980001030BDF80C208568BDF808102046A84727
:1019900005B030BDB4F84C10BDF80C008142F7D84A
:1019A000B4F84E108142F3D9B4F84A30B4F8482064
:1019B00004A902A8DDE7000030B4024C446030BC4A
:1019C00000F06BB92522000838B501240094FFF718
:1019D0009DFF38BD10B590F89310044609B1FFF78C
:1019E0004DFF2046BDE81040002100F037B870B52B
:1019F0000D461E460446B0F84E10B0F84C00049B4D
:101A000000F0D2FA002809D0B4F84A10B4F848001F
:101A100033462A46BDE8704000F0C6BA70BD70B5C6
:101A2000044600F050FB94F8390094F8381008444C
:101A3000C5B22068407CA84204D8204600F0B6FB1E
:101A4000002070BD94F8930010B12046FFF716FFF8
:101A50002946204600F002F8012070BD10B504466A
:101A600080F83910006B016820468847206B416878
:101A70002046BDE81040084710B50446806D8842F6
:101A800009D004F17400A16500F0E8FA2046BDE831
:101A9000104000F059B810BD80F87010704780F801
:101AA0006D1070470149C16570470000071D0008AF
:101AB0000021A0F85010A0F854104FF6FF71A0F8C4
:101AC0005210A0F85610016B4968084770B50446DB
:101AD00000250498A565E362616384F8382084F8E2
:101AE000395084F86D5084F89150012184F8921097
:101AF00084F8931020630168204688472046FFF74A
:101B0000D7FF2046FFF7CEFF84F8705070BD00006D
:101B10007CB50C46009313460546084A084900F078
:101B200055FB01A800F094FA0146064B00949DF87D
:101B300004202846FFF7CAFF7CBD000047230008A9
:101B4000B9240008C11F000810B5816D00291AD002
:101B500090F9813080F88E3090F9822080F88F20C3
:101B600090F88D1000290ED001290DD090F97E40FB
:101B700090F980100C449C4201DD80F88E408A422E
:101B800001DD80F88F1010BD90F983108B4201DACF
:101B900080F88E1090F98410F1E72BB1012B05D05D
:101BA000022B05D0104404E0084402E0801A00E053
:101BB000401A80B270472BB1012B05D0022B05D003
:101BC000401A04E0104402E0084400E0801A80B2A9
:101BD000704738B50446B0F856000090B4F852305B
:101BE000B4F85420B4F850102046FFF700FF18B3A3
:101BF000012084F88C00B4F84810B4F850008142F9
:101C000001D2A4F84800B4F84A10B4F85200814256
:101C100001D9A4F84A00B4F84C10B4F85400814239
:101C200001D2A4F84C00B4F84E10B4F8560081422A
:101C300001D9A4F84E0038BD002084F88C0038BDCE
:101C400030B504880D882544ADB2AC4205D99C421C
:101C500002D25D1EADB200E014469C4201D2954214
:101C600001D8002030BD944200D214469D4200D9D4
:101C70001D460480281B0880012030BD38B5C58F63
:101C8000049C0094521BC46A92B2A04738BD38B578
:101C9000049C0094FFF7F2FF38BD2DE9F0471E4683
:101CA00014460D46804600F0E1FC00274FF6FF7910
:101CB000D8F80420317840469047034648451FD065
:101CC000761CA3F57F40FE38F2D0224629464046D6
:101CD000FFF7DEFD98F8701031B1012906D0022916
:101CE00006D0032909D106E0291802E0211803E0F3
:101CF000291A8DB201E0211A8CB2384487B2D7E795
:101D00003846BDE8F0870020704710B50C4600F05B
:101D100006F80122641EA240801A40B210BD30B500
:101D20000568047B2B78E3406218D2B2082A09D3F5
:101D30006D1C05602D78C4F10804A5401D43083AC8
:101D4000EBB2D2B201248C40641E1C4002732046C8
:101D500030BD2DE9F843054600F1600400F00AF9B2
:101D600015F96B6F2046E97BFFF7CFFF8146297C91
:101D70002046FFF7CAFF0746697C20466B3DFFF708
:101D8000C4FF804694F90A00002856DDF01940424D
:101D900042B2237C1746A0884946FFF7FEFEA0808A
:101DA000237C3A46E0884946FFF705FFE080A1889A
:101DB000277C02460B4637B1012F0AD0022F3FD0B5
:101DC000032F0FD145E094F90A7030443B449BB295
:101DD00007E0891B491C94F90A705B1C89B29BB20D
:101DE000384480B200902846FFF701FE28B3002057
:101DF0002072607295F876102046FFF790FF8146BA
:101E000095F877102046FFF78AFF074600224946DB
:101E1000284600F027F801223946284600F022F82B
:101E200001212046FFF77BFF0028EFD194F909003C
:101E3000B042DFDBA07B85F892004046BDE8F88326
:101E400094F90A705B1CC91B491C89B29BB2921B96
:101E500004E094F90A7033449BB2D21B521C92B234
:101E6000401CBEE72DE9F74F00F1600490F8688050
:101E7000677A84B00D468146A07AA0EB0800C6B20E
:101E8000B246B54200D2AA46A088E1880291237CDE
:101E90007AB24FFA88F18B460092FFF77EFE0190EE
:101EA000237C5946009A0298FFF785FE0246069861
:101EB00008B1A17B02E0607B48B9E17B89F8921010
:101EC000207C0090534648460199FFF71FFDB5421C
:101ED00006D3A81B7F1CC5B24FF00008FFB2CBE7AA
:101EE00008EB05002072677207B0BDE8F08F70B58F
:101EF0000D460146806D1730FF2D10D8612D02D39D
:101F0000B1F8881003E0412D02D3B1F886100844DF
:101F1000417819B30278AA42F9D1801C70BDB1F89A
:101F20008A100C1826460021304600F019F80444A7
:101F30000221304600F014F8361DA842F3D34FF6C4
:101F4000FF72207802EA00216078084306D0A84298
:101F500001D1E01C70BDA0780444F2E7002070BD00
:101F600008444FF6FF720178407802EA01210844E4
:101F700080B2704730B5054600F16004016600206C
:101F8000207315F8781F2046FFF7C9FEA072697804
:101F90002046FFF7C4FEE072A87EA07310B10020B7
:101FA000E07330BD0120FBE78A4205D2834201D8AD
:101FB0009A4203D9012070478342F9D80020704724
:101FC000F0B502F007060124B440002590F892E035
:101FD000E7B2DDF814C02C46BEF1010F01D83D4632
:101FE00000D03C46076822F00702BCF1000F3F7C9E
:101FF00007FB02F7426BBFB23A44114409D108789B
:102000005B1E284360401B0401F8010B1B0CF6D13A
:10201000F0BD0A78761C2A436240A3F101030A70DE
:1020200016F007069BB206D06A06150E6206140E5D
:10203000002BEED1F0BD428F114490F89220012A7E
:1020400002D84FF00105F3D04FF00104F0E7000093
:1020500008210170004870471805002070B504463B
:1020600008782070487860708878A070C878E07030
:10207000087920714879607188790D46A071E879F6
:10208000E071287A2072687A6072A87AA072E87A81
:10209000E072287B2073687B6073A87BA073E87B69
:1020A000E073287C207411212846FFF759FF6082D5
:1020B00013212846FFF754FFA08215212846FFF779
:1020C0004FFFE08270BD2DE9F843074690F8389045
:1020D00090F83950006800244FF6FF78467C396844
:1020E00038462A460B7C796B04FB03FC1FFA8CFCF8
:1020F00008EACC0C61440091002100F040F8641C17
:102100006D1CE4B2EDB24C4501D2B542E7D3BDE857
:10211000F883F0B590F838204FF6FF76016806EAAC
:10212000C20383870B7C06EAC303438790F83930E8
:1021300006EAC304C4874D7C9F18AF4201D9EA1A4E
:1021400092B206EAC20220F8404F224442808A8AB4
:102150008280C98AC180F0BDFFF7DBBF0021A0F8F3
:102160004810B0F84410A0F84A10B0F84010A0F899
:102170004C10B0F84210A0F84E10FFF72ABD1CB565
:102180008DF805108DF80620049C8DF8043000941D
:10219000012284686B460F21A0471CBD30B48468BF
:1021A0000023A44630BC1A460A21604730B4846834
:1021B0000023A44630BC1A461021604730B484681E
:1021C0000023A4460A4630BC0B2160472DE9F041AC
:1021D00016460D460446069F00F00AF86761A560A2
:1021E000C4E903632046BDE8F04100F013B80000E5
:1021F000002140F8081B064A026042608260C2600B
:10220000C17681770161FF21017780F82010704746
:10221000BD25000830B484680023A44630BC1A46AB
:1022200009216047080001D00A2801D14FF6FF704C
:1022300070472DE9F0470446006890461829027B54
:1022400002F00109C9F1010A4FD004DC14293BD086
:10225000172904D106E0192955D020293FD00020A4
:10226000BDE8F0871F462BE017F8016BA8F10100CD
:1022700000F0FF080025300601D5012200E0002211
:102280004121204600F09CF97006060E524640217E
:10229000204600F095F920682C218279204600F034
:1022A0008FF94A464021204600F08AF920682C2107
:1022B000C279204600F084F96D1CEDB2082DDAD306
:1022C000B8F1000FD0D11CE042784921204600F03F
:1022D00077F920684021007B00F0010201E04246CE
:1022E0004A21204600F06CF90BE002784921204693
:1022F00000F066F920680023656982782C21204669
:10230000A8470120ACE7C278002365692C2120464C
:10231000A847206849214278E3E713B501AA0121C3
:1023200000F001F81CBD30B404691346A4460A4607
:1023300030BC1721604730B404690023A4460A4624
:1023400030BC202160472DE9F0410446A1F1140082
:102350001F4616460D4606281CD2DFE800F0120381
:10236000030E121200212046FFF7E5FF31462046FA
:10237000FFF7D3FF0120BDE8F08101212046FFF7E0
:10238000DAFF3B46324629462046D4F810C0BDE865
:10239000F04160470020EEE730B4C4680023A44653
:1023A00030BC1A461921604730B4C4680023A446E3
:1023B0000A4630BC1621604730B4C4680023A446E6
:1023C0000A4630BC1521604730B4C4681346A446A1
:1023D0000A4630BC17216047F8B50C46054614F88C
:1023E000011B182924D00EDC152919D0162917D065
:1023F000172923D120788DF800006A46012128464C
:10240000FFF7E2FF0AE0192912D0FE2916D122783F
:102410008DF800202921284600F0D2F8641CDEE760
:1024200022788DF80020EE6800232846B047F5E7B3
:102430000023EE681A462846B047D0E7F8BD30B40E
:10244000C4680023A44630BC1A461821604770B502
:102450000023456904461A462821A8470023E56859
:102460001A4614212046A84701224B21204600F09D
:10247000A7F8206829210279204600F0A1F800225F
:102480004B21204600F09CF8206829210279204643
:1024900000F096F801224B21204600F091F82068C8
:1024A000292142792046BDE8704000F089B80160DA
:1024B000897C80F82210704770B50C46054600F004
:1024C00019F888B9092C0BD00A2C01D0002070BD56
:1024D0002846FFF7BCFF05492846FFF77DFF03E0CC
:1024E00003492846FFF7E3FF012070BD824F000833
:1024F000845000082DE9F0411E46144605460B297C
:1025000008D00D290ED00E291DD00F2926D000206D
:10251000BDE8F0811AB12849FFF75EFF49E026497E
:10252000491FF9E742B124490C31FFF755FF2868EC
:10253000C07C85F822003CE01F49491DFFF74CFF95
:102540002868807CF5E7FFF77AFF81212846FFF7AE
:1025500033FF21462846FFF727FF27E0FFF76FFFED
:10256000707995F8221001EBC000C7B240212846CF
:10257000FFF722FF102040EA17112846FFF71CFF43
:1025800007F00F012846FFF70FFFB07940F0B001C8
:102590002846FFF709FF30793268C006010E284649
:1025A000FFF712FF641E14F0FF04F4D12846FFF772
:1025B000F3FE0120ACE70000614F000800207047E7
:1025C00030B444690023A44630BC6047104610B5BF
:1025D000244A41290FD006DC28291ED029291FD0E2
:1025E00040293DD110E0204A49291CD04A2925D054
:1025F0004B2935D12BE00028106802D040F4005060
:102600002DE020F400502AE00028106802D040F4A9
:10261000805024E020F4805021E0FEF7C7FC012028
:10262000FDF7B7FE1CE00028106803D040F480508E
:10263000106004E020F48050106004E018B11068CD
:1026400040F400600BE0106820F4006007E0002810
:10265000106802D040F4806001E020F480601060D7
:10266000012010BD140C024014040240002180F827
:10267000261070470B4910B5094AC1E90020002017
:102680008860C860086188610C2048610846FEF7D0
:102690004BFBBDE81040012203490248FEF7B4BBE2
:1026A00000100140D80000200C0000204FF04070C6
:1026B000E1EE100A70470000000000000000010277
:1026C00003040607080900000000010203045F007C
:1026D00002020303020404040600FF05FF05FF00D5
:1026E000EE01DC02C1200580CD002106E9C8AC0066
:1026F000220693CB2415230AACC8A434541A2A0109
:102700002409B3C7A5A1C148092508ABC864D446AC
:10271000012609ACC8C514AB98022705D1CB0828FF
:1027200007F2C7A966002908B2C7C45429002A07BE
:10273000ABC8A46A352B08ABC8C5B462022C06929C
:10274000C729002D058BCA0C2E05C9C8042F07AB5D
:10275000C85665043008ABC8554355003107ABC8AF
:1027600025590D3207ABC835531A3308ABC8CC9482
:10277000C1023408ABC8243562013508ABC88CA847
:10278000C1023607ABC84DD5023708ABC8CC54469A
:10279000003807ABC8ADD6023907ABC8B5E4023A7A
:1027A00006E1C8C4003B07AAC765A8003C08ABC83F
:1027B000A61A64103D069BC96C303E09ABC86490F4
:1027C000412A013F09ABC86890324C004007ABC8B2
:1027D0002D1B084108ABC85543A9004208ABC8A847
:1027E000B4D2024308ABC8553255004408ABC8A860
:1027F000642D004508ABC88CA8E2004608ABC88C25
:10280000A862044708ABC8CDA492004808ABC8240E
:1028100035940A4907ABC8AC580D4A07ABC896AA0D
:10282000024B08ABC824B5920A4C07ABC8C4E600FB
:102830004D08ABC8A431940A4E08ABC8AAA1240025
:102840004F07ABC85556055008ABC8A8B462045131
:1028500008B3C755560D025208ABC8A8B4920A5324
:1028600008ABC86D90C1025407ABC8ACD80255077D
:10287000ABC824D7085608ABC8246BA4045708ABD0
:10288000C82435860A5808ABC824D552015908AB6C
:10289000C8245556005A07ABC8CC540E5B06EAC88C
:1028A000AC4A5C09ABC8C40C3288015D06AAC8A852
:1028B0006A5E0593CB355F058BC70C6006D2CBC42F
:1028C000006107A3C82D95046208ABC84495D402E3
:1028D0006307A3C8CD0C046408ABC8A6A592006525
:1028E00006A3C855536608ABC8A6B462026708AB16
:1028F000C7AD2417006808ABC84495AC006908ABA5
:10290000C86524D3006A08B3C766582E006B08ABAD
:10291000C8C4B4920A6C07ABC8C8D6006D08A3C877
:10292000A4A154006E07A3C8A864056F07A3C855E7
:10293000AA027008ABC7A8B462047108ABC72D9592
:1029400064007208A3C8A41523007308A3C88D0CE3
:1029500016007408ABC8A51533087507A3C8242B47
:10296000097607A3C824AB027708A3C8243554000E
:102970007807A3C8A432157908ABC72495E4027A76
:1029800007A3C8CC94067B08B3C7A6246B107C06AB
:10299000E9C80C017D09B3C76410554C117E07943A
:1029A000CB25950000000004FFFF0000BF020504D6
:1029B0000506010406152600F918FA19F904E20AB9
:1029C000AF2262200BD51CF587FFFF7F170021196E
:1029D000D51CF587532316588BF417879CFB0011E1
:1029E000689E0D920F2F002224D51CF58743A288E4
:1029F0004506516410450651641045065164104562
:102A0000065164104506F9F0FF13002343D51CF569
:102A100087EB838C3506596390350659638C45C620
:102A2000380F8CF1C018171A83AC31C81A83AC3137
:102A3000C62263A007C478608C07C61964AC31C88D
:102A40001A83AC31061B632C32C622637C78243B8C
:102A5000D51CF5875B2412689A520C91900C114496
:102A600088430411011141560984654D6B8925463F
:102A700042594490450431811041CA182490F240D3
:102A8000302EAD5622F56114002541D51CF587DBAB
:102A9000E410720A298810A204294490500A1124D3
:102AA00010E3100A049D4016110412582015956A6F
:102AB000A81D344821810C524820831022C820844C
:102AC0008C4448398598F2E136002641D51CF587BB
:102AD000EBE521A654114411421221241142122186
:102AE000631141186AC799861A09848842061145FC
:102AF00090420219A42042CC21E494428C3145A496
:102B0000F280286990534CF8701B002710D51CF5F3
:102B1000875B4292487F1FFE7F06002823D51CF565
:102B2000877B2396675C793548450A92487F9244B3
:102B3000124B24B18A241A686289448A020029252A
:102B4000D51CF587BD210BB46215492C914812297B
:102B500049227D90440A125820058BB35E8143863A
:102B60000F0E002A29D51CF5879F2591B6C6204354
:102B700098128628E40161DC2AD038C488208A0CA7
:102B8000920A218898A1C2111F7E14002B18D51C0F
:102B9000F5875F2091BEF580200F08F2805024D287
:102BA000F7E177012C15D51CF587FFFF9D110B343C
:102BB000CFC012499C228963012D0ED51CF587FFD9
:102BC000CD67BE0FFF97002E11D51CF587FFFF22A2
:102BD00081E659907CB805002F29D51CF5878381A3
:102BE0008E484112491C91C411294822812412485F
:102BF000228124124822812412482281448E0FDB34
:102C0000003044D51CF587078A4B6B25134A228573
:102C10001C628A21A618524C21C614524620849068
:102C2000210821630C42C81883102206A1C22884FF
:102C30001C434A31C414434C31E49042900926AD00
:102C4000955CF9F0003116D51CF58717C8330D2DAA
:102C5000C548202C1012E9FFBF0F0F3221D51CF5FB
:102C600087F3C625C55211E61043904024D220892F
:102C700004D25E05E9E250C1FC3E9C063328D51C17
:102C8000F587F3C525C55211260953220D927618F2
:102C90006AA8A558451A0A889C61C831C220A65462
:102CA000331F5E00342FD51CF587474624B07AC603
:102CB0005D6D04C248206C08B2C6206B0CA20621D0
:102CC0008910924621E881501E08E581E048A4F76A
:102CD000E13A003525D51CF587D3EE788744BAB89C
:102CE000144B0D9152CE3844924867C621861C621F
:102CF0004E38A7A5D5CC87073635D51CF587078A6A
:102D00004B6B25130A2A45241247A482510D3564C2
:102D10004639A59043197288218718728821873215
:102D2000E49042521125AD955CF9F002003721D5AF
:102D30001CF587D3EE7871441247A4E288248E48AC
:102D4000C511A938220549A42089E4C323003839D4
:102D5000D51CF587F3A629C552110591520E31E411
:102D600010430E31041142521164A5861809451111
:102D7000421031141A86205208228520528A21C717
:102D800008839852CD7C783935D51CF587F3C5A5D5
:102D9000B592092591420E31E450861C62C8218605
:102DA0001C624A29A70C731C6ACA0412A93822495A
:102DB000A2905482416CA5663E3C01003A16D51C97
:102DC000F587FF1A81E659907C788940F32C483EBC
:102DD000DC023B1CD51CF587FF1A81E659907C78F4
:102DE00069C402CD33B04412A748E29881013C1B6C
:102DF000D51CF5879F0A72C0E20EBBE70A34F08249
:102E000006DE6089648A0F0F023D1BD51CF587BF63
:102E1000FD80200F08F280F830F880200F08F28043
:102E2000F8F02F023E19D51CF5872F073A6481E888
:102E3000E17B5633EDB03B671E89E2C3073F25D5E2
:102E40001CF58753A529C59011E610439040040551
:102E5000442205092CAF8254A43E240934CF82E4D5
:102E6000C3034043D51CF587074C538A2123CAA1CD
:102E70000A49A30C83C8206A0CB2C6184690314494
:102E800021640C410A19439042C6108494314609CA
:102E90006610C1C8188B9051022144967804494CA1
:102EA0002D763E5C074138D51CF58717C21C728A07
:102EB000051668DC08C38D301A09848D31D8184492
:102EC0009141D4284331D4903BE310430E31231178
:102ED000421221449131161164910F9701423AD563
:102EE0001CF587CB4B35E40E21C790530A41A41043
:102EF000440A41A490430C21C7B8D3D033E4944290
:102F0000102924114212212411421221049142CA93
:102F100029CFB8C33E9C07432AD51CF587078A539F
:102F2000A99D238C29869482082149180249A49FCF
:102F30002491C482C429869823CC694A35F3E13CA4
:102F400000443ED51CF587CB4B35E40E21C710530A
:102F50000C39A510440A41A49044084984904408BF
:102F60004984904408498490440849A310440A4184
:102F7000A490430C31C510624E432CA90F2F00457D
:102F800022D51CF587CB0F84F240280F8442227D86
:102F9000D11DEF9048BFF840280F84F240F8701A16
:102FA000004616D51CF587D3CF7C8644FA62431DB4
:102FB0002291FEFBF00C004732D51CF587078A4BA7
:102FC000AA1D33CAA10A41C39014CE88F40A22A4D0
:102FD00020420A2224114212290491421031E410A5
:102FE0007384392EA9663E9C074846D51CF587CBCD
:102FF000049142102904914210290491421029049D
:103000009142102904914210290F84F240280F8424
:10301000421029049142102904914210290491423E
:103020001029049142102904914210F9701A0049A4
:1030300013D51CF587D30D758D44FAFFC71AEA3EE8
:103040001C074A1CD51CF587EB2C718D44FAFF54E4
:1030500030240D52501145AD955CF9F006004B41FE
:10306000D51CF587C30415421029E410431D5208EE
:10307000228424328822A22812CA228130D4124B00
:103080008C08B2C8208A8C9208218914824829872A
:103090009862C821869C52082A8424F2E134004CAC
:1030A00011D51CF587CB24D2FFFFC567BE0FB70132
:1030B0004D4ED51CF587C3630D4212212411524E8B
:1030C00021E514628A21A61872C621671C42C21427
:1030D0000821610A84105104214414410819631025
:1030E00042C6188410120895082189109208218977
:1030F000109208218910920821897C380D004E4DCC
:10310000D51CF587CB0491421029E590520E29C6B3
:1031100090720A29A790820829240C420A09649017
:1031200042C418A4104115328620850C124821642F
:10313000045208418594538831851853C829859CC9
:10314000520822852052481A1F4E034F3BD51CF5CA
:1031500087F3A629C59011E610432152082284283E
:103160003288228328328822832832882283283298
:103170008822832842861A8520520822863A4618D9
:10318000C4946AE6C3035029D51CF587CB2C35E4DB
:103190000E29C690530A41A410440A41A410440ABF
:1031A00039A59062CC33EEB04422FDFBF00E005105
:1031B00043D51CF587F3A629C59011E610530A41A3
:1031C000A41044CA50641045065164104506516469
:1031D0001045065164104506516410450841A4107D
:1031E000440C3115298829D50E1C92C4D4903B1F5C
:1031F0003800523ED51CF587CB2C35E40E21C79004
:10320000530A41A410440A41A410440A39C49062EC
:103210008C3B0DB14408498490440A41A410440CED
:1032200039C414430E31E49442102904950F9701D8
:10323000532FD51CF587074C53A921238C21671CDC
:1032400082C4219148120D440FBD038DA422314147
:1032500091221429039172C4310E31763E9C075499
:1032600016D51CF587C30F08F280200F884522FD74
:10327000FFDF8717005542D51CF587CB241142127A
:10328000212411421221241142122124114212211F
:10329000241142122124114212212411421221240C
:1032A0001142122124114212210495420E316698D6
:1032B000D3D262E7C37900563BD51CF587C344914E
:1032C000411419448D421029041133D038E48C4341
:1032D0000C41C38C44CA48841035C858648C4504DA
:1032E00061438C46C268C899674112891C527C7838
:1032F00002005752D51CF587BB848D31D818A3889E
:1033000032C628838C41C834283206354619A38832
:1033100051C6286294218C188504234621615648A1
:10332000106284618C18411C23CC31A39C42CA29B1
:10333000A49C420A1A66A461461A66A46146124811
:103340007C380E005839D51CF587C32491421031C2
:10335000D4216624424822642C22C8228134E4CC41
:103360003390C0028D430D3122C822822842482268
:1033700084206228440A418410453E5C065929D5C0
:103380001CF587C344914112290491420E65C8215E
:103390008524424822642C22C8226234D4CE33AF22
:1033A00044FAEFC30B005A2ED51CF587CB0F84F2DD
:1033B00040280F04482281542490C41109249140CC
:1033C0002A1248E28804923858200F08F280200F11
:1033D000880F97015B14D51CF5873B2C718944FA43
:1033E000FFFF224BDC870A005C2BD51CF587BD1143
:1033F000892491481289249148128924914812897C
:1034000024914812891C92C8214924924422870C95
:103410001F0E015D12D51CF5872B0D7591FEFF7FE8
:10342000A8F72103005E20D51CF58717842491405E
:10343000E3501B813022C81A642842082266A87013
:10344000C287FF87015F13D51CF587FFFF671F1831
:10345000E381311E181F1A00601AD51CF5873B81C5
:103460008A29E690249258C112899CE690E2C3FF13
:103470004100612AD51CF5877FE1B0951A2AC2A4C4
:103480008048A4123BCE3C530C290491424E29C4DF
:1034900098620432EFB85406F9701A006233D51CF2
:1034A000F5872324D24F14D5903B4718530C754A07
:1034B0002188148248218814824821881482482156
:1034C0008798628831C318774648688CF2E10163B7
:1034D00021D51CF5877FC234A51832C298622824F2
:1034E0000C89F42489E5087444412DA9663E9C07A3
:1034F0006435D51CF5878324D2A78A20A81D678C44
:1035000038869852082285205208228520520822A7
:103510008520520822A51C628829C688731C6AAAC5
:1035200008F2E13400652CD51CF5877FC134A5581D
:103530002AC21C62C81988148248792094074279EB
:10354000201412492C91A0908C30A729D5CC87F358
:1035500000661CD51CF58763A629C55211051123E9
:103560001289546BA86324D2FFFBF006006736D59E
:103570001CF5877FA090715E79201442CA216620D5
:1035800062C821861C520A2AA224A6944A8BC4022D
:103590001D72E7158208218910920839C39877D8DF
:1035A000421D006836D51CF5872B24D26F94440247
:1035B00042EEA0508E29C414431D62C821861C62AD
:1035C000C821861C62C821861C62C821861C62C86C
:1035D00021861C62C8211F4E036919D51CF587532B
:1035E0004312582289E3838C1A16E9FF1A4BDC87B1
:1035F000E3006A1FD51CF58773231658C5F1815562
:103600004B8BF4FF53C190244A414594B45672E663
:10361000036B35D51CF5872324D2EF94424C31A49B
:10362000944348416410450459241096B112C822AD
:103630008328324A22A42052CA21861C628A21A7EA
:103640001482CA87CB006C12D51CF5872B89659133
:10365000FEFFC7DCF13EDC066D1DD51CF5873F4D36
:103660000219A43C20C8036394604219F4FFFFFFD1
:10367000FFDF87CB006E35D51CF587BF4D4649244B
:1036800020E40E0AE598424C31D421861C62C82100
:10369000861C62C821861C62C821861C62C82186DD
:1036A0001C62C821861CF2E136006F30D51CF587FC
:1036B0007FA1B8B41832C19C528A21871492082184
:1036C000891092082189109208218914728829860C
:1036D0001C134C622AB9F2E105007034D51CF58741
:1036E000BF4D44510DB9738431C550A71482482190
:1036F0008814824821881482482188147288298677
:1037000098238C71A721228A2291DE07050071334C
:10371000D51CF5877FA00882DA71C6886388298561
:103720002052082285205208228520520822852016
:1037300062C8218698628C38C7A1A68A2091BE0CE7
:1037400000721CD51CF587BF4E464924A4F34C0AD1
:10375000E418234E81059248FF7D7805007327D534
:103760001CF5877FE1B095DA31E21872C62128A0F6
:1037700012CF530E41138B118998814839C21C878F
:10378000D83A1F1E741DD51CF58757492471C8A946
:10379000B9E32D12E9BF22940964AD959AF9701C22
:1037A000007535D51CF587BF4D0E31E410430E3141
:1037B000E410430E31E410430E31E410430E31E4C3
:1037C00010430E31E410430E31A59463C2390E3517
:1037D0005504F9701B007630D51CF5873F5DD22863
:1037E000248D421031038D43CE38C41044CA48A4FE
:1037F0000C35C858648C450461248C869C79E69508
:1038000048E2F8F004007743D51CF587BF4C161941
:103810006391318A20640C42066D0C420619A38C18
:1038200051C428431831CA10468C428208438C4246
:103830008210230C63843946985386398594534803
:1038400041849034CCF8701C00782FD51CF587BFCC
:103850004D1029C590430A49841045045924907697
:103860009E790516681C6244104506518410440C6C
:10387000754A21887C380D007939D51CF587BF4DF4
:1038800012210491421031E41043CE40C31044CAC7
:10389000508310450651640C460261240C37C270F7
:1038A000E715582089D40A84AC21CA4A0CBDF2C15C
:1038B000007A1DD51CF5873FFECC07E9607915A479
:1038C000C1F2CA7B2094074279207C380D007B200E
:1038D000D51CF587270E4B4B29F348A40F12775CB4
:1038E000812616392489F417CF532C3594017C0E88
:1038F000D51CF5875324D2FFFFFFE7017D21D51C9E
:10390000F587D3C725A6609124D227493CB03CE374
:10391000082491FE607166A995D8F920007E17D51C
:103920001CF5877FF314515628E3015106418F7C23
:10393000F87F0200A00BD51CF587FFFF7F1700A1C1
:1039400018D51CF58753049A6783E40334E414E91B
:103950001FAC17C7872700A240D51CF5873748241E
:1039600071C8018B4BAA9D129029828461C81823CB
:103970001842C6088690A108198A90A1C8208A0C0E
:10398000A2C8188C8841C229610C815028A8A5C5FD
:103990008E1B72F6610100A32BD51CF587078A4B9D
:1039A0006B2513482A252812299858E68824912E39
:1039B0008E48E031C1AC30CA038214A14A40E5C34D
:1039C0007100A429D51CF5878F8B24CE3B2DAD54D7
:1039D0000649E30C34CE40E30C440A492594D4CE86
:1039E000334314314E50E2C3BF0900A52FD51CF557
:1039F00087C344114210290411431D6246228424C6
:103A000042C6228230124643CE3C030973C7632468
:103A100012E68EC748A43EBC0000A611D51CF5874F
:103A20005324D2FFF7012791FE9F07A73AD51CF533
:103A3000874BA629C55211E610331031229158A2A6
:103A400081A82935C4418498430C39C49063084146
:103A50004CA986A0892512240E39C3147344414D04
:103A6000A9663EE401A818D51CF587C541862AA29F
:103A7000A4224A2AA2A841C687FFFF1500A948D55B
:103A80001CF5875F284E29864829860413082101E2
:103A900005324650618811081961881146196284FF
:103AA000498D30A9112635C208848831C2105418B6
:103AB000630415C618020542C620829462C8694A8A
:103AC00035F3E13C00AA25D51CF587F3C621A6985D
:103AD000208385421A5A4AAD440849A39044464976
:103AE0004C2D96BA3BDE87BF0E00AB2ED51CF5875A
:103AF000FF5A30810D32541124154112192491417D
:103B0000121944155154114515515411451541D6FA
:103B1000208305133E7C0800AC10D51CF587FF4BB5
:103B2000EE7891DE873F0400AD0ED51CF587FFCD02
:103B300067BE0FFF9700AE47D51CF5875F284E295B
:103B40008648294609424648810C21C618624646E5
:103B500018621A448C30441A230C91C60843203250
:103B6000C210131981843186186384318618E3905A
:103B7000430822C50C739A52CD7C380F00AF0ED586
:103B80001CF587E34B6D1FFEFF4700B01CD51CF5ED
:103B900087F3A625A654112511421221241551940C
:103BA00062C8950FFF1F04B120D51CF5876F91489F
:103BB0006F3D20C803823C201489F4FBC03E20C81E
:103BC00003823C203E5C06B21ED51CF5874BC5A582
:103BD000B51419448D32E4880492573D0209648972
:103BE000FBF0BF0A00B321D51CF5874BC5A5B5D6A0
:103BF00020430E779C794712399430231142D25AD0
:103C0000C9950FFFCB00B414D51CF5878930492422
:103C1000B0402A8E293EFCFFEB00B53BD51CF58752
:103C20003F4D0E31E410430E31E410430E31E410E9
:103C3000430E31E410430E31E410430E31E41043DF
:103C40000E31A51421C4094B3C40C41246506410E7
:103C500012E97D6000B64CD51CF5874B0BB5E38CA3
:103C600012A32C31CA12A32C31CA12A32C318C12EC
:103C7000C328314E1203213194118311311811835D
:103C80001131181183113118118311311811831159
:103C900031181183113118118311311811E34319AF
:103CA00000B711D51CF587FF0D02CDB320F9F0BF89
:103CB0000C00B813D51CF587FFFF0F8849626163BC
:103CC0000C965C4100B913D51CF5875B031677B9D8
:103CD00030869CFF3EFC2F03BA2AD51CF587078A45
:103CE000434CAD41482284A461461A66A461461A39
:103CF00066A45148228428C5D0231F0877BC0F7FB3
:103D00001D00BB2ED51CF587FF5230A109321611BC
:103D10006511511619649141161924155150110558
:103D200015511211251151D4208305133E7C0C002E
:103D3000BC4ED51CF587BD81C22968108306096277
:103D40009C81C619689891861969149246196A105F
:103D5000A206196B0C124724714412472464A8412F
:103D6000482284A4414A1A438481C61861A021A62E
:103D700033843243A842D040210D393EA401BD4DC9
:103D8000D51CF587BD81C2296810730809629C8122
:103D9000862168989186196994A146196A10A2062D
:103DA000196B0C1247247144124724A2A8214E1A01
:103DB0006108728610649C818619689CE99042D0E3
:103DC00028049132942889A50F6100BE51D51CF5B5
:103DD00087B9F25019458C51861A841C43C8318327
:103DE0002C228809658871C4208198240642812884
:103DF00032462471441247247190A108196A109226
:103E0000C828690C110622438481C61062A021547F
:103E100019439581061268C8F1210D00BF28D51CF1
:103E2000F5874B049A6741F2012791820496574126
:103E3000020B2491420111241031E498701053C9EF
:103E4000950F2F00C03ED51C3517B23C04CB141F74
:103E50009C30879C6281051A37C270238C460261B0
:103E6000630C360651641035CA500C35E4CE38C4A4
:103E70009043CC488490440851648C450459E4C371
:103E80006500C13FD51CF5074140D3502B517CB094
:103E9000C21C728A051668DC08C38D301A09848D2D
:103EA00031D818449141D4284331D4903BE3104396
:103EB0000E312311421221449131161164910F9752
:103EC00001C243D51C750A7344D3D22AA12832C833
:103ED0000A46C030879C6281051A37C270238C461F
:103EE0000261630C360651641035CA500C35E4CEBD
:103EF00038C49043CC488490440851648C4504599C
:103F0000E4C36500C342D51CB5210F0981DC210142
:103F1000A940CA073ACC21A7586081C68D30DC0879
:103F2000A39140D818838D411419448D3214430D48
:103F3000B9330E31E41033122124114214196311E4
:103F40004116F9701900C43FD51C751E64A8224A99
:103F50002AA2A4228A1A647C50C4942489249667D5
:103F600039D486186D08B288206B90B1062189A5D6
:103F700086DA21861CCA0C440A49A30C4506516402
:103F800090453E5C06C543D51C351AB1BC2184134F
:103F9000433831841B61BC12879CC5020B346E848C
:103FA000E146186E04C2C6186C0CA2C8206A94A11F
:103FB000186AC89D71882187188248198910A2063D
:103FC000218A8CB1C887CB00C639D51CF587F32C64
:103FD00031D4D071A7A13602692310460261431083
:103FE000364432442433463263104506515B6289BD
:103FF00010924621881482485162182586511F2E3E
:1040000003C731D51CF587078A4BAA9D238C2986C7
:104010009482082149180249A49F2491C482C4298A
:10402000869823CC694A3513C524B1B031064BAE0E
:104030007400C828D51CB521D1C003090D1F800705
:104040004279209407422191BEE88E7748A45F7C94
:104050002094074279207C781000C926D51CB5220F
:10406000EF30E4C807F781501E08E5815048A42FBF
:10407000BAE31D12E9171F08E581501E081F1E0430
:10408000CA2DD51CB50A9240E3D02A82AC41C60A9B
:1040900027A4074279209407422191BEE88E7748F1
:1040A000A45F7C2094074279207C380D00CB2DD56D
:1040B0001C751E65A4320A2AA3A0324A1A65F407A9
:1040C0004279209407422191BEE88E7748A45F7C14
:1040D0002094074279207C380D00CC1BD51CF509B3
:1040E0009344034F1C347C101AEA1A89F4FF8F356D
:1040F000D47D380E00CD18D51CF51AEFB4E3C807EF
:10410000B8A1AE9148FFFF5843DD872701CE1ED5E9
:104110001C75129240D3D22A82A851C60A27A886BB
:10412000BA4622FDFF630D751F8E03CF1ED51C7589
:104130001E65A4320A2AA3A0324A1A65F886BA4636
:1041400022FDFF630D751F8E03D03BD51CF587D371
:104150006AB1D41019E710430E31C590430C39C42D
:1041600010440A4164A442462A64A442215208220F
:1041700085A061C821861C62A8434A396418D4D03E
:1041800052EAC303D157D51CB521F088811A22E128
:10419000A840CA079320520822A51C52CA21C5185C
:1041A000524E21E5145210218584414821810C5240
:1041B0008818831422A842C610A490410229848C36
:1041C000400A21A890720A31A610630A39A59053BB
:1041D0000A41A410440A49E3C36900D241D51C3501
:1041E00017B2C003CB141F14D39462C8087388A1FC
:1041F0001029041142141944914114194491411495
:104200001944914114194491411421438D421029BC
:104210000411431D230C624A35F3E101D342D51C3E
:10422000F50761C0E28E2B507C904C538A2123CC41
:10423000218642A41044085164104506516410457B
:10424000065164104506516410450651840C350A28
:1042500041A410440C758C308829D5CC8707D444F0
:10426000D51C75129240E3922AA2A841C614CD34FF
:10427000A51832C21C6228440A41841045065164C4
:1042800010450651641045065164104506516410EE
:1042900045C850A310440A41C450C708839852CD62
:1042A0007C78D544D51CB52924A414C6716888032C
:1042B000C907D834A51832C21C6228440A418410A8
:1042C0004506516410450651641045065164104579
:1042D0000651641045C850A310440A41C450C70891
:1042E000839852CD7C78D647D51C751964A8224A8C
:1042F0002AA2A4228A1A647C804D538A2123CC21CD
:104300008642A410440851641045065164104506C5
:104310005164104506516410450651840C350A411C
:10432000A410440C758C308829D5CC8707D729D5A3
:104330001CF587DF0C731C81882188909288282BBC
:10434000B5F3CA330EB112882AA2A0420A1A86A473
:1043500080C487BF0400D84DD51CF587F1304932A1
:1043600062A076DA31C21C6228630A31861033C239
:1043700020C408410629439041C8181419831A83A0
:104380009041C6206410310A19448C420609C38C3E
:10439000720A29C610530A394698D321224A225359
:1043A0007C1807D949D51CF5097444034F1C347C8B
:1043B0000048228424424822842442482284244201
:1043C00048228424424822842442482284244248A9
:1043D0002284244248228424424822842442082AF7
:1043E000851C62CC30A7A5C5CE87F300DA48D51C62
:1043F000F51AD0B4E3880C1F109208218910920896
:10440000218910920821891092082189109208218F
:104410008910920821891092082189109208218917
:10442000109208218910824A21871833CC6969B11A
:10443000F3E15100DB4CD51C751AB1BCD3922AA212
:10444000A851C60C8824424822842442482284244D
:10445000424822842442482284244248228424421E
:104460004822842442482284244248228424424808
:104470002284A052C821C60C735A5AEC7C380F0013
:10448000DC4DD51C759952190595515019258D3261
:104490003E90241142122124114212212411421271
:1044A00021241142122124114212212411421221ED
:1044B00024114212212411421221241142122104FA
:1044C00095420E316698D3D262E7C37900DD30D5CC
:1044D0001C350B923CD3CE23317C4088228324525E
:1044E0000822851CCA90430A49849044C8584490C5
:1044F00045C468A89D675E89F4DF871700DE29D56B
:104500001CF587CB24D2C586DC7986986208228583
:10451000205208228520520822851C629E71A72104
:1045200012E97D780700DF46D51CF5874BC5A5B598
:1045300092110591520C39C490430C39C410530C9C
:1045400029E5107110110711910C31A610440A4190
:10455000859044084984904408498410440A1142D3
:104560009842823224A44384F9701E00E034D51CA2
:10457000F5878130472C9148128924327C600E5B8C
:10458000A9A1224C0A88442AB1E3CC33C590421039
:1045900029E494428C294620F38E4B65900FA701A5
:1045A000E133D51CF5870931472CAF402A92193EDB
:1045B0003887ADD450112605442295D871E699620A
:1045C00048218814724A21C614239079C7A532C89D
:1045D00087D300E239D51CF5870521472CEFB811A8
:1045E0000823812C32080B457C300E5BA9A1224C9C
:1045F0000A88442AB1E3CC33C590421029E494429E
:104600008C294620F38E4B65900FA701E334D51C0F
:10461000F587C9F29018C7A1218E0AA47CA81DB6FF
:10462000524345981410895462C799678A2185209E
:1046300052C8298518538C40E61D97CA201F4E0387
:10464000E437D51CF5873BA38C544641651454468A
:1046500049A38C0FAE694A355484490191482576A7
:104660009C79A618520822859C528831C50864DEC0
:1046700071A90CF2E13400E537D51CF5878101CD35
:10468000136238318413623813C707FBB0951A2AB6
:10469000C2A48048A4123BCE3C530C290491424E44
:1046A00029C498620432EFB85406F9701A00E63C47
:1046B000D51CF5873F4F08392898F2802024A03078
:1046C0004A28840C45C850848CF240200F88F1C0E1
:1046D0001065904408498490444821611471C418BD
:1046E0000F0C72C431A5900FA701E72AD51CF587DE
:1046F0007FC234A5DA31E294728621481812E94962
:1047000012CB11E888825A5ACC4431492C4D10C141
:1047100092331C00E837D51CF5878130472C91482F
:10472000128924327C604C538AA522CC21869C813C
:1047300048218894074279209407422191C41209A4
:104740000AC908739A52CD7C380F00E935D51CF59B
:10475000878940472CAF402A12293E38A629C552E6
:1047600011E61043CE40A41044CA03A13C10CA0372
:10477000A19048628904856484394DA9663E9C07EE
:10478000EA3AD51CF5870131472CEF34D486208BCB
:104790000CB204111F10D39462A9087388216720FA
:1047A000520822E581501E08E581504824B1448218
:1047B0004232C29CA654331FCE03EB38D51CF5877A
:1047C0003BA38C5446416514544649A38C0FAE69F3
:1047D0004AB1544639E44C69149246792094074210
:1047E0007920141289249120818C30A729D5CC8777
:1047F000F300EC1CD51CF58790882456914812C70D
:104800000C1F14D4B048FFD758E23E3C0900ED1B02
:10481000D51CF58798902412486081248E0F326A47
:1048200058A4FF6B2C711F9E04EE20D51CF58781C8
:10483000308724D038C448206C0CC242111F04D4E5
:10484000B048FFD758E23E1C07EF1FD51CF5873B49
:10485000830C5544494594544451838C0F2A6A581B
:10486000A4FF6B2C711F8E03F039D51CF587C9018D
:104870000F094CB184D6526B0C22094B8AA1768C5D
:1048800030A62AE41442122124114212212411429A
:1048900012212491420E31C5906382494C25673E16
:1048A0003CF140D51CF587C5F2CE10A82112500A64
:1048B000A57C289151120908B9834239A610530CDE
:1048C0007588218718728821871872882187187245
:1048D000882187187288218718728821877CB80DF3
:1048E00000F239D51CF587BC902356914812890CEB
:1048F0001F9CE2D262C804734A29861C5248228453
:10490000244248228424424822842452C821A618E2
:10491000724C3089A9E4CA871700F339D51CF58792
:104920000531472C90820592193E40C5A5C59009D6
:10493000E694520C39A49044084984904408498470
:1049400090440849A490434C31E498601253C995AF
:104950000F2F00F43FD51CF5870121472CEFB8112C
:104960000823812C32080B457C408A4B8B2113CCC9
:1049700029A51872482189109208218910920821CE
:104980008910924821879862C831C124A6922B1FB2
:104990005E00F539D51CF587C5F29010C89D31CE63
:1049A0002B1F72C5A5C59009E694520C39A49044FA
:1049B000084984904408498490440849A490434C91
:1049C00031E498601253C9950F2F00F63DD51CF5C0
:1049D0008733A38C5446416514544649A38C0F7009
:1049E000716931648239A514430E292411421221C0
:1049F00024114212212411421229E410530C3926A9
:104A000098C45472E5C30B00F71AD51CF5871F161E
:104A1000924422C507F799EF434E481289141F7E2E
:104A20001700F83FD51CF587DF1693ACA45662C873
:104A30000473CA388690114621640842081982100E
:104A400032C620840832082162102A8C42CA0883A8
:104A5000106348392698C4D052239445A4F8300EE8
:104A600000F93FD51CF58792882512492291448A86
:104A7000193E10E410430E31E410430E31E41043AC
:104A80000E31E410430E31E410430E31E410430EB6
:104A900031E410534A39269CE3505345900F2F02BE
:104AA000FA3DD51CF58796980492482025C70797AC
:104AB0001C62C821861C62C821861C62C821861C13
:104AC00062C821861C62C821861C62C821861C62BD
:104AD0004A29C784731C6AAA08F2E14500FB44D541
:104AE0001CF5870121092CD0B811082362B03108C8
:104AF0000B257C00C821861C62C821861C62C82147
:104B0000861C62C821861C62C821861C62C8218658
:104B10001C62C821A694724C38C7A1A68A201F6EB9
:104B200003FC42D51CF58733A38C544641651454CD
:104B30004649A38C0F2639C490430C39C490430CCA
:104B400039C490430C39C490430C39C490430C3998
:104B5000C490430C39C494528E09E738D45411E4FC
:104B6000C36D00FD43D51CF58798902412486081E1
:104B7000248E0F2E498410440A41C490430C3903FB
:104B80000D431029430D42141944913118098491A1
:104B900030DC08C39D57608124522B10B286282B2D
:104BA00031F4CA071800FE35D51CF5872324D24FEF
:104BB00014D5903B4718530C754A2188148248211C
:104BC000881482482188148248218798628839C2D3
:104BD00018771A22A22812E97D5000FF48D51CF54B
:104BE000873B830C5544494594544451838C0F268C
:104BF00049A310440C39C49033D030049142102999
:104C0000430D421419648D311809A48D30DC08C39A
:104C10009D576089438E489620838D505662E89553
:104C20000F060000000004FFFF000012020504054B
:104C300006010406182700F81EF81EF70000000001
:104C40000308200BF80CF887FFFFFFCF002A31F88C
:104C50000CF8870F964928D582216D105244318275
:104C60008C421E28E481729C331141F48820AD8867
:104C7000B20A29A998828A2969A0F1E19F032B1B16
:104C8000F80CF88777CBAC6F3D50C803853C50C813
:104C9000038595597F1FFE49002C18F80CF887FFF3
:104CA000FF6B641A79E225CD2C935032293A6C704F
:104CB000002D16F80CF887FFFA03C33C30CC03C371
:104CC0003C303EFCFF2D002E12F80CF887FFFF73DE
:104CD000831679E2250B1D1F1E2F2FF80C781C95CB
:104CE000CC32C9AC64994596596499459659269930
:104CF00065925926996592592699952CB3C8328B9D
:104D00002CB34C62C5876700304DF80CF807DA44C5
:104D1000E4D872CA08938A29A89872CA31A61C637B
:104D2000C839A598444A21A190528628A410220A85
:104D300029838C42CA18A412A31452022985245331
:104D4000CA39A598538C39B5634A496698E41673F5
:104D500029960FDF033119F80CF8079C480391538B
:104D60008CB5124A13A4CCFAFFFF3E7C0F00322F01
:104D7000F80CF807DA40C59A7AA914732A34524914
:104D80002195599B64165949134D2CB2DE24B3C8A2
:104D90000786796098078679607CF812003334F8CA
:104DA0000CF807DA40C55C7A8A14A3C429B4CC3263
:104DB000C92CD134E5D2536EC9330B2DB396422A98
:104DC00048A482C629A890731E08AAB1F5CE87EF21
:104DD000013435F80CF88700999534F182E82547BD
:104DE0004271249446446164144646598414454AE9
:104DF00051A494444C410F14F240210F14F2407915
:104E000065D6EFC3C7003538F80CF807F501711EF9
:104E100010E701711E10A7CCBAC998532F3D10900E
:104E200021069163524885125A660D0545CE48C544
:104E30009463CC21063D10925BEB9D0FDF0336425D
:104E4000F80CF807DC40C59A7AE81092CA11A9CC90
:104E500032C92CC2AC971E08E80171D030C79C62E1
:104E60000A2AA624624A2AA5A4524A2AA5A462486C
:104E700022A73AC6146486514EB5A6A0F9F03900AF
:104E8000372DF80CF807F481611E18E681611E18B1
:104E9000B2CC22CB2CB2CC32C9AC6499659259C940
:104EA00032CB24B3926556B2CCEAC337013840F80E
:104EB0000CF807DB40C59A7AC90C938A29A73E549F
:104EC0000C49A514654461CB25B75811469552503D
:104ED00039E590444C49A594544A49A594548A39DB
:104EE000C69862CE032139B6DEF9F039003941F8AF
:104EF0000CF807DA40D5D872C910838A29A7A062B6
:104F00000A2AA624624A22A624624A2AA61C630C04
:104F100041E701711E102985B28C20949A550AA888
:104F2000A4614C22C424A71A5BD07CF820003A1A52
:104F3000F80CF8873F3D6891275EB2D0F1E1DB8342
:104F40001679E2250B1D1F1E00000004FFFF000064
:104F5000592100085D2100088F1C00081815AF19A1
:104F6000FF1815AE19FF1815A115C819FF1815A0BF
:104F700015C019FF1815A115C019FF1815A015C8DF
:104F800019FF1815AE15D5168015A8163F15D3169E
:104F9000001540158D16141520160015A115C815FD
:104FA000DA1612158116CF15D916F115DB16401534
:104FB0002E15A415A619FF1815AE15D5168015A81F
:104FC000163F15D316001540158D16141520160022
:104FD00015A115C815DA1612158116EF15D916A1E7
:104FE00015DB1600152E15A415A619FF1815AE15FC
:104FF000D5168015A8163F15D316001540158D1629
:10500000141520160015A115C815DA1602158116FB
:10501000CF15D916F115DB1640152E15A415A619B6
:10502000FF1815AE15A415D5165015A8163F15D3A3
:105030001600154015AD168B15D9162215DB163541
:105040001532158116FF15A615DA161219FF181557
:10505000AE15D5168015A8163F15D31600154015A8
:105060008D16141520160015A115C015DA16121587
:105070008116CF15D916F115DB1640152E15A4157E
:10508000A619FF000001140A6464323200127A008B
:105090000004289610080000800040000001140A57
:1050A0006464323200093D000304289610080202AD
:1050B00080004000D45000080000002010000000D4
:1050C000C4010008E450000810000020680F000030
:1050D000E00100080024F4000000000000000000CF
:0450E00000000000CC
:040000050800018965
:00000001FF
